{
  "_format": "hh-sol-artifact-1",
  "contractName": "ERC1155Mock",
  "sourceName": "contracts/mocks/ERC1155Mock.sol",
  "abi": [
    {
      "inputs": [],
      "stateMutability": "nonpayable",
      "type": "constructor"
    },
    {
      "anonymous": false,
      "inputs": [
        {
          "indexed": true,
          "internalType": "address",
          "name": "account",
          "type": "address"
        },
        {
          "indexed": true,
          "internalType": "address",
          "name": "operator",
          "type": "address"
        },
        {
          "indexed": false,
          "internalType": "bool",
          "name": "approved",
          "type": "bool"
        }
      ],
      "name": "ApprovalForAll",
      "type": "event"
    },
    {
      "anonymous": false,
      "inputs": [
        {
          "indexed": true,
          "internalType": "address",
          "name": "operator",
          "type": "address"
        },
        {
          "indexed": true,
          "internalType": "address",
          "name": "from",
          "type": "address"
        },
        {
          "indexed": true,
          "internalType": "address",
          "name": "to",
          "type": "address"
        },
        {
          "indexed": false,
          "internalType": "uint256[]",
          "name": "ids",
          "type": "uint256[]"
        },
        {
          "indexed": false,
          "internalType": "uint256[]",
          "name": "values",
          "type": "uint256[]"
        }
      ],
      "name": "TransferBatch",
      "type": "event"
    },
    {
      "anonymous": false,
      "inputs": [
        {
          "indexed": true,
          "internalType": "address",
          "name": "operator",
          "type": "address"
        },
        {
          "indexed": true,
          "internalType": "address",
          "name": "from",
          "type": "address"
        },
        {
          "indexed": true,
          "internalType": "address",
          "name": "to",
          "type": "address"
        },
        {
          "indexed": false,
          "internalType": "uint256",
          "name": "id",
          "type": "uint256"
        },
        {
          "indexed": false,
          "internalType": "uint256",
          "name": "value",
          "type": "uint256"
        }
      ],
      "name": "TransferSingle",
      "type": "event"
    },
    {
      "anonymous": false,
      "inputs": [
        {
          "indexed": false,
          "internalType": "string",
          "name": "value",
          "type": "string"
        },
        {
          "indexed": true,
          "internalType": "uint256",
          "name": "id",
          "type": "uint256"
        }
      ],
      "name": "URI",
      "type": "event"
    },
    {
      "inputs": [
        {
          "internalType": "address",
          "name": "account",
          "type": "address"
        },
        {
          "internalType": "uint256",
          "name": "id",
          "type": "uint256"
        }
      ],
      "name": "balanceOf",
      "outputs": [
        {
          "internalType": "uint256",
          "name": "",
          "type": "uint256"
        }
      ],
      "stateMutability": "view",
      "type": "function"
    },
    {
      "inputs": [
        {
          "internalType": "address[]",
          "name": "accounts",
          "type": "address[]"
        },
        {
          "internalType": "uint256[]",
          "name": "ids",
          "type": "uint256[]"
        }
      ],
      "name": "balanceOfBatch",
      "outputs": [
        {
          "internalType": "uint256[]",
          "name": "",
          "type": "uint256[]"
        }
      ],
      "stateMutability": "view",
      "type": "function"
    },
    {
      "inputs": [
        {
          "internalType": "address",
          "name": "account",
          "type": "address"
        },
        {
          "internalType": "address",
          "name": "operator",
          "type": "address"
        }
      ],
      "name": "isApprovedForAll",
      "outputs": [
        {
          "internalType": "bool",
          "name": "",
          "type": "bool"
        }
      ],
      "stateMutability": "view",
      "type": "function"
    },
    {
      "inputs": [
        {
          "internalType": "address",
          "name": "account",
          "type": "address"
        },
        {
          "internalType": "uint256",
          "name": "id",
          "type": "uint256"
        },
        {
          "internalType": "uint256",
          "name": "amount",
          "type": "uint256"
        },
        {
          "internalType": "bytes",
          "name": "data",
          "type": "bytes"
        }
      ],
      "name": "mint",
      "outputs": [],
      "stateMutability": "nonpayable",
      "type": "function"
    },
    {
      "inputs": [
        {
          "internalType": "address",
          "name": "to",
          "type": "address"
        },
        {
          "internalType": "uint256[]",
          "name": "ids",
          "type": "uint256[]"
        },
        {
          "internalType": "uint256[]",
          "name": "amounts",
          "type": "uint256[]"
        },
        {
          "internalType": "bytes",
          "name": "data",
          "type": "bytes"
        }
      ],
      "name": "mintBatch",
      "outputs": [],
      "stateMutability": "nonpayable",
      "type": "function"
    },
    {
      "inputs": [
        {
          "internalType": "address",
          "name": "from",
          "type": "address"
        },
        {
          "internalType": "address",
          "name": "to",
          "type": "address"
        },
        {
          "internalType": "uint256[]",
          "name": "ids",
          "type": "uint256[]"
        },
        {
          "internalType": "uint256[]",
          "name": "amounts",
          "type": "uint256[]"
        },
        {
          "internalType": "bytes",
          "name": "data",
          "type": "bytes"
        }
      ],
      "name": "safeBatchTransferFrom",
      "outputs": [],
      "stateMutability": "nonpayable",
      "type": "function"
    },
    {
      "inputs": [
        {
          "internalType": "address",
          "name": "from",
          "type": "address"
        },
        {
          "internalType": "address",
          "name": "to",
          "type": "address"
        },
        {
          "internalType": "uint256",
          "name": "id",
          "type": "uint256"
        },
        {
          "internalType": "uint256",
          "name": "amount",
          "type": "uint256"
        },
        {
          "internalType": "bytes",
          "name": "data",
          "type": "bytes"
        }
      ],
      "name": "safeTransferFrom",
      "outputs": [],
      "stateMutability": "nonpayable",
      "type": "function"
    },
    {
      "inputs": [
        {
          "internalType": "address",
          "name": "operator",
          "type": "address"
        },
        {
          "internalType": "bool",
          "name": "approved",
          "type": "bool"
        }
      ],
      "name": "setApprovalForAll",
      "outputs": [],
      "stateMutability": "nonpayable",
      "type": "function"
    },
    {
      "inputs": [
        {
          "internalType": "string",
          "name": "newuri",
          "type": "string"
        }
      ],
      "name": "setURI",
      "outputs": [],
      "stateMutability": "nonpayable",
      "type": "function"
    },
    {
      "inputs": [
        {
          "internalType": "bytes4",
          "name": "interfaceId",
          "type": "bytes4"
        }
      ],
      "name": "supportsInterface",
      "outputs": [
        {
          "internalType": "bool",
          "name": "",
          "type": "bool"
        }
      ],
      "stateMutability": "view",
      "type": "function"
    },
    {
      "inputs": [
        {
          "internalType": "uint256",
          "name": "",
          "type": "uint256"
        }
      ],
      "name": "uri",
      "outputs": [
        {
          "internalType": "string",
          "name": "",
          "type": "string"
        }
      ],
      "stateMutability": "view",
      "type": "function"
    }
  ],
  "bytecode": "0x60806040523480156200001157600080fd5b506040805160208101909152600081526200002c8162000033565b50620001b6565b6002620000418282620000ea565b5050565b634e487b7160e01b600052604160045260246000fd5b600181811c908216806200007057607f821691505b6020821081036200009157634e487b7160e01b600052602260045260246000fd5b50919050565b601f821115620000e557600081815260208120601f850160051c81016020861015620000c05750805b601f850160051c820191505b81811015620000e157828155600101620000cc565b5050505b505050565b81516001600160401b0381111562000106576200010662000045565b6200011e816200011784546200005b565b8462000097565b602080601f8311600181146200015657600084156200013d5750858301515b600019600386901b1c1916600185901b178555620000e1565b600085815260208120601f198616915b82811015620001875788860151825594840194600190910190840162000166565b5085821015620001a65787850151600019600388901b60f8161c191681555b5050505050600190811b01905550565b6121e080620001c66000396000f3fe608060405234801561001057600080fd5b50600436106100c85760003560e01c80632eb2c2d611610081578063a22cb4651161005b578063a22cb465146101a4578063e985e9c5146101b7578063f242432a1461020057600080fd5b80632eb2c2d61461015e5780634e1273f414610171578063731133e91461019157600080fd5b806302fe5305116100b257806302fe5305146101165780630e89341c1461012b5780631f7fdffa1461014b57600080fd5b8062fdd58e146100cd57806301ffc9a7146100f3575b600080fd5b6100e06100db3660046116f2565b610213565b6040519081526020015b60405180910390f35b61010661010136600461174a565b6102f3565b60405190151581526020016100ea565b610129610124366004611864565b6103d6565b005b61013e6101393660046118b5565b6103e2565b6040516100ea9190611932565b6101296101593660046119fa565b610476565b61012961016c366004611a93565b610488565b61018461017f366004611b3d565b610551565b6040516100ea9190611c43565b61012961019f366004611c56565b6106a9565b6101296101b2366004611cab565b6106b5565b6101066101c5366004611ce7565b73ffffffffffffffffffffffffffffffffffffffff918216600090815260016020908152604080832093909416825291909152205460ff1690565b61012961020e366004611d1a565b6106c4565b600073ffffffffffffffffffffffffffffffffffffffff83166102bd576040517f08c379a000000000000000000000000000000000000000000000000000000000815260206004820152602a60248201527f455243313135353a2061646472657373207a65726f206973206e6f742061207660448201527f616c6964206f776e65720000000000000000000000000000000000000000000060648201526084015b60405180910390fd5b5060008181526020818152604080832073ffffffffffffffffffffffffffffffffffffffff861684529091529020545b92915050565b60007fffffffff0000000000000000000000000000000000000000000000000000000082167fd9b67a2600000000000000000000000000000000000000000000000000000000148061038657507fffffffff0000000000000000000000000000000000000000000000000000000082167f0e89341c00000000000000000000000000000000000000000000000000000000145b806102ed57507f01ffc9a7000000000000000000000000000000000000000000000000000000007fffffffff000000000000000000000000000000000000000000000000000000008316146102ed565b6103df81610786565b50565b6060600280546103f190611d7f565b80601f016020809104026020016040519081016040528092919081815260200182805461041d90611d7f565b801561046a5780601f1061043f5761010080835404028352916020019161046a565b820191906000526020600020905b81548152906001019060200180831161044d57829003601f168201915b50505050509050919050565b61048284848484610792565b50505050565b73ffffffffffffffffffffffffffffffffffffffff85163314806104b157506104b185336101c5565b61053d576040517f08c379a000000000000000000000000000000000000000000000000000000000815260206004820152602e60248201527f455243313135353a2063616c6c6572206973206e6f7420746f6b656e206f776e60448201527f6572206f7220617070726f76656400000000000000000000000000000000000060648201526084016102b4565b61054a8585858585610a0b565b5050505050565b606081518351146105e4576040517f08c379a000000000000000000000000000000000000000000000000000000000815260206004820152602960248201527f455243313135353a206163636f756e747320616e6420696473206c656e67746860448201527f206d69736d61746368000000000000000000000000000000000000000000000060648201526084016102b4565b6000835167ffffffffffffffff8111156106005761060061176e565b604051908082528060200260200182016040528015610629578160200160208202803683370190505b50905060005b84518110156106a15761067485828151811061064d5761064d611dd2565b602002602001015185838151811061066757610667611dd2565b6020026020010151610213565b82828151811061068657610686611dd2565b602090810291909101015261069a81611e30565b905061062f565b509392505050565b61048284848484610d45565b6106c0338383610eb6565b5050565b73ffffffffffffffffffffffffffffffffffffffff85163314806106ed57506106ed85336101c5565b610779576040517f08c379a000000000000000000000000000000000000000000000000000000000815260206004820152602e60248201527f455243313135353a2063616c6c6572206973206e6f7420746f6b656e206f776e60448201527f6572206f7220617070726f76656400000000000000000000000000000000000060648201526084016102b4565b61054a8585858585611009565b60026106c08282611eb3565b73ffffffffffffffffffffffffffffffffffffffff8416610835576040517f08c379a000000000000000000000000000000000000000000000000000000000815260206004820152602160248201527f455243313135353a206d696e7420746f20746865207a65726f2061646472657360448201527f730000000000000000000000000000000000000000000000000000000000000060648201526084016102b4565b81518351146108c6576040517f08c379a000000000000000000000000000000000000000000000000000000000815260206004820152602860248201527f455243313135353a2069647320616e6420616d6f756e7473206c656e6774682060448201527f6d69736d6174636800000000000000000000000000000000000000000000000060648201526084016102b4565b3360005b845181101561097c578381815181106108e5576108e5611dd2565b602002602001015160008087848151811061090257610902611dd2565b6020026020010151815260200190815260200160002060008873ffffffffffffffffffffffffffffffffffffffff1673ffffffffffffffffffffffffffffffffffffffff16815260200190815260200160002060008282546109649190611fcd565b9091555081905061097481611e30565b9150506108ca565b508473ffffffffffffffffffffffffffffffffffffffff16600073ffffffffffffffffffffffffffffffffffffffff168273ffffffffffffffffffffffffffffffffffffffff167f4a39dc06d4c0dbc64b70af90fd698a233a518aa5d07e595d983b8c0526c8f7fb87876040516109f4929190611fe0565b60405180910390a461054a81600087878787611247565b8151835114610a9c576040517f08c379a000000000000000000000000000000000000000000000000000000000815260206004820152602860248201527f455243313135353a2069647320616e6420616d6f756e7473206c656e6774682060448201527f6d69736d6174636800000000000000000000000000000000000000000000000060648201526084016102b4565b73ffffffffffffffffffffffffffffffffffffffff8416610b3f576040517f08c379a000000000000000000000000000000000000000000000000000000000815260206004820152602560248201527f455243313135353a207472616e7366657220746f20746865207a65726f20616460448201527f647265737300000000000000000000000000000000000000000000000000000060648201526084016102b4565b3360005b8451811015610cb0576000858281518110610b6057610b60611dd2565b602002602001015190506000858381518110610b7e57610b7e611dd2565b6020908102919091018101516000848152808352604080822073ffffffffffffffffffffffffffffffffffffffff8e168352909352919091205490915081811015610c4b576040517f08c379a000000000000000000000000000000000000000000000000000000000815260206004820152602a60248201527f455243313135353a20696e73756666696369656e742062616c616e636520666f60448201527f72207472616e736665720000000000000000000000000000000000000000000060648201526084016102b4565b60008381526020818152604080832073ffffffffffffffffffffffffffffffffffffffff8e8116855292528083208585039055908b16825281208054849290610c95908490611fcd565b9250508190555050505080610ca990611e30565b9050610b43565b508473ffffffffffffffffffffffffffffffffffffffff168673ffffffffffffffffffffffffffffffffffffffff168273ffffffffffffffffffffffffffffffffffffffff167f4a39dc06d4c0dbc64b70af90fd698a233a518aa5d07e595d983b8c0526c8f7fb8787604051610d27929190611fe0565b60405180910390a4610d3d818787878787611247565b505050505050565b73ffffffffffffffffffffffffffffffffffffffff8416610de8576040517f08c379a000000000000000000000000000000000000000000000000000000000815260206004820152602160248201527f455243313135353a206d696e7420746f20746865207a65726f2061646472657360448201527f730000000000000000000000000000000000000000000000000000000000000060648201526084016102b4565b336000610df4856114d1565b90506000610e01856114d1565b905060008681526020818152604080832073ffffffffffffffffffffffffffffffffffffffff8b16845290915281208054879290610e40908490611fcd565b9091555050604080518781526020810187905273ffffffffffffffffffffffffffffffffffffffff808a1692600092918716917fc3d58168c5ae7397731d063d5bbf3d657854427343f4c083240f7aacaa2d0f62910160405180910390a4610ead8360008989898961151c565b50505050505050565b8173ffffffffffffffffffffffffffffffffffffffff168373ffffffffffffffffffffffffffffffffffffffff1603610f71576040517f08c379a000000000000000000000000000000000000000000000000000000000815260206004820152602960248201527f455243313135353a2073657474696e6720617070726f76616c2073746174757360448201527f20666f722073656c66000000000000000000000000000000000000000000000060648201526084016102b4565b73ffffffffffffffffffffffffffffffffffffffff83811660008181526001602090815260408083209487168084529482529182902080547fffffffffffffffffffffffffffffffffffffffffffffffffffffffffffffff001686151590811790915591519182527f17307eab39ab6107e8899845ad3d59bd9653f200f220920489ca2b5937696c31910160405180910390a3505050565b73ffffffffffffffffffffffffffffffffffffffff84166110ac576040517f08c379a000000000000000000000000000000000000000000000000000000000815260206004820152602560248201527f455243313135353a207472616e7366657220746f20746865207a65726f20616460448201527f647265737300000000000000000000000000000000000000000000000000000060648201526084016102b4565b3360006110b8856114d1565b905060006110c5856114d1565b905060008681526020818152604080832073ffffffffffffffffffffffffffffffffffffffff8c16845290915290205485811015611185576040517f08c379a000000000000000000000000000000000000000000000000000000000815260206004820152602a60248201527f455243313135353a20696e73756666696369656e742062616c616e636520666f60448201527f72207472616e736665720000000000000000000000000000000000000000000060648201526084016102b4565b60008781526020818152604080832073ffffffffffffffffffffffffffffffffffffffff8d8116855292528083208985039055908a168252812080548892906111cf908490611fcd565b9091555050604080518881526020810188905273ffffffffffffffffffffffffffffffffffffffff808b16928c821692918816917fc3d58168c5ae7397731d063d5bbf3d657854427343f4c083240f7aacaa2d0f62910160405180910390a461123c848a8a8a8a8a61151c565b505050505050505050565b73ffffffffffffffffffffffffffffffffffffffff84163b15610d3d576040517fbc197c8100000000000000000000000000000000000000000000000000000000815273ffffffffffffffffffffffffffffffffffffffff85169063bc197c81906112be908990899088908890889060040161200e565b6020604051808303816000875af1925050508015611317575060408051601f3d9081017fffffffffffffffffffffffffffffffffffffffffffffffffffffffffffffffe016820190925261131491810190612079565b60015b61140057611323612096565b806308c379a00361137657506113376120b2565b806113425750611378565b806040517f08c379a00000000000000000000000000000000000000000000000000000000081526004016102b49190611932565b505b6040517f08c379a000000000000000000000000000000000000000000000000000000000815260206004820152603460248201527f455243313135353a207472616e7366657220746f206e6f6e2d4552433131353560448201527f526563656976657220696d706c656d656e74657200000000000000000000000060648201526084016102b4565b7fffffffff0000000000000000000000000000000000000000000000000000000081167fbc197c810000000000000000000000000000000000000000000000000000000014610ead576040517f08c379a000000000000000000000000000000000000000000000000000000000815260206004820152602860248201527f455243313135353a204552433131353552656365697665722072656a6563746560448201527f6420746f6b656e7300000000000000000000000000000000000000000000000060648201526084016102b4565b6040805160018082528183019092526060916000919060208083019080368337019050509050828160008151811061150b5761150b611dd2565b602090810291909101015292915050565b73ffffffffffffffffffffffffffffffffffffffff84163b15610d3d576040517ff23a6e6100000000000000000000000000000000000000000000000000000000815273ffffffffffffffffffffffffffffffffffffffff85169063f23a6e6190611593908990899088908890889060040161215a565b6020604051808303816000875af19250505080156115ec575060408051601f3d9081017fffffffffffffffffffffffffffffffffffffffffffffffffffffffffffffffe01682019092526115e991810190612079565b60015b6115f857611323612096565b7fffffffff0000000000000000000000000000000000000000000000000000000081167ff23a6e610000000000000000000000000000000000000000000000000000000014610ead576040517f08c379a000000000000000000000000000000000000000000000000000000000815260206004820152602860248201527f455243313135353a204552433131353552656365697665722072656a6563746560448201527f6420746f6b656e7300000000000000000000000000000000000000000000000060648201526084016102b4565b803573ffffffffffffffffffffffffffffffffffffffff811681146116ed57600080fd5b919050565b6000806040838503121561170557600080fd5b61170e836116c9565b946020939093013593505050565b7fffffffff00000000000000000000000000000000000000000000000000000000811681146103df57600080fd5b60006020828403121561175c57600080fd5b81356117678161171c565b9392505050565b7f4e487b7100000000000000000000000000000000000000000000000000000000600052604160045260246000fd5b7fffffffffffffffffffffffffffffffffffffffffffffffffffffffffffffffe0601f830116810181811067ffffffffffffffff821117156117e1576117e161176e565b6040525050565b600067ffffffffffffffff8311156118025761180261176e565b60405161183760207fffffffffffffffffffffffffffffffffffffffffffffffffffffffffffffffe0601f870116018261179d565b80915083815284848401111561184c57600080fd5b83836020830137600060208583010152509392505050565b60006020828403121561187657600080fd5b813567ffffffffffffffff81111561188d57600080fd5b8201601f8101841361189e57600080fd5b6118ad848235602084016117e8565b949350505050565b6000602082840312156118c757600080fd5b5035919050565b6000815180845260005b818110156118f4576020818501810151868301820152016118d8565b5060006020828601015260207fffffffffffffffffffffffffffffffffffffffffffffffffffffffffffffffe0601f83011685010191505092915050565b60208152600061176760208301846118ce565b600067ffffffffffffffff82111561195f5761195f61176e565b5060051b60200190565b600082601f83011261197a57600080fd5b8135602061198782611945565b604051611994828261179d565b83815260059390931b85018201928281019150868411156119b457600080fd5b8286015b848110156119cf57803583529183019183016119b8565b509695505050505050565b600082601f8301126119eb57600080fd5b611767838335602085016117e8565b60008060008060808587031215611a1057600080fd5b611a19856116c9565b9350602085013567ffffffffffffffff80821115611a3657600080fd5b611a4288838901611969565b94506040870135915080821115611a5857600080fd5b611a6488838901611969565b93506060870135915080821115611a7a57600080fd5b50611a87878288016119da565b91505092959194509250565b600080600080600060a08688031215611aab57600080fd5b611ab4866116c9565b9450611ac2602087016116c9565b9350604086013567ffffffffffffffff80821115611adf57600080fd5b611aeb89838a01611969565b94506060880135915080821115611b0157600080fd5b611b0d89838a01611969565b93506080880135915080821115611b2357600080fd5b50611b30888289016119da565b9150509295509295909350565b60008060408385031215611b5057600080fd5b823567ffffffffffffffff80821115611b6857600080fd5b818501915085601f830112611b7c57600080fd5b81356020611b8982611945565b604051611b96828261179d565b83815260059390931b8501820192828101915089841115611bb657600080fd5b948201945b83861015611bdb57611bcc866116c9565b82529482019490820190611bbb565b96505086013592505080821115611bf157600080fd5b50611bfe85828601611969565b9150509250929050565b600081518084526020808501945080840160005b83811015611c3857815187529582019590820190600101611c1c565b509495945050505050565b6020815260006117676020830184611c08565b60008060008060808587031215611c6c57600080fd5b611c75856116c9565b93506020850135925060408501359150606085013567ffffffffffffffff811115611c9f57600080fd5b611a87878288016119da565b60008060408385031215611cbe57600080fd5b611cc7836116c9565b915060208301358015158114611cdc57600080fd5b809150509250929050565b60008060408385031215611cfa57600080fd5b611d03836116c9565b9150611d11602084016116c9565b90509250929050565b600080600080600060a08688031215611d3257600080fd5b611d3b866116c9565b9450611d49602087016116c9565b93506040860135925060608601359150608086013567ffffffffffffffff811115611d7357600080fd5b611b30888289016119da565b600181811c90821680611d9357607f821691505b602082108103611dcc577f4e487b7100000000000000000000000000000000000000000000000000000000600052602260045260246000fd5b50919050565b7f4e487b7100000000000000000000000000000000000000000000000000000000600052603260045260246000fd5b7f4e487b7100000000000000000000000000000000000000000000000000000000600052601160045260246000fd5b60007fffffffffffffffffffffffffffffffffffffffffffffffffffffffffffffffff8203611e6157611e61611e01565b5060010190565b601f821115611eae57600081815260208120601f850160051c81016020861015611e8f5750805b601f850160051c820191505b81811015610d3d57828155600101611e9b565b505050565b815167ffffffffffffffff811115611ecd57611ecd61176e565b611ee181611edb8454611d7f565b84611e68565b602080601f831160018114611f345760008415611efe5750858301515b7fffffffffffffffffffffffffffffffffffffffffffffffffffffffffffffffff600386901b1c1916600185901b178555610d3d565b6000858152602081207fffffffffffffffffffffffffffffffffffffffffffffffffffffffffffffffe08616915b82811015611f8157888601518255948401946001909101908401611f62565b5085821015611fbd57878501517fffffffffffffffffffffffffffffffffffffffffffffffffffffffffffffffff600388901b60f8161c191681555b5050505050600190811b01905550565b808201808211156102ed576102ed611e01565b604081526000611ff36040830185611c08565b82810360208401526120058185611c08565b95945050505050565b600073ffffffffffffffffffffffffffffffffffffffff808816835280871660208401525060a0604083015261204760a0830186611c08565b82810360608401526120598186611c08565b9050828103608084015261206d81856118ce565b98975050505050505050565b60006020828403121561208b57600080fd5b81516117678161171c565b600060033d11156120af5760046000803e5060005160e01c5b90565b600060443d10156120c05790565b6040517ffffffffffffffffffffffffffffffffffffffffffffffffffffffffffffffffc803d016004833e81513d67ffffffffffffffff816024840111818411171561210e57505050505090565b82850191508151818111156121265750505050505090565b843d87010160208285010111156121405750505050505090565b61214f6020828601018761179d565b509095945050505050565b600073ffffffffffffffffffffffffffffffffffffffff808816835280871660208401525084604083015283606083015260a0608083015261219f60a08301846118ce565b97965050505050505056fea2646970667358221220f662a45ab1ffbb0d4d59fde0a90f989d14bbd39f2e5014caf48c9e4a771e475164736f6c63430008110033",
  "linkReferences": {},
  "deployedLinkReferences": {}
}