{
  "address": "0x91da0Ba9cA8Ec7F6c2885F3Ffa12D8EAF6fAC886",
  "abi": [
    {
      "inputs": [],
      "stateMutability": "nonpayable",
      "type": "constructor"
    },
    {
      "anonymous": false,
      "inputs": [
        {
          "indexed": true,
          "internalType": "address",
          "name": "_operatorAddress",
          "type": "address"
        },
        {
          "indexed": false,
          "internalType": "string",
          "name": "_battleId",
          "type": "string"
        },
        {
          "indexed": false,
          "internalType": "string[]",
          "name": "_bossIds",
          "type": "string[]"
        },
        {
          "indexed": false,
          "internalType": "uint256",
          "name": "_startTime",
          "type": "uint256"
        },
        {
          "indexed": false,
          "internalType": "uint256",
          "name": "_endTime",
          "type": "uint256"
        }
      ],
      "name": "CreateBattle",
      "type": "event"
    },
    {
      "anonymous": false,
      "inputs": [
        {
          "indexed": true,
          "internalType": "address",
          "name": "_operatorAddress",
          "type": "address"
        },
        {
          "indexed": false,
          "internalType": "string",
          "name": "_bossId",
          "type": "string"
        },
        {
          "indexed": false,
          "internalType": "string",
          "name": "_name",
          "type": "string"
        },
        {
          "indexed": false,
          "internalType": "uint256",
          "name": "_maxHp",
          "type": "uint256"
        },
        {
          "indexed": false,
          "internalType": "string",
          "name": "_uri",
          "type": "string"
        }
      ],
      "name": "CreateBoss",
      "type": "event"
    },
    {
      "anonymous": false,
      "inputs": [
        {
          "indexed": false,
          "internalType": "uint8",
          "name": "version",
          "type": "uint8"
        }
      ],
      "name": "Initialized",
      "type": "event"
    },
    {
      "anonymous": false,
      "inputs": [
        {
          "indexed": true,
          "internalType": "address",
          "name": "_operator",
          "type": "address"
        },
        {
          "indexed": false,
          "internalType": "string",
          "name": "_battleId",
          "type": "string"
        },
        {
          "indexed": false,
          "internalType": "bool",
          "name": "_status",
          "type": "bool"
        }
      ],
      "name": "SetBattleStatus",
      "type": "event"
    },
    {
      "anonymous": false,
      "inputs": [
        {
          "indexed": true,
          "internalType": "address",
          "name": "_operator",
          "type": "address"
        },
        {
          "indexed": false,
          "internalType": "string",
          "name": "_bossId",
          "type": "string"
        },
        {
          "indexed": false,
          "internalType": "bool",
          "name": "_status",
          "type": "bool"
        }
      ],
      "name": "SetBossStatus",
      "type": "event"
    },
    {
      "anonymous": false,
      "inputs": [
        {
          "indexed": true,
          "internalType": "address",
          "name": "_operatorAddress",
          "type": "address"
        },
        {
          "indexed": false,
          "internalType": "string",
          "name": "_battleId",
          "type": "string"
        },
        {
          "indexed": false,
          "internalType": "uint256",
          "name": "_startTime",
          "type": "uint256"
        },
        {
          "indexed": false,
          "internalType": "uint256",
          "name": "_endTime",
          "type": "uint256"
        }
      ],
      "name": "UpdateBattle",
      "type": "event"
    },
    {
      "anonymous": false,
      "inputs": [
        {
          "indexed": true,
          "internalType": "address",
          "name": "_operatorAddress",
          "type": "address"
        },
        {
          "indexed": false,
          "internalType": "string",
          "name": "_bossId",
          "type": "string"
        },
        {
          "indexed": false,
          "internalType": "string",
          "name": "_name",
          "type": "string"
        },
        {
          "indexed": false,
          "internalType": "uint256",
          "name": "_maxHp",
          "type": "uint256"
        },
        {
          "indexed": false,
          "internalType": "string",
          "name": "_uri",
          "type": "string"
        }
      ],
      "name": "UpdateBoss",
      "type": "event"
    },
    {
      "inputs": [],
      "name": "accessControls",
      "outputs": [
        {
          "internalType": "contract IGameAccessControls",
          "name": "",
          "type": "address"
        }
      ],
      "stateMutability": "view",
      "type": "function"
    },
    {
      "inputs": [
        {
          "internalType": "string",
          "name": "",
          "type": "string"
        }
      ],
      "name": "battleExists",
      "outputs": [
        {
          "internalType": "bool",
          "name": "",
          "type": "bool"
        }
      ],
      "stateMutability": "view",
      "type": "function"
    },
    {
      "inputs": [
        {
          "internalType": "uint256",
          "name": "",
          "type": "uint256"
        }
      ],
      "name": "battleList",
      "outputs": [
        {
          "internalType": "string",
          "name": "",
          "type": "string"
        }
      ],
      "stateMutability": "view",
      "type": "function"
    },
    {
      "inputs": [
        {
          "internalType": "string",
          "name": "",
          "type": "string"
        }
      ],
      "name": "battles",
      "outputs": [
        {
          "internalType": "string",
          "name": "battleId",
          "type": "string"
        },
        {
          "internalType": "uint256",
          "name": "bossCount",
          "type": "uint256"
        },
        {
          "internalType": "uint256",
          "name": "startTime",
          "type": "uint256"
        },
        {
          "internalType": "uint256",
          "name": "endTime",
          "type": "uint256"
        },
        {
          "internalType": "bool",
          "name": "status",
          "type": "bool"
        },
        {
          "internalType": "uint256",
          "name": "index",
          "type": "uint256"
        }
      ],
      "stateMutability": "view",
      "type": "function"
    },
    {
      "inputs": [
        {
          "internalType": "string",
          "name": "",
          "type": "string"
        }
      ],
      "name": "bossExists",
      "outputs": [
        {
          "internalType": "bool",
          "name": "",
          "type": "bool"
        }
      ],
      "stateMutability": "view",
      "type": "function"
    },
    {
      "inputs": [
        {
          "internalType": "uint256",
          "name": "",
          "type": "uint256"
        }
      ],
      "name": "bossList",
      "outputs": [
        {
          "internalType": "string",
          "name": "",
          "type": "string"
        }
      ],
      "stateMutability": "view",
      "type": "function"
    },
    {
      "inputs": [
        {
          "internalType": "string",
          "name": "",
          "type": "string"
        }
      ],
      "name": "bosses",
      "outputs": [
        {
          "internalType": "string",
          "name": "bossId",
          "type": "string"
        },
        {
          "internalType": "string",
          "name": "name",
          "type": "string"
        },
        {
          "internalType": "uint256",
          "name": "maxHp",
          "type": "uint256"
        },
        {
          "internalType": "string",
          "name": "uri",
          "type": "string"
        },
        {
          "internalType": "bool",
          "name": "status",
          "type": "bool"
        },
        {
          "internalType": "uint256",
          "name": "index",
          "type": "uint256"
        }
      ],
      "stateMutability": "view",
      "type": "function"
    },
    {
      "inputs": [
        {
          "internalType": "string",
          "name": "_battleId",
          "type": "string"
        }
      ],
      "name": "checkBattleEnded",
      "outputs": [
        {
          "internalType": "bool",
          "name": "",
          "type": "bool"
        }
      ],
      "stateMutability": "view",
      "type": "function"
    },
    {
      "inputs": [
        {
          "internalType": "string",
          "name": "_battleId",
          "type": "string"
        }
      ],
      "name": "checkBattleExists",
      "outputs": [
        {
          "internalType": "bool",
          "name": "",
          "type": "bool"
        }
      ],
      "stateMutability": "view",
      "type": "function"
    },
    {
      "inputs": [
        {
          "internalType": "string",
          "name": "_battleId",
          "type": "string"
        }
      ],
      "name": "checkBattleStarted",
      "outputs": [
        {
          "internalType": "bool",
          "name": "",
          "type": "bool"
        }
      ],
      "stateMutability": "view",
      "type": "function"
    },
    {
      "inputs": [
        {
          "internalType": "string",
          "name": "_battleId",
          "type": "string"
        }
      ],
      "name": "checkBattleStatus",
      "outputs": [
        {
          "internalType": "bool",
          "name": "",
          "type": "bool"
        }
      ],
      "stateMutability": "view",
      "type": "function"
    },
    {
      "inputs": [
        {
          "internalType": "string",
          "name": "_bossId",
          "type": "string"
        }
      ],
      "name": "checkBossExists",
      "outputs": [
        {
          "internalType": "bool",
          "name": "",
          "type": "bool"
        }
      ],
      "stateMutability": "view",
      "type": "function"
    },
    {
      "inputs": [
        {
          "internalType": "string",
          "name": "_bossId",
          "type": "string"
        }
      ],
      "name": "checkBossStatus",
      "outputs": [
        {
          "internalType": "bool",
          "name": "",
          "type": "bool"
        }
      ],
      "stateMutability": "view",
      "type": "function"
    },
    {
      "inputs": [
        {
          "internalType": "string",
          "name": "_battleId",
          "type": "string"
        },
        {
          "internalType": "string[]",
          "name": "_bossIds",
          "type": "string[]"
        },
        {
          "internalType": "uint256",
          "name": "_startTime",
          "type": "uint256"
        },
        {
          "internalType": "uint256",
          "name": "_endTime",
          "type": "uint256"
        }
      ],
      "name": "createBattle",
      "outputs": [],
      "stateMutability": "nonpayable",
      "type": "function"
    },
    {
      "inputs": [
        {
          "internalType": "string",
          "name": "bossId",
          "type": "string"
        },
        {
          "internalType": "string",
          "name": "name",
          "type": "string"
        },
        {
          "internalType": "uint256",
          "name": "maxHp",
          "type": "uint256"
        },
        {
          "internalType": "string",
          "name": "uri",
          "type": "string"
        }
      ],
      "name": "createBoss",
      "outputs": [],
      "stateMutability": "nonpayable",
      "type": "function"
    },
    {
      "inputs": [],
      "name": "getAllBattle",
      "outputs": [
        {
          "internalType": "string[]",
          "name": "",
          "type": "string[]"
        }
      ],
      "stateMutability": "view",
      "type": "function"
    },
    {
      "inputs": [],
      "name": "getAllBosses",
      "outputs": [
        {
          "internalType": "string[]",
          "name": "",
          "type": "string[]"
        }
      ],
      "stateMutability": "view",
      "type": "function"
    },
    {
      "inputs": [
        {
          "internalType": "string",
          "name": "_battleId",
          "type": "string"
        }
      ],
      "name": "getBattlePeriod",
      "outputs": [
        {
          "internalType": "uint256",
          "name": "startTime",
          "type": "uint256"
        },
        {
          "internalType": "uint256",
          "name": "endTime",
          "type": "uint256"
        }
      ],
      "stateMutability": "view",
      "type": "function"
    },
    {
      "inputs": [],
      "name": "getLatestBattle",
      "outputs": [
        {
          "internalType": "string",
          "name": "battleId",
          "type": "string"
        }
      ],
      "stateMutability": "view",
      "type": "function"
    },
    {
      "inputs": [
        {
          "internalType": "contract IGameAccessControls",
          "name": "_accessControls",
          "type": "address"
        }
      ],
      "name": "initialize",
      "outputs": [],
      "stateMutability": "nonpayable",
      "type": "function"
    },
    {
      "inputs": [
        {
          "internalType": "string",
          "name": "_battleId",
          "type": "string"
        },
        {
          "internalType": "bool",
          "name": "_status",
          "type": "bool"
        }
      ],
      "name": "setBattleStatus",
      "outputs": [],
      "stateMutability": "nonpayable",
      "type": "function"
    },
    {
      "inputs": [
        {
          "internalType": "string",
          "name": "_bossId",
          "type": "string"
        },
        {
          "internalType": "bool",
          "name": "_status",
          "type": "bool"
        }
      ],
      "name": "setBossStatus",
      "outputs": [],
      "stateMutability": "nonpayable",
      "type": "function"
    },
    {
      "inputs": [
        {
          "internalType": "string",
          "name": "_battleId",
          "type": "string"
        },
        {
          "internalType": "uint256",
          "name": "_startTime",
          "type": "uint256"
        },
        {
          "internalType": "uint256",
          "name": "_endTime",
          "type": "uint256"
        }
      ],
      "name": "updateBattle",
      "outputs": [],
      "stateMutability": "nonpayable",
      "type": "function"
    },
    {
      "inputs": [
        {
          "internalType": "string",
          "name": "bossId",
          "type": "string"
        },
        {
          "internalType": "string",
          "name": "name",
          "type": "string"
        },
        {
          "internalType": "uint256",
          "name": "maxHp",
          "type": "uint256"
        },
        {
          "internalType": "string",
          "name": "uri",
          "type": "string"
        }
      ],
      "name": "updateBoss",
      "outputs": [],
      "stateMutability": "nonpayable",
      "type": "function"
    }
  ],
  "transactionHash": "0x9c4191700ef9e276ca6d8e28b3bcaca91fb6e68cef15cc85444576984c493a1f",
  "args": [],
  "numDeployments": 1,
  "solcInputHash": "b0e6c88d3892fb29fd7f2c1cc631b020",
  "bytecode": "0x60806040523480156200001157600080fd5b506200001c62000022565b620000e4565b600054610100900460ff16156200008f5760405162461bcd60e51b815260206004820152602760248201527f496e697469616c697a61626c653a20636f6e747261637420697320696e697469604482015266616c697a696e6760c81b606482015260840160405180910390fd5b60005460ff9081161015620000e2576000805460ff191660ff9081179091556040519081527f7f26b83ff96e1f2b6a682f133852f6798a09c465da95921460cefb38474024989060200160405180910390a15b565b612ade80620000f46000396000f3fe608060405234801561001057600080fd5b50600436106101985760003560e01c80638abf3a0e116100e3578063bf81ee6d1161008c578063c5c0a46211610066578063c5c0a462146103ab578063e59f94b7146103d9578063f7ddad0c146103ec57600080fd5b8063bf81ee6d1461037d578063c2451bdc14610385578063c4d66de81461039857600080fd5b8063ac0d4646116100bd578063ac0d46461461034f578063b24a97c314610362578063b778e1831461036a57600080fd5b80638abf3a0e14610304578063a07418d614610329578063a83e54c21461033c57600080fd5b806356b1bc9a1161014557806377bb7b781161011f57806377bb7b78146102b95780637e4fceaf146102de57806385651574146102f157600080fd5b806356b1bc9a1461024c5780635d49778914610261578063748365ef1461027457600080fd5b806332165c3c1161017657806332165c3c146101ee57806347ff16ac146102165780634fa1290d1461023957600080fd5b8063159a92391461019d5780631bc143a5146101b257806325eeb4f5146101db575b600080fd5b6101b06101ab366004611ffc565b61041a565b005b6101c56101c03660046120a0565b6106eb565b6040516101d29190612127565b60405180910390f35b6101c56101e93660046120a0565b610797565b6102016101fc366004612141565b6107a7565b604080519283526020830191909152016101d2565b610229610224366004612141565b6107fe565b60405190151581526020016101d2565b6101b0610247366004611ffc565b61082f565b610254610b4b565b6040516101d291906121f9565b61022961026f366004612141565b610c24565b6039546102949073ffffffffffffffffffffffffffffffffffffffff1681565b60405173ffffffffffffffffffffffffffffffffffffffff90911681526020016101d2565b6102cc6102c7366004612318565b610cfb565b6040516101d296959493929190612355565b6101b06102ec3660046123a4565b610dc7565b6102296102ff366004612318565b610ffd565b610317610312366004612318565b61102b565b6040516101d2969594939291906123f6565b6101b061033736600461244b565b611206565b6101b061034a3660046123a4565b611652565b61022961035d366004612318565b61187a565b6102546118a5565b610229610378366004612141565b611975565b6101c56119a5565b6101b0610393366004612540565b611a61565b6101b06103a636600461258e565b611ddd565b6102296103b9366004612318565b805160208183018101805160388252928201919093012091525460ff1681565b6102296103e7366004612318565b611fa8565b6102296103fa366004612318565b805160208183018101805160378252928201919093012091525460ff1681565b6039546040517f5026c82600000000000000000000000000000000000000000000000000000000815233600482018190529173ffffffffffffffffffffffffffffffffffffffff1690635026c82690602401602060405180830381865afa158015610489573d6000803e3d6000fd5b505050506040513d601f19601f820116820180604052508101906104ad91906125c4565b610518576040517f08c379a000000000000000000000000000000000000000000000000000000000815260206004820181905260248201527f5742423a20556e617574686f72697a656420746f2075706461746520626f737360448201526064015b60405180910390fd5b61055788888080601f016020809104026020016040519081016040528093929190818152602001838380828437600092019190915250611fa892505050565b6105bd576040517f08c379a000000000000000000000000000000000000000000000000000000000815260206004820152601760248201527f5742423a20426f737320646f65736e2774206578697374000000000000000000604482015260640161050f565b6000603589896040516105d19291906125e1565b908152604051908190036020019020600481015490915060ff1615610652576040517f08c379a000000000000000000000000000000000000000000000000000000000815260206004820152601360248201527f5742423a20426f73732069732061637469766500000000000000000000000000604482015260640161050f565b8061065e898b83612693565b506001810161066e878983612693565b506002810185905560038101610685848683612693565b508173ffffffffffffffffffffffffffffffffffffffff167fe84e5250e15f8fc9c44338f80b627457e114179c263f3707ff9beeed895f8ca48a8a8a8a8a8a8a6040516106d897969594939291906127f7565b60405180910390a2505050505050505050565b603481815481106106fb57600080fd5b906000526020600020016000915090508054610716906125f1565b80601f0160208091040260200160405190810160405280929190818152602001828054610742906125f1565b801561078f5780601f106107645761010080835404028352916020019161078f565b820191906000526020600020905b81548152906001019060200180831161077257829003601f168201915b505050505081565b603681815481106106fb57600080fd5b600080603384846040516107bc9291906125e1565b908152602001604051809103902060030154603385856040516107e09291906125e1565b908152602001604051809103902060040154915091505b9250929050565b6000603383836040516108129291906125e1565b908152602001604051809103902060040154421190505b92915050565b6039546040517f5026c82600000000000000000000000000000000000000000000000000000000815233600482018190529173ffffffffffffffffffffffffffffffffffffffff1690635026c82690602401602060405180830381865afa15801561089e573d6000803e3d6000fd5b505050506040513d601f19601f820116820180604052508101906108c291906125c4565b610928576040517f08c379a000000000000000000000000000000000000000000000000000000000815260206004820181905260248201527f5742423a20556e617574686f72697a656420746f2063726561746520626f7373604482015260640161050f565b61096788888080601f016020809104026020016040519081016040528093929190818152602001838380828437600092019190915250611fa892505050565b156109ce576040517f08c379a000000000000000000000000000000000000000000000000000000000815260206004820152601860248201527f5742423a20426f737320616c7265616479204578697374730000000000000000604482015260640161050f565b6000603589896040516109e29291906125e1565b9081526040519081900360200190209050806109ff898b83612693565b5060018101610a0f878983612693565b506002810185905560038101610a26848683612693565b506004810180547fffffffffffffffffffffffffffffffffffffffffffffffffffffffffffffff001660019081179091556036805491820181556000527f4a11f94e20a93c79f6ec743a1954ec4fc2c08429ae2122118bf234b2185c81b801610a90898b83612693565b50600160388a8a604051610aa59291906125e1565b90815260405190819003602001902080549115157fffffffffffffffffffffffffffffffffffffffffffffffffffffffffffffff00909216919091179055603654610af290600190612876565b600582015560405173ffffffffffffffffffffffffffffffffffffffff8316907f7d51e5ba65a244038915d444c0ca607e0b05121999d92bf11349864f8ec00bc0906106d8908c908c908c908c908c908c908c906127f7565b60606036805480602002602001604051908101604052809291908181526020016000905b82821015610c1b578382906000526020600020018054610b8e906125f1565b80601f0160208091040260200160405190810160405280929190818152602001828054610bba906125f1565b8015610c075780601f10610bdc57610100808354040283529160200191610c07565b820191906000526020600020905b815481529060010190602001808311610bea57829003601f168201915b505050505081526020019060010190610b6f565b50505050905090565b6000610c6583838080601f01602080910402602001604051908101604052809392919081815260200183838082843760009201919091525061187a92505050565b610ccb576040517f08c379a000000000000000000000000000000000000000000000000000000000815260206004820152601a60248201527f5742423a20426174746c6520646f65736e277420657869737473000000000000604482015260640161050f565b60338383604051610cdd9291906125e1565b9081526040519081900360200190206005015460ff16905092915050565b8051602081830181018051603382529282019190930120915280548190610d21906125f1565b80601f0160208091040260200160405190810160405280929190818152602001828054610d4d906125f1565b8015610d9a5780601f10610d6f57610100808354040283529160200191610d9a565b820191906000526020600020905b815481529060010190602001808311610d7d57829003601f168201915b505050506002830154600384015460048501546005860154600690960154949592949193509160ff169086565b6039546040517f5026c82600000000000000000000000000000000000000000000000000000000815233600482018190529173ffffffffffffffffffffffffffffffffffffffff1690635026c82690602401602060405180830381865afa158015610e36573d6000803e3d6000fd5b505050506040513d601f19601f82011682018060405250810190610e5a91906125c4565b610ee6576040517f08c379a000000000000000000000000000000000000000000000000000000000815260206004820152602760248201527f5742423a20556e617574686f72697a656420746f2075706461746520626f737360448201527f2073746174757300000000000000000000000000000000000000000000000000606482015260840161050f565b610eef83611fa8565b610f55576040517f08c379a000000000000000000000000000000000000000000000000000000000815260206004820152601760248201527f5742423a20426f737320646f65736e2774206578697374000000000000000000604482015260640161050f565b6000603584604051610f679190612889565b9081526040519081900360200181206004810180548615157fffffffffffffffffffffffffffffffffffffffffffffffffffffffffffffff00909116179055915073ffffffffffffffffffffffffffffffffffffffff8316907fb47164476bec80db36799d3e7cfc2b5f3d43315275b5e41650ff9227331b9a5d90610fef90879087906128a5565b60405180910390a250505050565b600060358260405161100f9190612889565b9081526040519081900360200190206004015460ff1692915050565b8051602081830181018051603582529282019190930120915280548190611051906125f1565b80601f016020809104026020016040519081016040528092919081815260200182805461107d906125f1565b80156110ca5780601f1061109f576101008083540402835291602001916110ca565b820191906000526020600020905b8154815290600101906020018083116110ad57829003601f168201915b5050505050908060010180546110df906125f1565b80601f016020809104026020016040519081016040528092919081815260200182805461110b906125f1565b80156111585780601f1061112d57610100808354040283529160200191611158565b820191906000526020600020905b81548152906001019060200180831161113b57829003601f168201915b505050505090806002015490806003018054611173906125f1565b80601f016020809104026020016040519081016040528092919081815260200182805461119f906125f1565b80156111ec5780601f106111c1576101008083540402835291602001916111ec565b820191906000526020600020905b8154815290600101906020018083116111cf57829003601f168201915b505050506004830154600590930154919260ff1691905086565b6039546040517f5026c82600000000000000000000000000000000000000000000000000000000815233600482018190529173ffffffffffffffffffffffffffffffffffffffff1690635026c82690602401602060405180830381865afa158015611275573d6000803e3d6000fd5b505050506040513d601f19601f8201168201806040525081019061129991906125c4565b611325576040517f08c379a000000000000000000000000000000000000000000000000000000000815260206004820152602260248201527f5742423a20556e617574686f72697a656420746f20637265617465206261747460448201527f6c65000000000000000000000000000000000000000000000000000000000000606482015260840161050f565b61132e8561187a565b15611395576040517f08c379a000000000000000000000000000000000000000000000000000000000815260206004820152601a60248201527f5742423a20426174746c6520616c726561647920457869737473000000000000604482015260640161050f565b8282116113fe576040517f08c379a000000000000000000000000000000000000000000000000000000000815260206004820152601a60248201527f5742423a20696e76616c696420626174746c6520706572696f64000000000000604482015260640161050f565b60006033866040516114109190612889565b90815260405190819003602001902090508061142c87826128c9565b5060038101849055600481018390556005810180547fffffffffffffffffffffffffffffffffffffffffffffffffffffffffffffff00166001908117909155855160028301556034805491820181556000527f46bddb1178e94d7f2892ff5f366840eb658911794f2c3a44c450aa2c505186c1016114aa87826128c9565b5060016037876040516114bd9190612889565b90815260405190819003602001902080549115157fffffffffffffffffffffffffffffffffffffffffffffffffffffffffffffff0090921691909117905560345461150a90600190612876565b600682015560005b85518110156115f55761153d868281518110611530576115306129e3565b6020026020010151610ffd565b6115a3576040517f08c379a000000000000000000000000000000000000000000000000000000000815260206004820152601560248201527f5742423a20626f7373206e6f7420637265617465640000000000000000000000604482015260640161050f565b816001018682815181106115b9576115b96129e3565b602090810291909101810151825460018101845560009384529190922001906115e290826128c9565b50806115ed81612a12565b915050611512565b508173ffffffffffffffffffffffffffffffffffffffff167fbf930b6a4190ef0d2e18f5890bf0a9d9cadbdb0806e46cdf21ac172ca43f76a6878787876040516116429493929190612a4a565b60405180910390a2505050505050565b6039546040517f5026c82600000000000000000000000000000000000000000000000000000000815233600482018190529173ffffffffffffffffffffffffffffffffffffffff1690635026c82690602401602060405180830381865afa1580156116c1573d6000803e3d6000fd5b505050506040513d601f19601f820116820180604052508101906116e591906125c4565b611771576040517f08c379a000000000000000000000000000000000000000000000000000000000815260206004820152602660248201527f5742423a20556e617574686f72697a656420746f2073657420626174746c652060448201527f7374617475730000000000000000000000000000000000000000000000000000606482015260840161050f565b61177a8361187a565b6117e0576040517f08c379a000000000000000000000000000000000000000000000000000000000815260206004820152601960248201527f5742423a20426174746c6520646f65736e277420657869737400000000000000604482015260640161050f565b60006033846040516117f29190612889565b9081526040519081900360200181206005810180548615157fffffffffffffffffffffffffffffffffffffffffffffffffffffffffffffff00909116179055915073ffffffffffffffffffffffffffffffffffffffff8316907fa6115fd69d56ce0ba2d2984a7dc862cdb9e23f47faa13128d4477e24702db28190610fef90879087906128a5565b600060378260405161188c9190612889565b9081526040519081900360200190205460ff1692915050565b60606034805480602002602001604051908101604052809291908181526020016000905b82821015610c1b5783829060005260206000200180546118e8906125f1565b80601f0160208091040260200160405190810160405280929190818152602001828054611914906125f1565b80156119615780601f1061193657610100808354040283529160200191611961565b820191906000526020600020905b81548152906001019060200180831161194457829003601f168201915b5050505050815260200190600101906118c9565b6000603383836040516119899291906125e1565b9081526020016040518091039020600301544211905092915050565b60348054606091906119b990600190612876565b815481106119c9576119c96129e3565b9060005260206000200180546119de906125f1565b80601f0160208091040260200160405190810160405280929190818152602001828054611a0a906125f1565b8015611a575780601f10611a2c57610100808354040283529160200191611a57565b820191906000526020600020905b815481529060010190602001808311611a3a57829003601f168201915b5050505050905090565b6039546040517f5026c82600000000000000000000000000000000000000000000000000000000815233600482018190529173ffffffffffffffffffffffffffffffffffffffff1690635026c82690602401602060405180830381865afa158015611ad0573d6000803e3d6000fd5b505050506040513d601f19601f82011682018060405250810190611af491906125c4565b611b80576040517f08c379a000000000000000000000000000000000000000000000000000000000815260206004820152602260248201527f5742423a20556e617574686f72697a656420746f20757064617465206261747460448201527f6c65000000000000000000000000000000000000000000000000000000000000606482015260840161050f565b611b898461187a565b611bef576040517f08c379a000000000000000000000000000000000000000000000000000000000815260206004820152601a60248201527f5742423a20426174746c6520646f65736e277420657869737473000000000000604482015260640161050f565b603384604051611bff9190612889565b9081526040519081900360200190206005015460ff1615611c7c576040517f08c379a000000000000000000000000000000000000000000000000000000000815260206004820152601560248201527f5742423a20426174746c65206973206163746976650000000000000000000000604482015260640161050f565b828211611ce5576040517f08c379a000000000000000000000000000000000000000000000000000000000815260206004820152601a60248201527f5742423a20696e76616c696420626174746c6520706572696f64000000000000604482015260640161050f565b6000603385604051611cf79190612889565b9081526020016040518091039020905080600401544210611d74576040517f08c379a000000000000000000000000000000000000000000000000000000000815260206004820152601960248201527f5742423a20626174746c6520616c726561647920656e64656400000000000000604482015260640161050f565b600381018490556004810183905560405173ffffffffffffffffffffffffffffffffffffffff8316907f48af9efa0eb42768b8561a4d6eb892763a3701ff2fae21c37d480825f78f6cbc90611dce90889088908890612a83565b60405180910390a25050505050565b600054610100900460ff1615808015611dfd5750600054600160ff909116105b80611e175750303b158015611e17575060005460ff166001145b611ea3576040517f08c379a000000000000000000000000000000000000000000000000000000000815260206004820152602e60248201527f496e697469616c697a61626c653a20636f6e747261637420697320616c72656160448201527f647920696e697469616c697a6564000000000000000000000000000000000000606482015260840161050f565b600080547fffffffffffffffffffffffffffffffffffffffffffffffffffffffffffffff001660011790558015611f0157600080547fffffffffffffffffffffffffffffffffffffffffffffffffffffffffffff00ff166101001790555b603980547fffffffffffffffffffffffff00000000000000000000000000000000000000001673ffffffffffffffffffffffffffffffffffffffff84161790558015611fa457600080547fffffffffffffffffffffffffffffffffffffffffffffffffffffffffffff00ff169055604051600181527f7f26b83ff96e1f2b6a682f133852f6798a09c465da95921460cefb38474024989060200160405180910390a15b5050565b600060388260405161188c9190612889565b60008083601f840112611fcc57600080fd5b50813567ffffffffffffffff811115611fe457600080fd5b6020830191508360208285010111156107f757600080fd5b60008060008060008060006080888a03121561201757600080fd5b873567ffffffffffffffff8082111561202f57600080fd5b61203b8b838c01611fba565b909950975060208a013591508082111561205457600080fd5b6120608b838c01611fba565b909750955060408a0135945060608a013591508082111561208057600080fd5b5061208d8a828b01611fba565b989b979a50959850939692959293505050565b6000602082840312156120b257600080fd5b5035919050565b60005b838110156120d45781810151838201526020016120bc565b50506000910152565b600081518084526120f58160208601602086016120b9565b601f017fffffffffffffffffffffffffffffffffffffffffffffffffffffffffffffffe0169290920160200192915050565b60208152600061213a60208301846120dd565b9392505050565b6000806020838503121561215457600080fd5b823567ffffffffffffffff81111561216b57600080fd5b61217785828601611fba565b90969095509350505050565b600082825180855260208086019550808260051b84010181860160005b848110156121ec577fffffffffffffffffffffffffffffffffffffffffffffffffffffffffffffffe08684030189526121da8383516120dd565b988401989250908301906001016121a0565b5090979650505050505050565b60208152600061213a6020830184612183565b7f4e487b7100000000000000000000000000000000000000000000000000000000600052604160045260246000fd5b604051601f82017fffffffffffffffffffffffffffffffffffffffffffffffffffffffffffffffe016810167ffffffffffffffff811182821017156122825761228261220c565b604052919050565b600082601f83011261229b57600080fd5b813567ffffffffffffffff8111156122b5576122b561220c565b6122e660207fffffffffffffffffffffffffffffffffffffffffffffffffffffffffffffffe0601f8401160161223b565b8181528460208386010111156122fb57600080fd5b816020850160208301376000918101602001919091529392505050565b60006020828403121561232a57600080fd5b813567ffffffffffffffff81111561234157600080fd5b61234d8482850161228a565b949350505050565b60c08152600061236860c08301896120dd565b602083019790975250604081019490945260608401929092521515608083015260a090910152919050565b80151581146123a157600080fd5b50565b600080604083850312156123b757600080fd5b823567ffffffffffffffff8111156123ce57600080fd5b6123da8582860161228a565b92505060208301356123eb81612393565b809150509250929050565b60c08152600061240960c08301896120dd565b828103602084015261241b81896120dd565b9050866040840152828103606084015261243581876120dd565b9415156080840152505060a00152949350505050565b6000806000806080858703121561246157600080fd5b843567ffffffffffffffff8082111561247957600080fd5b6124858883890161228a565b955060209150818701358181111561249c57600080fd5b8701601f810189136124ad57600080fd5b8035828111156124bf576124bf61220c565b8060051b6124ce85820161223b565b918252828101850191858101908c8411156124e857600080fd5b86850192505b83831015612524578235868111156125065760008081fd5b6125148e898389010161228a565b83525091860191908601906124ee565b999c999b50505050604088013597606001359695505050505050565b60008060006060848603121561255557600080fd5b833567ffffffffffffffff81111561256c57600080fd5b6125788682870161228a565b9660208601359650604090950135949350505050565b6000602082840312156125a057600080fd5b813573ffffffffffffffffffffffffffffffffffffffff8116811461213a57600080fd5b6000602082840312156125d657600080fd5b815161213a81612393565b8183823760009101908152919050565b600181811c9082168061260557607f821691505b60208210810361263e577f4e487b7100000000000000000000000000000000000000000000000000000000600052602260045260246000fd5b50919050565b601f82111561268e57600081815260208120601f850160051c8101602086101561266b5750805b601f850160051c820191505b8181101561268a57828155600101612677565b5050505b505050565b67ffffffffffffffff8311156126ab576126ab61220c565b6126bf836126b983546125f1565b83612644565b6000601f84116001811461271157600085156126db5750838201355b7fffffffffffffffffffffffffffffffffffffffffffffffffffffffffffffffff600387901b1c1916600186901b1783556127a7565b6000838152602090207fffffffffffffffffffffffffffffffffffffffffffffffffffffffffffffffe0861690835b828110156127605786850135825560209485019460019092019101612740565b508682101561279b577fffffffffffffffffffffffffffffffffffffffffffffffffffffffffffffffff60f88860031b161c19848701351681555b505060018560011b0183555b5050505050565b8183528181602085013750600060208284010152600060207fffffffffffffffffffffffffffffffffffffffffffffffffffffffffffffffe0601f840116840101905092915050565b60808152600061280b60808301898b6127ae565b828103602084015261281e81888a6127ae565b905085604084015282810360608401526128398185876127ae565b9a9950505050505050505050565b7f4e487b7100000000000000000000000000000000000000000000000000000000600052601160045260246000fd5b8181038181111561082957610829612847565b6000825161289b8184602087016120b9565b9190910192915050565b6040815260006128b860408301856120dd565b905082151560208301529392505050565b815167ffffffffffffffff8111156128e3576128e361220c565b6128f7816128f184546125f1565b84612644565b602080601f83116001811461294a57600084156129145750858301515b7fffffffffffffffffffffffffffffffffffffffffffffffffffffffffffffffff600386901b1c1916600185901b17855561268a565b6000858152602081207fffffffffffffffffffffffffffffffffffffffffffffffffffffffffffffffe08616915b8281101561299757888601518255948401946001909101908401612978565b50858210156129d357878501517fffffffffffffffffffffffffffffffffffffffffffffffffffffffffffffffff600388901b60f8161c191681555b5050505050600190811b01905550565b7f4e487b7100000000000000000000000000000000000000000000000000000000600052603260045260246000fd5b60007fffffffffffffffffffffffffffffffffffffffffffffffffffffffffffffffff8203612a4357612a43612847565b5060010190565b608081526000612a5d60808301876120dd565b8281036020840152612a6f8187612183565b604084019590955250506060015292915050565b606081526000612a9660608301866120dd565b6020830194909452506040015291905056fea2646970667358221220be97e30b35cf3d377220841ae9f46107e539ea3514daccabc25cb2e614ad99c064736f6c63430008110033",
  "devdoc": {
    "kind": "dev",
    "methods": {
      "checkBattleEnded(string)": {
        "params": {
          "_battleId": "its a string"
        }
      },
      "checkBattleStarted(string)": {
        "params": {
          "_battleId": "its a string"
        }
      },
      "checkBattleStatus(string)": {
        "params": {
          "_battleId": "its a string"
        }
      },
      "checkBossStatus(string)": {
        "params": {
          "_bossId": "is should be given as parameter"
        }
      },
      "constructor": {
        "custom:oz-upgrades-unsafe-allow": "constructor"
      },
      "createBattle(string,string[],uint256,uint256)": {
        "params": {
          "_battleId": "which is a string and identify battles,",
          "_bossIds": "which is an array of string,",
          "_endTime": "are unix timestamp",
          "_startTime": "and"
        }
      },
      "createBoss(string,string,uint256,string)": {
        "params": {
          "bossId": "which is a string and identify boss,",
          "maxHp": "is uint that have boss health and",
          "name": "which is name of string,",
          "uri": "is a string"
        }
      },
      "getBattlePeriod(string)": {
        "params": {
          "_battleId": "which is in string format"
        }
      },
      "updateBattle(string,uint256,uint256)": {
        "params": {
          "_battleId": "which is a string and identify battles,",
          "_endTime": "are unix timestamp",
          "_startTime": "and"
        }
      },
      "updateBoss(string,string,uint256,string)": {
        "params": {
          "bossId": "which is a string and identify boss,",
          "maxHp": "is uint that have boss health and",
          "name": "which is name of string,",
          "uri": "is a string"
        }
      }
    },
    "stateVariables": {
      "__gap": {
        "details": "This empty reserved space is put in place to allow future versions to add new variables without shifting down storage in the inheritance chain. See https://docs.openzeppelin.com/contracts/4.x/upgradeable#storage_gaps"
      }
    },
    "version": 1
  },
  "userdoc": {
    "kind": "user",
    "methods": {
      "battleExists(string)": {
        "notice": "A mapping of all battle with exists status."
      },
      "battleList(uint256)": {
        "notice": "An array of all the battle identifiers that have been created."
      },
      "battles(string)": {
        "notice": "Mapping of battle data, where the key is the battle's identifier and the value is the battle's data structure."
      },
      "bossExists(string)": {
        "notice": "A mapping of all bosses with exists status."
      },
      "bossList(uint256)": {
        "notice": "An array of all the boss identifiers that have been created."
      },
      "bosses(string)": {
        "notice": "Mapping of boss data, where the key is the boss's identifier and the value is the boss's data structure."
      },
      "checkBattleEnded(string)": {
        "notice": "to check the battle Ended or not i.e true or false"
      },
      "checkBattleStarted(string)": {
        "notice": "to check the battle Started or not i.e true or false"
      },
      "checkBattleStatus(string)": {
        "notice": "function to check the battleStatus i.e true or false"
      },
      "checkBossStatus(string)": {
        "notice": "checks the boss is available or not"
      },
      "createBattle(string,string[],uint256,uint256)": {
        "notice": "function to create battle requires battleId and bossId, starting time and ending time"
      },
      "createBoss(string,string,uint256,string)": {
        "notice": "Method to create a new boss."
      },
      "getAllBattle()": {
        "notice": "return the list of all bosses"
      },
      "getAllBosses()": {
        "notice": "return the list of all bosses"
      },
      "getBattlePeriod(string)": {
        "notice": "gives the end time of an battle in unix"
      },
      "getLatestBattle()": {
        "notice": "return the last created battle"
      },
      "updateBattle(string,uint256,uint256)": {
        "notice": "function to update battle requires battleId, bossId, starting time and ending time along with battle status.         Note: 1. Battle should be inactive to be able to update.               2. If battle should be updated with new bosses or updated boss, new battle SHOULD be created"
      },
      "updateBoss(string,string,uint256,string)": {
        "notice": "function to update the boss character"
      }
    },
    "version": 1
  },
  "storageLayout": {
    "storage": [
      {
        "astId": 547,
        "contract": "contracts/game/WBBActions.sol:WBBActions",
        "label": "_initialized",
        "offset": 0,
        "slot": "0",
        "type": "t_uint8"
      },
      {
        "astId": 550,
        "contract": "contracts/game/WBBActions.sol:WBBActions",
        "label": "_initializing",
        "offset": 1,
        "slot": "0",
        "type": "t_bool"
      },
      {
        "astId": 2657,
        "contract": "contracts/game/WBBActions.sol:WBBActions",
        "label": "__gap",
        "offset": 0,
        "slot": "1",
        "type": "t_array(t_uint256)50_storage"
      },
      {
        "astId": 10833,
        "contract": "contracts/game/WBBActions.sol:WBBActions",
        "label": "battles",
        "offset": 0,
        "slot": "51",
        "type": "t_mapping(t_string_memory_ptr,t_struct(Battle)10814_storage)"
      },
      {
        "astId": 10837,
        "contract": "contracts/game/WBBActions.sol:WBBActions",
        "label": "battleList",
        "offset": 0,
        "slot": "52",
        "type": "t_array(t_string_storage)dyn_storage"
      },
      {
        "astId": 10843,
        "contract": "contracts/game/WBBActions.sol:WBBActions",
        "label": "bosses",
        "offset": 0,
        "slot": "53",
        "type": "t_mapping(t_string_memory_ptr,t_struct(Boss)10827_storage)"
      },
      {
        "astId": 10847,
        "contract": "contracts/game/WBBActions.sol:WBBActions",
        "label": "bossList",
        "offset": 0,
        "slot": "54",
        "type": "t_array(t_string_storage)dyn_storage"
      },
      {
        "astId": 10852,
        "contract": "contracts/game/WBBActions.sol:WBBActions",
        "label": "battleExists",
        "offset": 0,
        "slot": "55",
        "type": "t_mapping(t_string_memory_ptr,t_bool)"
      },
      {
        "astId": 10857,
        "contract": "contracts/game/WBBActions.sol:WBBActions",
        "label": "bossExists",
        "offset": 0,
        "slot": "56",
        "type": "t_mapping(t_string_memory_ptr,t_bool)"
      },
      {
        "astId": 10058,
        "contract": "contracts/game/WBBActions.sol:WBBActions",
        "label": "accessControls",
        "offset": 0,
        "slot": "57",
        "type": "t_contract(IGameAccessControls)12561"
      },
      {
        "astId": 10730,
        "contract": "contracts/game/WBBActions.sol:WBBActions",
        "label": "__gap",
        "offset": 0,
        "slot": "58",
        "type": "t_array(t_uint256)49_storage"
      }
    ],
    "types": {
      "t_array(t_string_storage)dyn_storage": {
        "base": "t_string_storage",
        "encoding": "dynamic_array",
        "label": "string[]",
        "numberOfBytes": "32"
      },
      "t_array(t_uint256)49_storage": {
        "base": "t_uint256",
        "encoding": "inplace",
        "label": "uint256[49]",
        "numberOfBytes": "1568"
      },
      "t_array(t_uint256)50_storage": {
        "base": "t_uint256",
        "encoding": "inplace",
        "label": "uint256[50]",
        "numberOfBytes": "1600"
      },
      "t_bool": {
        "encoding": "inplace",
        "label": "bool",
        "numberOfBytes": "1"
      },
      "t_contract(IGameAccessControls)12561": {
        "encoding": "inplace",
        "label": "contract IGameAccessControls",
        "numberOfBytes": "20"
      },
      "t_mapping(t_string_memory_ptr,t_bool)": {
        "encoding": "mapping",
        "key": "t_string_memory_ptr",
        "label": "mapping(string => bool)",
        "numberOfBytes": "32",
        "value": "t_bool"
      },
      "t_mapping(t_string_memory_ptr,t_struct(Battle)10814_storage)": {
        "encoding": "mapping",
        "key": "t_string_memory_ptr",
        "label": "mapping(string => struct WBBData.Battle)",
        "numberOfBytes": "32",
        "value": "t_struct(Battle)10814_storage"
      },
      "t_mapping(t_string_memory_ptr,t_struct(Boss)10827_storage)": {
        "encoding": "mapping",
        "key": "t_string_memory_ptr",
        "label": "mapping(string => struct WBBData.Boss)",
        "numberOfBytes": "32",
        "value": "t_struct(Boss)10827_storage"
      },
      "t_string_memory_ptr": {
        "encoding": "bytes",
        "label": "string",
        "numberOfBytes": "32"
      },
      "t_string_storage": {
        "encoding": "bytes",
        "label": "string",
        "numberOfBytes": "32"
      },
      "t_struct(Battle)10814_storage": {
        "encoding": "inplace",
        "label": "struct WBBData.Battle",
        "members": [
          {
            "astId": 10800,
            "contract": "contracts/game/WBBActions.sol:WBBActions",
            "label": "battleId",
            "offset": 0,
            "slot": "0",
            "type": "t_string_storage"
          },
          {
            "astId": 10803,
            "contract": "contracts/game/WBBActions.sol:WBBActions",
            "label": "bossIds",
            "offset": 0,
            "slot": "1",
            "type": "t_array(t_string_storage)dyn_storage"
          },
          {
            "astId": 10805,
            "contract": "contracts/game/WBBActions.sol:WBBActions",
            "label": "bossCount",
            "offset": 0,
            "slot": "2",
            "type": "t_uint256"
          },
          {
            "astId": 10807,
            "contract": "contracts/game/WBBActions.sol:WBBActions",
            "label": "startTime",
            "offset": 0,
            "slot": "3",
            "type": "t_uint256"
          },
          {
            "astId": 10809,
            "contract": "contracts/game/WBBActions.sol:WBBActions",
            "label": "endTime",
            "offset": 0,
            "slot": "4",
            "type": "t_uint256"
          },
          {
            "astId": 10811,
            "contract": "contracts/game/WBBActions.sol:WBBActions",
            "label": "status",
            "offset": 0,
            "slot": "5",
            "type": "t_bool"
          },
          {
            "astId": 10813,
            "contract": "contracts/game/WBBActions.sol:WBBActions",
            "label": "index",
            "offset": 0,
            "slot": "6",
            "type": "t_uint256"
          }
        ],
        "numberOfBytes": "224"
      },
      "t_struct(Boss)10827_storage": {
        "encoding": "inplace",
        "label": "struct WBBData.Boss",
        "members": [
          {
            "astId": 10816,
            "contract": "contracts/game/WBBActions.sol:WBBActions",
            "label": "bossId",
            "offset": 0,
            "slot": "0",
            "type": "t_string_storage"
          },
          {
            "astId": 10818,
            "contract": "contracts/game/WBBActions.sol:WBBActions",
            "label": "name",
            "offset": 0,
            "slot": "1",
            "type": "t_string_storage"
          },
          {
            "astId": 10820,
            "contract": "contracts/game/WBBActions.sol:WBBActions",
            "label": "maxHp",
            "offset": 0,
            "slot": "2",
            "type": "t_uint256"
          },
          {
            "astId": 10822,
            "contract": "contracts/game/WBBActions.sol:WBBActions",
            "label": "uri",
            "offset": 0,
            "slot": "3",
            "type": "t_string_storage"
          },
          {
            "astId": 10824,
            "contract": "contracts/game/WBBActions.sol:WBBActions",
            "label": "status",
            "offset": 0,
            "slot": "4",
            "type": "t_bool"
          },
          {
            "astId": 10826,
            "contract": "contracts/game/WBBActions.sol:WBBActions",
            "label": "index",
            "offset": 0,
            "slot": "5",
            "type": "t_uint256"
          }
        ],
        "numberOfBytes": "192"
      },
      "t_uint256": {
        "encoding": "inplace",
        "label": "uint256",
        "numberOfBytes": "32"
      },
      "t_uint8": {
        "encoding": "inplace",
        "label": "uint8",
        "numberOfBytes": "1"
      }
    }
  }
}