{
  "address": "0x7942Ab512dD0e25Ba3332E7cAB33963D13C8140e",
  "abi": [
    {
      "anonymous": false,
      "inputs": [
        {
          "indexed": false,
          "internalType": "uint8",
          "name": "version",
          "type": "uint8"
        }
      ],
      "name": "Initialized",
      "type": "event"
    },
    {
      "anonymous": false,
      "inputs": [
        {
          "indexed": true,
          "internalType": "address",
          "name": "_player",
          "type": "address"
        },
        {
          "indexed": false,
          "internalType": "uint256",
          "name": "_tokenId",
          "type": "uint256"
        },
        {
          "indexed": false,
          "internalType": "string",
          "name": "_battleId",
          "type": "string"
        },
        {
          "indexed": false,
          "internalType": "uint256",
          "name": "stakedTokenTime",
          "type": "uint256"
        }
      ],
      "name": "NFTRestaked",
      "type": "event"
    },
    {
      "anonymous": false,
      "inputs": [
        {
          "indexed": true,
          "internalType": "address",
          "name": "_nftOwner",
          "type": "address"
        },
        {
          "indexed": false,
          "internalType": "uint256",
          "name": "_tokenId",
          "type": "uint256"
        },
        {
          "indexed": false,
          "internalType": "string",
          "name": "_battleId",
          "type": "string"
        },
        {
          "indexed": false,
          "internalType": "uint256",
          "name": "stakedTokenTime",
          "type": "uint256"
        }
      ],
      "name": "NFTStaked",
      "type": "event"
    },
    {
      "anonymous": false,
      "inputs": [
        {
          "indexed": true,
          "internalType": "address",
          "name": "_nftReceiver",
          "type": "address"
        },
        {
          "indexed": false,
          "internalType": "uint256",
          "name": "_tokenId",
          "type": "uint256"
        },
        {
          "indexed": false,
          "internalType": "string",
          "name": "_battleId",
          "type": "string"
        }
      ],
      "name": "NFTUnstaked",
      "type": "event"
    },
    {
      "anonymous": false,
      "inputs": [
        {
          "indexed": true,
          "internalType": "address",
          "name": "previousOwner",
          "type": "address"
        },
        {
          "indexed": true,
          "internalType": "address",
          "name": "newOwner",
          "type": "address"
        }
      ],
      "name": "OwnershipTransferred",
      "type": "event"
    },
    {
      "anonymous": false,
      "inputs": [
        {
          "indexed": false,
          "internalType": "bool",
          "name": "isPaused",
          "type": "bool"
        },
        {
          "indexed": false,
          "internalType": "address",
          "name": "sender",
          "type": "address"
        }
      ],
      "name": "SetGamePausedState",
      "type": "event"
    },
    {
      "anonymous": false,
      "inputs": [
        {
          "indexed": true,
          "internalType": "address",
          "name": "_oldNFTContract",
          "type": "address"
        },
        {
          "indexed": true,
          "internalType": "address",
          "name": "_nftContract",
          "type": "address"
        },
        {
          "indexed": false,
          "internalType": "address",
          "name": "sender",
          "type": "address"
        }
      ],
      "name": "SetNFTContract",
      "type": "event"
    },
    {
      "anonymous": false,
      "inputs": [
        {
          "indexed": true,
          "internalType": "address",
          "name": "sender",
          "type": "address"
        },
        {
          "indexed": false,
          "internalType": "bytes32",
          "name": "oldSessionId",
          "type": "bytes32"
        },
        {
          "indexed": false,
          "internalType": "bytes32",
          "name": "newSessionId",
          "type": "bytes32"
        }
      ],
      "name": "Synced",
      "type": "event"
    },
    {
      "inputs": [],
      "name": "accessControls",
      "outputs": [
        {
          "internalType": "contract GameAccessControls",
          "name": "",
          "type": "address"
        }
      ],
      "stateMutability": "view",
      "type": "function"
    },
    {
      "inputs": [],
      "name": "cdhNFT",
      "outputs": [
        {
          "internalType": "contract ICDHNFTInventory",
          "name": "",
          "type": "address"
        }
      ],
      "stateMutability": "view",
      "type": "function"
    },
    {
      "inputs": [
        {
          "internalType": "uint256",
          "name": "_nftCount",
          "type": "uint256"
        },
        {
          "internalType": "uint256",
          "name": "_balance",
          "type": "uint256"
        }
      ],
      "name": "checkRequiredTokenBalance",
      "outputs": [
        {
          "internalType": "bool",
          "name": "",
          "type": "bool"
        }
      ],
      "stateMutability": "pure",
      "type": "function"
    },
    {
      "inputs": [
        {
          "internalType": "address",
          "name": "_player",
          "type": "address"
        }
      ],
      "name": "getAllToken",
      "outputs": [
        {
          "internalType": "uint256[]",
          "name": "",
          "type": "uint256[]"
        }
      ],
      "stateMutability": "view",
      "type": "function"
    },
    {
      "inputs": [
        {
          "internalType": "address",
          "name": "msgSender",
          "type": "address"
        }
      ],
      "name": "getSessionId",
      "outputs": [
        {
          "internalType": "bytes32",
          "name": "",
          "type": "bytes32"
        }
      ],
      "stateMutability": "view",
      "type": "function"
    },
    {
      "inputs": [
        {
          "internalType": "address",
          "name": "_player",
          "type": "address"
        }
      ],
      "name": "getStakedTokensFor",
      "outputs": [
        {
          "internalType": "uint256[]",
          "name": "tokenIds",
          "type": "uint256[]"
        }
      ],
      "stateMutability": "view",
      "type": "function"
    },
    {
      "inputs": [
        {
          "internalType": "contract ICDHNFTInventory",
          "name": "_cdhNft",
          "type": "address"
        },
        {
          "internalType": "contract ITOWER",
          "name": "_towerToken",
          "type": "address"
        },
        {
          "internalType": "address",
          "name": "_nftHolder",
          "type": "address"
        },
        {
          "internalType": "address",
          "name": "_signer",
          "type": "address"
        },
        {
          "internalType": "uint256",
          "name": "_maxStakeCount",
          "type": "uint256"
        },
        {
          "internalType": "contract IWBBActions",
          "name": "_wbbActionsAddress",
          "type": "address"
        },
        {
          "internalType": "contract GameAccessControls",
          "name": "_accessControls",
          "type": "address"
        }
      ],
      "name": "initialize",
      "outputs": [],
      "stateMutability": "nonpayable",
      "type": "function"
    },
    {
      "inputs": [],
      "name": "isGameActive",
      "outputs": [],
      "stateMutability": "nonpayable",
      "type": "function"
    },
    {
      "inputs": [],
      "name": "isGamePaused",
      "outputs": [
        {
          "internalType": "bool",
          "name": "",
          "type": "bool"
        }
      ],
      "stateMutability": "view",
      "type": "function"
    },
    {
      "inputs": [],
      "name": "isRegisteredUser",
      "outputs": [
        {
          "internalType": "bool",
          "name": "",
          "type": "bool"
        }
      ],
      "stateMutability": "view",
      "type": "function"
    },
    {
      "inputs": [],
      "name": "lastInteractionTime",
      "outputs": [
        {
          "internalType": "uint256",
          "name": "",
          "type": "uint256"
        }
      ],
      "stateMutability": "view",
      "type": "function"
    },
    {
      "inputs": [],
      "name": "latestBattle",
      "outputs": [
        {
          "internalType": "string",
          "name": "",
          "type": "string"
        }
      ],
      "stateMutability": "nonpayable",
      "type": "function"
    },
    {
      "inputs": [
        {
          "internalType": "address",
          "name": "",
          "type": "address"
        },
        {
          "internalType": "string",
          "name": "",
          "type": "string"
        }
      ],
      "name": "mappingArray",
      "outputs": [
        {
          "internalType": "uint256",
          "name": "",
          "type": "uint256"
        }
      ],
      "stateMutability": "view",
      "type": "function"
    },
    {
      "inputs": [],
      "name": "maxStakeCount",
      "outputs": [
        {
          "internalType": "uint256",
          "name": "",
          "type": "uint256"
        }
      ],
      "stateMutability": "view",
      "type": "function"
    },
    {
      "inputs": [],
      "name": "nftHolder",
      "outputs": [
        {
          "internalType": "address",
          "name": "",
          "type": "address"
        }
      ],
      "stateMutability": "view",
      "type": "function"
    },
    {
      "inputs": [],
      "name": "owner",
      "outputs": [
        {
          "internalType": "address",
          "name": "",
          "type": "address"
        }
      ],
      "stateMutability": "view",
      "type": "function"
    },
    {
      "inputs": [],
      "name": "renounceOwnership",
      "outputs": [],
      "stateMutability": "nonpayable",
      "type": "function"
    },
    {
      "inputs": [
        {
          "internalType": "uint256",
          "name": "_tokenId",
          "type": "uint256"
        },
        {
          "internalType": "string",
          "name": "_battleId",
          "type": "string"
        }
      ],
      "name": "restake",
      "outputs": [],
      "stateMutability": "nonpayable",
      "type": "function"
    },
    {
      "inputs": [
        {
          "internalType": "string",
          "name": "_battleId",
          "type": "string"
        }
      ],
      "name": "restakeAll",
      "outputs": [],
      "stateMutability": "nonpayable",
      "type": "function"
    },
    {
      "inputs": [],
      "name": "restakeAllWithoutBattleId",
      "outputs": [],
      "stateMutability": "nonpayable",
      "type": "function"
    },
    {
      "inputs": [
        {
          "internalType": "uint256[]",
          "name": "_tokenIds",
          "type": "uint256[]"
        },
        {
          "internalType": "string",
          "name": "_battleId",
          "type": "string"
        }
      ],
      "name": "restakeTokens",
      "outputs": [],
      "stateMutability": "nonpayable",
      "type": "function"
    },
    {
      "inputs": [
        {
          "internalType": "uint256[]",
          "name": "_tokenIds",
          "type": "uint256[]"
        }
      ],
      "name": "restakeTokensWithoutBattleId",
      "outputs": [],
      "stateMutability": "nonpayable",
      "type": "function"
    },
    {
      "inputs": [
        {
          "internalType": "uint256",
          "name": "_tokenId",
          "type": "uint256"
        }
      ],
      "name": "restakeWithoutBattleId",
      "outputs": [],
      "stateMutability": "nonpayable",
      "type": "function"
    },
    {
      "inputs": [
        {
          "internalType": "address",
          "name": "",
          "type": "address"
        }
      ],
      "name": "sessions",
      "outputs": [
        {
          "internalType": "bytes32",
          "name": "",
          "type": "bytes32"
        }
      ],
      "stateMutability": "view",
      "type": "function"
    },
    {
      "inputs": [
        {
          "internalType": "address",
          "name": "_nftContract",
          "type": "address"
        }
      ],
      "name": "setCDHNFTContractAddress",
      "outputs": [],
      "stateMutability": "nonpayable",
      "type": "function"
    },
    {
      "inputs": [
        {
          "internalType": "uint256",
          "name": "time",
          "type": "uint256"
        }
      ],
      "name": "setCoolDownPeriod",
      "outputs": [
        {
          "internalType": "uint256",
          "name": "",
          "type": "uint256"
        }
      ],
      "stateMutability": "nonpayable",
      "type": "function"
    },
    {
      "inputs": [
        {
          "internalType": "uint256",
          "name": "_maxCount",
          "type": "uint256"
        }
      ],
      "name": "setMaxStakeCount",
      "outputs": [],
      "stateMutability": "nonpayable",
      "type": "function"
    },
    {
      "inputs": [
        {
          "internalType": "address",
          "name": "_holder",
          "type": "address"
        }
      ],
      "name": "setNFTHolderAddress",
      "outputs": [],
      "stateMutability": "nonpayable",
      "type": "function"
    },
    {
      "inputs": [
        {
          "internalType": "address",
          "name": "_signer",
          "type": "address"
        }
      ],
      "name": "setSigner",
      "outputs": [],
      "stateMutability": "nonpayable",
      "type": "function"
    },
    {
      "inputs": [
        {
          "internalType": "address",
          "name": "_towerToken",
          "type": "address"
        }
      ],
      "name": "setTowerToken",
      "outputs": [],
      "stateMutability": "nonpayable",
      "type": "function"
    },
    {
      "inputs": [
        {
          "internalType": "address",
          "name": "_wbbActionsAddress",
          "type": "address"
        }
      ],
      "name": "setWBBActionsContract",
      "outputs": [],
      "stateMutability": "nonpayable",
      "type": "function"
    },
    {
      "inputs": [
        {
          "internalType": "uint256",
          "name": "_tokenId",
          "type": "uint256"
        },
        {
          "internalType": "string",
          "name": "_battleId",
          "type": "string"
        }
      ],
      "name": "stake",
      "outputs": [],
      "stateMutability": "nonpayable",
      "type": "function"
    },
    {
      "inputs": [],
      "name": "stakeAllWithoutBattleId",
      "outputs": [],
      "stateMutability": "nonpayable",
      "type": "function"
    },
    {
      "inputs": [
        {
          "internalType": "uint256[]",
          "name": "tokenIds",
          "type": "uint256[]"
        },
        {
          "internalType": "string",
          "name": "_battleId",
          "type": "string"
        }
      ],
      "name": "stakeTokens",
      "outputs": [],
      "stateMutability": "nonpayable",
      "type": "function"
    },
    {
      "inputs": [
        {
          "internalType": "uint256[]",
          "name": "_tokenIds",
          "type": "uint256[]"
        }
      ],
      "name": "stakeTokensWithoutBattleId",
      "outputs": [],
      "stateMutability": "nonpayable",
      "type": "function"
    },
    {
      "inputs": [
        {
          "internalType": "uint256",
          "name": "_tokenId",
          "type": "uint256"
        }
      ],
      "name": "stakeWithoutBattleId",
      "outputs": [],
      "stateMutability": "nonpayable",
      "type": "function"
    },
    {
      "inputs": [
        {
          "internalType": "address",
          "name": "",
          "type": "address"
        }
      ],
      "name": "stakers",
      "outputs": [
        {
          "internalType": "uint256",
          "name": "balance",
          "type": "uint256"
        },
        {
          "internalType": "uint256",
          "name": "stakedTime",
          "type": "uint256"
        }
      ],
      "stateMutability": "view",
      "type": "function"
    },
    {
      "inputs": [
        {
          "internalType": "bytes",
          "name": "signature",
          "type": "bytes"
        },
        {
          "internalType": "bytes32",
          "name": "sessionId",
          "type": "bytes32"
        },
        {
          "internalType": "uint256[]",
          "name": "stakedTokens",
          "type": "uint256[]"
        }
      ],
      "name": "sync",
      "outputs": [
        {
          "internalType": "bool",
          "name": "success",
          "type": "bool"
        }
      ],
      "stateMutability": "nonpayable",
      "type": "function"
    },
    {
      "inputs": [
        {
          "internalType": "address",
          "name": "",
          "type": "address"
        }
      ],
      "name": "syncedTime",
      "outputs": [
        {
          "internalType": "uint256",
          "name": "",
          "type": "uint256"
        }
      ],
      "stateMutability": "view",
      "type": "function"
    },
    {
      "inputs": [
        {
          "internalType": "address",
          "name": "_player",
          "type": "address"
        },
        {
          "internalType": "uint256",
          "name": "_tokenId",
          "type": "uint256"
        }
      ],
      "name": "toReturnStakedTokenTime",
      "outputs": [
        {
          "internalType": "uint256",
          "name": "",
          "type": "uint256"
        }
      ],
      "stateMutability": "view",
      "type": "function"
    },
    {
      "inputs": [],
      "name": "toggleGameStatus",
      "outputs": [],
      "stateMutability": "nonpayable",
      "type": "function"
    },
    {
      "inputs": [
        {
          "internalType": "uint256",
          "name": "",
          "type": "uint256"
        }
      ],
      "name": "tokenOwner",
      "outputs": [
        {
          "internalType": "address",
          "name": "",
          "type": "address"
        }
      ],
      "stateMutability": "view",
      "type": "function"
    },
    {
      "inputs": [
        {
          "internalType": "uint256",
          "name": "",
          "type": "uint256"
        }
      ],
      "name": "tokenToBattleId",
      "outputs": [
        {
          "internalType": "string",
          "name": "",
          "type": "string"
        }
      ],
      "stateMutability": "view",
      "type": "function"
    },
    {
      "inputs": [],
      "name": "towerToken",
      "outputs": [
        {
          "internalType": "contract ITOWER",
          "name": "",
          "type": "address"
        }
      ],
      "stateMutability": "view",
      "type": "function"
    },
    {
      "inputs": [
        {
          "internalType": "address",
          "name": "newOwner",
          "type": "address"
        }
      ],
      "name": "transferOwnership",
      "outputs": [],
      "stateMutability": "nonpayable",
      "type": "function"
    },
    {
      "inputs": [
        {
          "internalType": "uint256",
          "name": "_tokenId",
          "type": "uint256"
        },
        {
          "internalType": "string",
          "name": "_battleId",
          "type": "string"
        }
      ],
      "name": "unstake",
      "outputs": [],
      "stateMutability": "nonpayable",
      "type": "function"
    },
    {
      "inputs": [
        {
          "internalType": "string",
          "name": "_battleId",
          "type": "string"
        }
      ],
      "name": "unstakeAll",
      "outputs": [],
      "stateMutability": "nonpayable",
      "type": "function"
    },
    {
      "inputs": [
        {
          "internalType": "uint256[]",
          "name": "tokenIds",
          "type": "uint256[]"
        },
        {
          "internalType": "string",
          "name": "_battleId",
          "type": "string"
        }
      ],
      "name": "unstakeTokens",
      "outputs": [],
      "stateMutability": "nonpayable",
      "type": "function"
    },
    {
      "inputs": [],
      "name": "updateSession",
      "outputs": [
        {
          "internalType": "bool",
          "name": "",
          "type": "bool"
        }
      ],
      "stateMutability": "nonpayable",
      "type": "function"
    },
    {
      "inputs": [
        {
          "internalType": "uint256[]",
          "name": "tokenIds",
          "type": "uint256[]"
        }
      ],
      "name": "validStakeCount",
      "outputs": [
        {
          "internalType": "bool",
          "name": "",
          "type": "bool"
        }
      ],
      "stateMutability": "view",
      "type": "function"
    },
    {
      "inputs": [
        {
          "internalType": "bytes32",
          "name": "hash",
          "type": "bytes32"
        },
        {
          "internalType": "bytes",
          "name": "signature",
          "type": "bytes"
        }
      ],
      "name": "verify",
      "outputs": [
        {
          "internalType": "bool",
          "name": "",
          "type": "bool"
        }
      ],
      "stateMutability": "view",
      "type": "function"
    },
    {
      "inputs": [],
      "name": "wbbActions",
      "outputs": [
        {
          "internalType": "contract IWBBActions",
          "name": "",
          "type": "address"
        }
      ],
      "stateMutability": "view",
      "type": "function"
    }
  ],
  "transactionHash": "0x7eda5d89f51c533cd6da384ea837d78cfa8e1c1cf3dfe10d0b180fcf6a87d803",
  "args": [],
  "numDeployments": 1,
  "solcInputHash": "be6e2da48b086e87270df68f6d94d65e",
  "bytecode": "0x608060405234801561001057600080fd5b50614a8f806100206000396000f3fe608060405234801561001057600080fd5b506004361061034c5760003560e01c8063748365ef116101bd578063b345b8c0116100f9578063c60b6c68116100a2578063e481e0a81161007c578063e481e0a814610841578063e7e4e1f714610849578063f2fde38b1461085c578063f9c6c0011461086f57600080fd5b8063c60b6c6814610812578063d2bd85d614610825578063d7c15bf61461083857600080fd5b8063c38c2df7116100d3578063c38c2df7146107cc578063c46d0c93146107ec578063c49d30b2146107ff57600080fd5b8063b345b8c01461076a578063b4dce1311461077d578063c23870ec146107c457600080fd5b80639b6c268211610166578063a90d866711610140578063a90d866714610729578063ab5dc6851461073c578063ad53fdbc1461074f578063aed885401461076257600080fd5b80639b6c2682146106ed5780639e8ccaf114610700578063a8bc29a61461072057600080fd5b80639168ae72116101975780639168ae721461069357806395fbf3a9146106d2578063987ad0ba146106da57600080fd5b8063748365ef146106425780638da5cb5b146106625780638e6622fb1461068057600080fd5b806328fb77451161028c578063576ee2441161023557806369d47dd81161020f57806369d47dd8146105b25780636c19e783146105d2578063715018a614610627578063736f616b1461062f57600080fd5b8063576ee244146105435780636064fcc81461057f57806367f134a01461059f57600080fd5b8063366b19ae11610266578063366b19ae146104eb578063431a1b97146105025780634ed148181461053057600080fd5b806328fb7745146104a55780632ac34bc1146104b85780632e4723fd146104cb57600080fd5b80630eaf43f2116102f95780631caaa487116102d35780631caaa487146104295780631e5943e31461045f5780632056c16014610472578063258ae5821461049257600080fd5b80630eaf43f2146103be5780630f075b78146103d15780631b48ba07146103e457600080fd5b80630422ddf31161032a5780630422ddf31461039657806306f809fb146103a35780630c0ef2b0146103b657600080fd5b806302852b49146103515780630386937a1461035b5780630421af781461036e575b600080fd5b610359610882565b005b610359610369366004613fa0565b610a07565b61038161037c366004613fb9565b610a1c565b60405190151581526020015b60405180910390f35b6074546103819060ff1681565b6103816103b136600461417f565b610a49565b610359610bce565b6103596103cc36600461420e565b610c3d565b6103596103df366004613fa0565b610e91565b606a546104049073ffffffffffffffffffffffffffffffffffffffff1681565b60405173ffffffffffffffffffffffffffffffffffffffff909116815260200161038d565b610404610437366004613fa0565b60716020526000908152604090205473ffffffffffffffffffffffffffffffffffffffff1681565b61038161046d36600461429b565b610ea3565b6104856104803660046142d8565b610ebd565b60405161038d9190614330565b6103816104a0366004614343565b610f36565b6104856104b33660046142d8565b610fd5565b6103596104c636600461438a565b611097565b6104de6104d9366004613fa0565b61114f565b60405161038d9190614452565b336000908152606660205260409020541515610381565b6105226105103660046142d8565b60666020526000908152604090205481565b60405190815260200161038d565b61035961053e3660046142d8565b6111e9565b610522610551366004614465565b606f602090815260009283526040909220815180830184018051928152908401929093019190912091525481565b606c546104049073ffffffffffffffffffffffffffffffffffffffff1681565b6103596105ad366004614343565b611328565b6105226105c03660046142d8565b60676020526000908152604090205481565b6103596105e03660046142d8565b606580547fffffffffffffffffffffffff00000000000000000000000000000000000000001673ffffffffffffffffffffffffffffffffffffffff92909216919091179055565b610359611337565b61052261063d366004613fa0565b611349565b606b546104049073ffffffffffffffffffffffffffffffffffffffff1681565b60335473ffffffffffffffffffffffffffffffffffffffff16610404565b61035961068e36600461449f565b61144b565b6106bd6106a13660046142d8565b6070602052600090815260409020600281015460039091015482565b6040805192835260208301919091520161038d565b6104de6115c0565b6103596106e836600461429b565b61167b565b6103596106fb366004613fa0565b6116bf565b6068546104049073ffffffffffffffffffffffffffffffffffffffff1681565b610522606d5481565b610359610737366004614343565b6117bc565b61035961074a36600461438a565b611854565b61035961075d36600461438a565b611897565b6103596118de565b6103596107783660046142d8565b611a49565b61052261078b3660046144d4565b73ffffffffffffffffffffffffffffffffffffffff91909116600090815260706020908152604080832093835260049093019052205490565b610359611c6c565b6069546104049073ffffffffffffffffffffffffffffffffffffffff1681565b6103596107fa3660046142d8565b611d7b565b61052261080d3660046142d8565b611f37565b6103596108203660046142d8565b61201e565b61035961083336600461449f565b6121da565b61052260755481565b6103816121e4565b610359610857366004614343565b61221d565b61035961086a3660046142d8565b612228565b61035961087d36600461429b565b6122dc565b606b546040517ffe9fbb8000000000000000000000000000000000000000000000000000000000815233600482015273ffffffffffffffffffffffffffffffffffffffff9091169063fe9fbb8090602401602060405180830381865afa1580156108f0573d6000803e3d6000fd5b505050506040513d601f19601f820116820180604052508101906109149190614500565b61097f576040517f08c379a000000000000000000000000000000000000000000000000000000000815260206004820152601160248201527f5742423a20556e617574686f72697a656400000000000000000000000000000060448201526064015b60405180910390fd5b6074805460ff808216157fffffffffffffffffffffffffffffffffffffffffffffffffffffffffffffff0090921682179092557f5c198fffee97c54ce21fb3966c0158a0e94681cabb57e72da2840248401344bf91163360408051921515835273ffffffffffffffffffffffffffffffffffffffff90911660208301520160405180910390a1565b610a193382610a146115c0565b612320565b50565b600080610a2a846064614551565b610a3c90670de0b6b3a7640000614551565b8310159150505b92915050565b33600081815260666020526040812054909190848114610ac5576040517f08c379a000000000000000000000000000000000000000000000000000000000815260206004820181905260248201527f576f726c64426174746c653a2053657373696f6e20686173206368616e6765646044820152606401610976565b6000610ad28684876126b9565b9050610ade8188610f36565b610b44576040517f08c379a000000000000000000000000000000000000000000000000000000000815260206004820152601d60248201527f576f726c64426174746c653a20436f756c646e2774205665726966792e0000006044820152606401610976565b6000610b4f846126ef565b73ffffffffffffffffffffffffffffffffffffffff85166000818152606660209081526040808320859055606782529182902042905581518b815290810184905292935090917ff977e7d4096cc35c20f46a1c7160bf678955959f7f0bf364c3d8130207f0e1d6910160405180910390a2506001979650505050505050565b60745460ff1615610c3b576040517f08c379a000000000000000000000000000000000000000000000000000000000815260206004820152601460248201527f5742423a2047616d65206e6f74206163746976650000000000000000000000006044820152606401610976565b565b600054610100900460ff1615808015610c5d5750600054600160ff909116105b80610c775750303b158015610c77575060005460ff166001145b610d03576040517f08c379a000000000000000000000000000000000000000000000000000000000815260206004820152602e60248201527f496e697469616c697a61626c653a20636f6e747261637420697320616c72656160448201527f647920696e697469616c697a65640000000000000000000000000000000000006064820152608401610976565b600080547fffffffffffffffffffffffffffffffffffffffffffffffffffffffffffffff001660011790558015610d6157600080547fffffffffffffffffffffffffffffffffffffffffffffffffffffffffffff00ff166101001790555b606880547fffffffffffffffffffffffff000000000000000000000000000000000000000090811673ffffffffffffffffffffffffffffffffffffffff8b8116919091179092556069805482168a8416179055606c80548216898416179055606a80548216868416179055606b8054821685841617905542606d55600a607555607480547fffffffffffffffffffffffffffffffffffffffffffffffffffffffffffffff0016600117905560658054909116918716919091179055610e2461275e565b8015610e8757600080547fffffffffffffffffffffffffffffffffffffffffffffffffffffffffffff00ff169055604051600181527f7f26b83ff96e1f2b6a682f133852f6798a09c465da95921460cefb38474024989060200160405180910390a15b5050505050505050565b610a193382610e9e6115c0565b6127f5565b600060755482516001610eb69190614568565b1092915050565b73ffffffffffffffffffffffffffffffffffffffff8116600090815260706020908152604091829020805483518184028101840190945280845260609392830182828015610f2a57602002820191906000526020600020905b815481526020019060010190808311610f16575b50505050509050919050565b600080610f90846040517f19457468657265756d205369676e6564204d6573736167653a0a3332000000006020820152603c8101829052600090605c01604051602081830303815290604052805190602001209050919050565b60655490915073ffffffffffffffffffffffffffffffffffffffff16610fb68285612f70565b73ffffffffffffffffffffffffffffffffffffffff1614949350505050565b6068546040517f178b6de600000000000000000000000000000000000000000000000000000000815273ffffffffffffffffffffffffffffffffffffffff838116600483015260609260009291169063178b6de690602401600060405180830381865afa15801561104a573d6000803e3d6000fd5b505050506040513d6000823e601f3d9081017fffffffffffffffffffffffffffffffffffffffffffffffffffffffffffffffe0168201604052611090919081019061457b565b9392505050565b6110a082610ea3565b611106576040517f08c379a000000000000000000000000000000000000000000000000000000000815260206004820152601760248201527f5742423a204d617820746f6b656e73207374616b65642e0000000000000000006044820152606401610976565b3360005b835181101561114957611137828583815181106111295761112961460c565b6020026020010151856127f5565b806111418161463b565b91505061110a565b50505050565b6072602052600090815260409020805461116890614673565b80601f016020809104026020016040519081016040528092919081815260200182805461119490614673565b80156111e15780601f106111b6576101008083540402835291602001916111e1565b820191906000526020600020905b8154815290600101906020018083116111c457829003601f168201915b505050505081565b606b546040517ffe9fbb8000000000000000000000000000000000000000000000000000000000815233600482015273ffffffffffffffffffffffffffffffffffffffff9091169063fe9fbb8090602401602060405180830381865afa158015611257573d6000803e3d6000fd5b505050506040513d601f19601f8201168201806040525081019061127b9190614500565b6112e1576040517f08c379a000000000000000000000000000000000000000000000000000000000815260206004820152601160248201527f5742423a20556e617574686f72697a65640000000000000000000000000000006044820152606401610976565b606c80547fffffffffffffffffffffffff00000000000000000000000000000000000000001673ffffffffffffffffffffffffffffffffffffffff92909216919091179055565b611333338383612320565b5050565b61133f612f94565b610c3b6000613015565b606b546040517ffe9fbb8000000000000000000000000000000000000000000000000000000000815233600482015260009173ffffffffffffffffffffffffffffffffffffffff169063fe9fbb8090602401602060405180830381865afa1580156113b8573d6000803e3d6000fd5b505050506040513d601f19601f820116820180604052508101906113dc9190614500565b611442576040517f08c379a000000000000000000000000000000000000000000000000000000000815260206004820152601160248201527f5742423a20556e617574686f72697a65640000000000000000000000000000006044820152606401610976565b50607381905590565b6000336068546040517f178b6de600000000000000000000000000000000000000000000000000000000815273ffffffffffffffffffffffffffffffffffffffff80841660048301529293506000929091169063178b6de690602401600060405180830381865afa1580156114c4573d6000803e3d6000fd5b505050506040513d6000823e601f3d9081017fffffffffffffffffffffffffffffffffffffffffffffffffffffffffffffffe016820160405261150a919081019061457b565b805190915080156111495760005b818110156115b9573073ffffffffffffffffffffffffffffffffffffffff166367f134a084838151811061154e5761154e61460c565b6020026020010151876040518363ffffffff1660e01b81526004016115749291906146c6565b600060405180830381600087803b15801561158e57600080fd5b505af11580156115a2573d6000803e3d6000fd5b5050505080806115b19061463b565b915050611518565b5050505050565b606a54604080517fbf81ee6d000000000000000000000000000000000000000000000000000000008152905160609273ffffffffffffffffffffffffffffffffffffffff169163bf81ee6d9160048083019260009291908290030181865afa158015611630573d6000803e3d6000fd5b505050506040513d6000823e601f3d9081017fffffffffffffffffffffffffffffffffffffffffffffffffffffffffffffffe016820160405261167691908101906146df565b905090565b60005b8151811015611333576116ad3383838151811061169d5761169d61460c565b6020026020010151610e9e6115c0565b806116b78161463b565b91505061167e565b606b546040517ffe9fbb8000000000000000000000000000000000000000000000000000000000815233600482015273ffffffffffffffffffffffffffffffffffffffff9091169063fe9fbb8090602401602060405180830381865afa15801561172d573d6000803e3d6000fd5b505050506040513d601f19601f820116820180604052508101906117519190614500565b6117b7576040517f08c379a000000000000000000000000000000000000000000000000000000000815260206004820152601160248201527f5742423a20556e617574686f72697a65640000000000000000000000000000006044820152606401610976565b607555565b60008281526071602052604090205473ffffffffffffffffffffffffffffffffffffffff163314611849576040517f08c379a000000000000000000000000000000000000000000000000000000000815260206004820152601260248201527f5742423a20556e617574686f72697a65642e00000000000000000000000000006044820152606401610976565b61133333838361308c565b3360005b835181101561114957611885828583815181106118775761187761460c565b60200260200101518561308c565b8061188f8161463b565b915050611858565b60005b82518110156118d9576118c7338483815181106118b9576118b961460c565b602002602001015184612320565b806118d18161463b565b91505061189a565b505050565b6068546040517f178b6de600000000000000000000000000000000000000000000000000000000815233600482015260009173ffffffffffffffffffffffffffffffffffffffff169063178b6de690602401600060405180830381865afa15801561194d573d6000803e3d6000fd5b505050506040513d6000823e601f3d9081017fffffffffffffffffffffffffffffffffffffffffffffffffffffffffffffffe0168201604052611993919081019061457b565b805190915080156113335760005b818110156118d9573073ffffffffffffffffffffffffffffffffffffffff166367f134a08483815181106119d7576119d761460c565b60200260200101516119e76115c0565b6040518363ffffffff1660e01b8152600401611a049291906146c6565b600060405180830381600087803b158015611a1e57600080fd5b505af1158015611a32573d6000803e3d6000fd5b505050508080611a419061463b565b9150506119a1565b606b546040517ffe9fbb8000000000000000000000000000000000000000000000000000000000815233600482015273ffffffffffffffffffffffffffffffffffffffff9091169063fe9fbb8090602401602060405180830381865afa158015611ab7573d6000803e3d6000fd5b505050506040513d601f19601f82011682018060405250810190611adb9190614500565b611b41576040517f08c379a000000000000000000000000000000000000000000000000000000000815260206004820152601160248201527f5742423a20556e617574686f72697a65640000000000000000000000000000006044820152606401610976565b73ffffffffffffffffffffffffffffffffffffffff8116611bbe576040517f08c379a000000000000000000000000000000000000000000000000000000000815260206004820152601960248201527f5742423a20496e76616c6964204e465420636f6e7472616374000000000000006044820152606401610976565b60685473ffffffffffffffffffffffffffffffffffffffff82811691167fcc84b7dfa78b34bb94bda9e3e859b03781c64e9c8870f014f905deb5917d1e343360405173ffffffffffffffffffffffffffffffffffffffff909116815260200160405180910390a3606880547fffffffffffffffffffffffff00000000000000000000000000000000000000001673ffffffffffffffffffffffffffffffffffffffff92909216919091179055565b60685460009073ffffffffffffffffffffffffffffffffffffffff1663178b6de6336040517fffffffff0000000000000000000000000000000000000000000000000000000060e084901b16815273ffffffffffffffffffffffffffffffffffffffff9091166004820152602401600060405180830381865afa158015611cf7573d6000803e3d6000fd5b505050506040513d6000823e601f3d9081017fffffffffffffffffffffffffffffffffffffffffffffffffffffffffffffffe0168201604052611d3d919081019061457b565b805190915080156113335760005b818110156118d957611d693384838151811061169d5761169d61460c565b80611d738161463b565b915050611d4b565b606b546040517ffe9fbb8000000000000000000000000000000000000000000000000000000000815233600482015273ffffffffffffffffffffffffffffffffffffffff9091169063fe9fbb8090602401602060405180830381865afa158015611de9573d6000803e3d6000fd5b505050506040513d601f19601f82011682018060405250810190611e0d9190614500565b611e73576040517f08c379a000000000000000000000000000000000000000000000000000000000815260206004820152601160248201527f5742423a20556e617574686f72697a65640000000000000000000000000000006044820152606401610976565b73ffffffffffffffffffffffffffffffffffffffff8116611ef0576040517f08c379a000000000000000000000000000000000000000000000000000000000815260206004820152601d60248201527f5742423a20496e76616c696420416374696f6e7320636f6e74726163740000006044820152606401610976565b606a80547fffffffffffffffffffffffff00000000000000000000000000000000000000001673ffffffffffffffffffffffffffffffffffffffff92909216919091179055565b73ffffffffffffffffffffffffffffffffffffffff8116600090815260666020526040812054808203610a43576040517fffffffffffffffffffffffffffffffffffffffff0000000000000000000000003360601b166020820152436034820152611090906054015b604080517fffffffffffffffffffffffffffffffffffffffffffffffffffffffffffffffe081840301815282825280516020918201207f19457468657265756d205369676e6564204d6573736167653a0a33320000000084830152603c8085019190915282518085039091018152605c909301909152815191012090565b606b546040517ffe9fbb8000000000000000000000000000000000000000000000000000000000815233600482015273ffffffffffffffffffffffffffffffffffffffff9091169063fe9fbb8090602401602060405180830381865afa15801561208c573d6000803e3d6000fd5b505050506040513d601f19601f820116820180604052508101906120b09190614500565b612116576040517f08c379a000000000000000000000000000000000000000000000000000000000815260206004820152601160248201527f5742423a20556e617574686f72697a65640000000000000000000000000000006044820152606401610976565b73ffffffffffffffffffffffffffffffffffffffff8116612193576040517f08c379a000000000000000000000000000000000000000000000000000000000815260206004820152601a60248201527f5742423a20496e76616c696420746f6b656e20616464726573730000000000006044820152606401610976565b606980547fffffffffffffffffffffffff00000000000000000000000000000000000000001673ffffffffffffffffffffffffffffffffffffffff92909216919091179055565b610a19338261399a565b6000336121f0816126ef565b73ffffffffffffffffffffffffffffffffffffffff90911660009081526066602052604090205550600190565b6113333383836127f5565b612230612f94565b73ffffffffffffffffffffffffffffffffffffffff81166122d3576040517f08c379a000000000000000000000000000000000000000000000000000000000815260206004820152602660248201527f4f776e61626c653a206e6577206f776e657220697320746865207a65726f206160448201527f64647265737300000000000000000000000000000000000000000000000000006064820152608401610976565b610a1981613015565b60005b81518110156113335761230e338383815181106122fe576122fe61460c565b6020026020010151610a146115c0565b806123188161463b565b9150506122df565b606a546040517f2af2677a00000000000000000000000000000000000000000000000000000000815273ffffffffffffffffffffffffffffffffffffffff90911690632af2677a90612376908490600401614452565b602060405180830381865afa158015612393573d6000803e3d6000fd5b505050506040513d601f19601f820116820180604052508101906123b79190614500565b1515600114612422576040517f08c379a000000000000000000000000000000000000000000000000000000000815260206004820152601e60248201527f4e46545374616b696e673a20626174746c65206e6f74206372656174656400006044820152606401610976565b60008281526071602052604090205473ffffffffffffffffffffffffffffffffffffffff8481169116146124b2576040517f08c379a000000000000000000000000000000000000000000000000000000000815260206004820152601960248201527f4e46545374616b696e673a20556e617574686f72697a65642e000000000000006044820152606401610976565b60008281526071602052604090205473ffffffffffffffffffffffffffffffffffffffff1661253d576040517f08c379a000000000000000000000000000000000000000000000000000000000815260206004820152601f60248201527f4e46545374616b696e673a20546f6b656e204964206e6f74207374616b6564006044820152606401610976565b606a546040517f47ff16ac00000000000000000000000000000000000000000000000000000000815273ffffffffffffffffffffffffffffffffffffffff909116906347ff16ac90612593908490600401614452565b602060405180830381865afa1580156125b0573d6000803e3d6000fd5b505050506040513d601f19601f820116820180604052508101906125d49190614500565b1561263b576040517f08c379a000000000000000000000000000000000000000000000000000000000815260206004820152601860248201527f4e46545374616b696e673a20626174746c6520656e64656400000000000000006044820152606401610976565b73ffffffffffffffffffffffffffffffffffffffff831660008181526070602090815260408083208684526004810190925291829020429081905591519092917f426eb4f62756d59893dffae42e39f4a32ec6d17cab2605ed0e8b6e1891c241be916126ab918791879190614756565b60405180910390a250505050565b60008383836040516020016126d09392919061477f565b6040516020818303038152906040528051906020012090509392505050565b73ffffffffffffffffffffffffffffffffffffffff811660009081526066602090815260408083205490517fffffffffffffffffffffffffffffffffffffffff0000000000000000000000003360601b16928101929092526034820152436054820152610a4390607401611fa0565b600054610100900460ff16610c3b576040517f08c379a000000000000000000000000000000000000000000000000000000000815260206004820152602b60248201527f496e697469616c697a61626c653a20636f6e7472616374206973206e6f74206960448201527f6e697469616c697a696e670000000000000000000000000000000000000000006064820152608401610976565b606a546040517f2af2677a00000000000000000000000000000000000000000000000000000000815273ffffffffffffffffffffffffffffffffffffffff90911690632af2677a9061284b908490600401614452565b602060405180830381865afa158015612868573d6000803e3d6000fd5b505050506040513d601f19601f8201168201806040525081019061288c9190614500565b6128f2576040517f08c379a000000000000000000000000000000000000000000000000000000000815260206004820152601760248201527f5742423a20626174746c65206e6f7420637265617465640000000000000000006044820152606401610976565b606a546040517f47ff16ac00000000000000000000000000000000000000000000000000000000815273ffffffffffffffffffffffffffffffffffffffff909116906347ff16ac90612948908490600401614452565b602060405180830381865afa158015612965573d6000803e3d6000fd5b505050506040513d601f19601f820116820180604052508101906129899190614500565b156129f0576040517f08c379a000000000000000000000000000000000000000000000000000000000815260206004820152601160248201527f5742423a20626174746c6520656e6465640000000000000000000000000000006044820152606401610976565b73ffffffffffffffffffffffffffffffffffffffff838116600081815260706020526040808220805460695492517f70a0823100000000000000000000000000000000000000000000000000000000815260048101959095529094859491939216906370a0823190602401602060405180830381865afa158015612a78573d6000803e3d6000fd5b505050506040513d601f19601f82011682018060405250810190612a9c91906147b4565b9050612ab2612aac836001614568565b82610a1c565b15612f0557600284018190558354600181810186556000868152602090209091018790558454612ae291906147cd565b6000878152600186810160209081526040808420949094556071815283832080547fffffffffffffffffffffffff00000000000000000000000000000000000000001673ffffffffffffffffffffffffffffffffffffffff8d81169182179092556004808b0190935293859020429055606854606c5495517ff242432a000000000000000000000000000000000000000000000000000000008152928301949094529384166024820152604481018a9052606481019190915260a06084820152600260a48201527f307800000000000000000000000000000000000000000000000000000000000060c482015291169063f242432a9060e401600060405180830381600087803b158015612bf557600080fd5b505af1158015612c09573d6000803e3d6000fd5b50505060008781526072602052604090209050612c26868261482e565b508673ffffffffffffffffffffffffffffffffffffffff167fa2a4b640524f5410a2969ac3f90a5c7a3197662d845ba3bdf16fe9010e5aad9a878742604051612c7193929190614756565b60405180910390a273ffffffffffffffffffffffffffffffffffffffff87166000908152606f60205260409081902090517f696e6465780000000000000000000000000000000000000000000000000000008152600501908152602001604051809103902054600003612e8f57606e805460018101825560009182527f9930d9ff0dee0ef5ca2f7710ea66b8f84dd0f5f5351ecffe72b952cd9db7142a0180547fffffffffffffffffffffffff00000000000000000000000000000000000000001673ffffffffffffffffffffffffffffffffffffffff8a161790555b606e54612d5d906001906147cd565b811015612de957612dd76040518060400160405280601581526020017f616c6c206f667374616b657273416464726573733a0000000000000000000000815250606e8381548110612db057612db061460c565b60009182526020909120015473ffffffffffffffffffffffffffffffffffffffff16613a9d565b80612de18161463b565b915050612d4e565b50606e5473ffffffffffffffffffffffffffffffffffffffff88166000818152606f6020818152604080842081517f696e646578000000000000000000000000000000000000000000000000000000815260058082018390528351602592819003830181209990995596909552929091527f636f756e74000000000000000000000000000000000000000000000000000000855292840152905191829003019020600190555b73ffffffffffffffffffffffffffffffffffffffff87166000908152606f60205260409081902090517f636f756e7400000000000000000000000000000000000000000000000000000081526005019081526040519081900360200190208054906000612efb8361463b565b9190505550612f67565b6040517f08c379a000000000000000000000000000000000000000000000000000000000815260206004820152601860248201527f4e6f7420656e6f75676820546f77657220546f6b656e732e00000000000000006044820152606401610976565b50505050505050565b6000806000612f7f8585613b2e565b91509150612f8c81613b73565b509392505050565b60335473ffffffffffffffffffffffffffffffffffffffff163314610c3b576040517f08c379a000000000000000000000000000000000000000000000000000000000815260206004820181905260248201527f4f776e61626c653a2063616c6c6572206973206e6f7420746865206f776e65726044820152606401610976565b6033805473ffffffffffffffffffffffffffffffffffffffff8381167fffffffffffffffffffffffff0000000000000000000000000000000000000000831681179093556040519116919082907f8be0079c531659141344cd1fd0a4f28419497f9722a3daafe3b4186f6b6457e090600090a35050565b606a546040517f2af2677a00000000000000000000000000000000000000000000000000000000815273ffffffffffffffffffffffffffffffffffffffff90911690632af2677a906130e2908490600401614452565b602060405180830381865afa1580156130ff573d6000803e3d6000fd5b505050506040513d601f19601f820116820180604052508101906131239190614500565b151560011461318e576040517f08c379a000000000000000000000000000000000000000000000000000000000815260206004820152601e60248201527f4e46545374616b696e673a20626174746c65206e6f74206372656174656400006044820152606401610976565b73ffffffffffffffffffffffffffffffffffffffff808416600090815260706020526040808220606a5491517f32165c3c000000000000000000000000000000000000000000000000000000008152909391909116906332165c3c906131f8908690600401614452565b6040805180830381865afa158015613214573d6000803e3d6000fd5b505050506040513d601f19601f820116820180604052508101906132389190614948565b6000868152600485016020526040902054909250421190508061325a57508042115b6132c0576040517f08c379a000000000000000000000000000000000000000000000000000000000815260206004820152601f60248201527f4e4654556e5374616b696e673a20636f6f6c646f776e206e6f74206f766572006044820152606401610976565b81546000906132d1906001906147cd565b905060008360000182815481106132ea576132ea61460c565b906000526020600020015490506000846001016000888152602001908152602001600020549050818560000182815481106133275761332761460c565b6000918252602080832090910192909255838152600187018252604080822084905589825260048801909252908120558454156133b757845485908061336f5761336f61496c565b6000828152602080822083017fffffffffffffffffffffffffffffffffffffffffffffffffffffffffffffffff90810183905590920190925588825260018701905260408120555b606854606c546040517ff242432a00000000000000000000000000000000000000000000000000000000815273ffffffffffffffffffffffffffffffffffffffff91821660048201528a82166024820152604481018a90526001606482015260a06084820152600260a48201527f307800000000000000000000000000000000000000000000000000000000000060c482015291169063f242432a9060e401600060405180830381600087803b15801561347057600080fd5b505af1158015613484573d6000803e3d6000fd5b505050508773ffffffffffffffffffffffffffffffffffffffff167fcdc644f7a40cb5d51e46e25428f724a3e15ae38f01d0e83c3c863f51719004db88886040516134d09291906146c6565b60405180910390a260008781526072602052604081206134ef91613f52565b73ffffffffffffffffffffffffffffffffffffffff88166000908152606f60205260409081902090517f696e6465780000000000000000000000000000000000000000000000000000008152600501908152602001604051809103902054600003613597576135926040518060400160405280600981526020017f6e6f7420666f756e640000000000000000000000000000000000000000000000815250613d26565b61389b565b73ffffffffffffffffffffffffffffffffffffffff88166000908152606f602052604080822090517f636f756e7400000000000000000000000000000000000000000000000000000081526005019081526020016040518091039020549050806001036138275773ffffffffffffffffffffffffffffffffffffffff89166000818152606f6020818152604080842081517f696e6465780000000000000000000000000000000000000000000000000000008082526005808301849052845160259381900384018120548a8a5288885292815280820185905285519081900384018120899055988852959094527f636f756e740000000000000000000000000000000000000000000000000000008752938601525193849003909101909220819055606e80546136c9906001906147cd565b815481106136d9576136d961460c565b600091825260209091200154606e805473ffffffffffffffffffffffffffffffffffffffff909216925090806137115761371161496c565b60008281526020902081017fffffffffffffffffffffffffffffffffffffffffffffffffffffffffffffffff90810180547fffffffffffffffffffffffff000000000000000000000000000000000000000016905501905580606e6137776001856147cd565b815481106137875761378761460c565b600091825260208083209190910180547fffffffffffffffffffffffff00000000000000000000000000000000000000001673ffffffffffffffffffffffffffffffffffffffff9485161790559183168152606f90915260409081902090517f696e646578000000000000000000000000000000000000000000000000000000815283919060050190815260405190819003602001902055506138999050565b73ffffffffffffffffffffffffffffffffffffffff89166000908152606f60205260409081902090517f636f756e74000000000000000000000000000000000000000000000000000000815260050190815260405190819003602001902080549060006138938361499b565b91905055505b505b60005b8554811015613917576139056040518060400160405280601081526020017f746f6b656e6449642053746f7265643a000000000000000000000000000000008152508760000183815481106138f5576138f561460c565b9060005260206000200154613db5565b8061390f8161463b565b91505061389e565b5060005b606e5461392a906001906147cd565b81101561398f5761397d6040518060400160405280601581526020017f616c6c206f667374616b657273416464726573733a0000000000000000000000815250606e8381548110612db057612db061460c565b806139878161463b565b91505061391b565b505050505050505050565b6068546040517f178b6de600000000000000000000000000000000000000000000000000000000815273ffffffffffffffffffffffffffffffffffffffff8481166004830152600092169063178b6de690602401600060405180830381865afa158015613a0b573d6000803e3d6000fd5b505050506040513d6000823e601f3d9081017fffffffffffffffffffffffffffffffffffffffffffffffffffffffffffffffe0168201604052613a51919081019061457b565b805190915080156111495760005b818110156115b957613a8b85848381518110613a7d57613a7d61460c565b60200260200101518661308c565b80613a958161463b565b915050613a5f565b6113338282604051602401613ab39291906149d0565b604080517fffffffffffffffffffffffffffffffffffffffffffffffffffffffffffffffe08184030181529190526020810180517bffffffffffffffffffffffffffffffffffffffffffffffffffffffff167f319af33300000000000000000000000000000000000000000000000000000000179052613e42565b6000808251604103613b645760208301516040840151606085015160001a613b5887828585613e63565b94509450505050613b6c565b506000905060025b9250929050565b6000816004811115613b8757613b87614a08565b03613b8f5750565b6001816004811115613ba357613ba3614a08565b03613c0a576040517f08c379a000000000000000000000000000000000000000000000000000000000815260206004820152601860248201527f45434453413a20696e76616c6964207369676e617475726500000000000000006044820152606401610976565b6002816004811115613c1e57613c1e614a08565b03613c85576040517f08c379a000000000000000000000000000000000000000000000000000000000815260206004820152601f60248201527f45434453413a20696e76616c6964207369676e6174757265206c656e677468006044820152606401610976565b6003816004811115613c9957613c99614a08565b03610a19576040517f08c379a000000000000000000000000000000000000000000000000000000000815260206004820152602260248201527f45434453413a20696e76616c6964207369676e6174757265202773272076616c60448201527f75650000000000000000000000000000000000000000000000000000000000006064820152608401610976565b610a1981604051602401613d3a9190614452565b604080517fffffffffffffffffffffffffffffffffffffffffffffffffffffffffffffffe08184030181529190526020810180517bffffffffffffffffffffffffffffffffffffffffffffffffffffffff167f41304fac00000000000000000000000000000000000000000000000000000000179052613e42565b6113338282604051602401613dcb929190614a37565b604080517fffffffffffffffffffffffffffffffffffffffffffffffffffffffffffffffe08184030181529190526020810180517bffffffffffffffffffffffffffffffffffffffffffffffffffffffff167fb60e72cc000000000000000000000000000000000000000000000000000000001790525b80516a636f6e736f6c652e6c6f67602083016000808483855afa5050505050565b6000807f7fffffffffffffffffffffffffffffff5d576e7357a4501ddfe92f46681b20a0831115613e9a5750600090506003613f49565b6040805160008082526020820180845289905260ff881692820192909252606081018690526080810185905260019060a0016020604051602081039080840390855afa158015613eee573d6000803e3d6000fd5b50506040517fffffffffffffffffffffffffffffffffffffffffffffffffffffffffffffffe0015191505073ffffffffffffffffffffffffffffffffffffffff8116613f4257600060019250925050613f49565b9150600090505b94509492505050565b508054613f5e90614673565b6000825580601f10613f6e575050565b601f016020900490600052602060002090810190610a1991905b80821115613f9c5760008155600101613f88565b5090565b600060208284031215613fb257600080fd5b5035919050565b60008060408385031215613fcc57600080fd5b50508035926020909101359150565b7f4e487b7100000000000000000000000000000000000000000000000000000000600052604160045260246000fd5b604051601f82017fffffffffffffffffffffffffffffffffffffffffffffffffffffffffffffffe016810167ffffffffffffffff8111828210171561405157614051613fdb565b604052919050565b600067ffffffffffffffff82111561407357614073613fdb565b50601f017fffffffffffffffffffffffffffffffffffffffffffffffffffffffffffffffe01660200190565b600082601f8301126140b057600080fd5b81356140c36140be82614059565b61400a565b8181528460208386010111156140d857600080fd5b816020850160208301376000918101602001919091529392505050565b600067ffffffffffffffff82111561410f5761410f613fdb565b5060051b60200190565b600082601f83011261412a57600080fd5b8135602061413a6140be836140f5565b82815260059290921b8401810191818101908684111561415957600080fd5b8286015b84811015614174578035835291830191830161415d565b509695505050505050565b60008060006060848603121561419457600080fd5b833567ffffffffffffffff808211156141ac57600080fd5b6141b88783880161409f565b94506020860135935060408601359150808211156141d557600080fd5b506141e286828701614119565b9150509250925092565b73ffffffffffffffffffffffffffffffffffffffff81168114610a1957600080fd5b600080600080600080600060e0888a03121561422957600080fd5b8735614234816141ec565b96506020880135614244816141ec565b95506040880135614254816141ec565b94506060880135614264816141ec565b93506080880135925060a088013561427b816141ec565b915060c088013561428b816141ec565b8091505092959891949750929550565b6000602082840312156142ad57600080fd5b813567ffffffffffffffff8111156142c457600080fd5b6142d084828501614119565b949350505050565b6000602082840312156142ea57600080fd5b8135611090816141ec565b600081518084526020808501945080840160005b8381101561432557815187529582019590820190600101614309565b509495945050505050565b60208152600061109060208301846142f5565b6000806040838503121561435657600080fd5b82359150602083013567ffffffffffffffff81111561437457600080fd5b6143808582860161409f565b9150509250929050565b6000806040838503121561439d57600080fd5b823567ffffffffffffffff808211156143b557600080fd5b6143c186838701614119565b935060208501359150808211156143d757600080fd5b506143808582860161409f565b60005b838110156143ff5781810151838201526020016143e7565b50506000910152565b600081518084526144208160208601602086016143e4565b601f017fffffffffffffffffffffffffffffffffffffffffffffffffffffffffffffffe0169290920160200192915050565b6020815260006110906020830184614408565b6000806040838503121561447857600080fd5b8235614483816141ec565b9150602083013567ffffffffffffffff81111561437457600080fd5b6000602082840312156144b157600080fd5b813567ffffffffffffffff8111156144c857600080fd5b6142d08482850161409f565b600080604083850312156144e757600080fd5b82356144f2816141ec565b946020939093013593505050565b60006020828403121561451257600080fd5b8151801515811461109057600080fd5b7f4e487b7100000000000000000000000000000000000000000000000000000000600052601160045260246000fd5b8082028115828204841417610a4357610a43614522565b80820180821115610a4357610a43614522565b6000602080838503121561458e57600080fd5b825167ffffffffffffffff8111156145a557600080fd5b8301601f810185136145b657600080fd5b80516145c46140be826140f5565b81815260059190911b820183019083810190878311156145e357600080fd5b928401925b82841015614601578351825292840192908401906145e8565b979650505050505050565b7f4e487b7100000000000000000000000000000000000000000000000000000000600052603260045260246000fd5b60007fffffffffffffffffffffffffffffffffffffffffffffffffffffffffffffffff820361466c5761466c614522565b5060010190565b600181811c9082168061468757607f821691505b6020821081036146c0577f4e487b7100000000000000000000000000000000000000000000000000000000600052602260045260246000fd5b50919050565b8281526040602082015260006142d06040830184614408565b6000602082840312156146f157600080fd5b815167ffffffffffffffff81111561470857600080fd5b8201601f8101841361471957600080fd5b80516147276140be82614059565b81815285602083850101111561473c57600080fd5b61474d8260208301602086016143e4565b95945050505050565b83815260606020820152600061476f6060830185614408565b9050826040830152949350505050565b83815273ffffffffffffffffffffffffffffffffffffffff8316602082015260606040820152600061474d60608301846142f5565b6000602082840312156147c657600080fd5b5051919050565b81810381811115610a4357610a43614522565b601f8211156118d957600081815260208120601f850160051c810160208610156148075750805b601f850160051c820191505b8181101561482657828155600101614813565b505050505050565b815167ffffffffffffffff81111561484857614848613fdb565b61485c816148568454614673565b846147e0565b602080601f8311600181146148af57600084156148795750858301515b7fffffffffffffffffffffffffffffffffffffffffffffffffffffffffffffffff600386901b1c1916600185901b178555614826565b6000858152602081207fffffffffffffffffffffffffffffffffffffffffffffffffffffffffffffffe08616915b828110156148fc578886015182559484019460019091019084016148dd565b508582101561493857878501517fffffffffffffffffffffffffffffffffffffffffffffffffffffffffffffffff600388901b60f8161c191681555b5050505050600190811b01905550565b6000806040838503121561495b57600080fd5b505080516020909101519092909150565b7f4e487b7100000000000000000000000000000000000000000000000000000000600052603160045260246000fd5b6000816149aa576149aa614522565b507fffffffffffffffffffffffffffffffffffffffffffffffffffffffffffffffff0190565b6040815260006149e36040830185614408565b905073ffffffffffffffffffffffffffffffffffffffff831660208301529392505050565b7f4e487b7100000000000000000000000000000000000000000000000000000000600052602160045260246000fd5b604081526000614a4a6040830185614408565b9050826020830152939250505056fea2646970667358221220a646659884498d91a46510f0b074de3b557e70c66492fd2973bc7c27c2240f2564736f6c63430008110033",
  "devdoc": {
    "author": "@notice you can use this contract for only staking, unstaking and restaking the NFTs",
    "details": "WorldBattleSession,BattleOps and BattleOps are being inheriented in this contract",
    "kind": "dev",
    "methods": {
      "checkRequiredTokenBalance(uint256,uint256)": {
        "params": {
          "_balance": "user tower token balance",
          "_nftCount": "how many nft user have"
        },
        "returns": {
          "_0": "true if he has higher tower token balance than required"
        }
      },
      "getAllToken(address)": {
        "params": {
          "_player": "address of a user"
        }
      },
      "getStakedTokensFor(address)": {
        "params": {
          "_player": "is the user address"
        }
      },
      "initialize(address,address,address,address,uint256,address,address)": {
        "params": {
          "_cdhNft": "is to store contract address for CDHNFTInventory,",
          "_nftHolder": "is to store nftholder address",
          "_towerToken": "is to store contract address for toker token,"
        }
      },
      "owner()": {
        "details": "Returns the address of the current owner."
      },
      "renounceOwnership()": {
        "details": "Leaves the contract without owner. It will not be possible to call `onlyOwner` functions anymore. Can only be called by the current owner. NOTE: Renouncing ownership will leave the contract without an owner, thereby removing any functionality that is only available to the owner."
      },
      "restake(uint256,string)": {
        "params": {
          "_battleId": "in which the token id will be restaked",
          "_tokenId": "is tokenid that user have"
        }
      },
      "restakeAll(string)": {
        "params": {
          "_battleId": "in which the token id will be restaked"
        }
      },
      "restakeTokens(uint256[],string)": {
        "params": {
          "_battleId": "in which the token id will be restaked",
          "_tokenIds": "is tokenid that user have staked"
        }
      },
      "restakeTokensWithoutBattleId(uint256[])": {
        "params": {
          "_tokenIds": "is tokenid that user are about to stake"
        }
      },
      "restakeWithoutBattleId(uint256)": {
        "params": {
          "_tokenId": "is tokenid that user are about to stake"
        }
      },
      "setCDHNFTContractAddress(address)": {
        "details": "only admin can set that",
        "params": {
          "_nftContract": "new NFT address"
        }
      },
      "setCoolDownPeriod(uint256)": {
        "params": {
          "time": "in unix"
        },
        "returns": {
          "_0": "time"
        }
      },
      "setNFTHolderAddress(address)": {
        "details": "only admin can set that",
        "params": {
          "_holder": "new holder address"
        }
      },
      "setTowerToken(address)": {
        "details": "only admin can set that",
        "params": {
          "_towerToken": "is the new token address"
        }
      },
      "stake(uint256,string)": {
        "details": "it calls internalStake function for further processing",
        "params": {
          "_battleId": "is unique battle in which the NFT will be staked",
          "_tokenId": "is tokenId of CDHNFT"
        }
      },
      "stakeTokens(uint256[],string)": {
        "details": "it calls internalStake function for further processing",
        "params": {
          "_battleId": "is unique battle in which the NFT will be staked",
          "tokenIds": "is an array of tokenId of CDHNFT"
        }
      },
      "stakeTokensWithoutBattleId(uint256[])": {
        "params": {
          "_tokenIds": "an array of NFT"
        }
      },
      "stakeWithoutBattleId(uint256)": {
        "params": {
          "_tokenId": "is tokenid that user are about to stake"
        }
      },
      "toReturnStakedTokenTime(address,uint256)": {
        "params": {
          "_player": "user address",
          "_tokenId": "token id which he staked"
        }
      },
      "transferOwnership(address)": {
        "details": "Transfers ownership of the contract to a new account (`newOwner`). Can only be called by the current owner."
      },
      "unstake(uint256,string)": {
        "details": "it calls internalUnStake function for further processing",
        "params": {
          "_battleId": "is unique battle in which the NFT will be unstaked",
          "_tokenId": "is tokenId of CDHNFT"
        }
      },
      "unstakeAll(string)": {
        "details": "it calls internalUnStakeAll function for further processing",
        "params": {
          "_battleId": "is unique battle in which the NFT will be unstaked"
        }
      },
      "unstakeTokens(uint256[],string)": {
        "details": "it calls internalUnStake function for further processing",
        "params": {
          "_battleId": "is unique battle in which the NFT will be unstaked",
          "tokenIds": "is tokenId of CDHNFT"
        }
      }
    },
    "title": "creation of WorldBossBattle where user can stake their NFT",
    "version": 1
  },
  "userdoc": {
    "events": {
      "NFTRestaked(address,uint256,string,uint256)": {
        "notice": "event is emitted when nft is restaked with owner address, token id and in which battle the token is restaked"
      },
      "NFTStaked(address,uint256,string,uint256)": {
        "notice": "event is emitted when nft is staked with owner address, token id and in which battle the token is staked"
      },
      "NFTUnstaked(address,uint256,string)": {
        "notice": "event is emitted when nft is unstaked with owner address, token id and in which battle the token is unstaked"
      },
      "SetGamePausedState(bool,address)": {
        "notice": "event for when game is paused which emits isPaused status and sender address"
      },
      "SetNFTContract(address,address,address)": {
        "notice": "Event for when setting cdh contract which emitts old cdh NFT adress and new cdh NFT address along with sender adddress"
      }
    },
    "kind": "user",
    "methods": {
      "cdhNFT()": {
        "notice": "to store cdhNFT contract address"
      },
      "checkRequiredTokenBalance(uint256,uint256)": {
        "notice": "internal methods for staking operations"
      },
      "getAllToken(address)": {
        "notice": "function to get all the token that a address have"
      },
      "getStakedTokensFor(address)": {
        "notice": "function to get the tokenId of a user that staked"
      },
      "initialize(address,address,address,address,uint256,address,address)": {
        "notice": "since it is upgradable function it is initialized instead of using constructor"
      },
      "isGamePaused()": {
        "notice": "to store if the game should be paused or not"
      },
      "mappingArray(address,string)": {
        "notice": "below is nested mapping, have two string acts as unique key they are index and count index denote         the \"stakersAddress\" index where value counts how many times staking is done"
      },
      "restake(uint256,string)": {
        "notice": "function where  restaking works"
      },
      "restakeAll(string)": {
        "notice": "function where restakeAll works"
      },
      "restakeAllWithoutBattleId()": {
        "notice": "function where user can restakeAll without battleId"
      },
      "restakeTokens(uint256[],string)": {
        "notice": "function where  restakeTokens works"
      },
      "restakeTokensWithoutBattleId(uint256[])": {
        "notice": "function where user can restake an array without battleId"
      },
      "restakeWithoutBattleId(uint256)": {
        "notice": "function where user can restake without battleId"
      },
      "setCDHNFTContractAddress(address)": {
        "notice": "function to change the contract address of CDHNFT"
      },
      "setCoolDownPeriod(uint256)": {
        "notice": "to set the cooldown period"
      },
      "setNFTHolderAddress(address)": {
        "notice": "function to change the holder address that will set CDHNFT"
      },
      "setTowerToken(address)": {
        "notice": "function to change the contract address of tower token"
      },
      "stake(uint256,string)": {
        "notice": "public function to stake a single CDHNFT that sender owns"
      },
      "stakeAllWithoutBattleId()": {
        "notice": "function where user can stake all NFT without battleId"
      },
      "stakeTokens(uint256[],string)": {
        "notice": "public function to stake a array of CDHNFT that sender owns"
      },
      "stakeTokensWithoutBattleId(uint256[])": {
        "notice": "function to stake an array of token without battleID"
      },
      "stakeWithoutBattleId(uint256)": {
        "notice": "function where user can stake without battleId"
      },
      "stakers(address)": {
        "notice": "mapping for TokenStakers"
      },
      "toReturnStakedTokenTime(address,uint256)": {
        "notice": "function to see user stakedTokenTime"
      },
      "tokenOwner(uint256)": {
        "notice": "Mapping of tokenId to owner's address"
      },
      "tokenToBattleId(uint256)": {
        "notice": "maps tokenId to battleId"
      },
      "towerToken()": {
        "notice": "to store tower token contract"
      },
      "unstake(uint256,string)": {
        "notice": "public function to unstake a single CDHNFT that sender owns"
      },
      "unstakeAll(string)": {
        "notice": "public function to unstake all  CDHNFT that sender owns"
      },
      "unstakeTokens(uint256[],string)": {
        "notice": "public function to unstake an array of  CDHNFT that sender owns"
      }
    },
    "version": 1
  },
  "storageLayout": {
    "storage": [
      {
        "astId": 547,
        "contract": "contracts/game/WorldBossBattle.sol:WorldBossBattle",
        "label": "_initialized",
        "offset": 0,
        "slot": "0",
        "type": "t_uint8"
      },
      {
        "astId": 550,
        "contract": "contracts/game/WorldBossBattle.sol:WorldBossBattle",
        "label": "_initializing",
        "offset": 1,
        "slot": "0",
        "type": "t_bool"
      },
      {
        "astId": 1034,
        "contract": "contracts/game/WorldBossBattle.sol:WorldBossBattle",
        "label": "__gap",
        "offset": 0,
        "slot": "1",
        "type": "t_array(t_uint256)50_storage"
      },
      {
        "astId": 419,
        "contract": "contracts/game/WorldBossBattle.sol:WorldBossBattle",
        "label": "_owner",
        "offset": 0,
        "slot": "51",
        "type": "t_address"
      },
      {
        "astId": 539,
        "contract": "contracts/game/WorldBossBattle.sol:WorldBossBattle",
        "label": "__gap",
        "offset": 0,
        "slot": "52",
        "type": "t_array(t_uint256)49_storage"
      },
      {
        "astId": 4165,
        "contract": "contracts/game/WorldBossBattle.sol:WorldBossBattle",
        "label": "signer",
        "offset": 0,
        "slot": "101",
        "type": "t_address"
      },
      {
        "astId": 4169,
        "contract": "contracts/game/WorldBossBattle.sol:WorldBossBattle",
        "label": "sessions",
        "offset": 0,
        "slot": "102",
        "type": "t_mapping(t_address,t_bytes32)"
      },
      {
        "astId": 4173,
        "contract": "contracts/game/WorldBossBattle.sol:WorldBossBattle",
        "label": "syncedTime",
        "offset": 0,
        "slot": "103",
        "type": "t_mapping(t_address,t_uint256)"
      },
      {
        "astId": 5313,
        "contract": "contracts/game/WorldBossBattle.sol:WorldBossBattle",
        "label": "cdhNFT",
        "offset": 0,
        "slot": "104",
        "type": "t_contract(ICDHNFTInventory)6996"
      },
      {
        "astId": 5317,
        "contract": "contracts/game/WorldBossBattle.sol:WorldBossBattle",
        "label": "towerToken",
        "offset": 0,
        "slot": "105",
        "type": "t_contract(ITOWER)7016"
      },
      {
        "astId": 5320,
        "contract": "contracts/game/WorldBossBattle.sol:WorldBossBattle",
        "label": "wbbActions",
        "offset": 0,
        "slot": "106",
        "type": "t_contract(IWBBActions)7132"
      },
      {
        "astId": 5323,
        "contract": "contracts/game/WorldBossBattle.sol:WorldBossBattle",
        "label": "accessControls",
        "offset": 0,
        "slot": "107",
        "type": "t_contract(GameAccessControls)4146"
      },
      {
        "astId": 5325,
        "contract": "contracts/game/WorldBossBattle.sol:WorldBossBattle",
        "label": "nftHolder",
        "offset": 0,
        "slot": "108",
        "type": "t_address"
      },
      {
        "astId": 5327,
        "contract": "contracts/game/WorldBossBattle.sol:WorldBossBattle",
        "label": "lastInteractionTime",
        "offset": 0,
        "slot": "109",
        "type": "t_uint256"
      },
      {
        "astId": 5347,
        "contract": "contracts/game/WorldBossBattle.sol:WorldBossBattle",
        "label": "stakersAddress",
        "offset": 0,
        "slot": "110",
        "type": "t_array(t_address)dyn_storage"
      },
      {
        "astId": 5354,
        "contract": "contracts/game/WorldBossBattle.sol:WorldBossBattle",
        "label": "mappingArray",
        "offset": 0,
        "slot": "111",
        "type": "t_mapping(t_address,t_mapping(t_string_memory_ptr,t_uint256))"
      },
      {
        "astId": 5360,
        "contract": "contracts/game/WorldBossBattle.sol:WorldBossBattle",
        "label": "stakers",
        "offset": 0,
        "slot": "112",
        "type": "t_mapping(t_address,t_struct(TokenStaker)5343_storage)"
      },
      {
        "astId": 5365,
        "contract": "contracts/game/WorldBossBattle.sol:WorldBossBattle",
        "label": "tokenOwner",
        "offset": 0,
        "slot": "113",
        "type": "t_mapping(t_uint256,t_address)"
      },
      {
        "astId": 5370,
        "contract": "contracts/game/WorldBossBattle.sol:WorldBossBattle",
        "label": "tokenToBattleId",
        "offset": 0,
        "slot": "114",
        "type": "t_mapping(t_uint256,t_string_storage)"
      },
      {
        "astId": 5373,
        "contract": "contracts/game/WorldBossBattle.sol:WorldBossBattle",
        "label": "cooldownPeriod",
        "offset": 0,
        "slot": "115",
        "type": "t_uint256"
      },
      {
        "astId": 5376,
        "contract": "contracts/game/WorldBossBattle.sol:WorldBossBattle",
        "label": "isGamePaused",
        "offset": 0,
        "slot": "116",
        "type": "t_bool"
      },
      {
        "astId": 5378,
        "contract": "contracts/game/WorldBossBattle.sol:WorldBossBattle",
        "label": "maxStakeCount",
        "offset": 0,
        "slot": "117",
        "type": "t_uint256"
      }
    ],
    "types": {
      "t_address": {
        "encoding": "inplace",
        "label": "address",
        "numberOfBytes": "20"
      },
      "t_array(t_address)dyn_storage": {
        "base": "t_address",
        "encoding": "dynamic_array",
        "label": "address[]",
        "numberOfBytes": "32"
      },
      "t_array(t_uint256)49_storage": {
        "base": "t_uint256",
        "encoding": "inplace",
        "label": "uint256[49]",
        "numberOfBytes": "1568"
      },
      "t_array(t_uint256)50_storage": {
        "base": "t_uint256",
        "encoding": "inplace",
        "label": "uint256[50]",
        "numberOfBytes": "1600"
      },
      "t_array(t_uint256)dyn_storage": {
        "base": "t_uint256",
        "encoding": "dynamic_array",
        "label": "uint256[]",
        "numberOfBytes": "32"
      },
      "t_bool": {
        "encoding": "inplace",
        "label": "bool",
        "numberOfBytes": "1"
      },
      "t_bytes32": {
        "encoding": "inplace",
        "label": "bytes32",
        "numberOfBytes": "32"
      },
      "t_contract(GameAccessControls)4146": {
        "encoding": "inplace",
        "label": "contract GameAccessControls",
        "numberOfBytes": "20"
      },
      "t_contract(ICDHNFTInventory)6996": {
        "encoding": "inplace",
        "label": "contract ICDHNFTInventory",
        "numberOfBytes": "20"
      },
      "t_contract(ITOWER)7016": {
        "encoding": "inplace",
        "label": "contract ITOWER",
        "numberOfBytes": "20"
      },
      "t_contract(IWBBActions)7132": {
        "encoding": "inplace",
        "label": "contract IWBBActions",
        "numberOfBytes": "20"
      },
      "t_mapping(t_address,t_bytes32)": {
        "encoding": "mapping",
        "key": "t_address",
        "label": "mapping(address => bytes32)",
        "numberOfBytes": "32",
        "value": "t_bytes32"
      },
      "t_mapping(t_address,t_mapping(t_string_memory_ptr,t_uint256))": {
        "encoding": "mapping",
        "key": "t_address",
        "label": "mapping(address => mapping(string => uint256))",
        "numberOfBytes": "32",
        "value": "t_mapping(t_string_memory_ptr,t_uint256)"
      },
      "t_mapping(t_address,t_struct(TokenStaker)5343_storage)": {
        "encoding": "mapping",
        "key": "t_address",
        "label": "mapping(address => struct WorldBossBattle.TokenStaker)",
        "numberOfBytes": "32",
        "value": "t_struct(TokenStaker)5343_storage"
      },
      "t_mapping(t_address,t_uint256)": {
        "encoding": "mapping",
        "key": "t_address",
        "label": "mapping(address => uint256)",
        "numberOfBytes": "32",
        "value": "t_uint256"
      },
      "t_mapping(t_string_memory_ptr,t_uint256)": {
        "encoding": "mapping",
        "key": "t_string_memory_ptr",
        "label": "mapping(string => uint256)",
        "numberOfBytes": "32",
        "value": "t_uint256"
      },
      "t_mapping(t_uint256,t_address)": {
        "encoding": "mapping",
        "key": "t_uint256",
        "label": "mapping(uint256 => address)",
        "numberOfBytes": "32",
        "value": "t_address"
      },
      "t_mapping(t_uint256,t_string_storage)": {
        "encoding": "mapping",
        "key": "t_uint256",
        "label": "mapping(uint256 => string)",
        "numberOfBytes": "32",
        "value": "t_string_storage"
      },
      "t_mapping(t_uint256,t_uint256)": {
        "encoding": "mapping",
        "key": "t_uint256",
        "label": "mapping(uint256 => uint256)",
        "numberOfBytes": "32",
        "value": "t_uint256"
      },
      "t_string_memory_ptr": {
        "encoding": "bytes",
        "label": "string",
        "numberOfBytes": "32"
      },
      "t_string_storage": {
        "encoding": "bytes",
        "label": "string",
        "numberOfBytes": "32"
      },
      "t_struct(TokenStaker)5343_storage": {
        "encoding": "inplace",
        "label": "struct WorldBossBattle.TokenStaker",
        "members": [
          {
            "astId": 5330,
            "contract": "contracts/game/WorldBossBattle.sol:WorldBossBattle",
            "label": "tokenIds",
            "offset": 0,
            "slot": "0",
            "type": "t_array(t_uint256)dyn_storage"
          },
          {
            "astId": 5334,
            "contract": "contracts/game/WorldBossBattle.sol:WorldBossBattle",
            "label": "tokenIndex",
            "offset": 0,
            "slot": "1",
            "type": "t_mapping(t_uint256,t_uint256)"
          },
          {
            "astId": 5336,
            "contract": "contracts/game/WorldBossBattle.sol:WorldBossBattle",
            "label": "balance",
            "offset": 0,
            "slot": "2",
            "type": "t_uint256"
          },
          {
            "astId": 5338,
            "contract": "contracts/game/WorldBossBattle.sol:WorldBossBattle",
            "label": "stakedTime",
            "offset": 0,
            "slot": "3",
            "type": "t_uint256"
          },
          {
            "astId": 5342,
            "contract": "contracts/game/WorldBossBattle.sol:WorldBossBattle",
            "label": "stakedTokenTime",
            "offset": 0,
            "slot": "4",
            "type": "t_mapping(t_uint256,t_uint256)"
          }
        ],
        "numberOfBytes": "160"
      },
      "t_uint256": {
        "encoding": "inplace",
        "label": "uint256",
        "numberOfBytes": "32"
      },
      "t_uint8": {
        "encoding": "inplace",
        "label": "uint8",
        "numberOfBytes": "1"
      }
    }
  }
}