{
  "address": "0x713d3913fB1ae60F7d23ab2382e935c7267A53D9",
  "abi": [
    {
      "inputs": [],
      "stateMutability": "nonpayable",
      "type": "constructor"
    },
    {
      "inputs": [],
      "name": "NotEnoughTokens",
      "type": "error"
    },
    {
      "anonymous": false,
      "inputs": [
        {
          "indexed": false,
          "internalType": "uint8",
          "name": "version",
          "type": "uint8"
        }
      ],
      "name": "Initialized",
      "type": "event"
    },
    {
      "anonymous": false,
      "inputs": [
        {
          "indexed": true,
          "internalType": "address",
          "name": "_nftOwner",
          "type": "address"
        },
        {
          "indexed": false,
          "internalType": "uint256",
          "name": "_tokenId",
          "type": "uint256"
        },
        {
          "indexed": false,
          "internalType": "string",
          "name": "_battleId",
          "type": "string"
        },
        {
          "indexed": false,
          "internalType": "uint256",
          "name": "_stakedTokenTime",
          "type": "uint256"
        }
      ],
      "name": "NFTStaked",
      "type": "event"
    },
    {
      "anonymous": false,
      "inputs": [
        {
          "indexed": true,
          "internalType": "address",
          "name": "_nftReceiver",
          "type": "address"
        },
        {
          "indexed": false,
          "internalType": "uint256",
          "name": "_tokenId",
          "type": "uint256"
        },
        {
          "indexed": false,
          "internalType": "string",
          "name": "_battleId",
          "type": "string"
        }
      ],
      "name": "NFTUnstaked",
      "type": "event"
    },
    {
      "anonymous": false,
      "inputs": [
        {
          "indexed": false,
          "internalType": "address",
          "name": "account",
          "type": "address"
        }
      ],
      "name": "Paused",
      "type": "event"
    },
    {
      "anonymous": false,
      "inputs": [
        {
          "indexed": true,
          "internalType": "address",
          "name": "setterAddress",
          "type": "address"
        },
        {
          "indexed": false,
          "internalType": "bool",
          "name": "_status",
          "type": "bool"
        }
      ],
      "name": "SetBattlePeriodUnstakeStatus",
      "type": "event"
    },
    {
      "anonymous": false,
      "inputs": [
        {
          "indexed": false,
          "internalType": "uint256",
          "name": "_coolDownPeriod",
          "type": "uint256"
        },
        {
          "indexed": false,
          "internalType": "uint256",
          "name": "_newCoolDownPeriod",
          "type": "uint256"
        },
        {
          "indexed": false,
          "internalType": "address",
          "name": "_sender",
          "type": "address"
        }
      ],
      "name": "SetCoolDownPeriod",
      "type": "event"
    },
    {
      "anonymous": false,
      "inputs": [
        {
          "indexed": false,
          "internalType": "uint256",
          "name": "_maxOldCount",
          "type": "uint256"
        },
        {
          "indexed": false,
          "internalType": "uint256",
          "name": "_maxNewCount",
          "type": "uint256"
        },
        {
          "indexed": false,
          "internalType": "address",
          "name": "_sender",
          "type": "address"
        }
      ],
      "name": "SetMaxStakeCount",
      "type": "event"
    },
    {
      "anonymous": false,
      "inputs": [
        {
          "indexed": false,
          "internalType": "address",
          "name": "_sender",
          "type": "address"
        },
        {
          "indexed": false,
          "internalType": "uint256",
          "name": "_oldMinTokensRequired",
          "type": "uint256"
        },
        {
          "indexed": false,
          "internalType": "uint256",
          "name": "_newMinTokensRequired",
          "type": "uint256"
        }
      ],
      "name": "SetMinTokensRequired",
      "type": "event"
    },
    {
      "anonymous": false,
      "inputs": [
        {
          "indexed": true,
          "internalType": "address",
          "name": "_oldNFTContract",
          "type": "address"
        },
        {
          "indexed": true,
          "internalType": "address",
          "name": "_nftContract",
          "type": "address"
        },
        {
          "indexed": false,
          "internalType": "address",
          "name": "_sender",
          "type": "address"
        }
      ],
      "name": "SetNFTContract",
      "type": "event"
    },
    {
      "anonymous": false,
      "inputs": [
        {
          "indexed": true,
          "internalType": "address",
          "name": "_oldTokenContract",
          "type": "address"
        },
        {
          "indexed": true,
          "internalType": "address",
          "name": "_newTokenContract",
          "type": "address"
        },
        {
          "indexed": false,
          "internalType": "address",
          "name": "_sender",
          "type": "address"
        }
      ],
      "name": "SetTokenContract",
      "type": "event"
    },
    {
      "anonymous": false,
      "inputs": [
        {
          "indexed": true,
          "internalType": "address",
          "name": "_oldWBBActionsAddress",
          "type": "address"
        },
        {
          "indexed": true,
          "internalType": "address",
          "name": "_newWBBActionsAddress",
          "type": "address"
        },
        {
          "indexed": false,
          "internalType": "address",
          "name": "_sender",
          "type": "address"
        }
      ],
      "name": "SetWBBActionsAddress",
      "type": "event"
    },
    {
      "anonymous": false,
      "inputs": [
        {
          "indexed": false,
          "internalType": "address",
          "name": "account",
          "type": "address"
        }
      ],
      "name": "Unpaused",
      "type": "event"
    },
    {
      "inputs": [],
      "name": "accessControls",
      "outputs": [
        {
          "internalType": "contract IGameAccessControls",
          "name": "",
          "type": "address"
        }
      ],
      "stateMutability": "view",
      "type": "function"
    },
    {
      "inputs": [],
      "name": "cdhNFT",
      "outputs": [
        {
          "internalType": "contract ICDHNFTInventory",
          "name": "",
          "type": "address"
        }
      ],
      "stateMutability": "view",
      "type": "function"
    },
    {
      "inputs": [
        {
          "internalType": "uint256",
          "name": "_nftCount",
          "type": "uint256"
        },
        {
          "internalType": "uint256",
          "name": "_balance",
          "type": "uint256"
        }
      ],
      "name": "checkRequiredTokenBalance",
      "outputs": [
        {
          "internalType": "bool",
          "name": "",
          "type": "bool"
        }
      ],
      "stateMutability": "view",
      "type": "function"
    },
    {
      "inputs": [],
      "name": "cooldownPeriod",
      "outputs": [
        {
          "internalType": "uint256",
          "name": "",
          "type": "uint256"
        }
      ],
      "stateMutability": "view",
      "type": "function"
    },
    {
      "inputs": [],
      "name": "enableBattlePeriodUnstake",
      "outputs": [
        {
          "internalType": "bool",
          "name": "",
          "type": "bool"
        }
      ],
      "stateMutability": "view",
      "type": "function"
    },
    {
      "inputs": [
        {
          "internalType": "address",
          "name": "_player",
          "type": "address"
        }
      ],
      "name": "getAllToken",
      "outputs": [
        {
          "internalType": "uint256[]",
          "name": "",
          "type": "uint256[]"
        }
      ],
      "stateMutability": "view",
      "type": "function"
    },
    {
      "inputs": [
        {
          "internalType": "address",
          "name": "_player",
          "type": "address"
        },
        {
          "internalType": "uint256",
          "name": "_tokenId",
          "type": "uint256"
        }
      ],
      "name": "getStakedTokenTime",
      "outputs": [
        {
          "internalType": "uint256",
          "name": "",
          "type": "uint256"
        }
      ],
      "stateMutability": "view",
      "type": "function"
    },
    {
      "inputs": [
        {
          "internalType": "address",
          "name": "_player",
          "type": "address"
        },
        {
          "internalType": "string",
          "name": "_battleId",
          "type": "string"
        }
      ],
      "name": "getStakedTokensForBattle",
      "outputs": [
        {
          "internalType": "uint256[]",
          "name": "tokenIds",
          "type": "uint256[]"
        }
      ],
      "stateMutability": "view",
      "type": "function"
    },
    {
      "inputs": [
        {
          "internalType": "contract ICDHNFTInventory",
          "name": "_cdhNFTAddress",
          "type": "address"
        },
        {
          "internalType": "contract IToken",
          "name": "_tokenAddress",
          "type": "address"
        },
        {
          "internalType": "uint256",
          "name": "_maxStakeCount",
          "type": "uint256"
        },
        {
          "internalType": "contract IWBBActions",
          "name": "_wbbActionsAddress",
          "type": "address"
        },
        {
          "internalType": "contract IGameAccessControls",
          "name": "_accessControls",
          "type": "address"
        }
      ],
      "name": "initialize",
      "outputs": [],
      "stateMutability": "nonpayable",
      "type": "function"
    },
    {
      "inputs": [
        {
          "internalType": "string",
          "name": "_pastBattleId",
          "type": "string"
        },
        {
          "internalType": "address",
          "name": "_player",
          "type": "address"
        }
      ],
      "name": "isEligibleToStake",
      "outputs": [
        {
          "internalType": "bool",
          "name": "",
          "type": "bool"
        }
      ],
      "stateMutability": "view",
      "type": "function"
    },
    {
      "inputs": [],
      "name": "lastInteractionTime",
      "outputs": [
        {
          "internalType": "uint256",
          "name": "",
          "type": "uint256"
        }
      ],
      "stateMutability": "view",
      "type": "function"
    },
    {
      "inputs": [],
      "name": "latestBattle",
      "outputs": [
        {
          "internalType": "string",
          "name": "",
          "type": "string"
        }
      ],
      "stateMutability": "view",
      "type": "function"
    },
    {
      "inputs": [],
      "name": "maxStakeCount",
      "outputs": [
        {
          "internalType": "uint256",
          "name": "",
          "type": "uint256"
        }
      ],
      "stateMutability": "view",
      "type": "function"
    },
    {
      "inputs": [],
      "name": "minTokensRequired",
      "outputs": [
        {
          "internalType": "uint256",
          "name": "",
          "type": "uint256"
        }
      ],
      "stateMutability": "view",
      "type": "function"
    },
    {
      "inputs": [
        {
          "internalType": "address",
          "name": "",
          "type": "address"
        },
        {
          "internalType": "address",
          "name": "",
          "type": "address"
        },
        {
          "internalType": "uint256[]",
          "name": "",
          "type": "uint256[]"
        },
        {
          "internalType": "uint256[]",
          "name": "",
          "type": "uint256[]"
        },
        {
          "internalType": "bytes",
          "name": "",
          "type": "bytes"
        }
      ],
      "name": "onERC1155BatchReceived",
      "outputs": [
        {
          "internalType": "bytes4",
          "name": "",
          "type": "bytes4"
        }
      ],
      "stateMutability": "nonpayable",
      "type": "function"
    },
    {
      "inputs": [
        {
          "internalType": "address",
          "name": "",
          "type": "address"
        },
        {
          "internalType": "address",
          "name": "",
          "type": "address"
        },
        {
          "internalType": "uint256",
          "name": "",
          "type": "uint256"
        },
        {
          "internalType": "uint256",
          "name": "",
          "type": "uint256"
        },
        {
          "internalType": "bytes",
          "name": "",
          "type": "bytes"
        }
      ],
      "name": "onERC1155Received",
      "outputs": [
        {
          "internalType": "bytes4",
          "name": "",
          "type": "bytes4"
        }
      ],
      "stateMutability": "nonpayable",
      "type": "function"
    },
    {
      "inputs": [],
      "name": "pause",
      "outputs": [],
      "stateMutability": "nonpayable",
      "type": "function"
    },
    {
      "inputs": [],
      "name": "paused",
      "outputs": [
        {
          "internalType": "bool",
          "name": "",
          "type": "bool"
        }
      ],
      "stateMutability": "view",
      "type": "function"
    },
    {
      "inputs": [
        {
          "internalType": "bool",
          "name": "_unstakeStatus",
          "type": "bool"
        }
      ],
      "name": "setBattlePeriodUnstakeStatus",
      "outputs": [],
      "stateMutability": "nonpayable",
      "type": "function"
    },
    {
      "inputs": [
        {
          "internalType": "address",
          "name": "_nftContract",
          "type": "address"
        }
      ],
      "name": "setCDHNFTContractAddress",
      "outputs": [],
      "stateMutability": "nonpayable",
      "type": "function"
    },
    {
      "inputs": [
        {
          "internalType": "uint256",
          "name": "_time",
          "type": "uint256"
        }
      ],
      "name": "setCoolDownPeriod",
      "outputs": [
        {
          "internalType": "uint256",
          "name": "",
          "type": "uint256"
        }
      ],
      "stateMutability": "nonpayable",
      "type": "function"
    },
    {
      "inputs": [
        {
          "internalType": "uint256",
          "name": "_maxCount",
          "type": "uint256"
        }
      ],
      "name": "setMaxStakeCount",
      "outputs": [],
      "stateMutability": "nonpayable",
      "type": "function"
    },
    {
      "inputs": [
        {
          "internalType": "uint256",
          "name": "_value",
          "type": "uint256"
        }
      ],
      "name": "setMinTokensRequired",
      "outputs": [],
      "stateMutability": "nonpayable",
      "type": "function"
    },
    {
      "inputs": [
        {
          "internalType": "address",
          "name": "_tokenAddress",
          "type": "address"
        }
      ],
      "name": "setToken",
      "outputs": [],
      "stateMutability": "nonpayable",
      "type": "function"
    },
    {
      "inputs": [
        {
          "internalType": "address",
          "name": "_wbbActionsAddress",
          "type": "address"
        }
      ],
      "name": "setWBBActionsContract",
      "outputs": [],
      "stateMutability": "nonpayable",
      "type": "function"
    },
    {
      "inputs": [
        {
          "internalType": "uint256",
          "name": "_tokenId",
          "type": "uint256"
        },
        {
          "internalType": "string",
          "name": "_battleId",
          "type": "string"
        }
      ],
      "name": "stake",
      "outputs": [],
      "stateMutability": "nonpayable",
      "type": "function"
    },
    {
      "inputs": [
        {
          "internalType": "uint256[]",
          "name": "tokenIds",
          "type": "uint256[]"
        },
        {
          "internalType": "string",
          "name": "_battleId",
          "type": "string"
        }
      ],
      "name": "stakeTokens",
      "outputs": [],
      "stateMutability": "nonpayable",
      "type": "function"
    },
    {
      "inputs": [
        {
          "internalType": "address",
          "name": "",
          "type": "address"
        }
      ],
      "name": "stakers",
      "outputs": [
        {
          "internalType": "uint256",
          "name": "blockNumber",
          "type": "uint256"
        }
      ],
      "stateMutability": "view",
      "type": "function"
    },
    {
      "inputs": [
        {
          "internalType": "uint256",
          "name": "",
          "type": "uint256"
        }
      ],
      "name": "stakersAddress",
      "outputs": [
        {
          "internalType": "address",
          "name": "",
          "type": "address"
        }
      ],
      "stateMutability": "view",
      "type": "function"
    },
    {
      "inputs": [
        {
          "internalType": "bytes4",
          "name": "interfaceId",
          "type": "bytes4"
        }
      ],
      "name": "supportsInterface",
      "outputs": [
        {
          "internalType": "bool",
          "name": "",
          "type": "bool"
        }
      ],
      "stateMutability": "view",
      "type": "function"
    },
    {
      "inputs": [],
      "name": "tokenAddress",
      "outputs": [
        {
          "internalType": "contract IToken",
          "name": "",
          "type": "address"
        }
      ],
      "stateMutability": "view",
      "type": "function"
    },
    {
      "inputs": [
        {
          "internalType": "uint256",
          "name": "",
          "type": "uint256"
        }
      ],
      "name": "tokenOwner",
      "outputs": [
        {
          "internalType": "address",
          "name": "",
          "type": "address"
        }
      ],
      "stateMutability": "view",
      "type": "function"
    },
    {
      "inputs": [
        {
          "internalType": "uint256",
          "name": "",
          "type": "uint256"
        }
      ],
      "name": "tokenToBattleId",
      "outputs": [
        {
          "internalType": "string",
          "name": "",
          "type": "string"
        }
      ],
      "stateMutability": "view",
      "type": "function"
    },
    {
      "inputs": [],
      "name": "unpause",
      "outputs": [],
      "stateMutability": "nonpayable",
      "type": "function"
    },
    {
      "inputs": [
        {
          "internalType": "uint256",
          "name": "_tokenId",
          "type": "uint256"
        },
        {
          "internalType": "string",
          "name": "_battleId",
          "type": "string"
        }
      ],
      "name": "unstake",
      "outputs": [],
      "stateMutability": "nonpayable",
      "type": "function"
    },
    {
      "inputs": [
        {
          "internalType": "string",
          "name": "_battleId",
          "type": "string"
        }
      ],
      "name": "unstakeAll",
      "outputs": [],
      "stateMutability": "nonpayable",
      "type": "function"
    },
    {
      "inputs": [
        {
          "internalType": "address",
          "name": "_player",
          "type": "address"
        },
        {
          "internalType": "string",
          "name": "_battleId",
          "type": "string"
        }
      ],
      "name": "unstakeAllInternal",
      "outputs": [],
      "stateMutability": "nonpayable",
      "type": "function"
    },
    {
      "inputs": [
        {
          "internalType": "uint256[]",
          "name": "tokenIds",
          "type": "uint256[]"
        },
        {
          "internalType": "string",
          "name": "_battleId",
          "type": "string"
        }
      ],
      "name": "unstakeTokens",
      "outputs": [],
      "stateMutability": "nonpayable",
      "type": "function"
    },
    {
      "inputs": [
        {
          "internalType": "address",
          "name": "_player",
          "type": "address"
        },
        {
          "internalType": "uint256[]",
          "name": "_tokenIds",
          "type": "uint256[]"
        },
        {
          "internalType": "string",
          "name": "_battleId",
          "type": "string"
        }
      ],
      "name": "unstakeTokensInternal",
      "outputs": [],
      "stateMutability": "nonpayable",
      "type": "function"
    },
    {
      "inputs": [
        {
          "internalType": "uint256",
          "name": "tokenLength",
          "type": "uint256"
        },
        {
          "internalType": "string",
          "name": "_battleId",
          "type": "string"
        },
        {
          "internalType": "address",
          "name": "_player",
          "type": "address"
        }
      ],
      "name": "validStakeCount",
      "outputs": [
        {
          "internalType": "bool",
          "name": "",
          "type": "bool"
        }
      ],
      "stateMutability": "view",
      "type": "function"
    },
    {
      "inputs": [],
      "name": "wbbActions",
      "outputs": [
        {
          "internalType": "contract IWBBActions",
          "name": "",
          "type": "address"
        }
      ],
      "stateMutability": "view",
      "type": "function"
    }
  ],
  "transactionHash": "0x764533329a1822221bb87ecbe10a8072ff26884c711ba9583fdf2014ee0329e1",
  "args": [],
  "numDeployments": 1,
  "solcInputHash": "b0e6c88d3892fb29fd7f2c1cc631b020",
  "bytecode": "0x60806040523480156200001157600080fd5b506200001c62000022565b620000e4565b600054610100900460ff16156200008f5760405162461bcd60e51b815260206004820152602760248201527f496e697469616c697a61626c653a20636f6e747261637420697320696e697469604482015266616c697a696e6760c81b606482015260840160405180910390fd5b60005460ff9081161015620000e2576000805460ff191660ff9081179091556040519081527f7f26b83ff96e1f2b6a682f133852f6798a09c465da95921460cefb38474024989060200160405180910390a15b565b61574080620000f46000396000f3fe608060405234801561001057600080fd5b50600436106102d35760003560e01c80639168ae7211610186578063bc197c81116100e3578063d2bd85d611610097578063e7e4e1f711610071578063e7e4e1f7146106a8578063ee20aed0146106bb578063f23a6e61146106ce57600080fd5b8063d2bd85d614610679578063d7c15bf61461068c578063dee2d74c1461069557600080fd5b8063c7c8afbc116100c8578063c7c8afbc1461064a578063ca4c20d01461065d578063d0a068ff1461066657600080fd5b8063bc197c81146105ce578063c46d0c931461063757600080fd5b80639e8ccaf11161013a578063a90d86671161011f578063a90d866714610595578063ab5dc685146105a8578063b345b8c0146105bb57600080fd5b80639e8ccaf11461056c578063a8bc29a61461058c57600080fd5b806395fbf3a91161016b57806395fbf3a9146105315780639b6c2682146105395780639d76ea581461054c57600080fd5b80639168ae7214610501578063951a56831461052457600080fd5b806333e1a22311610234578063736f616b116101e8578063751408c5116101cd578063751408c5146104d357806379e5e03b146104e65780638456cb59146104f957600080fd5b8063736f616b146104a0578063748365ef146104b357600080fd5b80635acf099c116102195780635acf099c1461043b5780635c975abb146104825780636f74ecbf1461048d57600080fd5b806333e1a223146104205780633f4ba83a1461043357600080fd5b80631caaa4871161028b5780632ac34bc1116102705780632ac34bc1146103da5780632e4723fd146103ed5780632fc5dcea1461040d57600080fd5b80631caaa4871461038457806328fb7745146103ba57600080fd5b806304646a49116102bc57806304646a4914610313578063144fa6d71461032a5780631b48ba071461033f57600080fd5b806301ffc9a7146102d85780630421af7814610300575b600080fd5b6102eb6102e6366004614879565b610706565b60405190151581526020015b60405180910390f35b6102eb61030e3660046148bb565b61079f565b61031c60a05481565b6040519081526020016102f7565b61033d6103383660046148ff565b6107cd565b005b60995461035f9073ffffffffffffffffffffffffffffffffffffffff1681565b60405173ffffffffffffffffffffffffffffffffffffffff90911681526020016102f7565b61035f61039236600461491c565b609e6020526000908152604090205473ffffffffffffffffffffffffffffffffffffffff1681565b6103cd6103c83660046148ff565b6109e9565b6040516102f79190614970565b61033d6103e8366004614b27565b610aab565b6104006103fb36600461491c565b610f7d565b6040516102f79190614bf9565b61033d61041b366004614c55565b611017565b61033d61042e366004614cce565b61139c565b61033d6115c0565b61031c610449366004614d36565b73ffffffffffffffffffffffffffffffffffffffff919091166000908152609d6020908152604080832093835260029093019052205490565b60335460ff166102eb565b61033d61049b36600461491c565b6116dc565b61031c6104ae36600461491c565b61183a565b609a5461035f9073ffffffffffffffffffffffffffffffffffffffff1681565b61035f6104e136600461491c565b61199b565b6102eb6104f4366004614d62565b6119d2565b61033d611a32565b61031c61050f3660046148ff565b609d6020526000908152604090206003015481565b60a2546102eb9060ff1681565b610400611b4c565b61033d61054736600461491c565b611c07565b60985461035f9073ffffffffffffffffffffffffffffffffffffffff1681565b60975461035f9073ffffffffffffffffffffffffffffffffffffffff1681565b61031c609b5481565b61033d6105a3366004614dbd565b611d63565b61033d6105b6366004614e09565b61202d565b61033d6105c93660046148ff565b6123d1565b6106066105dc366004614e65565b7fbc197c810000000000000000000000000000000000000000000000000000000095945050505050565b6040517fffffffff0000000000000000000000000000000000000000000000000000000090911681526020016102f7565b61033d6106453660046148ff565b6125e8565b6102eb610658366004614f13565b6127ff565b61031c60a35481565b61033d610674366004614f5f565b612851565b61033d610687366004614f9b565b612bd4565b61031c60a15481565b6103cd6106a3366004614f5f565b612e40565b61033d6106b6366004614fdd565b612eda565b61033d6106c9366004615028565b6132ee565b6106066106dc366004615045565b7ff23a6e610000000000000000000000000000000000000000000000000000000095945050505050565b60007fffffffff0000000000000000000000000000000000000000000000000000000082167f4e2312e000000000000000000000000000000000000000000000000000000000148061079957507f01ffc9a7000000000000000000000000000000000000000000000000000000007fffffffff000000000000000000000000000000000000000000000000000000008316145b92915050565b60008060a354846107b091906150dd565b6107c290670de0b6b3a76400006150dd565b909210159392505050565b600033609a546040517f5026c82600000000000000000000000000000000000000000000000000000000815273ffffffffffffffffffffffffffffffffffffffff8084166004830152929350911690635026c82690602401602060405180830381865afa158015610842573d6000803e3d6000fd5b505050506040513d601f19601f8201168201806040525081019061086691906150f4565b6108d1576040517f08c379a000000000000000000000000000000000000000000000000000000000815260206004820152601160248201527f5742423a20556e617574686f72697a656400000000000000000000000000000060448201526064015b60405180910390fd5b73ffffffffffffffffffffffffffffffffffffffff821661094e576040517f08c379a000000000000000000000000000000000000000000000000000000000815260206004820152601a60248201527f5742423a20496e76616c696420746f6b656e206164647265737300000000000060448201526064016108c8565b60985460405173ffffffffffffffffffffffffffffffffffffffff83811682528481169216907f674d28769cbbfd17daf174e00c6a31cb6d8a30ac58fd38b1098bb2267a888d049060200160405180910390a350609880547fffffffffffffffffffffffff00000000000000000000000000000000000000001673ffffffffffffffffffffffffffffffffffffffff92909216919091179055565b6097546040517f178b6de600000000000000000000000000000000000000000000000000000000815273ffffffffffffffffffffffffffffffffffffffff838116600483015260609260009291169063178b6de690602401600060405180830381865afa158015610a5e573d6000803e3d6000fd5b505050506040513d6000823e601f3d9081017fffffffffffffffffffffffffffffffffffffffffffffffffffffffffffffffe0168201604052610aa49190810190615111565b9392505050565b6099546040517fb778e183000000000000000000000000000000000000000000000000000000008152829173ffffffffffffffffffffffffffffffffffffffff169063b778e18390610b01908490600401614bf9565b602060405180830381865afa158015610b1e573d6000803e3d6000fd5b505050506040513d601f19601f82011682018060405250810190610b4291906150f4565b610ba8576040517f08c379a000000000000000000000000000000000000000000000000000000000815260206004820152601060248201527f5742423a206e6f7420737461727465640000000000000000000000000000000060448201526064016108c8565b6099546040517f47ff16ac00000000000000000000000000000000000000000000000000000000815273ffffffffffffffffffffffffffffffffffffffff909116906347ff16ac90610bfe908490600401614bf9565b602060405180830381865afa158015610c1b573d6000803e3d6000fd5b505050506040513d601f19601f82011682018060405250810190610c3f91906150f4565b15610ca6576040517f08c379a000000000000000000000000000000000000000000000000000000000815260206004820152601160248201527f5742423a20626174746c6520656e64656400000000000000000000000000000060448201526064016108c8565b6099546040517f5d49778900000000000000000000000000000000000000000000000000000000815273ffffffffffffffffffffffffffffffffffffffff90911690635d49778990610cfc908490600401614bf9565b602060405180830381865afa158015610d19573d6000803e3d6000fd5b505050506040513d601f19601f82011682018060405250810190610d3d91906150f4565b610dc9576040517f08c379a000000000000000000000000000000000000000000000000000000000815260206004820152602160248201527f5742423a20626174746c65206e6f742063726561746564206f7220616374697660448201527f650000000000000000000000000000000000000000000000000000000000000060648201526084016108c8565b82513390610dd89084836119d2565b610e3e576040517f08c379a000000000000000000000000000000000000000000000000000000000815260206004820152601760248201527f5742423a204d617820746f6b656e73207374616b65642e00000000000000000060448201526064016108c8565b6000845167ffffffffffffffff811115610e5a57610e5a614983565b604051908082528060200260200182016040528015610e83578160200160208202803683370190505b50905060005b8551811015610ee757610eb683878381518110610ea857610ea86151a2565b60200260200101518761346b565b6001828281518110610eca57610eca6151a2565b602090810291909101015280610edf816151d1565b915050610e89565b506097546040517f2eb2c2d600000000000000000000000000000000000000000000000000000000815273ffffffffffffffffffffffffffffffffffffffff90911690632eb2c2d690610f4490859030908a908790600401615209565b600060405180830381600087803b158015610f5e57600080fd5b505af1158015610f72573d6000803e3d6000fd5b505050505050505050565b609f6020526000908152604090208054610f9690615291565b80601f0160208091040260200160405190810160405280929190818152602001828054610fc290615291565b801561100f5780601f10610fe45761010080835404028352916020019161100f565b820191906000526020600020905b815481529060010190602001808311610ff257829003601f168201915b505050505081565b81818080601f016020809104026020016040519081016040528093929190818152602001838380828437600092019190915250506099546040517f5d49778900000000000000000000000000000000000000000000000000000000815273ffffffffffffffffffffffffffffffffffffffff9091169250635d49778991506110a3908490600401614bf9565b602060405180830381865afa1580156110c0573d6000803e3d6000fd5b505050506040513d601f19601f820116820180604052508101906110e491906150f4565b611170576040517f08c379a000000000000000000000000000000000000000000000000000000000815260206004820152602160248201527f5742423a20626174746c65206e6f742063726561746564206f7220616374697660448201527f650000000000000000000000000000000000000000000000000000000000000060648201526084016108c8565b60a25460ff16611277576099546040517f47ff16ac00000000000000000000000000000000000000000000000000000000815273ffffffffffffffffffffffffffffffffffffffff909116906347ff16ac906111d0908490600401614bf9565b602060405180830381865afa1580156111ed573d6000803e3d6000fd5b505050506040513d601f19601f8201168201806040525081019061121191906150f4565b611277576040517f08c379a000000000000000000000000000000000000000000000000000000000815260206004820152601660248201527f5742423a20426174746c65206e6f7420656e6465642e0000000000000000000060448201526064016108c8565b609a5473ffffffffffffffffffffffffffffffffffffffff16635026c826336040517fffffffff0000000000000000000000000000000000000000000000000000000060e084901b16815273ffffffffffffffffffffffffffffffffffffffff9091166004820152602401602060405180830381865afa1580156112ff573d6000803e3d6000fd5b505050506040513d601f19601f8201168201806040525081019061132391906150f4565b611389576040517f08c379a000000000000000000000000000000000000000000000000000000000815260206004820152601160248201527f5742423a20556e617574686f72697a656400000000000000000000000000000060448201526064016108c8565b6113958585858561383d565b5050505050565b600054610100900460ff16158080156113bc5750600054600160ff909116105b806113d65750303b1580156113d6575060005460ff166001145b611462576040517f08c379a000000000000000000000000000000000000000000000000000000000815260206004820152602e60248201527f496e697469616c697a61626c653a20636f6e747261637420697320616c72656160448201527f647920696e697469616c697a656400000000000000000000000000000000000060648201526084016108c8565b600080547fffffffffffffffffffffffffffffffffffffffffffffffffffffffffffffff0016600117905580156114c057600080547fffffffffffffffffffffffffffffffffffffffffffffffffffffffffffff00ff166101001790555b6097805473ffffffffffffffffffffffffffffffffffffffff8089167fffffffffffffffffffffffff0000000000000000000000000000000000000000928316179092556098805488841690831617905560a186905560998054868416908316179055609a80549285169290911691909117905542609b55606460a355611545613944565b61154d6139db565b611555613a7a565b80156115b857600080547fffffffffffffffffffffffffffffffffffffffffffffffffffffffffffff00ff169055604051600181527f7f26b83ff96e1f2b6a682f133852f6798a09c465da95921460cefb38474024989060200160405180910390a15b505050505050565b609a5473ffffffffffffffffffffffffffffffffffffffff16635026c826336040517fffffffff0000000000000000000000000000000000000000000000000000000060e084901b16815273ffffffffffffffffffffffffffffffffffffffff9091166004820152602401602060405180830381865afa158015611648573d6000803e3d6000fd5b505050506040513d601f19601f8201168201806040525081019061166c91906150f4565b6116d2576040517f08c379a000000000000000000000000000000000000000000000000000000000815260206004820152601160248201527f5742423a20556e617574686f72697a656400000000000000000000000000000060448201526064016108c8565b6116da613b19565b565b600033609a546040517f5026c82600000000000000000000000000000000000000000000000000000000815273ffffffffffffffffffffffffffffffffffffffff8084166004830152929350911690635026c82690602401602060405180830381865afa158015611751573d6000803e3d6000fd5b505050506040513d601f19601f8201168201806040525081019061177591906150f4565b6117db576040517f08c379a000000000000000000000000000000000000000000000000000000000815260206004820152601160248201527f5742423a20556e617574686f72697a656400000000000000000000000000000060448201526064016108c8565b60a3546040805173ffffffffffffffffffffffffffffffffffffffff841681526020810185905280820192909252517f7231189f16a6d29158a7ee4029be9651e8cd39d0b9ad99455708b992423ad6c29181900360600190a15060a355565b60008033609a546040517f5026c82600000000000000000000000000000000000000000000000000000000815273ffffffffffffffffffffffffffffffffffffffff8084166004830152929350911690635026c82690602401602060405180830381865afa1580156118b0573d6000803e3d6000fd5b505050506040513d601f19601f820116820180604052508101906118d491906150f4565b61193a576040517f08c379a000000000000000000000000000000000000000000000000000000000815260206004820152601160248201527f5742423a20556e617574686f72697a656400000000000000000000000000000060448201526064016108c8565b60a054604080519182526020820185905273ffffffffffffffffffffffffffffffffffffffff831682820152517f413a859b874b81545b2b22a26facd81777b79bce9f7631657c033f4d4a5d1cbb9181900360600190a1505060a081905590565b609c81815481106119ab57600080fd5b60009182526020909120015473ffffffffffffffffffffffffffffffffffffffff16905081565b60a15473ffffffffffffffffffffffffffffffffffffffff82166000908152609d60205260408082209051919291869190611a0e9087906152e4565b90815260405190819003602001902054611a289190615300565b1115949350505050565b609a5473ffffffffffffffffffffffffffffffffffffffff16635026c826336040517fffffffff0000000000000000000000000000000000000000000000000000000060e084901b16815273ffffffffffffffffffffffffffffffffffffffff9091166004820152602401602060405180830381865afa158015611aba573d6000803e3d6000fd5b505050506040513d601f19601f82011682018060405250810190611ade91906150f4565b611b44576040517f08c379a000000000000000000000000000000000000000000000000000000000815260206004820152601160248201527f5742423a20556e617574686f72697a656400000000000000000000000000000060448201526064016108c8565b6116da613b96565b609954604080517fbf81ee6d000000000000000000000000000000000000000000000000000000008152905160609273ffffffffffffffffffffffffffffffffffffffff169163bf81ee6d9160048083019260009291908290030181865afa158015611bbc573d6000803e3d6000fd5b505050506040513d6000823e601f3d9081017fffffffffffffffffffffffffffffffffffffffffffffffffffffffffffffffe0168201604052611c029190810190615313565b905090565b600033609a546040517f5026c82600000000000000000000000000000000000000000000000000000000815273ffffffffffffffffffffffffffffffffffffffff8084166004830152929350911690635026c82690602401602060405180830381865afa158015611c7c573d6000803e3d6000fd5b505050506040513d601f19601f82011682018060405250810190611ca091906150f4565b611d06576040517f08c379a000000000000000000000000000000000000000000000000000000000815260206004820152601160248201527f5742423a20556e617574686f72697a656400000000000000000000000000000060448201526064016108c8565b60a154604080519182526020820184905273ffffffffffffffffffffffffffffffffffffffff831682820152517f13a511f20997079f309d264161b7628709fc727ea5bcd135d26d44d20a7133929181900360600190a15060a155565b81818080601f016020809104026020016040519081016040528093929190818152602001838380828437600092019190915250506099546040517f5d49778900000000000000000000000000000000000000000000000000000000815273ffffffffffffffffffffffffffffffffffffffff9091169250635d4977899150611def908490600401614bf9565b602060405180830381865afa158015611e0c573d6000803e3d6000fd5b505050506040513d601f19601f82011682018060405250810190611e3091906150f4565b611ebc576040517f08c379a000000000000000000000000000000000000000000000000000000000815260206004820152602160248201527f5742423a20626174746c65206e6f742063726561746564206f7220616374697660448201527f650000000000000000000000000000000000000000000000000000000000000060648201526084016108c8565b60a25460ff16611fc3576099546040517f47ff16ac00000000000000000000000000000000000000000000000000000000815273ffffffffffffffffffffffffffffffffffffffff909116906347ff16ac90611f1c908490600401614bf9565b602060405180830381865afa158015611f39573d6000803e3d6000fd5b505050506040513d601f19601f82011682018060405250810190611f5d91906150f4565b611fc3576040517f08c379a000000000000000000000000000000000000000000000000000000000815260206004820152601660248201527f5742423a20426174746c65206e6f7420656e6465642e0000000000000000000060448201526064016108c8565b33611fd081868686613bf1565b6097546040517ff242432a00000000000000000000000000000000000000000000000000000000815273ffffffffffffffffffffffffffffffffffffffff9091169063f242432a90610f4490309085908a9060019060040161538a565b81818080601f016020809104026020016040519081016040528093929190818152602001838380828437600092019190915250506099546040517f5d49778900000000000000000000000000000000000000000000000000000000815273ffffffffffffffffffffffffffffffffffffffff9091169250635d49778991506120b9908490600401614bf9565b602060405180830381865afa1580156120d6573d6000803e3d6000fd5b505050506040513d601f19601f820116820180604052508101906120fa91906150f4565b612186576040517f08c379a000000000000000000000000000000000000000000000000000000000815260206004820152602160248201527f5742423a20626174746c65206e6f742063726561746564206f7220616374697660448201527f650000000000000000000000000000000000000000000000000000000000000060648201526084016108c8565b60a25460ff1661228d576099546040517f47ff16ac00000000000000000000000000000000000000000000000000000000815273ffffffffffffffffffffffffffffffffffffffff909116906347ff16ac906121e6908490600401614bf9565b602060405180830381865afa158015612203573d6000803e3d6000fd5b505050506040513d601f19601f8201168201806040525081019061222791906150f4565b61228d576040517f08c379a000000000000000000000000000000000000000000000000000000000815260206004820152601660248201527f5742423a20426174746c65206e6f7420656e6465642e0000000000000000000060448201526064016108c8565b8351339060009067ffffffffffffffff8111156122ac576122ac614983565b6040519080825280602002602001820160405280156122d5578160200160208202803683370190505b50905060005b865181101561233a57612309838883815181106122fa576122fa6151a2565b60200260200101518888613bf1565b600182828151811061231d5761231d6151a2565b602090810291909101015280612332816151d1565b9150506122db565b506097546040517f2eb2c2d600000000000000000000000000000000000000000000000000000000815273ffffffffffffffffffffffffffffffffffffffff90911690632eb2c2d69061239790309086908b908790600401615209565b600060405180830381600087803b1580156123b157600080fd5b505af11580156123c5573d6000803e3d6000fd5b50505050505050505050565b600033609a546040517f5026c82600000000000000000000000000000000000000000000000000000000815273ffffffffffffffffffffffffffffffffffffffff8084166004830152929350911690635026c82690602401602060405180830381865afa158015612446573d6000803e3d6000fd5b505050506040513d601f19601f8201168201806040525081019061246a91906150f4565b6124d0576040517f08c379a000000000000000000000000000000000000000000000000000000000815260206004820152601160248201527f5742423a20556e617574686f72697a656400000000000000000000000000000060448201526064016108c8565b73ffffffffffffffffffffffffffffffffffffffff821661254d576040517f08c379a000000000000000000000000000000000000000000000000000000000815260206004820152601960248201527f5742423a20496e76616c6964204e465420636f6e74726163740000000000000060448201526064016108c8565b60975460405173ffffffffffffffffffffffffffffffffffffffff83811682528481169216907fcc84b7dfa78b34bb94bda9e3e859b03781c64e9c8870f014f905deb5917d1e349060200160405180910390a350609780547fffffffffffffffffffffffff00000000000000000000000000000000000000001673ffffffffffffffffffffffffffffffffffffffff92909216919091179055565b600033609a546040517f5026c82600000000000000000000000000000000000000000000000000000000815273ffffffffffffffffffffffffffffffffffffffff8084166004830152929350911690635026c82690602401602060405180830381865afa15801561265d573d6000803e3d6000fd5b505050506040513d601f19601f8201168201806040525081019061268191906150f4565b6126e7576040517f08c379a000000000000000000000000000000000000000000000000000000000815260206004820152601160248201527f5742423a20556e617574686f72697a656400000000000000000000000000000060448201526064016108c8565b73ffffffffffffffffffffffffffffffffffffffff8216612764576040517f08c379a000000000000000000000000000000000000000000000000000000000815260206004820152601d60248201527f5742423a20496e76616c696420416374696f6e7320636f6e747261637400000060448201526064016108c8565b60995460405173ffffffffffffffffffffffffffffffffffffffff83811682528481169216907f34094423c59427e099490ccde795f4a7c4741be966ee850d712bd3777efd51849060200160405180910390a350609980547fffffffffffffffffffffffff00000000000000000000000000000000000000001673ffffffffffffffffffffffffffffffffffffffff92909216919091179055565b73ffffffffffffffffffffffffffffffffffffffff81166000908152609d602052604080822090518291906128379087908790615403565b908152604051908190036020019020541190509392505050565b81818080601f016020809104026020016040519081016040528093929190818152602001838380828437600092019190915250506099546040517f5d49778900000000000000000000000000000000000000000000000000000000815273ffffffffffffffffffffffffffffffffffffffff9091169250635d49778991506128dd908490600401614bf9565b602060405180830381865afa1580156128fa573d6000803e3d6000fd5b505050506040513d601f19601f8201168201806040525081019061291e91906150f4565b6129aa576040517f08c379a000000000000000000000000000000000000000000000000000000000815260206004820152602160248201527f5742423a20626174746c65206e6f742063726561746564206f7220616374697660448201527f650000000000000000000000000000000000000000000000000000000000000060648201526084016108c8565b60a25460ff16612ab1576099546040517f47ff16ac00000000000000000000000000000000000000000000000000000000815273ffffffffffffffffffffffffffffffffffffffff909116906347ff16ac90612a0a908490600401614bf9565b602060405180830381865afa158015612a27573d6000803e3d6000fd5b505050506040513d601f19601f82011682018060405250810190612a4b91906150f4565b612ab1576040517f08c379a000000000000000000000000000000000000000000000000000000000815260206004820152601660248201527f5742423a20426174746c65206e6f7420656e6465642e0000000000000000000060448201526064016108c8565b609a5473ffffffffffffffffffffffffffffffffffffffff16635026c826336040517fffffffff0000000000000000000000000000000000000000000000000000000060e084901b16815273ffffffffffffffffffffffffffffffffffffffff9091166004820152602401602060405180830381865afa158015612b39573d6000803e3d6000fd5b505050506040513d601f19601f82011682018060405250810190612b5d91906150f4565b612bc3576040517f08c379a000000000000000000000000000000000000000000000000000000000815260206004820152601160248201527f5742423a20556e617574686f72697a656400000000000000000000000000000060448201526064016108c8565b612bce848484614385565b50505050565b81818080601f016020809104026020016040519081016040528093929190818152602001838380828437600092019190915250506099546040517f5d49778900000000000000000000000000000000000000000000000000000000815273ffffffffffffffffffffffffffffffffffffffff9091169250635d4977899150612c60908490600401614bf9565b602060405180830381865afa158015612c7d573d6000803e3d6000fd5b505050506040513d601f19601f82011682018060405250810190612ca191906150f4565b612d2d576040517f08c379a000000000000000000000000000000000000000000000000000000000815260206004820152602160248201527f5742423a20626174746c65206e6f742063726561746564206f7220616374697660448201527f650000000000000000000000000000000000000000000000000000000000000060648201526084016108c8565b60a25460ff16612e34576099546040517f47ff16ac00000000000000000000000000000000000000000000000000000000815273ffffffffffffffffffffffffffffffffffffffff909116906347ff16ac90612d8d908490600401614bf9565b602060405180830381865afa158015612daa573d6000803e3d6000fd5b505050506040513d601f19601f82011682018060405250810190612dce91906150f4565b612e34576040517f08c379a000000000000000000000000000000000000000000000000000000000815260206004820152601660248201527f5742423a20426174746c65206e6f7420656e6465642e0000000000000000000060448201526064016108c8565b33612bce818585614385565b73ffffffffffffffffffffffffffffffffffffffff83166000908152609d602052604090819020905160609190612e7a9085908590615403565b9081526040805191829003602090810183208054808302850183019093528284529190830182828015612ecc57602002820191906000526020600020905b815481526020019060010190808311612eb8575b505050505090509392505050565b6099546040517fb778e183000000000000000000000000000000000000000000000000000000008152829173ffffffffffffffffffffffffffffffffffffffff169063b778e18390612f30908490600401614bf9565b602060405180830381865afa158015612f4d573d6000803e3d6000fd5b505050506040513d601f19601f82011682018060405250810190612f7191906150f4565b612fd7576040517f08c379a000000000000000000000000000000000000000000000000000000000815260206004820152601060248201527f5742423a206e6f7420737461727465640000000000000000000000000000000060448201526064016108c8565b6099546040517f47ff16ac00000000000000000000000000000000000000000000000000000000815273ffffffffffffffffffffffffffffffffffffffff909116906347ff16ac9061302d908490600401614bf9565b602060405180830381865afa15801561304a573d6000803e3d6000fd5b505050506040513d601f19601f8201168201806040525081019061306e91906150f4565b156130d5576040517f08c379a000000000000000000000000000000000000000000000000000000000815260206004820152601160248201527f5742423a20626174746c6520656e64656400000000000000000000000000000060448201526064016108c8565b6099546040517f5d49778900000000000000000000000000000000000000000000000000000000815273ffffffffffffffffffffffffffffffffffffffff90911690635d4977899061312b908490600401614bf9565b602060405180830381865afa158015613148573d6000803e3d6000fd5b505050506040513d601f19601f8201168201806040525081019061316c91906150f4565b6131f8576040517f08c379a000000000000000000000000000000000000000000000000000000000815260206004820152602160248201527f5742423a20626174746c65206e6f742063726561746564206f7220616374697660448201527f650000000000000000000000000000000000000000000000000000000000000060648201526084016108c8565b613204600183336119d2565b61326a576040517f08c379a000000000000000000000000000000000000000000000000000000000815260206004820152601760248201527f5742423a204d617820746f6b656e73207374616b65642e00000000000000000060448201526064016108c8565b61327533848461346b565b60975473ffffffffffffffffffffffffffffffffffffffff1663f242432a33308660016040518563ffffffff1660e01b81526004016132b7949392919061538a565b600060405180830381600087803b1580156132d157600080fd5b505af11580156132e5573d6000803e3d6000fd5b50505050505050565b600033609a546040517f5026c82600000000000000000000000000000000000000000000000000000000815273ffffffffffffffffffffffffffffffffffffffff8084166004830152929350911690635026c82690602401602060405180830381865afa158015613363573d6000803e3d6000fd5b505050506040513d601f19601f8201168201806040525081019061338791906150f4565b6133ed576040517f08c379a000000000000000000000000000000000000000000000000000000000815260206004820152601160248201527f5742423a20556e617574686f72697a656400000000000000000000000000000060448201526064016108c8565b60a280547fffffffffffffffffffffffffffffffffffffffffffffffffffffffffffffff001683151590811790915560405190815273ffffffffffffffffffffffffffffffffffffffff8216907fd923d85360f3f592aa7cf591c0f4e489905836ff02f16d7842b6389fcbbb36609060200160405180910390a25050565b613473614578565b61347b6145e5565b6000828152609e602052604090205473ffffffffffffffffffffffffffffffffffffffff1615613507576040517f08c379a000000000000000000000000000000000000000000000000000000000815260206004820152601960248201527f5742423a20546f6b656e20616c7265616479207374616b65640000000000000060448201526064016108c8565b73ffffffffffffffffffffffffffffffffffffffff83166000908152609d60205260408082209051909190829061353f9085906152e4565b908152604080519182900360209081018320805480830285018301909352828452919083018282801561359157602002820191906000526020600020905b81548152602001906001019080831161357d575b505083516098546040517f70a0823100000000000000000000000000000000000000000000000000000000815273ffffffffffffffffffffffffffffffffffffffff8c811660048301529697509195600095501692506370a082319150602401602060405180830381865afa15801561360e573d6000803e3d6000fd5b505050506040513d601f19601f820116820180604052508101906136329190615413565b9050613648613642836001615300565b8261079f565b156137f85743600385015560405184906136639087906152e4565b908152604051602091819003820181208054600180820183556000928352939091200188905585906136969088906152e4565b908152604051908190036020019020546136b0919061542c565b6000878152600186016020908152604080832093909355600287018152828220429055609e815282822080547fffffffffffffffffffffffff00000000000000000000000000000000000000001673ffffffffffffffffffffffffffffffffffffffff8c16179055609f9052206137278682615485565b50816000036137a157609c80546001810182556000919091527faf85b9071dfafeac1409d3f1d19bafc9bc7c37974cde8df0ee6168f0086e539c0180547fffffffffffffffffffffffff00000000000000000000000000000000000000001673ffffffffffffffffffffffffffffffffffffffff89161790555b8673ffffffffffffffffffffffffffffffffffffffff167fa2a4b640524f5410a2969ac3f90a5c7a3197662d845ba3bdf16fe9010e5aad9a8787426040516137eb9392919061559f565b60405180910390a261382a565b6040517f22bbb43c00000000000000000000000000000000000000000000000000000000815260040160405180910390fd5b505050506138386001606555565b505050565b6000835167ffffffffffffffff81111561385957613859614983565b604051908082528060200260200182016040528015613882578160200160208202803683370190505b50905060005b84518110156138e7576138b6868683815181106138a7576138a76151a2565b60200260200101518686613bf1565b60018282815181106138ca576138ca6151a2565b6020908102919091010152806138df816151d1565b915050613888565b506097546040517f2eb2c2d600000000000000000000000000000000000000000000000000000000815273ffffffffffffffffffffffffffffffffffffffff90911690632eb2c2d690610f44903090899089908790600401615209565b600054610100900460ff166116da576040517f08c379a000000000000000000000000000000000000000000000000000000000815260206004820152602b60248201527f496e697469616c697a61626c653a20636f6e7472616374206973206e6f74206960448201527f6e697469616c697a696e6700000000000000000000000000000000000000000060648201526084016108c8565b600054610100900460ff16613a72576040517f08c379a000000000000000000000000000000000000000000000000000000000815260206004820152602b60248201527f496e697469616c697a61626c653a20636f6e7472616374206973206e6f74206960448201527f6e697469616c697a696e6700000000000000000000000000000000000000000060648201526084016108c8565b6116da61465f565b600054610100900460ff16613b11576040517f08c379a000000000000000000000000000000000000000000000000000000000815260206004820152602b60248201527f496e697469616c697a61626c653a20636f6e7472616374206973206e6f74206960448201527f6e697469616c697a696e6700000000000000000000000000000000000000000060648201526084016108c8565b6116da614720565b613b216147b7565b603380547fffffffffffffffffffffffffffffffffffffffffffffffffffffffffffffff001690557f5db9ee0a495bf2e6ff9c91a7834c1ba4fdd244a5e8aa4e537bd38aeae4b073aa335b60405173ffffffffffffffffffffffffffffffffffffffff909116815260200160405180910390a1565b613b9e614578565b603380547fffffffffffffffffffffffffffffffffffffffffffffffffffffffffffffff001660011790557f62e78cea01bee320cd4e420270b5ea74000d11b0c9f74754ebdbfc544b05a258613b6c3390565b613bf96145e5565b6000838152609e602052604090205473ffffffffffffffffffffffffffffffffffffffff858116911614613c89576040517f08c379a000000000000000000000000000000000000000000000000000000000815260206004820152601260248201527f5742423a20556e617574686f72697a65642e000000000000000000000000000060448201526064016108c8565b8181604051613c99929190615403565b604080519182900382206000868152609f602052919091209091613cbd91906155c8565b604051809103902014613d51576040517f08c379a0000000000000000000000000000000000000000000000000000000008152602060048201526024808201527f5742423a2043617264206e6f74207374616b656420696e20676976656e20626160448201527f74746c650000000000000000000000000000000000000000000000000000000060648201526084016108c8565b73ffffffffffffffffffffffffffffffffffffffff84166000908152609d6020526040902060a25460ff1615613ea95760a0546000858152600283016020526040902054613d9f9190615300565b42118015613e4357506099546040517f47ff16ac00000000000000000000000000000000000000000000000000000000815273ffffffffffffffffffffffffffffffffffffffff909116906347ff16ac90613e0090869086906004016156a5565b602060405180830381865afa158015613e1d573d6000803e3d6000fd5b505050506040513d601f19601f82011682018060405250810190613e4191906150f4565b155b613ea9576040517f08c379a000000000000000000000000000000000000000000000000000000000815260206004820152601660248201527f5742423a20636f6f6c646f776e206e6f74206f7665720000000000000000000060448201526064016108c8565b60008481526001820160205260408082205490519091908390613ecf9087908790615403565b908152604051908190036020018120546098547f70a0823100000000000000000000000000000000000000000000000000000000835273ffffffffffffffffffffffffffffffffffffffff8a811660048501529193506000929116906370a0823190602401602060405180830381865afa158015613f51573d6000803e3d6000fd5b505050506040513d601f19601f82011682018060405250810190613f759190615413565b9050613f81828261079f565b613fe7576040517f08c379a000000000000000000000000000000000000000000000000000000000815260206004820152601f60248201527f5742423a20496e73756666696369656e7420746f6b656e2062616c616e63650060448201526064016108c8565b6000846000018787604051613ffd929190615403565b90815260405190819003602001902061401760018561542c565b81548110614027576140276151a2565b90600052602060002001549050846000018787604051614048929190615403565b9081526020016040518091039020805480614065576140656156c1565b600190038181906000526020600020016000905590556000856000018888604051614091929190615403565b90815260405190819003602001902054111561410c5787811461410c57808560000188886040516140c3929190615403565b908152602001604051809103902085815481106140e2576140e26151a2565b60009182526020808320909101929092558281526001870190915260408082208690558982528120555b6000888152600286016020526040808220919091555185906141319089908990615403565b908152604051908190036020019020546000036142dd57609c80546000919061415c9060019061542c565b8154811061416c5761416c6151a2565b600091825260209091200154609c5473ffffffffffffffffffffffffffffffffffffffff909116915015614272576000805b609c54811015614213578b73ffffffffffffffffffffffffffffffffffffffff16609c82815481106141d2576141d26151a2565b60009182526020909120015473ffffffffffffffffffffffffffffffffffffffff160361420157809150614213565b8061420b816151d1565b91505061419e565b5081609c8281548110614228576142286151a2565b9060005260206000200160006101000a81548173ffffffffffffffffffffffffffffffffffffffff021916908373ffffffffffffffffffffffffffffffffffffffff160217905550505b609c805480614283576142836156c1565b60008281526020902081017fffffffffffffffffffffffffffffffffffffffffffffffffffffffffffffffff90810180547fffffffffffffffffffffffff0000000000000000000000000000000000000000169055019055505b6000888152609e6020908152604080832080547fffffffffffffffffffffffff0000000000000000000000000000000000000000169055609f909152812061432491614823565b8873ffffffffffffffffffffffffffffffffffffffff167fcdc644f7a40cb5d51e46e25428f724a3e15ae38f01d0e83c3c863f51719004db89898960405161436e939291906156f0565b60405180910390a25050505050612bce6001606555565b73ffffffffffffffffffffffffffffffffffffffff83166000908152609d602052604080822090516143ba9085908590615403565b908152604080519182900360209081018320805480830285018301909352828452919083018282801561440c57602002820191906000526020600020905b8154815260200190600101908083116143f8575b50508351939450600092508391505067ffffffffffffffff81111561443357614433614983565b60405190808252806020026020018201604052801561445c578160200160208202803683370190505b509050600082116144c9576040517f08c379a000000000000000000000000000000000000000000000000000000000815260206004820152601760248201527f5742423a204e465473206172656e2774207374616b656400000000000000000060448201526064016108c8565b60005b8281101561451b576144ea878583815181106122fa576122fa6151a2565b60018282815181106144fe576144fe6151a2565b602090810291909101015280614513816151d1565b9150506144cc565b506097546040517f2eb2c2d600000000000000000000000000000000000000000000000000000000815273ffffffffffffffffffffffffffffffffffffffff90911690632eb2c2d6906123979030908a9088908790600401615209565b60335460ff16156116da576040517f08c379a000000000000000000000000000000000000000000000000000000000815260206004820152601060248201527f5061757361626c653a207061757365640000000000000000000000000000000060448201526064016108c8565b600260655403614651576040517f08c379a000000000000000000000000000000000000000000000000000000000815260206004820152601f60248201527f5265656e7472616e637947756172643a207265656e7472616e742063616c6c0060448201526064016108c8565b6002606555565b6001606555565b600054610100900460ff166146f6576040517f08c379a000000000000000000000000000000000000000000000000000000000815260206004820152602b60248201527f496e697469616c697a61626c653a20636f6e7472616374206973206e6f74206960448201527f6e697469616c697a696e6700000000000000000000000000000000000000000060648201526084016108c8565b603380547fffffffffffffffffffffffffffffffffffffffffffffffffffffffffffffff00169055565b600054610100900460ff16614658576040517f08c379a000000000000000000000000000000000000000000000000000000000815260206004820152602b60248201527f496e697469616c697a61626c653a20636f6e7472616374206973206e6f74206960448201527f6e697469616c697a696e6700000000000000000000000000000000000000000060648201526084016108c8565b60335460ff166116da576040517f08c379a000000000000000000000000000000000000000000000000000000000815260206004820152601460248201527f5061757361626c653a206e6f742070617573656400000000000000000000000060448201526064016108c8565b50805461482f90615291565b6000825580601f1061483f575050565b601f01602090049060005260206000209081019061485d9190614860565b50565b5b808211156148755760008155600101614861565b5090565b60006020828403121561488b57600080fd5b81357fffffffff0000000000000000000000000000000000000000000000000000000081168114610aa457600080fd5b600080604083850312156148ce57600080fd5b50508035926020909101359150565b73ffffffffffffffffffffffffffffffffffffffff8116811461485d57600080fd5b60006020828403121561491157600080fd5b8135610aa4816148dd565b60006020828403121561492e57600080fd5b5035919050565b600081518084526020808501945080840160005b8381101561496557815187529582019590820190600101614949565b509495945050505050565b602081526000610aa46020830184614935565b7f4e487b7100000000000000000000000000000000000000000000000000000000600052604160045260246000fd5b604051601f82017fffffffffffffffffffffffffffffffffffffffffffffffffffffffffffffffe016810167ffffffffffffffff811182821017156149f9576149f9614983565b604052919050565b600067ffffffffffffffff821115614a1b57614a1b614983565b5060051b60200190565b600082601f830112614a3657600080fd5b81356020614a4b614a4683614a01565b6149b2565b82815260059290921b84018101918181019086841115614a6a57600080fd5b8286015b84811015614a855780358352918301918301614a6e565b509695505050505050565b600067ffffffffffffffff821115614aaa57614aaa614983565b50601f017fffffffffffffffffffffffffffffffffffffffffffffffffffffffffffffffe01660200190565b600082601f830112614ae757600080fd5b8135614af5614a4682614a90565b818152846020838601011115614b0a57600080fd5b816020850160208301376000918101602001919091529392505050565b60008060408385031215614b3a57600080fd5b823567ffffffffffffffff80821115614b5257600080fd5b614b5e86838701614a25565b93506020850135915080821115614b7457600080fd5b50614b8185828601614ad6565b9150509250929050565b60005b83811015614ba6578181015183820152602001614b8e565b50506000910152565b60008151808452614bc7816020860160208601614b8b565b601f017fffffffffffffffffffffffffffffffffffffffffffffffffffffffffffffffe0169290920160200192915050565b602081526000610aa46020830184614baf565b60008083601f840112614c1e57600080fd5b50813567ffffffffffffffff811115614c3657600080fd5b602083019150836020828501011115614c4e57600080fd5b9250929050565b60008060008060608587031215614c6b57600080fd5b8435614c76816148dd565b9350602085013567ffffffffffffffff80821115614c9357600080fd5b614c9f88838901614a25565b94506040870135915080821115614cb557600080fd5b50614cc287828801614c0c565b95989497509550505050565b600080600080600060a08688031215614ce657600080fd5b8535614cf1816148dd565b94506020860135614d01816148dd565b9350604086013592506060860135614d18816148dd565b91506080860135614d28816148dd565b809150509295509295909350565b60008060408385031215614d4957600080fd5b8235614d54816148dd565b946020939093013593505050565b600080600060608486031215614d7757600080fd5b83359250602084013567ffffffffffffffff811115614d9557600080fd5b614da186828701614ad6565b9250506040840135614db2816148dd565b809150509250925092565b600080600060408486031215614dd257600080fd5b83359250602084013567ffffffffffffffff811115614df057600080fd5b614dfc86828701614c0c565b9497909650939450505050565b600080600060408486031215614e1e57600080fd5b833567ffffffffffffffff80821115614e3657600080fd5b614e4287838801614a25565b94506020860135915080821115614e5857600080fd5b50614dfc86828701614c0c565b600080600080600060a08688031215614e7d57600080fd5b8535614e88816148dd565b94506020860135614e98816148dd565b9350604086013567ffffffffffffffff80821115614eb557600080fd5b614ec189838a01614a25565b94506060880135915080821115614ed757600080fd5b614ee389838a01614a25565b93506080880135915080821115614ef957600080fd5b50614f0688828901614ad6565b9150509295509295909350565b600080600060408486031215614f2857600080fd5b833567ffffffffffffffff811115614f3f57600080fd5b614f4b86828701614c0c565b9094509250506020840135614db2816148dd565b600080600060408486031215614f7457600080fd5b8335614f7f816148dd565b9250602084013567ffffffffffffffff811115614df057600080fd5b60008060208385031215614fae57600080fd5b823567ffffffffffffffff811115614fc557600080fd5b614fd185828601614c0c565b90969095509350505050565b60008060408385031215614ff057600080fd5b82359150602083013567ffffffffffffffff81111561500e57600080fd5b614b8185828601614ad6565b801515811461485d57600080fd5b60006020828403121561503a57600080fd5b8135610aa48161501a565b600080600080600060a0868803121561505d57600080fd5b8535615068816148dd565b94506020860135615078816148dd565b93506040860135925060608601359150608086013567ffffffffffffffff8111156150a257600080fd5b614f0688828901614ad6565b7f4e487b7100000000000000000000000000000000000000000000000000000000600052601160045260246000fd5b8082028115828204841417610799576107996150ae565b60006020828403121561510657600080fd5b8151610aa48161501a565b6000602080838503121561512457600080fd5b825167ffffffffffffffff81111561513b57600080fd5b8301601f8101851361514c57600080fd5b805161515a614a4682614a01565b81815260059190911b8201830190838101908783111561517957600080fd5b928401925b828410156151975783518252928401929084019061517e565b979650505050505050565b7f4e487b7100000000000000000000000000000000000000000000000000000000600052603260045260246000fd5b60007fffffffffffffffffffffffffffffffffffffffffffffffffffffffffffffffff8203615202576152026150ae565b5060010190565b600073ffffffffffffffffffffffffffffffffffffffff808716835280861660208401525060a0604083015261524260a0830185614935565b82810360608401526152548185614935565b8381036080850152600281527f30780000000000000000000000000000000000000000000000000000000000006020820152905060408101615197565b600181811c908216806152a557607f821691505b6020821081036152de577f4e487b7100000000000000000000000000000000000000000000000000000000600052602260045260246000fd5b50919050565b600082516152f6818460208701614b8b565b9190910192915050565b80820180821115610799576107996150ae565b60006020828403121561532557600080fd5b815167ffffffffffffffff81111561533c57600080fd5b8201601f8101841361534d57600080fd5b805161535b614a4682614a90565b81815285602083850101111561537057600080fd5b615381826020830160208601614b8b565b95945050505050565b600073ffffffffffffffffffffffffffffffffffffffff808716835280861660208401525083604083015282606083015260a060808301526153f960a08301600281527f3078000000000000000000000000000000000000000000000000000000000000602082015260400190565b9695505050505050565b8183823760009101908152919050565b60006020828403121561542557600080fd5b5051919050565b81810381811115610799576107996150ae565b601f82111561383857600081815260208120601f850160051c810160208610156154665750805b601f850160051c820191505b818110156115b857828155600101615472565b815167ffffffffffffffff81111561549f5761549f614983565b6154b3816154ad8454615291565b8461543f565b602080601f83116001811461550657600084156154d05750858301515b7fffffffffffffffffffffffffffffffffffffffffffffffffffffffffffffffff600386901b1c1916600185901b1785556115b8565b6000858152602081207fffffffffffffffffffffffffffffffffffffffffffffffffffffffffffffffe08616915b8281101561555357888601518255948401946001909101908401615534565b508582101561558f57878501517fffffffffffffffffffffffffffffffffffffffffffffffffffffffffffffffff600388901b60f8161c191681555b5050505050600190811b01905550565b8381526060602082015260006155b86060830185614baf565b9050826040830152949350505050565b60008083546155d681615291565b600182811680156155ee576001811461562157615650565b7fffffffffffffffffffffffffffffffffffffffffffffffffffffffffffffff0084168752821515830287019450615650565b8760005260208060002060005b858110156156475781548a82015290840190820161562e565b50505082870194505b50929695505050505050565b8183528181602085013750600060208284010152600060207fffffffffffffffffffffffffffffffffffffffffffffffffffffffffffffffe0601f840116840101905092915050565b6020815260006156b960208301848661565c565b949350505050565b7f4e487b7100000000000000000000000000000000000000000000000000000000600052603160045260246000fd5b83815260406020820152600061538160408301848661565c56fea2646970667358221220117bca4a1838234979b52da237d85d36fb4d84afb1a68ae5eee009b60dba04c064736f6c63430008110033",
  "devdoc": {
    "details": "BattleOps are being inherited in this contract",
    "kind": "dev",
    "methods": {
      "checkRequiredTokenBalance(uint256,uint256)": {
        "params": {
          "_balance": "user ERC20 token balance",
          "_nftCount": "how many nft user have"
        },
        "returns": {
          "_0": "true if he has higher ERC20 token balance than required"
        }
      },
      "constructor": {
        "custom:oz-upgrades-unsafe-allow": "constructor"
      },
      "getAllToken(address)": {
        "params": {
          "_player": "Address of the player to get all tokens"
        }
      },
      "getStakedTokenTime(address,uint256)": {
        "params": {
          "_player": "Address of player getting staked time for token",
          "_tokenId": "Staked TokenID"
        }
      },
      "getStakedTokensForBattle(address,string)": {
        "params": {
          "_player": "is the user address"
        }
      },
      "initialize(address,address,uint256,address,address)": {
        "params": {
          "_accessControls": "Contract address for access controls",
          "_cdhNFTAddress": "Contract address for NFT Inventory,",
          "_maxStakeCount": "Number of tokens",
          "_tokenAddress": "Contract address for ERC20 token",
          "_wbbActionsAddress": "Contract address for WorldBossBattle Actions"
        }
      },
      "isEligibleToStake(string,address)": {
        "params": {
          "_pastBattleId": "Previous battleID",
          "_player": "Address of player checking eligibility of"
        },
        "returns": {
          "_0": "boolean if statement is true"
        }
      },
      "paused()": {
        "details": "Returns true if the contract is paused, and false otherwise."
      },
      "setBattlePeriodUnstakeStatus(bool)": {
        "params": {
          "_unstakeStatus": "boolean"
        }
      },
      "setCDHNFTContractAddress(address)": {
        "details": "only authorized addresses could change NFT contract address",
        "params": {
          "_nftContract": "new NFT address"
        }
      },
      "setCoolDownPeriod(uint256)": {
        "params": {
          "_time": "in unix"
        },
        "returns": {
          "_0": "_time"
        }
      },
      "setMinTokensRequired(uint256)": {
        "params": {
          "_value": "a uint value for setting minimum tokens required."
        }
      },
      "setToken(address)": {
        "details": "only authorized addresses could change token contract address",
        "params": {
          "_tokenAddress": "is the new token address"
        }
      },
      "setWBBActionsContract(address)": {
        "details": "only authorized addresses could change WBB Actions contract address",
        "params": {
          "_wbbActionsAddress": "new wbbActionsContract address"
        }
      },
      "stake(uint256,string)": {
        "details": "it calls internalStake function for further processing",
        "params": {
          "_battleId": "is unique battle in which the NFT will be staked",
          "_tokenId": "TokenID of CDH NFT"
        }
      },
      "stakeTokens(uint256[],string)": {
        "details": "it calls internalStake function for further processing",
        "params": {
          "_battleId": "is unique battle in which the NFT will be staked",
          "tokenIds": "is an array of tokenId of CDH NFT"
        }
      },
      "supportsInterface(bytes4)": {
        "details": "See {IERC165-supportsInterface}."
      },
      "unstake(uint256,string)": {
        "details": "Calls internalUnStake function for unstaking tokens",
        "params": {
          "_battleId": "is unique battle from which the NFT will be unstaked",
          "_tokenId": "TokenId of CDH NFT"
        }
      },
      "unstakeAll(string)": {
        "details": "it calls internalUnStakeAll function for further processing",
        "params": {
          "_battleId": "is unique battle in which the NFT will be unstaked"
        }
      },
      "unstakeAllInternal(address,string)": {
        "details": "it calls internalUnStakeAll function for further processing",
        "params": {
          "_battleId": "unique battle in which the NFT will be unstaked",
          "_player": "the address of a user which nft will be unstaked"
        }
      },
      "unstakeTokens(uint256[],string)": {
        "details": "it calls internalUnStake function for further processing",
        "params": {
          "_battleId": "is unique battle in which the NFT will be unstaked",
          "tokenIds": "is tokenId of CDHNFT"
        }
      },
      "unstakeTokensInternal(address,uint256[],string)": {
        "details": "it calls internalUnStakeAll function for further processing",
        "params": {
          "_battleId": "unique battle in which the NFT will be unstaked",
          "_player": "the address of a user which nft will be unstaked",
          "_tokenIds": "tokenid that user staked"
        }
      },
      "validStakeCount(uint256,string,address)": {
        "params": {
          "tokenLength": "number of tokenIDs that about to staked"
        }
      }
    },
    "stateVariables": {
      "__gap": {
        "details": "This empty reserved space is put in place to allow future versions to add new variables without shifting down storage in the inheritance chain. See https://docs.openzeppelin.com/contracts/4.x/upgradeable#storage_gaps"
      },
      "enableBattlePeriodUnstake": {
        "details": "true - unstake after cool down period end, false - unstake after battle ends"
      }
    },
    "title": "WorldBossBattle, the game will support NFTs for in-game items and stakes the NFTs to join the P2E event.",
    "version": 1
  },
  "userdoc": {
    "events": {
      "NFTStaked(address,uint256,string,uint256)": {
        "notice": "Event is emitted when NFT is staked with owner address, token id and in which battle the token is staked"
      },
      "NFTUnstaked(address,uint256,string)": {
        "notice": "Event is emitted when NFT is un-staked with owner address, token id and in which battle the token is un-staked"
      },
      "SetBattlePeriodUnstakeStatus(address,bool)": {
        "notice": "Event is emitted when battle period unstake status is set"
      },
      "SetCoolDownPeriod(uint256,uint256,address)": {
        "notice": "Event for setting cooldown period for user to be able to restake / unstake token"
      },
      "SetMaxStakeCount(uint256,uint256,address)": {
        "notice": "Event for when setting maximum number of token a user can stake which emits old count and new count address along with sender address"
      },
      "SetMinTokensRequired(address,uint256,uint256)": {
        "notice": "Event is emitted when minimum tokens required to stake is set"
      },
      "SetNFTContract(address,address,address)": {
        "notice": "Event for when setting NFT contract which emits old NFT address and new NFT address along with sender address"
      },
      "SetTokenContract(address,address,address)": {
        "notice": "Event for when setting ERC20 Token contract which emits old token address and new token address along with sender address"
      },
      "SetWBBActionsAddress(address,address,address)": {
        "notice": "Event for setting WBBActions contract Address which emits old WBBActions address and new WBBActions address along with sender address"
      }
    },
    "kind": "user",
    "methods": {
      "cdhNFT()": {
        "notice": "to store cdhNFT contract address"
      },
      "checkRequiredTokenBalance(uint256,uint256)": {
        "notice": "Internal methods for staking operations"
      },
      "cooldownPeriod()": {
        "notice": "to store the cooldownPeriod"
      },
      "enableBattlePeriodUnstake()": {
        "notice": "Flag to enable or disable the battle unstake period."
      },
      "getAllToken(address)": {
        "notice": "function to get all the token that a address has in the Inventory contract"
      },
      "getStakedTokenTime(address,uint256)": {
        "notice": "function to see user stakedTokenTime for specific tokenId"
      },
      "getStakedTokensForBattle(address,string)": {
        "notice": "Get all the tokens staked by user in the battleId"
      },
      "initialize(address,address,uint256,address,address)": {
        "notice": "Since it is upgradable function it is initialized instead of using constructor"
      },
      "latestBattle()": {
        "notice": "function to get the latest battle that is created"
      },
      "maxStakeCount()": {
        "notice": "to store the value in which a user can stake"
      },
      "minTokensRequired()": {
        "notice": "minimum Tokens for staking"
      },
      "pause()": {
        "notice": "Pause contract so users wont be able to stake new tokens"
      },
      "setBattlePeriodUnstakeStatus(bool)": {
        "notice": "Set the boolean status to enable Battle period stake"
      },
      "setCDHNFTContractAddress(address)": {
        "notice": "function to change the contract address of CDH NFT"
      },
      "setCoolDownPeriod(uint256)": {
        "notice": "to set the cooldown period"
      },
      "setMaxStakeCount(uint256)": {
        "notice": "function to set the limit of token that can be staked"
      },
      "setMinTokensRequired(uint256)": {
        "notice": "Set the minimum number of tokens required for staking nft in WBB"
      },
      "setToken(address)": {
        "notice": "function to change the contract address of ERC20 token"
      },
      "setWBBActionsContract(address)": {
        "notice": "Change the WBBActionsContract address that will set WBBActionsContract"
      },
      "stake(uint256,string)": {
        "notice": "Function to stake a single CDHNFT that sender owns"
      },
      "stakeTokens(uint256[],string)": {
        "notice": "Function to stake a array of CDH NFT that sender owns"
      },
      "stakers(address)": {
        "notice": "Mapping for TokenStakers"
      },
      "stakersAddress(uint256)": {
        "notice": "List of stakers address"
      },
      "tokenAddress()": {
        "notice": "to store ERC20 token contract"
      },
      "tokenOwner(uint256)": {
        "notice": "Mapping of tokenId to owner's address"
      },
      "tokenToBattleId(uint256)": {
        "notice": "maps tokenId to battleId"
      },
      "unpause()": {
        "notice": "UnPause contract so users be able to stake new tokens again"
      },
      "unstake(uint256,string)": {
        "notice": "public function to unstake a single CDHNFT that sender owns"
      },
      "unstakeAll(string)": {
        "notice": "public function to unstake all CDHNFT that sender owns"
      },
      "unstakeAllInternal(address,string)": {
        "notice": "Internal function to unstake all CDHNFT that sender owns"
      },
      "unstakeTokens(uint256[],string)": {
        "notice": "public function to unstake an array of  CDHNFT that sender owns"
      },
      "unstakeTokensInternal(address,uint256[],string)": {
        "notice": "Internal function to unstake tokens CDHNFT that sender owns"
      },
      "validStakeCount(uint256,string,address)": {
        "notice": "Check the limit of token that can be staked"
      }
    },
    "notice": "you can use this contract for only staking, un-staking and re-staking the NFTs",
    "version": 1
  },
  "storageLayout": {
    "storage": [
      {
        "astId": 547,
        "contract": "contracts/game/WorldBossBattle.sol:WorldBossBattle",
        "label": "_initialized",
        "offset": 0,
        "slot": "0",
        "type": "t_uint8"
      },
      {
        "astId": 550,
        "contract": "contracts/game/WorldBossBattle.sol:WorldBossBattle",
        "label": "_initializing",
        "offset": 1,
        "slot": "0",
        "type": "t_bool"
      },
      {
        "astId": 2657,
        "contract": "contracts/game/WorldBossBattle.sol:WorldBossBattle",
        "label": "__gap",
        "offset": 0,
        "slot": "1",
        "type": "t_array(t_uint256)50_storage"
      },
      {
        "astId": 730,
        "contract": "contracts/game/WorldBossBattle.sol:WorldBossBattle",
        "label": "_paused",
        "offset": 0,
        "slot": "51",
        "type": "t_bool"
      },
      {
        "astId": 835,
        "contract": "contracts/game/WorldBossBattle.sol:WorldBossBattle",
        "label": "__gap",
        "offset": 0,
        "slot": "52",
        "type": "t_array(t_uint256)49_storage"
      },
      {
        "astId": 850,
        "contract": "contracts/game/WorldBossBattle.sol:WorldBossBattle",
        "label": "_status",
        "offset": 0,
        "slot": "101",
        "type": "t_uint256"
      },
      {
        "astId": 908,
        "contract": "contracts/game/WorldBossBattle.sol:WorldBossBattle",
        "label": "__gap",
        "offset": 0,
        "slot": "102",
        "type": "t_array(t_uint256)49_storage"
      },
      {
        "astId": 10975,
        "contract": "contracts/game/WorldBossBattle.sol:WorldBossBattle",
        "label": "cdhNFT",
        "offset": 0,
        "slot": "151",
        "type": "t_contract(ICDHNFTInventory)12543"
      },
      {
        "astId": 10979,
        "contract": "contracts/game/WorldBossBattle.sol:WorldBossBattle",
        "label": "tokenAddress",
        "offset": 0,
        "slot": "152",
        "type": "t_contract(IToken)12581"
      },
      {
        "astId": 10982,
        "contract": "contracts/game/WorldBossBattle.sol:WorldBossBattle",
        "label": "wbbActions",
        "offset": 0,
        "slot": "153",
        "type": "t_contract(IWBBActions)12704"
      },
      {
        "astId": 10985,
        "contract": "contracts/game/WorldBossBattle.sol:WorldBossBattle",
        "label": "accessControls",
        "offset": 0,
        "slot": "154",
        "type": "t_contract(IGameAccessControls)12561"
      },
      {
        "astId": 10987,
        "contract": "contracts/game/WorldBossBattle.sol:WorldBossBattle",
        "label": "lastInteractionTime",
        "offset": 0,
        "slot": "155",
        "type": "t_uint256"
      },
      {
        "astId": 11007,
        "contract": "contracts/game/WorldBossBattle.sol:WorldBossBattle",
        "label": "stakersAddress",
        "offset": 0,
        "slot": "156",
        "type": "t_array(t_address)dyn_storage"
      },
      {
        "astId": 11013,
        "contract": "contracts/game/WorldBossBattle.sol:WorldBossBattle",
        "label": "stakers",
        "offset": 0,
        "slot": "157",
        "type": "t_mapping(t_address,t_struct(TokenStaker)11003_storage)"
      },
      {
        "astId": 11018,
        "contract": "contracts/game/WorldBossBattle.sol:WorldBossBattle",
        "label": "tokenOwner",
        "offset": 0,
        "slot": "158",
        "type": "t_mapping(t_uint256,t_address)"
      },
      {
        "astId": 11023,
        "contract": "contracts/game/WorldBossBattle.sol:WorldBossBattle",
        "label": "tokenToBattleId",
        "offset": 0,
        "slot": "159",
        "type": "t_mapping(t_uint256,t_string_storage)"
      },
      {
        "astId": 11026,
        "contract": "contracts/game/WorldBossBattle.sol:WorldBossBattle",
        "label": "cooldownPeriod",
        "offset": 0,
        "slot": "160",
        "type": "t_uint256"
      },
      {
        "astId": 11029,
        "contract": "contracts/game/WorldBossBattle.sol:WorldBossBattle",
        "label": "maxStakeCount",
        "offset": 0,
        "slot": "161",
        "type": "t_uint256"
      },
      {
        "astId": 11032,
        "contract": "contracts/game/WorldBossBattle.sol:WorldBossBattle",
        "label": "enableBattlePeriodUnstake",
        "offset": 0,
        "slot": "162",
        "type": "t_bool"
      },
      {
        "astId": 11035,
        "contract": "contracts/game/WorldBossBattle.sol:WorldBossBattle",
        "label": "minTokensRequired",
        "offset": 0,
        "slot": "163",
        "type": "t_uint256"
      },
      {
        "astId": 12456,
        "contract": "contracts/game/WorldBossBattle.sol:WorldBossBattle",
        "label": "__gap",
        "offset": 0,
        "slot": "164",
        "type": "t_array(t_uint256)49_storage"
      }
    ],
    "types": {
      "t_address": {
        "encoding": "inplace",
        "label": "address",
        "numberOfBytes": "20"
      },
      "t_array(t_address)dyn_storage": {
        "base": "t_address",
        "encoding": "dynamic_array",
        "label": "address[]",
        "numberOfBytes": "32"
      },
      "t_array(t_uint256)49_storage": {
        "base": "t_uint256",
        "encoding": "inplace",
        "label": "uint256[49]",
        "numberOfBytes": "1568"
      },
      "t_array(t_uint256)50_storage": {
        "base": "t_uint256",
        "encoding": "inplace",
        "label": "uint256[50]",
        "numberOfBytes": "1600"
      },
      "t_array(t_uint256)dyn_storage": {
        "base": "t_uint256",
        "encoding": "dynamic_array",
        "label": "uint256[]",
        "numberOfBytes": "32"
      },
      "t_bool": {
        "encoding": "inplace",
        "label": "bool",
        "numberOfBytes": "1"
      },
      "t_contract(ICDHNFTInventory)12543": {
        "encoding": "inplace",
        "label": "contract ICDHNFTInventory",
        "numberOfBytes": "20"
      },
      "t_contract(IGameAccessControls)12561": {
        "encoding": "inplace",
        "label": "contract IGameAccessControls",
        "numberOfBytes": "20"
      },
      "t_contract(IToken)12581": {
        "encoding": "inplace",
        "label": "contract IToken",
        "numberOfBytes": "20"
      },
      "t_contract(IWBBActions)12704": {
        "encoding": "inplace",
        "label": "contract IWBBActions",
        "numberOfBytes": "20"
      },
      "t_mapping(t_address,t_struct(TokenStaker)11003_storage)": {
        "encoding": "mapping",
        "key": "t_address",
        "label": "mapping(address => struct WorldBossBattle.TokenStaker)",
        "numberOfBytes": "32",
        "value": "t_struct(TokenStaker)11003_storage"
      },
      "t_mapping(t_string_memory_ptr,t_array(t_uint256)dyn_storage)": {
        "encoding": "mapping",
        "key": "t_string_memory_ptr",
        "label": "mapping(string => uint256[])",
        "numberOfBytes": "32",
        "value": "t_array(t_uint256)dyn_storage"
      },
      "t_mapping(t_uint256,t_address)": {
        "encoding": "mapping",
        "key": "t_uint256",
        "label": "mapping(uint256 => address)",
        "numberOfBytes": "32",
        "value": "t_address"
      },
      "t_mapping(t_uint256,t_string_storage)": {
        "encoding": "mapping",
        "key": "t_uint256",
        "label": "mapping(uint256 => string)",
        "numberOfBytes": "32",
        "value": "t_string_storage"
      },
      "t_mapping(t_uint256,t_uint256)": {
        "encoding": "mapping",
        "key": "t_uint256",
        "label": "mapping(uint256 => uint256)",
        "numberOfBytes": "32",
        "value": "t_uint256"
      },
      "t_string_memory_ptr": {
        "encoding": "bytes",
        "label": "string",
        "numberOfBytes": "32"
      },
      "t_string_storage": {
        "encoding": "bytes",
        "label": "string",
        "numberOfBytes": "32"
      },
      "t_struct(TokenStaker)11003_storage": {
        "encoding": "inplace",
        "label": "struct WorldBossBattle.TokenStaker",
        "members": [
          {
            "astId": 10992,
            "contract": "contracts/game/WorldBossBattle.sol:WorldBossBattle",
            "label": "battleTokenIds",
            "offset": 0,
            "slot": "0",
            "type": "t_mapping(t_string_memory_ptr,t_array(t_uint256)dyn_storage)"
          },
          {
            "astId": 10996,
            "contract": "contracts/game/WorldBossBattle.sol:WorldBossBattle",
            "label": "tokenIndex",
            "offset": 0,
            "slot": "1",
            "type": "t_mapping(t_uint256,t_uint256)"
          },
          {
            "astId": 11000,
            "contract": "contracts/game/WorldBossBattle.sol:WorldBossBattle",
            "label": "stakedTokenTime",
            "offset": 0,
            "slot": "2",
            "type": "t_mapping(t_uint256,t_uint256)"
          },
          {
            "astId": 11002,
            "contract": "contracts/game/WorldBossBattle.sol:WorldBossBattle",
            "label": "blockNumber",
            "offset": 0,
            "slot": "3",
            "type": "t_uint256"
          }
        ],
        "numberOfBytes": "128"
      },
      "t_uint256": {
        "encoding": "inplace",
        "label": "uint256",
        "numberOfBytes": "32"
      },
      "t_uint8": {
        "encoding": "inplace",
        "label": "uint8",
        "numberOfBytes": "1"
      }
    }
  }
}