{
  "_format": "hh-sol-artifact-1",
  "contractName": "WorldBossBattleV2",
  "sourceName": "contracts/game/v2/WorldBossBattleV2.sol",
  "abi": [
    {
      "inputs": [],
      "name": "NotEnoughTokens",
      "type": "error"
    },
    {
      "anonymous": false,
      "inputs": [
        {
          "indexed": false,
          "internalType": "uint8",
          "name": "version",
          "type": "uint8"
        }
      ],
      "name": "Initialized",
      "type": "event"
    },
    {
      "anonymous": false,
      "inputs": [
        {
          "indexed": true,
          "internalType": "address",
          "name": "_nftOwner",
          "type": "address"
        },
        {
          "indexed": false,
          "internalType": "uint256",
          "name": "_tokenId",
          "type": "uint256"
        },
        {
          "indexed": false,
          "internalType": "string",
          "name": "_battleId",
          "type": "string"
        },
        {
          "indexed": false,
          "internalType": "uint256",
          "name": "_stakedTokenTime",
          "type": "uint256"
        }
      ],
      "name": "NFTStaked",
      "type": "event"
    },
    {
      "anonymous": false,
      "inputs": [
        {
          "indexed": true,
          "internalType": "address",
          "name": "_nftReceiver",
          "type": "address"
        },
        {
          "indexed": false,
          "internalType": "uint256",
          "name": "_tokenId",
          "type": "uint256"
        },
        {
          "indexed": false,
          "internalType": "string",
          "name": "_battleId",
          "type": "string"
        }
      ],
      "name": "NFTUnstaked",
      "type": "event"
    },
    {
      "anonymous": false,
      "inputs": [
        {
          "indexed": false,
          "internalType": "address",
          "name": "account",
          "type": "address"
        }
      ],
      "name": "Paused",
      "type": "event"
    },
    {
      "anonymous": false,
      "inputs": [
        {
          "indexed": true,
          "internalType": "address",
          "name": "setterAddress",
          "type": "address"
        },
        {
          "indexed": false,
          "internalType": "bool",
          "name": "_status",
          "type": "bool"
        }
      ],
      "name": "SetBattlePeriodUnstakeStatus",
      "type": "event"
    },
    {
      "anonymous": false,
      "inputs": [
        {
          "indexed": false,
          "internalType": "uint256",
          "name": "_coolDownPeriod",
          "type": "uint256"
        },
        {
          "indexed": false,
          "internalType": "uint256",
          "name": "_newCoolDownPeriod",
          "type": "uint256"
        },
        {
          "indexed": false,
          "internalType": "address",
          "name": "_sender",
          "type": "address"
        }
      ],
      "name": "SetCoolDownPeriod",
      "type": "event"
    },
    {
      "anonymous": false,
      "inputs": [
        {
          "indexed": false,
          "internalType": "uint256",
          "name": "_maxOldCount",
          "type": "uint256"
        },
        {
          "indexed": false,
          "internalType": "uint256",
          "name": "_maxNewCount",
          "type": "uint256"
        },
        {
          "indexed": false,
          "internalType": "address",
          "name": "_sender",
          "type": "address"
        }
      ],
      "name": "SetMaxStakeCount",
      "type": "event"
    },
    {
      "anonymous": false,
      "inputs": [
        {
          "indexed": false,
          "internalType": "address",
          "name": "_sender",
          "type": "address"
        },
        {
          "indexed": false,
          "internalType": "uint256",
          "name": "_oldMinTokensRequired",
          "type": "uint256"
        },
        {
          "indexed": false,
          "internalType": "uint256",
          "name": "_newMinTokensRequired",
          "type": "uint256"
        }
      ],
      "name": "SetMinTokensRequired",
      "type": "event"
    },
    {
      "anonymous": false,
      "inputs": [
        {
          "indexed": true,
          "internalType": "address",
          "name": "_oldNFTContract",
          "type": "address"
        },
        {
          "indexed": true,
          "internalType": "address",
          "name": "_nftContract",
          "type": "address"
        },
        {
          "indexed": false,
          "internalType": "address",
          "name": "_sender",
          "type": "address"
        }
      ],
      "name": "SetNFTContract",
      "type": "event"
    },
    {
      "anonymous": false,
      "inputs": [
        {
          "indexed": true,
          "internalType": "address",
          "name": "_oldTokenContract",
          "type": "address"
        },
        {
          "indexed": true,
          "internalType": "address",
          "name": "_newTokenContract",
          "type": "address"
        },
        {
          "indexed": false,
          "internalType": "address",
          "name": "_sender",
          "type": "address"
        }
      ],
      "name": "SetTokenContract",
      "type": "event"
    },
    {
      "anonymous": false,
      "inputs": [
        {
          "indexed": true,
          "internalType": "address",
          "name": "_oldWBBActionsAddress",
          "type": "address"
        },
        {
          "indexed": true,
          "internalType": "address",
          "name": "_newWBBActionsAddress",
          "type": "address"
        },
        {
          "indexed": false,
          "internalType": "address",
          "name": "_sender",
          "type": "address"
        }
      ],
      "name": "SetWBBActionsAddress",
      "type": "event"
    },
    {
      "anonymous": false,
      "inputs": [
        {
          "indexed": false,
          "internalType": "address",
          "name": "account",
          "type": "address"
        }
      ],
      "name": "Unpaused",
      "type": "event"
    },
    {
      "inputs": [],
      "name": "accessControls",
      "outputs": [
        {
          "internalType": "contract IGameAccessControls",
          "name": "",
          "type": "address"
        }
      ],
      "stateMutability": "view",
      "type": "function"
    },
    {
      "inputs": [],
      "name": "cdhNFT",
      "outputs": [
        {
          "internalType": "contract ICDHNFTInventory",
          "name": "",
          "type": "address"
        }
      ],
      "stateMutability": "view",
      "type": "function"
    },
    {
      "inputs": [
        {
          "internalType": "uint256",
          "name": "_nftCount",
          "type": "uint256"
        },
        {
          "internalType": "uint256",
          "name": "_balance",
          "type": "uint256"
        }
      ],
      "name": "checkRequiredTokenBalance",
      "outputs": [
        {
          "internalType": "bool",
          "name": "",
          "type": "bool"
        }
      ],
      "stateMutability": "view",
      "type": "function"
    },
    {
      "inputs": [],
      "name": "cooldownPeriod",
      "outputs": [
        {
          "internalType": "uint256",
          "name": "",
          "type": "uint256"
        }
      ],
      "stateMutability": "view",
      "type": "function"
    },
    {
      "inputs": [],
      "name": "enableBattlePeriodUnstake",
      "outputs": [
        {
          "internalType": "bool",
          "name": "",
          "type": "bool"
        }
      ],
      "stateMutability": "view",
      "type": "function"
    },
    {
      "inputs": [
        {
          "internalType": "address",
          "name": "_player",
          "type": "address"
        }
      ],
      "name": "getAllToken",
      "outputs": [
        {
          "internalType": "uint256[]",
          "name": "",
          "type": "uint256[]"
        }
      ],
      "stateMutability": "view",
      "type": "function"
    },
    {
      "inputs": [
        {
          "internalType": "address",
          "name": "_player",
          "type": "address"
        },
        {
          "internalType": "uint256",
          "name": "_tokenId",
          "type": "uint256"
        }
      ],
      "name": "getStakedTokenTime",
      "outputs": [
        {
          "internalType": "uint256",
          "name": "",
          "type": "uint256"
        }
      ],
      "stateMutability": "view",
      "type": "function"
    },
    {
      "inputs": [
        {
          "internalType": "address",
          "name": "_player",
          "type": "address"
        },
        {
          "internalType": "string",
          "name": "_battleId",
          "type": "string"
        }
      ],
      "name": "getStakedTokensForBattle",
      "outputs": [
        {
          "internalType": "uint256[]",
          "name": "tokenIds",
          "type": "uint256[]"
        }
      ],
      "stateMutability": "view",
      "type": "function"
    },
    {
      "inputs": [
        {
          "internalType": "contract ICDHNFTInventory",
          "name": "_cdhNFTAddress",
          "type": "address"
        },
        {
          "internalType": "contract IToken",
          "name": "_tokenAddress",
          "type": "address"
        },
        {
          "internalType": "uint256",
          "name": "_maxStakeCount",
          "type": "uint256"
        },
        {
          "internalType": "contract IWBBActions",
          "name": "_wbbActionsAddress",
          "type": "address"
        },
        {
          "internalType": "contract IGameAccessControls",
          "name": "_accessControls",
          "type": "address"
        }
      ],
      "name": "initialize",
      "outputs": [],
      "stateMutability": "nonpayable",
      "type": "function"
    },
    {
      "inputs": [
        {
          "internalType": "string",
          "name": "_pastBattleId",
          "type": "string"
        },
        {
          "internalType": "address",
          "name": "_player",
          "type": "address"
        }
      ],
      "name": "isEligibleToStake",
      "outputs": [
        {
          "internalType": "bool",
          "name": "",
          "type": "bool"
        }
      ],
      "stateMutability": "view",
      "type": "function"
    },
    {
      "inputs": [],
      "name": "lastInteractionTime",
      "outputs": [
        {
          "internalType": "uint256",
          "name": "",
          "type": "uint256"
        }
      ],
      "stateMutability": "view",
      "type": "function"
    },
    {
      "inputs": [],
      "name": "latestBattle",
      "outputs": [
        {
          "internalType": "string",
          "name": "",
          "type": "string"
        }
      ],
      "stateMutability": "view",
      "type": "function"
    },
    {
      "inputs": [],
      "name": "maxStakeCount",
      "outputs": [
        {
          "internalType": "uint256",
          "name": "",
          "type": "uint256"
        }
      ],
      "stateMutability": "view",
      "type": "function"
    },
    {
      "inputs": [],
      "name": "minTokensRequired",
      "outputs": [
        {
          "internalType": "uint256",
          "name": "",
          "type": "uint256"
        }
      ],
      "stateMutability": "view",
      "type": "function"
    },
    {
      "inputs": [
        {
          "internalType": "address",
          "name": "",
          "type": "address"
        },
        {
          "internalType": "address",
          "name": "",
          "type": "address"
        },
        {
          "internalType": "uint256[]",
          "name": "",
          "type": "uint256[]"
        },
        {
          "internalType": "uint256[]",
          "name": "",
          "type": "uint256[]"
        },
        {
          "internalType": "bytes",
          "name": "",
          "type": "bytes"
        }
      ],
      "name": "onERC1155BatchReceived",
      "outputs": [
        {
          "internalType": "bytes4",
          "name": "",
          "type": "bytes4"
        }
      ],
      "stateMutability": "nonpayable",
      "type": "function"
    },
    {
      "inputs": [
        {
          "internalType": "address",
          "name": "",
          "type": "address"
        },
        {
          "internalType": "address",
          "name": "",
          "type": "address"
        },
        {
          "internalType": "uint256",
          "name": "",
          "type": "uint256"
        },
        {
          "internalType": "uint256",
          "name": "",
          "type": "uint256"
        },
        {
          "internalType": "bytes",
          "name": "",
          "type": "bytes"
        }
      ],
      "name": "onERC1155Received",
      "outputs": [
        {
          "internalType": "bytes4",
          "name": "",
          "type": "bytes4"
        }
      ],
      "stateMutability": "nonpayable",
      "type": "function"
    },
    {
      "inputs": [],
      "name": "pause",
      "outputs": [],
      "stateMutability": "nonpayable",
      "type": "function"
    },
    {
      "inputs": [],
      "name": "paused",
      "outputs": [
        {
          "internalType": "bool",
          "name": "",
          "type": "bool"
        }
      ],
      "stateMutability": "view",
      "type": "function"
    },
    {
      "inputs": [],
      "name": "reInitialize",
      "outputs": [],
      "stateMutability": "nonpayable",
      "type": "function"
    },
    {
      "inputs": [
        {
          "internalType": "bool",
          "name": "_unstakeStatus",
          "type": "bool"
        }
      ],
      "name": "setBattlePeriodUnstakeStatus",
      "outputs": [],
      "stateMutability": "nonpayable",
      "type": "function"
    },
    {
      "inputs": [
        {
          "internalType": "address",
          "name": "_nftContract",
          "type": "address"
        }
      ],
      "name": "setCDHNFTContractAddress",
      "outputs": [],
      "stateMutability": "nonpayable",
      "type": "function"
    },
    {
      "inputs": [
        {
          "internalType": "uint256",
          "name": "_time",
          "type": "uint256"
        }
      ],
      "name": "setCoolDownPeriod",
      "outputs": [
        {
          "internalType": "uint256",
          "name": "",
          "type": "uint256"
        }
      ],
      "stateMutability": "nonpayable",
      "type": "function"
    },
    {
      "inputs": [
        {
          "internalType": "uint256",
          "name": "_maxCount",
          "type": "uint256"
        }
      ],
      "name": "setMaxStakeCount",
      "outputs": [],
      "stateMutability": "nonpayable",
      "type": "function"
    },
    {
      "inputs": [
        {
          "internalType": "uint256",
          "name": "_value",
          "type": "uint256"
        }
      ],
      "name": "setMinTokensRequired",
      "outputs": [],
      "stateMutability": "nonpayable",
      "type": "function"
    },
    {
      "inputs": [
        {
          "internalType": "address",
          "name": "_tokenAddress",
          "type": "address"
        }
      ],
      "name": "setToken",
      "outputs": [],
      "stateMutability": "nonpayable",
      "type": "function"
    },
    {
      "inputs": [
        {
          "internalType": "address",
          "name": "_wbbActionsAddress",
          "type": "address"
        }
      ],
      "name": "setWBBActionsContract",
      "outputs": [],
      "stateMutability": "nonpayable",
      "type": "function"
    },
    {
      "inputs": [
        {
          "internalType": "uint256",
          "name": "_tokenId",
          "type": "uint256"
        },
        {
          "internalType": "string",
          "name": "_battleId",
          "type": "string"
        }
      ],
      "name": "stake",
      "outputs": [],
      "stateMutability": "nonpayable",
      "type": "function"
    },
    {
      "inputs": [
        {
          "internalType": "uint256[]",
          "name": "tokenIds",
          "type": "uint256[]"
        },
        {
          "internalType": "string",
          "name": "_battleId",
          "type": "string"
        }
      ],
      "name": "stakeTokens",
      "outputs": [],
      "stateMutability": "nonpayable",
      "type": "function"
    },
    {
      "inputs": [
        {
          "internalType": "address",
          "name": "",
          "type": "address"
        }
      ],
      "name": "stakers",
      "outputs": [
        {
          "internalType": "uint256",
          "name": "blockNumber",
          "type": "uint256"
        }
      ],
      "stateMutability": "view",
      "type": "function"
    },
    {
      "inputs": [
        {
          "internalType": "uint256",
          "name": "",
          "type": "uint256"
        }
      ],
      "name": "stakersAddress",
      "outputs": [
        {
          "internalType": "address",
          "name": "",
          "type": "address"
        }
      ],
      "stateMutability": "view",
      "type": "function"
    },
    {
      "inputs": [
        {
          "internalType": "bytes4",
          "name": "interfaceId",
          "type": "bytes4"
        }
      ],
      "name": "supportsInterface",
      "outputs": [
        {
          "internalType": "bool",
          "name": "",
          "type": "bool"
        }
      ],
      "stateMutability": "view",
      "type": "function"
    },
    {
      "inputs": [],
      "name": "tokenAddress",
      "outputs": [
        {
          "internalType": "contract IToken",
          "name": "",
          "type": "address"
        }
      ],
      "stateMutability": "view",
      "type": "function"
    },
    {
      "inputs": [
        {
          "internalType": "uint256",
          "name": "",
          "type": "uint256"
        }
      ],
      "name": "tokenOwner",
      "outputs": [
        {
          "internalType": "address",
          "name": "",
          "type": "address"
        }
      ],
      "stateMutability": "view",
      "type": "function"
    },
    {
      "inputs": [
        {
          "internalType": "uint256",
          "name": "",
          "type": "uint256"
        }
      ],
      "name": "tokenToBattleId",
      "outputs": [
        {
          "internalType": "string",
          "name": "",
          "type": "string"
        }
      ],
      "stateMutability": "view",
      "type": "function"
    },
    {
      "inputs": [],
      "name": "unpause",
      "outputs": [],
      "stateMutability": "nonpayable",
      "type": "function"
    },
    {
      "inputs": [
        {
          "internalType": "uint256",
          "name": "_tokenId",
          "type": "uint256"
        },
        {
          "internalType": "string",
          "name": "_battleId",
          "type": "string"
        }
      ],
      "name": "unstake",
      "outputs": [],
      "stateMutability": "nonpayable",
      "type": "function"
    },
    {
      "inputs": [
        {
          "internalType": "string",
          "name": "_battleId",
          "type": "string"
        }
      ],
      "name": "unstakeAll",
      "outputs": [],
      "stateMutability": "nonpayable",
      "type": "function"
    },
    {
      "inputs": [
        {
          "internalType": "address",
          "name": "_player",
          "type": "address"
        },
        {
          "internalType": "string",
          "name": "_battleId",
          "type": "string"
        }
      ],
      "name": "unstakeAllInternal",
      "outputs": [],
      "stateMutability": "nonpayable",
      "type": "function"
    },
    {
      "inputs": [
        {
          "internalType": "uint256[]",
          "name": "tokenIds",
          "type": "uint256[]"
        },
        {
          "internalType": "string",
          "name": "_battleId",
          "type": "string"
        }
      ],
      "name": "unstakeTokens",
      "outputs": [],
      "stateMutability": "nonpayable",
      "type": "function"
    },
    {
      "inputs": [
        {
          "internalType": "address",
          "name": "_player",
          "type": "address"
        },
        {
          "internalType": "uint256[]",
          "name": "_tokenIds",
          "type": "uint256[]"
        },
        {
          "internalType": "string",
          "name": "_battleId",
          "type": "string"
        }
      ],
      "name": "unstakeTokensInternal",
      "outputs": [],
      "stateMutability": "nonpayable",
      "type": "function"
    },
    {
      "inputs": [
        {
          "internalType": "uint256",
          "name": "tokenLength",
          "type": "uint256"
        },
        {
          "internalType": "string",
          "name": "_battleId",
          "type": "string"
        },
        {
          "internalType": "address",
          "name": "_player",
          "type": "address"
        }
      ],
      "name": "validStakeCount",
      "outputs": [
        {
          "internalType": "bool",
          "name": "",
          "type": "bool"
        }
      ],
      "stateMutability": "view",
      "type": "function"
    },
    {
      "inputs": [],
      "name": "versionInfo",
      "outputs": [
        {
          "internalType": "string",
          "name": "",
          "type": "string"
        }
      ],
      "stateMutability": "pure",
      "type": "function"
    },
    {
      "inputs": [],
      "name": "wbbActions",
      "outputs": [
        {
          "internalType": "contract IWBBActions",
          "name": "",
          "type": "address"
        }
      ],
      "stateMutability": "view",
      "type": "function"
    }
  ],
  "bytecode": "0x60806040523480156200001157600080fd5b506200001c62000022565b620000e4565b600054610100900460ff16156200008f5760405162461bcd60e51b815260206004820152602760248201527f496e697469616c697a61626c653a20636f6e747261637420697320696e697469604482015266616c697a696e6760c81b606482015260840160405180910390fd5b60005460ff9081161015620000e2576000805460ff191660ff9081179091556040519081527f7f26b83ff96e1f2b6a682f133852f6798a09c465da95921460cefb38474024989060200160405180910390a15b565b6158d180620000f46000396000f3fe608060405234801561001057600080fd5b50600436106102e95760003560e01c80639168ae7211610191578063bc197c81116100e3578063d2bd85d611610097578063e7e4e1f711610071578063e7e4e1f7146106ff578063ee20aed014610712578063f23a6e611461072557600080fd5b8063d2bd85d6146106d0578063d7c15bf6146106e3578063dee2d74c146106ec57600080fd5b8063c7c8afbc116100c8578063c7c8afbc146106a1578063ca4c20d0146106b4578063d0a068ff146106bd57600080fd5b8063bc197c8114610625578063c46d0c931461068e57600080fd5b80639e8ccaf111610145578063a90d86671161011f578063a90d8667146105ec578063ab5dc685146105ff578063b345b8c01461061257600080fd5b80639e8ccaf11461058a578063a21d1354146105aa578063a8bc29a6146105e357600080fd5b806395fbf3a91161017657806395fbf3a91461054f5780639b6c2682146105575780639d76ea581461056a57600080fd5b80639168ae721461051f578063951a56831461054257600080fd5b80632fc5dcea1161024a5780636f74ecbf116101fe578063751408c5116101d8578063751408c5146104f157806379e5e03b146105045780638456cb591461051757600080fd5b80636f74ecbf146104ab578063736f616b146104be578063748365ef146104d157600080fd5b80633f4ba83a1161022f5780633f4ba83a146104515780635acf099c146104595780635c975abb146104a057600080fd5b80632fc5dcea1461042b57806333e1a2231461043e57600080fd5b80631caaa487116102a15780632ac34bc1116102865780632ac34bc1146103f05780632de23337146104035780632e4723fd1461040b57600080fd5b80631caaa4871461039a57806328fb7745146103d057600080fd5b806304646a49116102d257806304646a4914610329578063144fa6d7146103405780631b48ba071461035557600080fd5b806301ffc9a7146102ee5780630421af7814610316575b600080fd5b6103016102fc366004614a0a565b61075d565b60405190151581526020015b60405180910390f35b610301610324366004614a4c565b6107f6565b61033260a05481565b60405190815260200161030d565b61035361034e366004614a90565b610824565b005b6099546103759073ffffffffffffffffffffffffffffffffffffffff1681565b60405173ffffffffffffffffffffffffffffffffffffffff909116815260200161030d565b6103756103a8366004614aad565b609e6020526000908152604090205473ffffffffffffffffffffffffffffffffffffffff1681565b6103e36103de366004614a90565b610a40565b60405161030d9190614b01565b6103536103fe366004614cb8565b610b02565b610353610fd4565b61041e610419366004614aad565b61110e565b60405161030d9190614d8a565b610353610439366004614de6565b6111a8565b61035361044c366004614e5f565b61152d565b610353611751565b610332610467366004614ec7565b73ffffffffffffffffffffffffffffffffffffffff919091166000908152609d6020908152604080832093835260029093019052205490565b60335460ff16610301565b6103536104b9366004614aad565b61186d565b6103326104cc366004614aad565b6119cb565b609a546103759073ffffffffffffffffffffffffffffffffffffffff1681565b6103756104ff366004614aad565b611b2c565b610301610512366004614ef3565b611b63565b610353611bc3565b61033261052d366004614a90565b609d6020526000908152604090206003015481565b60a2546103019060ff1681565b61041e611cdd565b610353610565366004614aad565b611d98565b6098546103759073ffffffffffffffffffffffffffffffffffffffff1681565b6097546103759073ffffffffffffffffffffffffffffffffffffffff1681565b60408051808201909152601181527f746869732069732076657273696f6e2032000000000000000000000000000000602082015261041e565b610332609b5481565b6103536105fa366004614f4e565b611ef4565b61035361060d366004614f9a565b6121be565b610353610620366004614a90565b612562565b61065d610633366004614ff6565b7fbc197c810000000000000000000000000000000000000000000000000000000095945050505050565b6040517fffffffff00000000000000000000000000000000000000000000000000000000909116815260200161030d565b61035361069c366004614a90565b612779565b6103016106af3660046150a4565b612990565b61033260a35481565b6103536106cb3660046150f0565b6129e2565b6103536106de36600461512c565b612d65565b61033260a15481565b6103e36106fa3660046150f0565b612fd1565b61035361070d36600461516e565b61306b565b6103536107203660046151b9565b61347f565b61065d6107333660046151d6565b7ff23a6e610000000000000000000000000000000000000000000000000000000095945050505050565b60007fffffffff0000000000000000000000000000000000000000000000000000000082167f4e2312e00000000000000000000000000000000000000000000000000000000014806107f057507f01ffc9a7000000000000000000000000000000000000000000000000000000007fffffffff000000000000000000000000000000000000000000000000000000008316145b92915050565b60008060a35484610807919061526e565b61081990670de0b6b3a764000061526e565b909210159392505050565b600033609a546040517f5026c82600000000000000000000000000000000000000000000000000000000815273ffffffffffffffffffffffffffffffffffffffff8084166004830152929350911690635026c82690602401602060405180830381865afa158015610899573d6000803e3d6000fd5b505050506040513d601f19601f820116820180604052508101906108bd9190615285565b610928576040517f08c379a000000000000000000000000000000000000000000000000000000000815260206004820152601160248201527f5742423a20556e617574686f72697a656400000000000000000000000000000060448201526064015b60405180910390fd5b73ffffffffffffffffffffffffffffffffffffffff82166109a5576040517f08c379a000000000000000000000000000000000000000000000000000000000815260206004820152601a60248201527f5742423a20496e76616c696420746f6b656e2061646472657373000000000000604482015260640161091f565b60985460405173ffffffffffffffffffffffffffffffffffffffff83811682528481169216907f674d28769cbbfd17daf174e00c6a31cb6d8a30ac58fd38b1098bb2267a888d049060200160405180910390a350609880547fffffffffffffffffffffffff00000000000000000000000000000000000000001673ffffffffffffffffffffffffffffffffffffffff92909216919091179055565b6097546040517f178b6de600000000000000000000000000000000000000000000000000000000815273ffffffffffffffffffffffffffffffffffffffff838116600483015260609260009291169063178b6de690602401600060405180830381865afa158015610ab5573d6000803e3d6000fd5b505050506040513d6000823e601f3d9081017fffffffffffffffffffffffffffffffffffffffffffffffffffffffffffffffe0168201604052610afb91908101906152a2565b9392505050565b6099546040517fb778e183000000000000000000000000000000000000000000000000000000008152829173ffffffffffffffffffffffffffffffffffffffff169063b778e18390610b58908490600401614d8a565b602060405180830381865afa158015610b75573d6000803e3d6000fd5b505050506040513d601f19601f82011682018060405250810190610b999190615285565b610bff576040517f08c379a000000000000000000000000000000000000000000000000000000000815260206004820152601060248201527f5742423a206e6f74207374617274656400000000000000000000000000000000604482015260640161091f565b6099546040517f47ff16ac00000000000000000000000000000000000000000000000000000000815273ffffffffffffffffffffffffffffffffffffffff909116906347ff16ac90610c55908490600401614d8a565b602060405180830381865afa158015610c72573d6000803e3d6000fd5b505050506040513d601f19601f82011682018060405250810190610c969190615285565b15610cfd576040517f08c379a000000000000000000000000000000000000000000000000000000000815260206004820152601160248201527f5742423a20626174746c6520656e646564000000000000000000000000000000604482015260640161091f565b6099546040517f5d49778900000000000000000000000000000000000000000000000000000000815273ffffffffffffffffffffffffffffffffffffffff90911690635d49778990610d53908490600401614d8a565b602060405180830381865afa158015610d70573d6000803e3d6000fd5b505050506040513d601f19601f82011682018060405250810190610d949190615285565b610e20576040517f08c379a000000000000000000000000000000000000000000000000000000000815260206004820152602160248201527f5742423a20626174746c65206e6f742063726561746564206f7220616374697660448201527f6500000000000000000000000000000000000000000000000000000000000000606482015260840161091f565b82513390610e2f908483611b63565b610e95576040517f08c379a000000000000000000000000000000000000000000000000000000000815260206004820152601760248201527f5742423a204d617820746f6b656e73207374616b65642e000000000000000000604482015260640161091f565b6000845167ffffffffffffffff811115610eb157610eb1614b14565b604051908082528060200260200182016040528015610eda578160200160208202803683370190505b50905060005b8551811015610f3e57610f0d83878381518110610eff57610eff615333565b6020026020010151876135fc565b6001828281518110610f2157610f21615333565b602090810291909101015280610f3681615362565b915050610ee0565b506097546040517f2eb2c2d600000000000000000000000000000000000000000000000000000000815273ffffffffffffffffffffffffffffffffffffffff90911690632eb2c2d690610f9b90859030908a90879060040161539a565b600060405180830381600087803b158015610fb557600080fd5b505af1158015610fc9573d6000803e3d6000fd5b505050505050505050565b600054600290610100900460ff16158015610ff6575060005460ff8083169116105b611082576040517f08c379a000000000000000000000000000000000000000000000000000000000815260206004820152602e60248201527f496e697469616c697a61626c653a20636f6e747261637420697320616c72656160448201527f647920696e697469616c697a6564000000000000000000000000000000000000606482015260840161091f565b600080547fffffffffffffffffffffffffffffffffffffffffffffffffffffffffffff00001660ff8316908117610100177fffffffffffffffffffffffffffffffffffffffffffffffffffffffffffff00ff169091556040519081527f7f26b83ff96e1f2b6a682f133852f6798a09c465da95921460cefb38474024989060200160405180910390a150565b609f602052600090815260409020805461112790615422565b80601f016020809104026020016040519081016040528092919081815260200182805461115390615422565b80156111a05780601f10611175576101008083540402835291602001916111a0565b820191906000526020600020905b81548152906001019060200180831161118357829003601f168201915b505050505081565b81818080601f016020809104026020016040519081016040528093929190818152602001838380828437600092019190915250506099546040517f5d49778900000000000000000000000000000000000000000000000000000000815273ffffffffffffffffffffffffffffffffffffffff9091169250635d4977899150611234908490600401614d8a565b602060405180830381865afa158015611251573d6000803e3d6000fd5b505050506040513d601f19601f820116820180604052508101906112759190615285565b611301576040517f08c379a000000000000000000000000000000000000000000000000000000000815260206004820152602160248201527f5742423a20626174746c65206e6f742063726561746564206f7220616374697660448201527f6500000000000000000000000000000000000000000000000000000000000000606482015260840161091f565b60a25460ff16611408576099546040517f47ff16ac00000000000000000000000000000000000000000000000000000000815273ffffffffffffffffffffffffffffffffffffffff909116906347ff16ac90611361908490600401614d8a565b602060405180830381865afa15801561137e573d6000803e3d6000fd5b505050506040513d601f19601f820116820180604052508101906113a29190615285565b611408576040517f08c379a000000000000000000000000000000000000000000000000000000000815260206004820152601660248201527f5742423a20426174746c65206e6f7420656e6465642e00000000000000000000604482015260640161091f565b609a5473ffffffffffffffffffffffffffffffffffffffff16635026c826336040517fffffffff0000000000000000000000000000000000000000000000000000000060e084901b16815273ffffffffffffffffffffffffffffffffffffffff9091166004820152602401602060405180830381865afa158015611490573d6000803e3d6000fd5b505050506040513d601f19601f820116820180604052508101906114b49190615285565b61151a576040517f08c379a000000000000000000000000000000000000000000000000000000000815260206004820152601160248201527f5742423a20556e617574686f72697a6564000000000000000000000000000000604482015260640161091f565b611526858585856139ce565b5050505050565b600054610100900460ff161580801561154d5750600054600160ff909116105b806115675750303b158015611567575060005460ff166001145b6115f3576040517f08c379a000000000000000000000000000000000000000000000000000000000815260206004820152602e60248201527f496e697469616c697a61626c653a20636f6e747261637420697320616c72656160448201527f647920696e697469616c697a6564000000000000000000000000000000000000606482015260840161091f565b600080547fffffffffffffffffffffffffffffffffffffffffffffffffffffffffffffff00166001179055801561165157600080547fffffffffffffffffffffffffffffffffffffffffffffffffffffffffffff00ff166101001790555b6097805473ffffffffffffffffffffffffffffffffffffffff8089167fffffffffffffffffffffffff0000000000000000000000000000000000000000928316179092556098805488841690831617905560a186905560998054868416908316179055609a80549285169290911691909117905542609b55606460a3556116d6613ad5565b6116de613b6c565b6116e6613c0b565b801561174957600080547fffffffffffffffffffffffffffffffffffffffffffffffffffffffffffff00ff169055604051600181527f7f26b83ff96e1f2b6a682f133852f6798a09c465da95921460cefb38474024989060200160405180910390a15b505050505050565b609a5473ffffffffffffffffffffffffffffffffffffffff16635026c826336040517fffffffff0000000000000000000000000000000000000000000000000000000060e084901b16815273ffffffffffffffffffffffffffffffffffffffff9091166004820152602401602060405180830381865afa1580156117d9573d6000803e3d6000fd5b505050506040513d601f19601f820116820180604052508101906117fd9190615285565b611863576040517f08c379a000000000000000000000000000000000000000000000000000000000815260206004820152601160248201527f5742423a20556e617574686f72697a6564000000000000000000000000000000604482015260640161091f565b61186b613caa565b565b600033609a546040517f5026c82600000000000000000000000000000000000000000000000000000000815273ffffffffffffffffffffffffffffffffffffffff8084166004830152929350911690635026c82690602401602060405180830381865afa1580156118e2573d6000803e3d6000fd5b505050506040513d601f19601f820116820180604052508101906119069190615285565b61196c576040517f08c379a000000000000000000000000000000000000000000000000000000000815260206004820152601160248201527f5742423a20556e617574686f72697a6564000000000000000000000000000000604482015260640161091f565b60a3546040805173ffffffffffffffffffffffffffffffffffffffff841681526020810185905280820192909252517f7231189f16a6d29158a7ee4029be9651e8cd39d0b9ad99455708b992423ad6c29181900360600190a15060a355565b60008033609a546040517f5026c82600000000000000000000000000000000000000000000000000000000815273ffffffffffffffffffffffffffffffffffffffff8084166004830152929350911690635026c82690602401602060405180830381865afa158015611a41573d6000803e3d6000fd5b505050506040513d601f19601f82011682018060405250810190611a659190615285565b611acb576040517f08c379a000000000000000000000000000000000000000000000000000000000815260206004820152601160248201527f5742423a20556e617574686f72697a6564000000000000000000000000000000604482015260640161091f565b60a054604080519182526020820185905273ffffffffffffffffffffffffffffffffffffffff831682820152517f413a859b874b81545b2b22a26facd81777b79bce9f7631657c033f4d4a5d1cbb9181900360600190a1505060a081905590565b609c8181548110611b3c57600080fd5b60009182526020909120015473ffffffffffffffffffffffffffffffffffffffff16905081565b60a15473ffffffffffffffffffffffffffffffffffffffff82166000908152609d60205260408082209051919291869190611b9f908790615475565b90815260405190819003602001902054611bb99190615491565b1115949350505050565b609a5473ffffffffffffffffffffffffffffffffffffffff16635026c826336040517fffffffff0000000000000000000000000000000000000000000000000000000060e084901b16815273ffffffffffffffffffffffffffffffffffffffff9091166004820152602401602060405180830381865afa158015611c4b573d6000803e3d6000fd5b505050506040513d601f19601f82011682018060405250810190611c6f9190615285565b611cd5576040517f08c379a000000000000000000000000000000000000000000000000000000000815260206004820152601160248201527f5742423a20556e617574686f72697a6564000000000000000000000000000000604482015260640161091f565b61186b613d27565b609954604080517fbf81ee6d000000000000000000000000000000000000000000000000000000008152905160609273ffffffffffffffffffffffffffffffffffffffff169163bf81ee6d9160048083019260009291908290030181865afa158015611d4d573d6000803e3d6000fd5b505050506040513d6000823e601f3d9081017fffffffffffffffffffffffffffffffffffffffffffffffffffffffffffffffe0168201604052611d9391908101906154a4565b905090565b600033609a546040517f5026c82600000000000000000000000000000000000000000000000000000000815273ffffffffffffffffffffffffffffffffffffffff8084166004830152929350911690635026c82690602401602060405180830381865afa158015611e0d573d6000803e3d6000fd5b505050506040513d601f19601f82011682018060405250810190611e319190615285565b611e97576040517f08c379a000000000000000000000000000000000000000000000000000000000815260206004820152601160248201527f5742423a20556e617574686f72697a6564000000000000000000000000000000604482015260640161091f565b60a154604080519182526020820184905273ffffffffffffffffffffffffffffffffffffffff831682820152517f13a511f20997079f309d264161b7628709fc727ea5bcd135d26d44d20a7133929181900360600190a15060a155565b81818080601f016020809104026020016040519081016040528093929190818152602001838380828437600092019190915250506099546040517f5d49778900000000000000000000000000000000000000000000000000000000815273ffffffffffffffffffffffffffffffffffffffff9091169250635d4977899150611f80908490600401614d8a565b602060405180830381865afa158015611f9d573d6000803e3d6000fd5b505050506040513d601f19601f82011682018060405250810190611fc19190615285565b61204d576040517f08c379a000000000000000000000000000000000000000000000000000000000815260206004820152602160248201527f5742423a20626174746c65206e6f742063726561746564206f7220616374697660448201527f6500000000000000000000000000000000000000000000000000000000000000606482015260840161091f565b60a25460ff16612154576099546040517f47ff16ac00000000000000000000000000000000000000000000000000000000815273ffffffffffffffffffffffffffffffffffffffff909116906347ff16ac906120ad908490600401614d8a565b602060405180830381865afa1580156120ca573d6000803e3d6000fd5b505050506040513d601f19601f820116820180604052508101906120ee9190615285565b612154576040517f08c379a000000000000000000000000000000000000000000000000000000000815260206004820152601660248201527f5742423a20426174746c65206e6f7420656e6465642e00000000000000000000604482015260640161091f565b3361216181868686613d82565b6097546040517ff242432a00000000000000000000000000000000000000000000000000000000815273ffffffffffffffffffffffffffffffffffffffff9091169063f242432a90610f9b90309085908a9060019060040161551b565b81818080601f016020809104026020016040519081016040528093929190818152602001838380828437600092019190915250506099546040517f5d49778900000000000000000000000000000000000000000000000000000000815273ffffffffffffffffffffffffffffffffffffffff9091169250635d497789915061224a908490600401614d8a565b602060405180830381865afa158015612267573d6000803e3d6000fd5b505050506040513d601f19601f8201168201806040525081019061228b9190615285565b612317576040517f08c379a000000000000000000000000000000000000000000000000000000000815260206004820152602160248201527f5742423a20626174746c65206e6f742063726561746564206f7220616374697660448201527f6500000000000000000000000000000000000000000000000000000000000000606482015260840161091f565b60a25460ff1661241e576099546040517f47ff16ac00000000000000000000000000000000000000000000000000000000815273ffffffffffffffffffffffffffffffffffffffff909116906347ff16ac90612377908490600401614d8a565b602060405180830381865afa158015612394573d6000803e3d6000fd5b505050506040513d601f19601f820116820180604052508101906123b89190615285565b61241e576040517f08c379a000000000000000000000000000000000000000000000000000000000815260206004820152601660248201527f5742423a20426174746c65206e6f7420656e6465642e00000000000000000000604482015260640161091f565b8351339060009067ffffffffffffffff81111561243d5761243d614b14565b604051908082528060200260200182016040528015612466578160200160208202803683370190505b50905060005b86518110156124cb5761249a8388838151811061248b5761248b615333565b60200260200101518888613d82565b60018282815181106124ae576124ae615333565b6020908102919091010152806124c381615362565b91505061246c565b506097546040517f2eb2c2d600000000000000000000000000000000000000000000000000000000815273ffffffffffffffffffffffffffffffffffffffff90911690632eb2c2d69061252890309086908b90879060040161539a565b600060405180830381600087803b15801561254257600080fd5b505af1158015612556573d6000803e3d6000fd5b50505050505050505050565b600033609a546040517f5026c82600000000000000000000000000000000000000000000000000000000815273ffffffffffffffffffffffffffffffffffffffff8084166004830152929350911690635026c82690602401602060405180830381865afa1580156125d7573d6000803e3d6000fd5b505050506040513d601f19601f820116820180604052508101906125fb9190615285565b612661576040517f08c379a000000000000000000000000000000000000000000000000000000000815260206004820152601160248201527f5742423a20556e617574686f72697a6564000000000000000000000000000000604482015260640161091f565b73ffffffffffffffffffffffffffffffffffffffff82166126de576040517f08c379a000000000000000000000000000000000000000000000000000000000815260206004820152601960248201527f5742423a20496e76616c6964204e465420636f6e747261637400000000000000604482015260640161091f565b60975460405173ffffffffffffffffffffffffffffffffffffffff83811682528481169216907fcc84b7dfa78b34bb94bda9e3e859b03781c64e9c8870f014f905deb5917d1e349060200160405180910390a350609780547fffffffffffffffffffffffff00000000000000000000000000000000000000001673ffffffffffffffffffffffffffffffffffffffff92909216919091179055565b600033609a546040517f5026c82600000000000000000000000000000000000000000000000000000000815273ffffffffffffffffffffffffffffffffffffffff8084166004830152929350911690635026c82690602401602060405180830381865afa1580156127ee573d6000803e3d6000fd5b505050506040513d601f19601f820116820180604052508101906128129190615285565b612878576040517f08c379a000000000000000000000000000000000000000000000000000000000815260206004820152601160248201527f5742423a20556e617574686f72697a6564000000000000000000000000000000604482015260640161091f565b73ffffffffffffffffffffffffffffffffffffffff82166128f5576040517f08c379a000000000000000000000000000000000000000000000000000000000815260206004820152601d60248201527f5742423a20496e76616c696420416374696f6e7320636f6e7472616374000000604482015260640161091f565b60995460405173ffffffffffffffffffffffffffffffffffffffff83811682528481169216907f34094423c59427e099490ccde795f4a7c4741be966ee850d712bd3777efd51849060200160405180910390a350609980547fffffffffffffffffffffffff00000000000000000000000000000000000000001673ffffffffffffffffffffffffffffffffffffffff92909216919091179055565b73ffffffffffffffffffffffffffffffffffffffff81166000908152609d602052604080822090518291906129c89087908790615594565b908152604051908190036020019020541190509392505050565b81818080601f016020809104026020016040519081016040528093929190818152602001838380828437600092019190915250506099546040517f5d49778900000000000000000000000000000000000000000000000000000000815273ffffffffffffffffffffffffffffffffffffffff9091169250635d4977899150612a6e908490600401614d8a565b602060405180830381865afa158015612a8b573d6000803e3d6000fd5b505050506040513d601f19601f82011682018060405250810190612aaf9190615285565b612b3b576040517f08c379a000000000000000000000000000000000000000000000000000000000815260206004820152602160248201527f5742423a20626174746c65206e6f742063726561746564206f7220616374697660448201527f6500000000000000000000000000000000000000000000000000000000000000606482015260840161091f565b60a25460ff16612c42576099546040517f47ff16ac00000000000000000000000000000000000000000000000000000000815273ffffffffffffffffffffffffffffffffffffffff909116906347ff16ac90612b9b908490600401614d8a565b602060405180830381865afa158015612bb8573d6000803e3d6000fd5b505050506040513d601f19601f82011682018060405250810190612bdc9190615285565b612c42576040517f08c379a000000000000000000000000000000000000000000000000000000000815260206004820152601660248201527f5742423a20426174746c65206e6f7420656e6465642e00000000000000000000604482015260640161091f565b609a5473ffffffffffffffffffffffffffffffffffffffff16635026c826336040517fffffffff0000000000000000000000000000000000000000000000000000000060e084901b16815273ffffffffffffffffffffffffffffffffffffffff9091166004820152602401602060405180830381865afa158015612cca573d6000803e3d6000fd5b505050506040513d601f19601f82011682018060405250810190612cee9190615285565b612d54576040517f08c379a000000000000000000000000000000000000000000000000000000000815260206004820152601160248201527f5742423a20556e617574686f72697a6564000000000000000000000000000000604482015260640161091f565b612d5f848484614516565b50505050565b81818080601f016020809104026020016040519081016040528093929190818152602001838380828437600092019190915250506099546040517f5d49778900000000000000000000000000000000000000000000000000000000815273ffffffffffffffffffffffffffffffffffffffff9091169250635d4977899150612df1908490600401614d8a565b602060405180830381865afa158015612e0e573d6000803e3d6000fd5b505050506040513d601f19601f82011682018060405250810190612e329190615285565b612ebe576040517f08c379a000000000000000000000000000000000000000000000000000000000815260206004820152602160248201527f5742423a20626174746c65206e6f742063726561746564206f7220616374697660448201527f6500000000000000000000000000000000000000000000000000000000000000606482015260840161091f565b60a25460ff16612fc5576099546040517f47ff16ac00000000000000000000000000000000000000000000000000000000815273ffffffffffffffffffffffffffffffffffffffff909116906347ff16ac90612f1e908490600401614d8a565b602060405180830381865afa158015612f3b573d6000803e3d6000fd5b505050506040513d601f19601f82011682018060405250810190612f5f9190615285565b612fc5576040517f08c379a000000000000000000000000000000000000000000000000000000000815260206004820152601660248201527f5742423a20426174746c65206e6f7420656e6465642e00000000000000000000604482015260640161091f565b33612d5f818585614516565b73ffffffffffffffffffffffffffffffffffffffff83166000908152609d60205260409081902090516060919061300b9085908590615594565b908152604080519182900360209081018320805480830285018301909352828452919083018282801561305d57602002820191906000526020600020905b815481526020019060010190808311613049575b505050505090509392505050565b6099546040517fb778e183000000000000000000000000000000000000000000000000000000008152829173ffffffffffffffffffffffffffffffffffffffff169063b778e183906130c1908490600401614d8a565b602060405180830381865afa1580156130de573d6000803e3d6000fd5b505050506040513d601f19601f820116820180604052508101906131029190615285565b613168576040517f08c379a000000000000000000000000000000000000000000000000000000000815260206004820152601060248201527f5742423a206e6f74207374617274656400000000000000000000000000000000604482015260640161091f565b6099546040517f47ff16ac00000000000000000000000000000000000000000000000000000000815273ffffffffffffffffffffffffffffffffffffffff909116906347ff16ac906131be908490600401614d8a565b602060405180830381865afa1580156131db573d6000803e3d6000fd5b505050506040513d601f19601f820116820180604052508101906131ff9190615285565b15613266576040517f08c379a000000000000000000000000000000000000000000000000000000000815260206004820152601160248201527f5742423a20626174746c6520656e646564000000000000000000000000000000604482015260640161091f565b6099546040517f5d49778900000000000000000000000000000000000000000000000000000000815273ffffffffffffffffffffffffffffffffffffffff90911690635d497789906132bc908490600401614d8a565b602060405180830381865afa1580156132d9573d6000803e3d6000fd5b505050506040513d601f19601f820116820180604052508101906132fd9190615285565b613389576040517f08c379a000000000000000000000000000000000000000000000000000000000815260206004820152602160248201527f5742423a20626174746c65206e6f742063726561746564206f7220616374697660448201527f6500000000000000000000000000000000000000000000000000000000000000606482015260840161091f565b61339560018333611b63565b6133fb576040517f08c379a000000000000000000000000000000000000000000000000000000000815260206004820152601760248201527f5742423a204d617820746f6b656e73207374616b65642e000000000000000000604482015260640161091f565b6134063384846135fc565b60975473ffffffffffffffffffffffffffffffffffffffff1663f242432a33308660016040518563ffffffff1660e01b8152600401613448949392919061551b565b600060405180830381600087803b15801561346257600080fd5b505af1158015613476573d6000803e3d6000fd5b50505050505050565b600033609a546040517f5026c82600000000000000000000000000000000000000000000000000000000815273ffffffffffffffffffffffffffffffffffffffff8084166004830152929350911690635026c82690602401602060405180830381865afa1580156134f4573d6000803e3d6000fd5b505050506040513d601f19601f820116820180604052508101906135189190615285565b61357e576040517f08c379a000000000000000000000000000000000000000000000000000000000815260206004820152601160248201527f5742423a20556e617574686f72697a6564000000000000000000000000000000604482015260640161091f565b60a280547fffffffffffffffffffffffffffffffffffffffffffffffffffffffffffffff001683151590811790915560405190815273ffffffffffffffffffffffffffffffffffffffff8216907fd923d85360f3f592aa7cf591c0f4e489905836ff02f16d7842b6389fcbbb36609060200160405180910390a25050565b613604614709565b61360c614776565b6000828152609e602052604090205473ffffffffffffffffffffffffffffffffffffffff1615613698576040517f08c379a000000000000000000000000000000000000000000000000000000000815260206004820152601960248201527f5742423a20546f6b656e20616c7265616479207374616b656400000000000000604482015260640161091f565b73ffffffffffffffffffffffffffffffffffffffff83166000908152609d6020526040808220905190919082906136d0908590615475565b908152604080519182900360209081018320805480830285018301909352828452919083018282801561372257602002820191906000526020600020905b81548152602001906001019080831161370e575b505083516098546040517f70a0823100000000000000000000000000000000000000000000000000000000815273ffffffffffffffffffffffffffffffffffffffff8c811660048301529697509195600095501692506370a082319150602401602060405180830381865afa15801561379f573d6000803e3d6000fd5b505050506040513d601f19601f820116820180604052508101906137c391906155a4565b90506137d96137d3836001615491565b826107f6565b156139895743600385015560405184906137f4908790615475565b90815260405160209181900382018120805460018082018355600092835293909120018890558590613827908890615475565b9081526040519081900360200190205461384191906155bd565b6000878152600186016020908152604080832093909355600287018152828220429055609e815282822080547fffffffffffffffffffffffff00000000000000000000000000000000000000001673ffffffffffffffffffffffffffffffffffffffff8c16179055609f9052206138b88682615616565b508160000361393257609c80546001810182556000919091527faf85b9071dfafeac1409d3f1d19bafc9bc7c37974cde8df0ee6168f0086e539c0180547fffffffffffffffffffffffff00000000000000000000000000000000000000001673ffffffffffffffffffffffffffffffffffffffff89161790555b8673ffffffffffffffffffffffffffffffffffffffff167fa2a4b640524f5410a2969ac3f90a5c7a3197662d845ba3bdf16fe9010e5aad9a87874260405161397c93929190615730565b60405180910390a26139bb565b6040517f22bbb43c00000000000000000000000000000000000000000000000000000000815260040160405180910390fd5b505050506139c96001606555565b505050565b6000835167ffffffffffffffff8111156139ea576139ea614b14565b604051908082528060200260200182016040528015613a13578160200160208202803683370190505b50905060005b8451811015613a7857613a4786868381518110613a3857613a38615333565b60200260200101518686613d82565b6001828281518110613a5b57613a5b615333565b602090810291909101015280613a7081615362565b915050613a19565b506097546040517f2eb2c2d600000000000000000000000000000000000000000000000000000000815273ffffffffffffffffffffffffffffffffffffffff90911690632eb2c2d690610f9b90309089908990879060040161539a565b600054610100900460ff1661186b576040517f08c379a000000000000000000000000000000000000000000000000000000000815260206004820152602b60248201527f496e697469616c697a61626c653a20636f6e7472616374206973206e6f74206960448201527f6e697469616c697a696e67000000000000000000000000000000000000000000606482015260840161091f565b600054610100900460ff16613c03576040517f08c379a000000000000000000000000000000000000000000000000000000000815260206004820152602b60248201527f496e697469616c697a61626c653a20636f6e7472616374206973206e6f74206960448201527f6e697469616c697a696e67000000000000000000000000000000000000000000606482015260840161091f565b61186b6147f0565b600054610100900460ff16613ca2576040517f08c379a000000000000000000000000000000000000000000000000000000000815260206004820152602b60248201527f496e697469616c697a61626c653a20636f6e7472616374206973206e6f74206960448201527f6e697469616c697a696e67000000000000000000000000000000000000000000606482015260840161091f565b61186b6148b1565b613cb2614948565b603380547fffffffffffffffffffffffffffffffffffffffffffffffffffffffffffffff001690557f5db9ee0a495bf2e6ff9c91a7834c1ba4fdd244a5e8aa4e537bd38aeae4b073aa335b60405173ffffffffffffffffffffffffffffffffffffffff909116815260200160405180910390a1565b613d2f614709565b603380547fffffffffffffffffffffffffffffffffffffffffffffffffffffffffffffff001660011790557f62e78cea01bee320cd4e420270b5ea74000d11b0c9f74754ebdbfc544b05a258613cfd3390565b613d8a614776565b6000838152609e602052604090205473ffffffffffffffffffffffffffffffffffffffff858116911614613e1a576040517f08c379a000000000000000000000000000000000000000000000000000000000815260206004820152601260248201527f5742423a20556e617574686f72697a65642e0000000000000000000000000000604482015260640161091f565b8181604051613e2a929190615594565b604080519182900382206000868152609f602052919091209091613e4e9190615759565b604051809103902014613ee2576040517f08c379a0000000000000000000000000000000000000000000000000000000008152602060048201526024808201527f5742423a2043617264206e6f74207374616b656420696e20676976656e20626160448201527f74746c6500000000000000000000000000000000000000000000000000000000606482015260840161091f565b73ffffffffffffffffffffffffffffffffffffffff84166000908152609d6020526040902060a25460ff161561403a5760a0546000858152600283016020526040902054613f309190615491565b42118015613fd457506099546040517f47ff16ac00000000000000000000000000000000000000000000000000000000815273ffffffffffffffffffffffffffffffffffffffff909116906347ff16ac90613f919086908690600401615836565b602060405180830381865afa158015613fae573d6000803e3d6000fd5b505050506040513d601f19601f82011682018060405250810190613fd29190615285565b155b61403a576040517f08c379a000000000000000000000000000000000000000000000000000000000815260206004820152601660248201527f5742423a20636f6f6c646f776e206e6f74206f76657200000000000000000000604482015260640161091f565b600084815260018201602052604080822054905190919083906140609087908790615594565b908152604051908190036020018120546098547f70a0823100000000000000000000000000000000000000000000000000000000835273ffffffffffffffffffffffffffffffffffffffff8a811660048501529193506000929116906370a0823190602401602060405180830381865afa1580156140e2573d6000803e3d6000fd5b505050506040513d601f19601f8201168201806040525081019061410691906155a4565b905061411282826107f6565b614178576040517f08c379a000000000000000000000000000000000000000000000000000000000815260206004820152601f60248201527f5742423a20496e73756666696369656e7420746f6b656e2062616c616e636500604482015260640161091f565b600084600001878760405161418e929190615594565b9081526040519081900360200190206141a86001856155bd565b815481106141b8576141b8615333565b906000526020600020015490508460000187876040516141d9929190615594565b90815260200160405180910390208054806141f6576141f6615852565b600190038181906000526020600020016000905590556000856000018888604051614222929190615594565b90815260405190819003602001902054111561429d5787811461429d5780856000018888604051614254929190615594565b9081526020016040518091039020858154811061427357614273615333565b60009182526020808320909101929092558281526001870190915260408082208690558982528120555b6000888152600286016020526040808220919091555185906142c29089908990615594565b9081526040519081900360200190205460000361446e57609c8054600091906142ed906001906155bd565b815481106142fd576142fd615333565b600091825260209091200154609c5473ffffffffffffffffffffffffffffffffffffffff909116915015614403576000805b609c548110156143a4578b73ffffffffffffffffffffffffffffffffffffffff16609c828154811061436357614363615333565b60009182526020909120015473ffffffffffffffffffffffffffffffffffffffff1603614392578091506143a4565b8061439c81615362565b91505061432f565b5081609c82815481106143b9576143b9615333565b9060005260206000200160006101000a81548173ffffffffffffffffffffffffffffffffffffffff021916908373ffffffffffffffffffffffffffffffffffffffff160217905550505b609c80548061441457614414615852565b60008281526020902081017fffffffffffffffffffffffffffffffffffffffffffffffffffffffffffffffff90810180547fffffffffffffffffffffffff0000000000000000000000000000000000000000169055019055505b6000888152609e6020908152604080832080547fffffffffffffffffffffffff0000000000000000000000000000000000000000169055609f90915281206144b5916149b4565b8873ffffffffffffffffffffffffffffffffffffffff167fcdc644f7a40cb5d51e46e25428f724a3e15ae38f01d0e83c3c863f51719004db8989896040516144ff93929190615881565b60405180910390a25050505050612d5f6001606555565b73ffffffffffffffffffffffffffffffffffffffff83166000908152609d6020526040808220905161454b9085908590615594565b908152604080519182900360209081018320805480830285018301909352828452919083018282801561459d57602002820191906000526020600020905b815481526020019060010190808311614589575b50508351939450600092508391505067ffffffffffffffff8111156145c4576145c4614b14565b6040519080825280602002602001820160405280156145ed578160200160208202803683370190505b5090506000821161465a576040517f08c379a000000000000000000000000000000000000000000000000000000000815260206004820152601760248201527f5742423a204e465473206172656e2774207374616b6564000000000000000000604482015260640161091f565b60005b828110156146ac5761467b8785838151811061248b5761248b615333565b600182828151811061468f5761468f615333565b6020908102919091010152806146a481615362565b91505061465d565b506097546040517f2eb2c2d600000000000000000000000000000000000000000000000000000000815273ffffffffffffffffffffffffffffffffffffffff90911690632eb2c2d6906125289030908a908890879060040161539a565b60335460ff161561186b576040517f08c379a000000000000000000000000000000000000000000000000000000000815260206004820152601060248201527f5061757361626c653a2070617573656400000000000000000000000000000000604482015260640161091f565b6002606554036147e2576040517f08c379a000000000000000000000000000000000000000000000000000000000815260206004820152601f60248201527f5265656e7472616e637947756172643a207265656e7472616e742063616c6c00604482015260640161091f565b6002606555565b6001606555565b600054610100900460ff16614887576040517f08c379a000000000000000000000000000000000000000000000000000000000815260206004820152602b60248201527f496e697469616c697a61626c653a20636f6e7472616374206973206e6f74206960448201527f6e697469616c697a696e67000000000000000000000000000000000000000000606482015260840161091f565b603380547fffffffffffffffffffffffffffffffffffffffffffffffffffffffffffffff00169055565b600054610100900460ff166147e9576040517f08c379a000000000000000000000000000000000000000000000000000000000815260206004820152602b60248201527f496e697469616c697a61626c653a20636f6e7472616374206973206e6f74206960448201527f6e697469616c697a696e67000000000000000000000000000000000000000000606482015260840161091f565b60335460ff1661186b576040517f08c379a000000000000000000000000000000000000000000000000000000000815260206004820152601460248201527f5061757361626c653a206e6f7420706175736564000000000000000000000000604482015260640161091f565b5080546149c090615422565b6000825580601f106149d0575050565b601f0160209004906000526020600020908101906149ee91906149f1565b50565b5b80821115614a0657600081556001016149f2565b5090565b600060208284031215614a1c57600080fd5b81357fffffffff0000000000000000000000000000000000000000000000000000000081168114610afb57600080fd5b60008060408385031215614a5f57600080fd5b50508035926020909101359150565b73ffffffffffffffffffffffffffffffffffffffff811681146149ee57600080fd5b600060208284031215614aa257600080fd5b8135610afb81614a6e565b600060208284031215614abf57600080fd5b5035919050565b600081518084526020808501945080840160005b83811015614af657815187529582019590820190600101614ada565b509495945050505050565b602081526000610afb6020830184614ac6565b7f4e487b7100000000000000000000000000000000000000000000000000000000600052604160045260246000fd5b604051601f82017fffffffffffffffffffffffffffffffffffffffffffffffffffffffffffffffe016810167ffffffffffffffff81118282101715614b8a57614b8a614b14565b604052919050565b600067ffffffffffffffff821115614bac57614bac614b14565b5060051b60200190565b600082601f830112614bc757600080fd5b81356020614bdc614bd783614b92565b614b43565b82815260059290921b84018101918181019086841115614bfb57600080fd5b8286015b84811015614c165780358352918301918301614bff565b509695505050505050565b600067ffffffffffffffff821115614c3b57614c3b614b14565b50601f017fffffffffffffffffffffffffffffffffffffffffffffffffffffffffffffffe01660200190565b600082601f830112614c7857600080fd5b8135614c86614bd782614c21565b818152846020838601011115614c9b57600080fd5b816020850160208301376000918101602001919091529392505050565b60008060408385031215614ccb57600080fd5b823567ffffffffffffffff80821115614ce357600080fd5b614cef86838701614bb6565b93506020850135915080821115614d0557600080fd5b50614d1285828601614c67565b9150509250929050565b60005b83811015614d37578181015183820152602001614d1f565b50506000910152565b60008151808452614d58816020860160208601614d1c565b601f017fffffffffffffffffffffffffffffffffffffffffffffffffffffffffffffffe0169290920160200192915050565b602081526000610afb6020830184614d40565b60008083601f840112614daf57600080fd5b50813567ffffffffffffffff811115614dc757600080fd5b602083019150836020828501011115614ddf57600080fd5b9250929050565b60008060008060608587031215614dfc57600080fd5b8435614e0781614a6e565b9350602085013567ffffffffffffffff80821115614e2457600080fd5b614e3088838901614bb6565b94506040870135915080821115614e4657600080fd5b50614e5387828801614d9d565b95989497509550505050565b600080600080600060a08688031215614e7757600080fd5b8535614e8281614a6e565b94506020860135614e9281614a6e565b9350604086013592506060860135614ea981614a6e565b91506080860135614eb981614a6e565b809150509295509295909350565b60008060408385031215614eda57600080fd5b8235614ee581614a6e565b946020939093013593505050565b600080600060608486031215614f0857600080fd5b83359250602084013567ffffffffffffffff811115614f2657600080fd5b614f3286828701614c67565b9250506040840135614f4381614a6e565b809150509250925092565b600080600060408486031215614f6357600080fd5b83359250602084013567ffffffffffffffff811115614f8157600080fd5b614f8d86828701614d9d565b9497909650939450505050565b600080600060408486031215614faf57600080fd5b833567ffffffffffffffff80821115614fc757600080fd5b614fd387838801614bb6565b94506020860135915080821115614fe957600080fd5b50614f8d86828701614d9d565b600080600080600060a0868803121561500e57600080fd5b853561501981614a6e565b9450602086013561502981614a6e565b9350604086013567ffffffffffffffff8082111561504657600080fd5b61505289838a01614bb6565b9450606088013591508082111561506857600080fd5b61507489838a01614bb6565b9350608088013591508082111561508a57600080fd5b5061509788828901614c67565b9150509295509295909350565b6000806000604084860312156150b957600080fd5b833567ffffffffffffffff8111156150d057600080fd5b6150dc86828701614d9d565b9094509250506020840135614f4381614a6e565b60008060006040848603121561510557600080fd5b833561511081614a6e565b9250602084013567ffffffffffffffff811115614f8157600080fd5b6000806020838503121561513f57600080fd5b823567ffffffffffffffff81111561515657600080fd5b61516285828601614d9d565b90969095509350505050565b6000806040838503121561518157600080fd5b82359150602083013567ffffffffffffffff81111561519f57600080fd5b614d1285828601614c67565b80151581146149ee57600080fd5b6000602082840312156151cb57600080fd5b8135610afb816151ab565b600080600080600060a086880312156151ee57600080fd5b85356151f981614a6e565b9450602086013561520981614a6e565b93506040860135925060608601359150608086013567ffffffffffffffff81111561523357600080fd5b61509788828901614c67565b7f4e487b7100000000000000000000000000000000000000000000000000000000600052601160045260246000fd5b80820281158282048414176107f0576107f061523f565b60006020828403121561529757600080fd5b8151610afb816151ab565b600060208083850312156152b557600080fd5b825167ffffffffffffffff8111156152cc57600080fd5b8301601f810185136152dd57600080fd5b80516152eb614bd782614b92565b81815260059190911b8201830190838101908783111561530a57600080fd5b928401925b828410156153285783518252928401929084019061530f565b979650505050505050565b7f4e487b7100000000000000000000000000000000000000000000000000000000600052603260045260246000fd5b60007fffffffffffffffffffffffffffffffffffffffffffffffffffffffffffffffff82036153935761539361523f565b5060010190565b600073ffffffffffffffffffffffffffffffffffffffff808716835280861660208401525060a060408301526153d360a0830185614ac6565b82810360608401526153e58185614ac6565b8381036080850152600281527f30780000000000000000000000000000000000000000000000000000000000006020820152905060408101615328565b600181811c9082168061543657607f821691505b60208210810361546f577f4e487b7100000000000000000000000000000000000000000000000000000000600052602260045260246000fd5b50919050565b60008251615487818460208701614d1c565b9190910192915050565b808201808211156107f0576107f061523f565b6000602082840312156154b657600080fd5b815167ffffffffffffffff8111156154cd57600080fd5b8201601f810184136154de57600080fd5b80516154ec614bd782614c21565b81815285602083850101111561550157600080fd5b615512826020830160208601614d1c565b95945050505050565b600073ffffffffffffffffffffffffffffffffffffffff808716835280861660208401525083604083015282606083015260a0608083015261558a60a08301600281527f3078000000000000000000000000000000000000000000000000000000000000602082015260400190565b9695505050505050565b8183823760009101908152919050565b6000602082840312156155b657600080fd5b5051919050565b818103818111156107f0576107f061523f565b601f8211156139c957600081815260208120601f850160051c810160208610156155f75750805b601f850160051c820191505b8181101561174957828155600101615603565b815167ffffffffffffffff81111561563057615630614b14565b6156448161563e8454615422565b846155d0565b602080601f83116001811461569757600084156156615750858301515b7fffffffffffffffffffffffffffffffffffffffffffffffffffffffffffffffff600386901b1c1916600185901b178555611749565b6000858152602081207fffffffffffffffffffffffffffffffffffffffffffffffffffffffffffffffe08616915b828110156156e4578886015182559484019460019091019084016156c5565b508582101561572057878501517fffffffffffffffffffffffffffffffffffffffffffffffffffffffffffffffff600388901b60f8161c191681555b5050505050600190811b01905550565b8381526060602082015260006157496060830185614d40565b9050826040830152949350505050565b600080835461576781615422565b6001828116801561577f57600181146157b2576157e1565b7fffffffffffffffffffffffffffffffffffffffffffffffffffffffffffffff00841687528215158302870194506157e1565b8760005260208060002060005b858110156157d85781548a8201529084019082016157bf565b50505082870194505b50929695505050505050565b8183528181602085013750600060208284010152600060207fffffffffffffffffffffffffffffffffffffffffffffffffffffffffffffffe0601f840116840101905092915050565b60208152600061584a6020830184866157ed565b949350505050565b7f4e487b7100000000000000000000000000000000000000000000000000000000600052603160045260246000fd5b8381526040602082015260006155126040830184866157ed56fea264697066735822122070e5e6d98eb2f2de2dea621a40be85414ac1d4ab64138ae142d4c4a964849b0964736f6c63430008110033",
  "linkReferences": {},
  "deployedLinkReferences": {}
}