{
  "_format": "hh-sol-artifact-1",
  "contractName": "WBBActionsV2",
  "sourceName": "contracts/game/v2/WBBActionsV2.sol",
  "abi": [
    {
      "anonymous": false,
      "inputs": [
        {
          "indexed": true,
          "internalType": "address",
          "name": "_operatorAddress",
          "type": "address"
        },
        {
          "indexed": false,
          "internalType": "string",
          "name": "_battleId",
          "type": "string"
        },
        {
          "indexed": false,
          "internalType": "string[]",
          "name": "_bossIds",
          "type": "string[]"
        },
        {
          "indexed": false,
          "internalType": "uint256",
          "name": "_startTime",
          "type": "uint256"
        },
        {
          "indexed": false,
          "internalType": "uint256",
          "name": "_endTime",
          "type": "uint256"
        }
      ],
      "name": "CreateBattle",
      "type": "event"
    },
    {
      "anonymous": false,
      "inputs": [
        {
          "indexed": true,
          "internalType": "address",
          "name": "_operatorAddress",
          "type": "address"
        },
        {
          "indexed": false,
          "internalType": "string",
          "name": "_bossId",
          "type": "string"
        },
        {
          "indexed": false,
          "internalType": "string",
          "name": "_name",
          "type": "string"
        },
        {
          "indexed": false,
          "internalType": "uint256",
          "name": "_maxHp",
          "type": "uint256"
        },
        {
          "indexed": false,
          "internalType": "string",
          "name": "_uri",
          "type": "string"
        }
      ],
      "name": "CreateBoss",
      "type": "event"
    },
    {
      "anonymous": false,
      "inputs": [
        {
          "indexed": false,
          "internalType": "uint8",
          "name": "version",
          "type": "uint8"
        }
      ],
      "name": "Initialized",
      "type": "event"
    },
    {
      "anonymous": false,
      "inputs": [
        {
          "indexed": true,
          "internalType": "address",
          "name": "_operatorAddress",
          "type": "address"
        },
        {
          "indexed": false,
          "internalType": "string",
          "name": "_battleId",
          "type": "string"
        },
        {
          "indexed": false,
          "internalType": "uint256",
          "name": "_startTime",
          "type": "uint256"
        },
        {
          "indexed": false,
          "internalType": "uint256",
          "name": "_endTime",
          "type": "uint256"
        }
      ],
      "name": "UpdateBattle",
      "type": "event"
    },
    {
      "anonymous": false,
      "inputs": [
        {
          "indexed": true,
          "internalType": "address",
          "name": "_operatorAddress",
          "type": "address"
        },
        {
          "indexed": false,
          "internalType": "string",
          "name": "_bossId",
          "type": "string"
        },
        {
          "indexed": false,
          "internalType": "string",
          "name": "_name",
          "type": "string"
        },
        {
          "indexed": false,
          "internalType": "uint256",
          "name": "_maxHp",
          "type": "uint256"
        },
        {
          "indexed": false,
          "internalType": "string",
          "name": "_uri",
          "type": "string"
        }
      ],
      "name": "UpdateBoss",
      "type": "event"
    },
    {
      "inputs": [],
      "name": "accessControls",
      "outputs": [
        {
          "internalType": "contract IGameAccessControls",
          "name": "",
          "type": "address"
        }
      ],
      "stateMutability": "view",
      "type": "function"
    },
    {
      "inputs": [
        {
          "internalType": "string",
          "name": "",
          "type": "string"
        }
      ],
      "name": "battleExists",
      "outputs": [
        {
          "internalType": "bool",
          "name": "",
          "type": "bool"
        }
      ],
      "stateMutability": "view",
      "type": "function"
    },
    {
      "inputs": [
        {
          "internalType": "uint256",
          "name": "",
          "type": "uint256"
        }
      ],
      "name": "battleList",
      "outputs": [
        {
          "internalType": "string",
          "name": "",
          "type": "string"
        }
      ],
      "stateMutability": "view",
      "type": "function"
    },
    {
      "inputs": [
        {
          "internalType": "string",
          "name": "",
          "type": "string"
        }
      ],
      "name": "battles",
      "outputs": [
        {
          "internalType": "string",
          "name": "battleId",
          "type": "string"
        },
        {
          "internalType": "uint256",
          "name": "bossCount",
          "type": "uint256"
        },
        {
          "internalType": "uint256",
          "name": "startTime",
          "type": "uint256"
        },
        {
          "internalType": "uint256",
          "name": "endTime",
          "type": "uint256"
        },
        {
          "internalType": "bool",
          "name": "status",
          "type": "bool"
        },
        {
          "internalType": "uint256",
          "name": "index",
          "type": "uint256"
        }
      ],
      "stateMutability": "view",
      "type": "function"
    },
    {
      "inputs": [
        {
          "internalType": "string",
          "name": "",
          "type": "string"
        }
      ],
      "name": "bossExists",
      "outputs": [
        {
          "internalType": "bool",
          "name": "",
          "type": "bool"
        }
      ],
      "stateMutability": "view",
      "type": "function"
    },
    {
      "inputs": [
        {
          "internalType": "uint256",
          "name": "",
          "type": "uint256"
        }
      ],
      "name": "bossList",
      "outputs": [
        {
          "internalType": "string",
          "name": "",
          "type": "string"
        }
      ],
      "stateMutability": "view",
      "type": "function"
    },
    {
      "inputs": [
        {
          "internalType": "string",
          "name": "",
          "type": "string"
        }
      ],
      "name": "bosses",
      "outputs": [
        {
          "internalType": "string",
          "name": "bossId",
          "type": "string"
        },
        {
          "internalType": "string",
          "name": "name",
          "type": "string"
        },
        {
          "internalType": "uint256",
          "name": "maxHp",
          "type": "uint256"
        },
        {
          "internalType": "string",
          "name": "uri",
          "type": "string"
        },
        {
          "internalType": "bool",
          "name": "status",
          "type": "bool"
        },
        {
          "internalType": "uint256",
          "name": "index",
          "type": "uint256"
        }
      ],
      "stateMutability": "view",
      "type": "function"
    },
    {
      "inputs": [
        {
          "internalType": "string[]",
          "name": "_bossId",
          "type": "string[]"
        }
      ],
      "name": "checkActiveBosses",
      "outputs": [],
      "stateMutability": "view",
      "type": "function"
    },
    {
      "inputs": [
        {
          "internalType": "string",
          "name": "_battleId",
          "type": "string"
        }
      ],
      "name": "checkBattleEnded",
      "outputs": [
        {
          "internalType": "bool",
          "name": "",
          "type": "bool"
        }
      ],
      "stateMutability": "view",
      "type": "function"
    },
    {
      "inputs": [
        {
          "internalType": "string",
          "name": "_battleId",
          "type": "string"
        }
      ],
      "name": "checkBattleExists",
      "outputs": [
        {
          "internalType": "bool",
          "name": "",
          "type": "bool"
        }
      ],
      "stateMutability": "view",
      "type": "function"
    },
    {
      "inputs": [
        {
          "internalType": "string",
          "name": "_battleId",
          "type": "string"
        }
      ],
      "name": "checkBattleStarted",
      "outputs": [
        {
          "internalType": "bool",
          "name": "",
          "type": "bool"
        }
      ],
      "stateMutability": "view",
      "type": "function"
    },
    {
      "inputs": [
        {
          "internalType": "string",
          "name": "_battleId",
          "type": "string"
        }
      ],
      "name": "checkBattleStatus",
      "outputs": [
        {
          "internalType": "bool",
          "name": "",
          "type": "bool"
        }
      ],
      "stateMutability": "view",
      "type": "function"
    },
    {
      "inputs": [
        {
          "internalType": "string",
          "name": "_bossId",
          "type": "string"
        }
      ],
      "name": "checkBossExists",
      "outputs": [
        {
          "internalType": "bool",
          "name": "",
          "type": "bool"
        }
      ],
      "stateMutability": "view",
      "type": "function"
    },
    {
      "inputs": [
        {
          "internalType": "string",
          "name": "_bossId",
          "type": "string"
        }
      ],
      "name": "checkBossStatus",
      "outputs": [
        {
          "internalType": "bool",
          "name": "",
          "type": "bool"
        }
      ],
      "stateMutability": "view",
      "type": "function"
    },
    {
      "inputs": [
        {
          "internalType": "string",
          "name": "_battleId",
          "type": "string"
        },
        {
          "internalType": "string[]",
          "name": "_bossIds",
          "type": "string[]"
        },
        {
          "internalType": "uint256",
          "name": "_startTime",
          "type": "uint256"
        },
        {
          "internalType": "uint256",
          "name": "_endTime",
          "type": "uint256"
        }
      ],
      "name": "createBattle",
      "outputs": [],
      "stateMutability": "nonpayable",
      "type": "function"
    },
    {
      "inputs": [
        {
          "internalType": "string",
          "name": "bossId",
          "type": "string"
        },
        {
          "internalType": "string",
          "name": "name",
          "type": "string"
        },
        {
          "internalType": "uint256",
          "name": "maxHp",
          "type": "uint256"
        },
        {
          "internalType": "string",
          "name": "uri",
          "type": "string"
        }
      ],
      "name": "createBoss",
      "outputs": [],
      "stateMutability": "nonpayable",
      "type": "function"
    },
    {
      "inputs": [],
      "name": "getAllBattle",
      "outputs": [
        {
          "internalType": "string[]",
          "name": "",
          "type": "string[]"
        }
      ],
      "stateMutability": "view",
      "type": "function"
    },
    {
      "inputs": [],
      "name": "getAllBosses",
      "outputs": [
        {
          "internalType": "string[]",
          "name": "",
          "type": "string[]"
        }
      ],
      "stateMutability": "view",
      "type": "function"
    },
    {
      "inputs": [
        {
          "internalType": "string",
          "name": "_battleId",
          "type": "string"
        }
      ],
      "name": "getBattlePeriod",
      "outputs": [
        {
          "internalType": "uint256",
          "name": "startTime",
          "type": "uint256"
        },
        {
          "internalType": "uint256",
          "name": "endTime",
          "type": "uint256"
        }
      ],
      "stateMutability": "view",
      "type": "function"
    },
    {
      "inputs": [],
      "name": "getLatestBattle",
      "outputs": [
        {
          "internalType": "string",
          "name": "battleId",
          "type": "string"
        }
      ],
      "stateMutability": "view",
      "type": "function"
    },
    {
      "inputs": [
        {
          "internalType": "contract IGameAccessControls",
          "name": "_accessControls",
          "type": "address"
        }
      ],
      "name": "initialize",
      "outputs": [],
      "stateMutability": "nonpayable",
      "type": "function"
    },
    {
      "inputs": [],
      "name": "reInitialize",
      "outputs": [],
      "stateMutability": "nonpayable",
      "type": "function"
    },
    {
      "inputs": [
        {
          "internalType": "string",
          "name": "_battleId",
          "type": "string"
        },
        {
          "internalType": "bool",
          "name": "_status",
          "type": "bool"
        }
      ],
      "name": "setBattleStatus",
      "outputs": [],
      "stateMutability": "nonpayable",
      "type": "function"
    },
    {
      "inputs": [
        {
          "internalType": "string",
          "name": "_bossId",
          "type": "string"
        },
        {
          "internalType": "bool",
          "name": "_status",
          "type": "bool"
        }
      ],
      "name": "setBossStatus",
      "outputs": [],
      "stateMutability": "nonpayable",
      "type": "function"
    },
    {
      "inputs": [
        {
          "internalType": "string",
          "name": "_battleId",
          "type": "string"
        },
        {
          "internalType": "uint256",
          "name": "_startTime",
          "type": "uint256"
        },
        {
          "internalType": "uint256",
          "name": "_endTime",
          "type": "uint256"
        }
      ],
      "name": "updateBattle",
      "outputs": [],
      "stateMutability": "nonpayable",
      "type": "function"
    },
    {
      "inputs": [
        {
          "internalType": "string",
          "name": "bossId",
          "type": "string"
        },
        {
          "internalType": "string",
          "name": "name",
          "type": "string"
        },
        {
          "internalType": "uint256",
          "name": "maxHp",
          "type": "uint256"
        },
        {
          "internalType": "string",
          "name": "uri",
          "type": "string"
        }
      ],
      "name": "updateBoss",
      "outputs": [],
      "stateMutability": "nonpayable",
      "type": "function"
    }
  ],
  "bytecode": "0x60806040523480156200001157600080fd5b506200001c62000022565b620000e4565b600054610100900460ff16156200008f5760405162461bcd60e51b815260206004820152602760248201527f496e697469616c697a61626c653a20636f6e747261637420697320696e697469604482015266616c697a696e6760c81b606482015260840160405180910390fd5b60005460ff9081161015620000e2576000805460ff191660ff9081179091556040519081527f7f26b83ff96e1f2b6a682f133852f6798a09c465da95921460cefb38474024989060200160405180910390a15b565b6129dc80620000f46000396000f3fe608060405234801561001057600080fd5b50600436106101ae5760003560e01c806385651574116100ee578063b778e18311610097578063c4d66de811610071578063c4d66de8146103c9578063c5c0a462146103dc578063e59f94b71461040a578063f7ddad0c1461041d57600080fd5b8063b778e1831461039b578063bf81ee6d146103ae578063c2451bdc146103b657600080fd5b8063a83e54c2116100c8578063a83e54c21461036d578063ac0d464614610380578063b24a97c31461039357600080fd5b806385651574146103225780638abf3a0e14610335578063a07418d61461035a57600080fd5b806347ff16ac1161015b5780635d497789116101355780635d49778914610292578063748365ef146102a557806377bb7b78146102ea5780637e4fceaf1461030f57600080fd5b806347ff16ac146102475780634fa1290d1461026a57806356b1bc9a1461027d57600080fd5b80632de233371161018c5780632de233371461020457806332165c3c1461020c57806340e8e1851461023457600080fd5b8063159a9239146101b35780631bc143a5146101c857806325eeb4f5146101f1575b600080fd5b6101c66101c136600461219f565b61044b565b005b6101db6101d6366004612231565b610715565b6040516101e891906122b8565b60405180910390f35b6101db6101ff366004612231565b6107c1565b6101c66107d1565b61021f61021a3660046122d2565b61090b565b604080519283526020830191909152016101e8565b6101c66102423660046123ae565b61095b565b61025a6102553660046122d2565b610a05565b60405190151581526020016101e8565b6101c661027836600461219f565b610a32565b610285610d0a565b6040516101e89190612459565b61025a6102a03660046122d2565b610de3565b6039546102c59073ffffffffffffffffffffffffffffffffffffffff1681565b60405173ffffffffffffffffffffffffffffffffffffffff90911681526020016101e8565b6102fd6102f83660046122d2565b610e80565b6040516101e89695949392919061246c565b6101c661031d3660046124bb565b610f4c565b61025a6103303660046122d2565b611131565b6103486103433660046122d2565b61115f565b6040516101e89695949392919061250d565b6101c6610368366004612562565b61133a565b6101c661037b3660046124bb565b611772565b61025a61038e3660046122d2565b611957565b610285611982565b61025a6103a93660046122d2565b611a52565b6101db611a7f565b6101c66103c43660046125d6565b611b3b565b6101c66103d7366004612624565b611eb7565b61025a6103ea3660046122d2565b805160208183018101805160388252928201919093012091525460ff1681565b61025a6104183660046122d2565b612081565b61025a61042b3660046122d2565b805160208183018101805160378252928201919093012091525460ff1681565b6039546040517f5026c82600000000000000000000000000000000000000000000000000000000815233600482018190529173ffffffffffffffffffffffffffffffffffffffff1690635026c82690602401602060405180830381865afa1580156104ba573d6000803e3d6000fd5b505050506040513d601f19601f820116820180604052508101906104de919061265a565b610549576040517f08c379a000000000000000000000000000000000000000000000000000000000815260206004820181905260248201527f5742423a20556e617574686f72697a656420746f2075706461746520626f737360448201526064015b60405180910390fd5b61055285612081565b6105b8576040517f08c379a000000000000000000000000000000000000000000000000000000000815260206004820152601760248201527f5742423a20426f737320646f65736e27742065786973740000000000000000006044820152606401610540565b60006035866040516105ca9190612677565b908152604051908190036020019020600481015490915060ff161561064b576040517f08c379a000000000000000000000000000000000000000000000000000000000815260206004820152601360248201527f5742423a20426f737320697320616374697665000000000000000000000000006044820152606401610540565b806106568782612735565b50600181016106658682612735565b50600281018490556003810161067b8482612735565b50603680546001810182556000919091527f4a11f94e20a93c79f6ec743a1954ec4fc2c08429ae2122118bf234b2185c81b8016106b88782612735565b508173ffffffffffffffffffffffffffffffffffffffff167fe84e5250e15f8fc9c44338f80b627457e114179c263f3707ff9beeed895f8ca487878787604051610705949392919061284f565b60405180910390a2505050505050565b6034818154811061072557600080fd5b90600052602060002001600091509050805461074090612693565b80601f016020809104026020016040519081016040528092919081815260200182805461076c90612693565b80156107b95780601f1061078e576101008083540402835291602001916107b9565b820191906000526020600020905b81548152906001019060200180831161079c57829003601f168201915b505050505081565b6036818154811061072557600080fd5b600054600290610100900460ff161580156107f3575060005460ff8083169116105b61087f576040517f08c379a000000000000000000000000000000000000000000000000000000000815260206004820152602e60248201527f496e697469616c697a61626c653a20636f6e747261637420697320616c72656160448201527f647920696e697469616c697a65640000000000000000000000000000000000006064820152608401610540565b600080547fffffffffffffffffffffffffffffffffffffffffffffffffffffffffffff00001660ff8316908117610100177fffffffffffffffffffffffffffffffffffffffffffffffffffffffffffff00ff169091556040519081527f7f26b83ff96e1f2b6a682f133852f6798a09c465da95921460cefb38474024989060200160405180910390a150565b60008060338360405161091e9190612677565b9081526020016040518091039020600301546033846040516109409190612677565b90815260200160405180910390206004015491509150915091565b60005b8151811015610a015761098982828151811061097c5761097c612899565b6020026020010151611131565b6109ef576040517f08c379a000000000000000000000000000000000000000000000000000000000815260206004820152601560248201527f5742423a20626f7373206e6f74206372656174656400000000000000000000006044820152606401610540565b806109f9816128f7565b91505061095e565b5050565b6000603382604051610a179190612677565b90815260200160405180910390206004015442119050919050565b6039546040517f5026c82600000000000000000000000000000000000000000000000000000000815233600482018190529173ffffffffffffffffffffffffffffffffffffffff1690635026c82690602401602060405180830381865afa158015610aa1573d6000803e3d6000fd5b505050506040513d601f19601f82011682018060405250810190610ac5919061265a565b610b2b576040517f08c379a000000000000000000000000000000000000000000000000000000000815260206004820181905260248201527f5742423a20556e617574686f72697a656420746f2063726561746520626f73736044820152606401610540565b610b3485612081565b15610b9b576040517f08c379a000000000000000000000000000000000000000000000000000000000815260206004820152601860248201527f5742423a20426f737320616c72656164792045786973747300000000000000006044820152606401610540565b6000603586604051610bad9190612677565b908152604051908190036020019020905080610bc98782612735565b5060018101610bd88682612735565b506002810184905560038101610bee8482612735565b506004810180547fffffffffffffffffffffffffffffffffffffffffffffffffffffffffffffff001660019081179091556036805491820181556000527f4a11f94e20a93c79f6ec743a1954ec4fc2c08429ae2122118bf234b2185c81b801610c578782612735565b506001603887604051610c6a9190612677565b90815260405190819003602001902080549115157fffffffffffffffffffffffffffffffffffffffffffffffffffffffffffffff00909216919091179055603654610cb79060019061292f565b600582015560405173ffffffffffffffffffffffffffffffffffffffff8316907f7d51e5ba65a244038915d444c0ca607e0b05121999d92bf11349864f8ec00bc09061070590899089908990899061284f565b60606036805480602002602001604051908101604052809291908181526020016000905b82821015610dda578382906000526020600020018054610d4d90612693565b80601f0160208091040260200160405190810160405280929190818152602001828054610d7990612693565b8015610dc65780601f10610d9b57610100808354040283529160200191610dc6565b820191906000526020600020905b815481529060010190602001808311610da957829003601f168201915b505050505081526020019060010190610d2e565b50505050905090565b6000610dee82611957565b610e54576040517f08c379a000000000000000000000000000000000000000000000000000000000815260206004820152601a60248201527f5742423a20426174746c6520646f65736e2774206578697374730000000000006044820152606401610540565b603382604051610e649190612677565b9081526040519081900360200190206005015460ff1692915050565b8051602081830181018051603382529282019190930120915280548190610ea690612693565b80601f0160208091040260200160405190810160405280929190818152602001828054610ed290612693565b8015610f1f5780601f10610ef457610100808354040283529160200191610f1f565b820191906000526020600020905b815481529060010190602001808311610f0257829003601f168201915b505050506002830154600384015460048501546005860154600690960154949592949193509160ff169086565b6039546040517f5026c82600000000000000000000000000000000000000000000000000000000815233600482015273ffffffffffffffffffffffffffffffffffffffff90911690635026c82690602401602060405180830381865afa158015610fba573d6000803e3d6000fd5b505050506040513d601f19601f82011682018060405250810190610fde919061265a565b61106a576040517f08c379a000000000000000000000000000000000000000000000000000000000815260206004820152602760248201527f5742423a20556e617574686f72697a656420746f2075706461746520626f737360448201527f20737461747573000000000000000000000000000000000000000000000000006064820152608401610540565b61107382612081565b6110d9576040517f08c379a000000000000000000000000000000000000000000000000000000000815260206004820152601760248201527f5742423a20426f737320646f65736e27742065786973740000000000000000006044820152606401610540565b60006035836040516110eb9190612677565b90815260405190819003602001902060040180549215157fffffffffffffffffffffffffffffffffffffffffffffffffffffffffffffff00909316929092179091555050565b60006035826040516111439190612677565b9081526040519081900360200190206004015460ff1692915050565b805160208183018101805160358252928201919093012091528054819061118590612693565b80601f01602080910402602001604051908101604052809291908181526020018280546111b190612693565b80156111fe5780601f106111d3576101008083540402835291602001916111fe565b820191906000526020600020905b8154815290600101906020018083116111e157829003601f168201915b50505050509080600101805461121390612693565b80601f016020809104026020016040519081016040528092919081815260200182805461123f90612693565b801561128c5780601f106112615761010080835404028352916020019161128c565b820191906000526020600020905b81548152906001019060200180831161126f57829003601f168201915b5050505050908060020154908060030180546112a790612693565b80601f01602080910402602001604051908101604052809291908181526020018280546112d390612693565b80156113205780601f106112f557610100808354040283529160200191611320565b820191906000526020600020905b81548152906001019060200180831161130357829003601f168201915b505050506004830154600590930154919260ff1691905086565b6039546040517f5026c82600000000000000000000000000000000000000000000000000000000815233600482018190529173ffffffffffffffffffffffffffffffffffffffff1690635026c82690602401602060405180830381865afa1580156113a9573d6000803e3d6000fd5b505050506040513d601f19601f820116820180604052508101906113cd919061265a565b611459576040517f08c379a000000000000000000000000000000000000000000000000000000000815260206004820152602260248201527f5742423a20556e617574686f72697a656420746f20637265617465206261747460448201527f6c650000000000000000000000000000000000000000000000000000000000006064820152608401610540565b61146285611957565b156114c9576040517f08c379a000000000000000000000000000000000000000000000000000000000815260206004820152601a60248201527f5742423a20426174746c6520616c7265616479204578697374730000000000006044820152606401610540565b828211611532576040517f08c379a000000000000000000000000000000000000000000000000000000000815260206004820152601a60248201527f5742423a20696e76616c696420626174746c6520706572696f640000000000006044820152606401610540565b61153b8461095b565b600060338660405161154d9190612677565b9081526040519081900360200190209050806115698782612735565b5060038101849055600481018390556005810180547fffffffffffffffffffffffffffffffffffffffffffffffffffffffffffffff00166001908117909155855160028301556034805491820181556000527f46bddb1178e94d7f2892ff5f366840eb658911794f2c3a44c450aa2c505186c1016115e78782612735565b5060016037876040516115fa9190612677565b90815260405190819003602001902080549115157fffffffffffffffffffffffffffffffffffffffffffffffffffffffffffffff009092169190911790556034546116479060019061292f565b600682015560005b85518110156117255761166d86828151811061097c5761097c612899565b6116d3576040517f08c379a000000000000000000000000000000000000000000000000000000000815260206004820152601560248201527f5742423a20626f7373206e6f74206372656174656400000000000000000000006044820152606401610540565b816001018682815181106116e9576116e9612899565b602090810291909101810151825460018101845560009384529190922001906117129082612735565b508061171d816128f7565b91505061164f565b508173ffffffffffffffffffffffffffffffffffffffff167fbf930b6a4190ef0d2e18f5890bf0a9d9cadbdb0806e46cdf21ac172ca43f76a6878787876040516107059493929190612948565b6039546040517f5026c82600000000000000000000000000000000000000000000000000000000815233600482015273ffffffffffffffffffffffffffffffffffffffff90911690635026c82690602401602060405180830381865afa1580156117e0573d6000803e3d6000fd5b505050506040513d601f19601f82011682018060405250810190611804919061265a565b611890576040517f08c379a000000000000000000000000000000000000000000000000000000000815260206004820152602660248201527f5742423a20556e617574686f72697a656420746f2073657420626174746c652060448201527f73746174757300000000000000000000000000000000000000000000000000006064820152608401610540565b61189982611957565b6118ff576040517f08c379a000000000000000000000000000000000000000000000000000000000815260206004820152601960248201527f5742423a20426174746c6520646f65736e2774206578697374000000000000006044820152606401610540565b60006033836040516119119190612677565b90815260405190819003602001902060050180549215157fffffffffffffffffffffffffffffffffffffffffffffffffffffffffffffff00909316929092179091555050565b60006037826040516119699190612677565b9081526040519081900360200190205460ff1692915050565b60606034805480602002602001604051908101604052809291908181526020016000905b82821015610dda5783829060005260206000200180546119c590612693565b80601f01602080910402602001604051908101604052809291908181526020018280546119f190612693565b8015611a3e5780601f10611a1357610100808354040283529160200191611a3e565b820191906000526020600020905b815481529060010190602001808311611a2157829003601f168201915b5050505050815260200190600101906119a6565b6000603382604051611a649190612677565b90815260200160405180910390206003015442119050919050565b6034805460609190611a939060019061292f565b81548110611aa357611aa3612899565b906000526020600020018054611ab890612693565b80601f0160208091040260200160405190810160405280929190818152602001828054611ae490612693565b8015611b315780601f10611b0657610100808354040283529160200191611b31565b820191906000526020600020905b815481529060010190602001808311611b1457829003601f168201915b5050505050905090565b6039546040517f5026c82600000000000000000000000000000000000000000000000000000000815233600482018190529173ffffffffffffffffffffffffffffffffffffffff1690635026c82690602401602060405180830381865afa158015611baa573d6000803e3d6000fd5b505050506040513d601f19601f82011682018060405250810190611bce919061265a565b611c5a576040517f08c379a000000000000000000000000000000000000000000000000000000000815260206004820152602260248201527f5742423a20556e617574686f72697a656420746f20757064617465206261747460448201527f6c650000000000000000000000000000000000000000000000000000000000006064820152608401610540565b611c6384611957565b611cc9576040517f08c379a000000000000000000000000000000000000000000000000000000000815260206004820152601a60248201527f5742423a20426174746c6520646f65736e2774206578697374730000000000006044820152606401610540565b603384604051611cd99190612677565b9081526040519081900360200190206005015460ff1615611d56576040517f08c379a000000000000000000000000000000000000000000000000000000000815260206004820152601560248201527f5742423a20426174746c652069732061637469766500000000000000000000006044820152606401610540565b828211611dbf576040517f08c379a000000000000000000000000000000000000000000000000000000000815260206004820152601a60248201527f5742423a20696e76616c696420626174746c6520706572696f640000000000006044820152606401610540565b6000603385604051611dd19190612677565b9081526020016040518091039020905080600401544210611e4e576040517f08c379a000000000000000000000000000000000000000000000000000000000815260206004820152601960248201527f5742423a20626174746c6520616c726561647920656e646564000000000000006044820152606401610540565b600381018490556004810183905560405173ffffffffffffffffffffffffffffffffffffffff8316907f48af9efa0eb42768b8561a4d6eb892763a3701ff2fae21c37d480825f78f6cbc90611ea890889088908890612981565b60405180910390a25050505050565b600054610100900460ff1615808015611ed75750600054600160ff909116105b80611ef15750303b158015611ef1575060005460ff166001145b611f7d576040517f08c379a000000000000000000000000000000000000000000000000000000000815260206004820152602e60248201527f496e697469616c697a61626c653a20636f6e747261637420697320616c72656160448201527f647920696e697469616c697a65640000000000000000000000000000000000006064820152608401610540565b600080547fffffffffffffffffffffffffffffffffffffffffffffffffffffffffffffff001660011790558015611fdb57600080547fffffffffffffffffffffffffffffffffffffffffffffffffffffffffffff00ff166101001790555b603980547fffffffffffffffffffffffff00000000000000000000000000000000000000001673ffffffffffffffffffffffffffffffffffffffff84161790558015610a0157600080547fffffffffffffffffffffffffffffffffffffffffffffffffffffffffffff00ff169055604051600181527f7f26b83ff96e1f2b6a682f133852f6798a09c465da95921460cefb38474024989060200160405180910390a15050565b60006038826040516119699190612677565b7f4e487b7100000000000000000000000000000000000000000000000000000000600052604160045260246000fd5b604051601f82017fffffffffffffffffffffffffffffffffffffffffffffffffffffffffffffffe016810167ffffffffffffffff8111828210171561210957612109612093565b604052919050565b600082601f83011261212257600080fd5b813567ffffffffffffffff81111561213c5761213c612093565b61216d60207fffffffffffffffffffffffffffffffffffffffffffffffffffffffffffffffe0601f840116016120c2565b81815284602083860101111561218257600080fd5b816020850160208301376000918101602001919091529392505050565b600080600080608085870312156121b557600080fd5b843567ffffffffffffffff808211156121cd57600080fd5b6121d988838901612111565b955060208701359150808211156121ef57600080fd5b6121fb88838901612111565b945060408701359350606087013591508082111561221857600080fd5b5061222587828801612111565b91505092959194509250565b60006020828403121561224357600080fd5b5035919050565b60005b8381101561226557818101518382015260200161224d565b50506000910152565b6000815180845261228681602086016020860161224a565b601f017fffffffffffffffffffffffffffffffffffffffffffffffffffffffffffffffe0169290920160200192915050565b6020815260006122cb602083018461226e565b9392505050565b6000602082840312156122e457600080fd5b813567ffffffffffffffff8111156122fb57600080fd5b61230784828501612111565b949350505050565b600082601f83011261232057600080fd5b8135602067ffffffffffffffff8083111561233d5761233d612093565b8260051b61234c8382016120c2565b938452858101830193838101908886111561236657600080fd5b84880192505b858310156123a2578235848111156123845760008081fd5b6123928a87838c0101612111565b835250918401919084019061236c565b98975050505050505050565b6000602082840312156123c057600080fd5b813567ffffffffffffffff8111156123d757600080fd5b6123078482850161230f565b600082825180855260208086019550808260051b84010181860160005b8481101561244c577fffffffffffffffffffffffffffffffffffffffffffffffffffffffffffffffe086840301895261243a83835161226e565b98840198925090830190600101612400565b5090979650505050505050565b6020815260006122cb60208301846123e3565b60c08152600061247f60c083018961226e565b602083019790975250604081019490945260608401929092521515608083015260a090910152919050565b80151581146124b857600080fd5b50565b600080604083850312156124ce57600080fd5b823567ffffffffffffffff8111156124e557600080fd5b6124f185828601612111565b9250506020830135612502816124aa565b809150509250929050565b60c08152600061252060c083018961226e565b8281036020840152612532818961226e565b9050866040840152828103606084015261254c818761226e565b9415156080840152505060a00152949350505050565b6000806000806080858703121561257857600080fd5b843567ffffffffffffffff8082111561259057600080fd5b61259c88838901612111565b955060208701359150808211156125b257600080fd5b506125bf8782880161230f565b949794965050505060408301359260600135919050565b6000806000606084860312156125eb57600080fd5b833567ffffffffffffffff81111561260257600080fd5b61260e86828701612111565b9660208601359650604090950135949350505050565b60006020828403121561263657600080fd5b813573ffffffffffffffffffffffffffffffffffffffff811681146122cb57600080fd5b60006020828403121561266c57600080fd5b81516122cb816124aa565b6000825161268981846020870161224a565b9190910192915050565b600181811c908216806126a757607f821691505b6020821081036126e0577f4e487b7100000000000000000000000000000000000000000000000000000000600052602260045260246000fd5b50919050565b601f82111561273057600081815260208120601f850160051c8101602086101561270d5750805b601f850160051c820191505b8181101561272c57828155600101612719565b5050505b505050565b815167ffffffffffffffff81111561274f5761274f612093565b6127638161275d8454612693565b846126e6565b602080601f8311600181146127b657600084156127805750858301515b7fffffffffffffffffffffffffffffffffffffffffffffffffffffffffffffffff600386901b1c1916600185901b17855561272c565b6000858152602081207fffffffffffffffffffffffffffffffffffffffffffffffffffffffffffffffe08616915b82811015612803578886015182559484019460019091019084016127e4565b508582101561283f57878501517fffffffffffffffffffffffffffffffffffffffffffffffffffffffffffffffff600388901b60f8161c191681555b5050505050600190811b01905550565b608081526000612862608083018761226e565b8281036020840152612874818761226e565b9050846040840152828103606084015261288e818561226e565b979650505050505050565b7f4e487b7100000000000000000000000000000000000000000000000000000000600052603260045260246000fd5b7f4e487b7100000000000000000000000000000000000000000000000000000000600052601160045260246000fd5b60007fffffffffffffffffffffffffffffffffffffffffffffffffffffffffffffffff8203612928576129286128c8565b5060010190565b81810381811115612942576129426128c8565b92915050565b60808152600061295b608083018761226e565b828103602084015261296d81876123e3565b604084019590955250506060015292915050565b606081526000612994606083018661226e565b6020830194909452506040015291905056fea26469706673582212200c11b25aa481bca4f445491cc4b28229cadf5feefa7e92472a5a87f0ef8c093e64736f6c63430008110033",
  "linkReferences": {},
  "deployedLinkReferences": {}
}