{
  "_format": "hh-sol-artifact-1",
  "contractName": "WBBActionsV2",
  "sourceName": "contracts/game/v2/WBBActionsV2.sol",
  "abi": [
    {
      "anonymous": false,
      "inputs": [
        {
          "indexed": true,
          "internalType": "address",
          "name": "_operatorAddress",
          "type": "address"
        },
        {
          "indexed": false,
          "internalType": "string",
          "name": "_battleId",
          "type": "string"
        },
        {
          "indexed": false,
          "internalType": "string[]",
          "name": "_bossIds",
          "type": "string[]"
        },
        {
          "indexed": false,
          "internalType": "uint256",
          "name": "_startTime",
          "type": "uint256"
        },
        {
          "indexed": false,
          "internalType": "uint256",
          "name": "_endTime",
          "type": "uint256"
        }
      ],
      "name": "CreateBattle",
      "type": "event"
    },
    {
      "anonymous": false,
      "inputs": [
        {
          "indexed": true,
          "internalType": "address",
          "name": "_operatorAddress",
          "type": "address"
        },
        {
          "indexed": false,
          "internalType": "string",
          "name": "_bossId",
          "type": "string"
        },
        {
          "indexed": false,
          "internalType": "string",
          "name": "_name",
          "type": "string"
        },
        {
          "indexed": false,
          "internalType": "uint256",
          "name": "_maxHp",
          "type": "uint256"
        },
        {
          "indexed": false,
          "internalType": "string",
          "name": "_uri",
          "type": "string"
        }
      ],
      "name": "CreateBoss",
      "type": "event"
    },
    {
      "anonymous": false,
      "inputs": [
        {
          "indexed": false,
          "internalType": "uint8",
          "name": "version",
          "type": "uint8"
        }
      ],
      "name": "Initialized",
      "type": "event"
    },
    {
      "anonymous": false,
      "inputs": [
        {
          "indexed": true,
          "internalType": "address",
          "name": "_operator",
          "type": "address"
        },
        {
          "indexed": false,
          "internalType": "string",
          "name": "_battleId",
          "type": "string"
        },
        {
          "indexed": false,
          "internalType": "bool",
          "name": "_status",
          "type": "bool"
        }
      ],
      "name": "SetBattleStatus",
      "type": "event"
    },
    {
      "anonymous": false,
      "inputs": [
        {
          "indexed": true,
          "internalType": "address",
          "name": "_operator",
          "type": "address"
        },
        {
          "indexed": false,
          "internalType": "string",
          "name": "_bossId",
          "type": "string"
        },
        {
          "indexed": false,
          "internalType": "bool",
          "name": "_status",
          "type": "bool"
        }
      ],
      "name": "SetBossStatus",
      "type": "event"
    },
    {
      "anonymous": false,
      "inputs": [
        {
          "indexed": true,
          "internalType": "address",
          "name": "_operatorAddress",
          "type": "address"
        },
        {
          "indexed": false,
          "internalType": "string",
          "name": "_battleId",
          "type": "string"
        },
        {
          "indexed": false,
          "internalType": "uint256",
          "name": "_startTime",
          "type": "uint256"
        },
        {
          "indexed": false,
          "internalType": "uint256",
          "name": "_endTime",
          "type": "uint256"
        }
      ],
      "name": "UpdateBattle",
      "type": "event"
    },
    {
      "anonymous": false,
      "inputs": [
        {
          "indexed": true,
          "internalType": "address",
          "name": "_operatorAddress",
          "type": "address"
        },
        {
          "indexed": false,
          "internalType": "string",
          "name": "_bossId",
          "type": "string"
        },
        {
          "indexed": false,
          "internalType": "string",
          "name": "_name",
          "type": "string"
        },
        {
          "indexed": false,
          "internalType": "uint256",
          "name": "_maxHp",
          "type": "uint256"
        },
        {
          "indexed": false,
          "internalType": "string",
          "name": "_uri",
          "type": "string"
        }
      ],
      "name": "UpdateBoss",
      "type": "event"
    },
    {
      "inputs": [],
      "name": "accessControls",
      "outputs": [
        {
          "internalType": "contract IGameAccessControls",
          "name": "",
          "type": "address"
        }
      ],
      "stateMutability": "view",
      "type": "function"
    },
    {
      "inputs": [
        {
          "internalType": "string",
          "name": "",
          "type": "string"
        }
      ],
      "name": "battleExists",
      "outputs": [
        {
          "internalType": "bool",
          "name": "",
          "type": "bool"
        }
      ],
      "stateMutability": "view",
      "type": "function"
    },
    {
      "inputs": [
        {
          "internalType": "uint256",
          "name": "",
          "type": "uint256"
        }
      ],
      "name": "battleList",
      "outputs": [
        {
          "internalType": "string",
          "name": "",
          "type": "string"
        }
      ],
      "stateMutability": "view",
      "type": "function"
    },
    {
      "inputs": [
        {
          "internalType": "string",
          "name": "",
          "type": "string"
        }
      ],
      "name": "battles",
      "outputs": [
        {
          "internalType": "string",
          "name": "battleId",
          "type": "string"
        },
        {
          "internalType": "uint256",
          "name": "bossCount",
          "type": "uint256"
        },
        {
          "internalType": "uint256",
          "name": "startTime",
          "type": "uint256"
        },
        {
          "internalType": "uint256",
          "name": "endTime",
          "type": "uint256"
        },
        {
          "internalType": "bool",
          "name": "status",
          "type": "bool"
        },
        {
          "internalType": "uint256",
          "name": "index",
          "type": "uint256"
        }
      ],
      "stateMutability": "view",
      "type": "function"
    },
    {
      "inputs": [
        {
          "internalType": "string",
          "name": "",
          "type": "string"
        }
      ],
      "name": "bossExists",
      "outputs": [
        {
          "internalType": "bool",
          "name": "",
          "type": "bool"
        }
      ],
      "stateMutability": "view",
      "type": "function"
    },
    {
      "inputs": [
        {
          "internalType": "uint256",
          "name": "",
          "type": "uint256"
        }
      ],
      "name": "bossList",
      "outputs": [
        {
          "internalType": "string",
          "name": "",
          "type": "string"
        }
      ],
      "stateMutability": "view",
      "type": "function"
    },
    {
      "inputs": [
        {
          "internalType": "string",
          "name": "",
          "type": "string"
        }
      ],
      "name": "bosses",
      "outputs": [
        {
          "internalType": "string",
          "name": "bossId",
          "type": "string"
        },
        {
          "internalType": "string",
          "name": "name",
          "type": "string"
        },
        {
          "internalType": "uint256",
          "name": "maxHp",
          "type": "uint256"
        },
        {
          "internalType": "string",
          "name": "uri",
          "type": "string"
        },
        {
          "internalType": "bool",
          "name": "status",
          "type": "bool"
        },
        {
          "internalType": "uint256",
          "name": "index",
          "type": "uint256"
        }
      ],
      "stateMutability": "view",
      "type": "function"
    },
    {
      "inputs": [
        {
          "internalType": "string",
          "name": "_battleId",
          "type": "string"
        }
      ],
      "name": "checkBattleEnded",
      "outputs": [
        {
          "internalType": "bool",
          "name": "",
          "type": "bool"
        }
      ],
      "stateMutability": "view",
      "type": "function"
    },
    {
      "inputs": [
        {
          "internalType": "string",
          "name": "_battleId",
          "type": "string"
        }
      ],
      "name": "checkBattleExists",
      "outputs": [
        {
          "internalType": "bool",
          "name": "",
          "type": "bool"
        }
      ],
      "stateMutability": "view",
      "type": "function"
    },
    {
      "inputs": [
        {
          "internalType": "string",
          "name": "_battleId",
          "type": "string"
        }
      ],
      "name": "checkBattleStarted",
      "outputs": [
        {
          "internalType": "bool",
          "name": "",
          "type": "bool"
        }
      ],
      "stateMutability": "view",
      "type": "function"
    },
    {
      "inputs": [
        {
          "internalType": "string",
          "name": "_battleId",
          "type": "string"
        }
      ],
      "name": "checkBattleStatus",
      "outputs": [
        {
          "internalType": "bool",
          "name": "",
          "type": "bool"
        }
      ],
      "stateMutability": "view",
      "type": "function"
    },
    {
      "inputs": [
        {
          "internalType": "string",
          "name": "_bossId",
          "type": "string"
        }
      ],
      "name": "checkBossExists",
      "outputs": [
        {
          "internalType": "bool",
          "name": "",
          "type": "bool"
        }
      ],
      "stateMutability": "view",
      "type": "function"
    },
    {
      "inputs": [
        {
          "internalType": "string",
          "name": "_bossId",
          "type": "string"
        }
      ],
      "name": "checkBossStatus",
      "outputs": [
        {
          "internalType": "bool",
          "name": "",
          "type": "bool"
        }
      ],
      "stateMutability": "view",
      "type": "function"
    },
    {
      "inputs": [
        {
          "internalType": "string",
          "name": "_battleId",
          "type": "string"
        },
        {
          "internalType": "string[]",
          "name": "_bossIds",
          "type": "string[]"
        },
        {
          "internalType": "uint256",
          "name": "_startTime",
          "type": "uint256"
        },
        {
          "internalType": "uint256",
          "name": "_endTime",
          "type": "uint256"
        }
      ],
      "name": "createBattle",
      "outputs": [],
      "stateMutability": "nonpayable",
      "type": "function"
    },
    {
      "inputs": [
        {
          "internalType": "string",
          "name": "bossId",
          "type": "string"
        },
        {
          "internalType": "string",
          "name": "name",
          "type": "string"
        },
        {
          "internalType": "uint256",
          "name": "maxHp",
          "type": "uint256"
        },
        {
          "internalType": "string",
          "name": "uri",
          "type": "string"
        }
      ],
      "name": "createBoss",
      "outputs": [],
      "stateMutability": "nonpayable",
      "type": "function"
    },
    {
      "inputs": [],
      "name": "getAllBattle",
      "outputs": [
        {
          "internalType": "string[]",
          "name": "",
          "type": "string[]"
        }
      ],
      "stateMutability": "view",
      "type": "function"
    },
    {
      "inputs": [],
      "name": "getAllBosses",
      "outputs": [
        {
          "internalType": "string[]",
          "name": "",
          "type": "string[]"
        }
      ],
      "stateMutability": "view",
      "type": "function"
    },
    {
      "inputs": [
        {
          "internalType": "string",
          "name": "_battleId",
          "type": "string"
        }
      ],
      "name": "getBattlePeriod",
      "outputs": [
        {
          "internalType": "uint256",
          "name": "startTime",
          "type": "uint256"
        },
        {
          "internalType": "uint256",
          "name": "endTime",
          "type": "uint256"
        }
      ],
      "stateMutability": "view",
      "type": "function"
    },
    {
      "inputs": [],
      "name": "getLatestBattle",
      "outputs": [
        {
          "internalType": "string",
          "name": "battleId",
          "type": "string"
        }
      ],
      "stateMutability": "view",
      "type": "function"
    },
    {
      "inputs": [
        {
          "internalType": "contract IGameAccessControls",
          "name": "_accessControls",
          "type": "address"
        }
      ],
      "name": "initialize",
      "outputs": [],
      "stateMutability": "nonpayable",
      "type": "function"
    },
    {
      "inputs": [],
      "name": "reInitialize",
      "outputs": [],
      "stateMutability": "nonpayable",
      "type": "function"
    },
    {
      "inputs": [
        {
          "internalType": "string",
          "name": "_battleId",
          "type": "string"
        },
        {
          "internalType": "bool",
          "name": "_status",
          "type": "bool"
        }
      ],
      "name": "setBattleStatus",
      "outputs": [],
      "stateMutability": "nonpayable",
      "type": "function"
    },
    {
      "inputs": [
        {
          "internalType": "string",
          "name": "_bossId",
          "type": "string"
        },
        {
          "internalType": "bool",
          "name": "_status",
          "type": "bool"
        }
      ],
      "name": "setBossStatus",
      "outputs": [],
      "stateMutability": "nonpayable",
      "type": "function"
    },
    {
      "inputs": [
        {
          "internalType": "string",
          "name": "_battleId",
          "type": "string"
        },
        {
          "internalType": "uint256",
          "name": "_startTime",
          "type": "uint256"
        },
        {
          "internalType": "uint256",
          "name": "_endTime",
          "type": "uint256"
        }
      ],
      "name": "updateBattle",
      "outputs": [],
      "stateMutability": "nonpayable",
      "type": "function"
    },
    {
      "inputs": [
        {
          "internalType": "string",
          "name": "bossId",
          "type": "string"
        },
        {
          "internalType": "string",
          "name": "name",
          "type": "string"
        },
        {
          "internalType": "uint256",
          "name": "maxHp",
          "type": "uint256"
        },
        {
          "internalType": "string",
          "name": "uri",
          "type": "string"
        }
      ],
      "name": "updateBoss",
      "outputs": [],
      "stateMutability": "nonpayable",
      "type": "function"
    }
  ],
  "bytecode": "0x60806040523480156200001157600080fd5b506200001c62000022565b620000e4565b600054610100900460ff16156200008f5760405162461bcd60e51b815260206004820152602760248201527f496e697469616c697a61626c653a20636f6e747261637420697320696e697469604482015266616c697a696e6760c81b606482015260840160405180910390fd5b60005460ff9081161015620000e2576000805460ff191660ff9081179091556040519081527f7f26b83ff96e1f2b6a682f133852f6798a09c465da95921460cefb38474024989060200160405180910390a15b565b612c2b80620000f46000396000f3fe608060405234801561001057600080fd5b50600436106101a35760003560e01c806385651574116100ee578063b778e18311610097578063c4d66de811610071578063c4d66de8146103ab578063c5c0a462146103be578063e59f94b7146103ec578063f7ddad0c146103ff57600080fd5b8063b778e1831461037d578063bf81ee6d14610390578063c2451bdc1461039857600080fd5b8063a83e54c2116100c8578063a83e54c21461034f578063ac0d464614610362578063b24a97c31461037557600080fd5b806385651574146103045780638abf3a0e14610317578063a07418d61461033c57600080fd5b80634fa1290d11610150578063748365ef1161012a578063748365ef1461028757806377bb7b78146102cc5780637e4fceaf146102f157600080fd5b80634fa1290d1461024c57806356b1bc9a1461025f5780635d4977891461027457600080fd5b80632de23337116101815780632de23337146101f957806332165c3c1461020157806347ff16ac1461022957600080fd5b8063159a9239146101a85780631bc143a5146101bd57806325eeb4f5146101e6575b600080fd5b6101bb6101b6366004612149565b61042d565b005b6101d06101cb3660046121ed565b6106fe565b6040516101dd9190612274565b60405180910390f35b6101d06101f43660046121ed565b6107aa565b6101bb6107ba565b61021461020f36600461228e565b6108f4565b604080519283526020830191909152016101dd565b61023c61023736600461228e565b61094b565b60405190151581526020016101dd565b6101bb61025a366004612149565b61097c565b610267610c98565b6040516101dd9190612346565b61023c61028236600461228e565b610d71565b6039546102a79073ffffffffffffffffffffffffffffffffffffffff1681565b60405173ffffffffffffffffffffffffffffffffffffffff90911681526020016101dd565b6102df6102da366004612465565b610e48565b6040516101dd969594939291906124a2565b6101bb6102ff3660046124f1565b610f14565b61023c610312366004612465565b61114a565b61032a610325366004612465565b611178565b6040516101dd96959493929190612543565b6101bb61034a366004612598565b611353565b6101bb61035d3660046124f1565b61179f565b61023c610370366004612465565b6119c7565b6102676119f2565b61023c61038b36600461228e565b611ac2565b6101d0611af2565b6101bb6103a636600461268d565b611bae565b6101bb6103b93660046126db565b611f2a565b61023c6103cc366004612465565b805160208183018101805160388252928201919093012091525460ff1681565b61023c6103fa366004612465565b6120f5565b61023c61040d366004612465565b805160208183018101805160378252928201919093012091525460ff1681565b6039546040517f5026c82600000000000000000000000000000000000000000000000000000000815233600482018190529173ffffffffffffffffffffffffffffffffffffffff1690635026c82690602401602060405180830381865afa15801561049c573d6000803e3d6000fd5b505050506040513d601f19601f820116820180604052508101906104c09190612711565b61052b576040517f08c379a000000000000000000000000000000000000000000000000000000000815260206004820181905260248201527f5742423a20556e617574686f72697a656420746f2075706461746520626f737360448201526064015b60405180910390fd5b61056a88888080601f0160208091040260200160405190810160405280939291908181526020018383808284376000920191909152506120f592505050565b6105d0576040517f08c379a000000000000000000000000000000000000000000000000000000000815260206004820152601760248201527f5742423a20426f737320646f65736e27742065786973740000000000000000006044820152606401610522565b6000603589896040516105e492919061272e565b908152604051908190036020019020600481015490915060ff1615610665576040517f08c379a000000000000000000000000000000000000000000000000000000000815260206004820152601360248201527f5742423a20426f737320697320616374697665000000000000000000000000006044820152606401610522565b80610671898b836127e0565b50600181016106818789836127e0565b5060028101859055600381016106988486836127e0565b508173ffffffffffffffffffffffffffffffffffffffff167fe84e5250e15f8fc9c44338f80b627457e114179c263f3707ff9beeed895f8ca48a8a8a8a8a8a8a6040516106eb9796959493929190612944565b60405180910390a2505050505050505050565b6034818154811061070e57600080fd5b9060005260206000200160009150905080546107299061273e565b80601f01602080910402602001604051908101604052809291908181526020018280546107559061273e565b80156107a25780601f10610777576101008083540402835291602001916107a2565b820191906000526020600020905b81548152906001019060200180831161078557829003601f168201915b505050505081565b6036818154811061070e57600080fd5b600054600290610100900460ff161580156107dc575060005460ff8083169116105b610868576040517f08c379a000000000000000000000000000000000000000000000000000000000815260206004820152602e60248201527f496e697469616c697a61626c653a20636f6e747261637420697320616c72656160448201527f647920696e697469616c697a65640000000000000000000000000000000000006064820152608401610522565b600080547fffffffffffffffffffffffffffffffffffffffffffffffffffffffffffff00001660ff8316908117610100177fffffffffffffffffffffffffffffffffffffffffffffffffffffffffffff00ff169091556040519081527f7f26b83ff96e1f2b6a682f133852f6798a09c465da95921460cefb38474024989060200160405180910390a150565b6000806033848460405161090992919061272e565b9081526020016040518091039020600301546033858560405161092d92919061272e565b908152602001604051809103902060040154915091505b9250929050565b60006033838360405161095f92919061272e565b908152602001604051809103902060040154421190505b92915050565b6039546040517f5026c82600000000000000000000000000000000000000000000000000000000815233600482018190529173ffffffffffffffffffffffffffffffffffffffff1690635026c82690602401602060405180830381865afa1580156109eb573d6000803e3d6000fd5b505050506040513d601f19601f82011682018060405250810190610a0f9190612711565b610a75576040517f08c379a000000000000000000000000000000000000000000000000000000000815260206004820181905260248201527f5742423a20556e617574686f72697a656420746f2063726561746520626f73736044820152606401610522565b610ab488888080601f0160208091040260200160405190810160405280939291908181526020018383808284376000920191909152506120f592505050565b15610b1b576040517f08c379a000000000000000000000000000000000000000000000000000000000815260206004820152601860248201527f5742423a20426f737320616c72656164792045786973747300000000000000006044820152606401610522565b600060358989604051610b2f92919061272e565b908152604051908190036020019020905080610b4c898b836127e0565b5060018101610b5c8789836127e0565b506002810185905560038101610b738486836127e0565b506004810180547fffffffffffffffffffffffffffffffffffffffffffffffffffffffffffffff001660019081179091556036805491820181556000527f4a11f94e20a93c79f6ec743a1954ec4fc2c08429ae2122118bf234b2185c81b801610bdd898b836127e0565b50600160388a8a604051610bf292919061272e565b90815260405190819003602001902080549115157fffffffffffffffffffffffffffffffffffffffffffffffffffffffffffffff00909216919091179055603654610c3f906001906129c3565b600582015560405173ffffffffffffffffffffffffffffffffffffffff8316907f7d51e5ba65a244038915d444c0ca607e0b05121999d92bf11349864f8ec00bc0906106eb908c908c908c908c908c908c908c90612944565b60606036805480602002602001604051908101604052809291908181526020016000905b82821015610d68578382906000526020600020018054610cdb9061273e565b80601f0160208091040260200160405190810160405280929190818152602001828054610d079061273e565b8015610d545780601f10610d2957610100808354040283529160200191610d54565b820191906000526020600020905b815481529060010190602001808311610d3757829003601f168201915b505050505081526020019060010190610cbc565b50505050905090565b6000610db283838080601f0160208091040260200160405190810160405280939291908181526020018383808284376000920191909152506119c792505050565b610e18576040517f08c379a000000000000000000000000000000000000000000000000000000000815260206004820152601a60248201527f5742423a20426174746c6520646f65736e2774206578697374730000000000006044820152606401610522565b60338383604051610e2a92919061272e565b9081526040519081900360200190206005015460ff16905092915050565b8051602081830181018051603382529282019190930120915280548190610e6e9061273e565b80601f0160208091040260200160405190810160405280929190818152602001828054610e9a9061273e565b8015610ee75780601f10610ebc57610100808354040283529160200191610ee7565b820191906000526020600020905b815481529060010190602001808311610eca57829003601f168201915b505050506002830154600384015460048501546005860154600690960154949592949193509160ff169086565b6039546040517f5026c82600000000000000000000000000000000000000000000000000000000815233600482018190529173ffffffffffffffffffffffffffffffffffffffff1690635026c82690602401602060405180830381865afa158015610f83573d6000803e3d6000fd5b505050506040513d601f19601f82011682018060405250810190610fa79190612711565b611033576040517f08c379a000000000000000000000000000000000000000000000000000000000815260206004820152602760248201527f5742423a20556e617574686f72697a656420746f2075706461746520626f737360448201527f20737461747573000000000000000000000000000000000000000000000000006064820152608401610522565b61103c836120f5565b6110a2576040517f08c379a000000000000000000000000000000000000000000000000000000000815260206004820152601760248201527f5742423a20426f737320646f65736e27742065786973740000000000000000006044820152606401610522565b60006035846040516110b491906129d6565b9081526040519081900360200181206004810180548615157fffffffffffffffffffffffffffffffffffffffffffffffffffffffffffffff00909116179055915073ffffffffffffffffffffffffffffffffffffffff8316907fb47164476bec80db36799d3e7cfc2b5f3d43315275b5e41650ff9227331b9a5d9061113c90879087906129f2565b60405180910390a250505050565b600060358260405161115c91906129d6565b9081526040519081900360200190206004015460ff1692915050565b805160208183018101805160358252928201919093012091528054819061119e9061273e565b80601f01602080910402602001604051908101604052809291908181526020018280546111ca9061273e565b80156112175780601f106111ec57610100808354040283529160200191611217565b820191906000526020600020905b8154815290600101906020018083116111fa57829003601f168201915b50505050509080600101805461122c9061273e565b80601f01602080910402602001604051908101604052809291908181526020018280546112589061273e565b80156112a55780601f1061127a576101008083540402835291602001916112a5565b820191906000526020600020905b81548152906001019060200180831161128857829003601f168201915b5050505050908060020154908060030180546112c09061273e565b80601f01602080910402602001604051908101604052809291908181526020018280546112ec9061273e565b80156113395780601f1061130e57610100808354040283529160200191611339565b820191906000526020600020905b81548152906001019060200180831161131c57829003601f168201915b505050506004830154600590930154919260ff1691905086565b6039546040517f5026c82600000000000000000000000000000000000000000000000000000000815233600482018190529173ffffffffffffffffffffffffffffffffffffffff1690635026c82690602401602060405180830381865afa1580156113c2573d6000803e3d6000fd5b505050506040513d601f19601f820116820180604052508101906113e69190612711565b611472576040517f08c379a000000000000000000000000000000000000000000000000000000000815260206004820152602260248201527f5742423a20556e617574686f72697a656420746f20637265617465206261747460448201527f6c650000000000000000000000000000000000000000000000000000000000006064820152608401610522565b61147b856119c7565b156114e2576040517f08c379a000000000000000000000000000000000000000000000000000000000815260206004820152601a60248201527f5742423a20426174746c6520616c7265616479204578697374730000000000006044820152606401610522565b82821161154b576040517f08c379a000000000000000000000000000000000000000000000000000000000815260206004820152601a60248201527f5742423a20696e76616c696420626174746c6520706572696f640000000000006044820152606401610522565b600060338660405161155d91906129d6565b9081526040519081900360200190209050806115798782612a16565b5060038101849055600481018390556005810180547fffffffffffffffffffffffffffffffffffffffffffffffffffffffffffffff00166001908117909155855160028301556034805491820181556000527f46bddb1178e94d7f2892ff5f366840eb658911794f2c3a44c450aa2c505186c1016115f78782612a16565b50600160378760405161160a91906129d6565b90815260405190819003602001902080549115157fffffffffffffffffffffffffffffffffffffffffffffffffffffffffffffff00909216919091179055603454611657906001906129c3565b600682015560005b85518110156117425761168a86828151811061167d5761167d612b30565b602002602001015161114a565b6116f0576040517f08c379a000000000000000000000000000000000000000000000000000000000815260206004820152601560248201527f5742423a20626f7373206e6f74206372656174656400000000000000000000006044820152606401610522565b8160010186828151811061170657611706612b30565b6020908102919091018101518254600181018455600093845291909220019061172f9082612a16565b508061173a81612b5f565b91505061165f565b508173ffffffffffffffffffffffffffffffffffffffff167fbf930b6a4190ef0d2e18f5890bf0a9d9cadbdb0806e46cdf21ac172ca43f76a68787878760405161178f9493929190612b97565b60405180910390a2505050505050565b6039546040517f5026c82600000000000000000000000000000000000000000000000000000000815233600482018190529173ffffffffffffffffffffffffffffffffffffffff1690635026c82690602401602060405180830381865afa15801561180e573d6000803e3d6000fd5b505050506040513d601f19601f820116820180604052508101906118329190612711565b6118be576040517f08c379a000000000000000000000000000000000000000000000000000000000815260206004820152602660248201527f5742423a20556e617574686f72697a656420746f2073657420626174746c652060448201527f73746174757300000000000000000000000000000000000000000000000000006064820152608401610522565b6118c7836119c7565b61192d576040517f08c379a000000000000000000000000000000000000000000000000000000000815260206004820152601960248201527f5742423a20426174746c6520646f65736e2774206578697374000000000000006044820152606401610522565b600060338460405161193f91906129d6565b9081526040519081900360200181206005810180548615157fffffffffffffffffffffffffffffffffffffffffffffffffffffffffffffff00909116179055915073ffffffffffffffffffffffffffffffffffffffff8316907fa6115fd69d56ce0ba2d2984a7dc862cdb9e23f47faa13128d4477e24702db2819061113c90879087906129f2565b60006037826040516119d991906129d6565b9081526040519081900360200190205460ff1692915050565b60606034805480602002602001604051908101604052809291908181526020016000905b82821015610d68578382906000526020600020018054611a359061273e565b80601f0160208091040260200160405190810160405280929190818152602001828054611a619061273e565b8015611aae5780601f10611a8357610100808354040283529160200191611aae565b820191906000526020600020905b815481529060010190602001808311611a9157829003601f168201915b505050505081526020019060010190611a16565b600060338383604051611ad692919061272e565b9081526020016040518091039020600301544211905092915050565b6034805460609190611b06906001906129c3565b81548110611b1657611b16612b30565b906000526020600020018054611b2b9061273e565b80601f0160208091040260200160405190810160405280929190818152602001828054611b579061273e565b8015611ba45780601f10611b7957610100808354040283529160200191611ba4565b820191906000526020600020905b815481529060010190602001808311611b8757829003601f168201915b5050505050905090565b6039546040517f5026c82600000000000000000000000000000000000000000000000000000000815233600482018190529173ffffffffffffffffffffffffffffffffffffffff1690635026c82690602401602060405180830381865afa158015611c1d573d6000803e3d6000fd5b505050506040513d601f19601f82011682018060405250810190611c419190612711565b611ccd576040517f08c379a000000000000000000000000000000000000000000000000000000000815260206004820152602260248201527f5742423a20556e617574686f72697a656420746f20757064617465206261747460448201527f6c650000000000000000000000000000000000000000000000000000000000006064820152608401610522565b611cd6846119c7565b611d3c576040517f08c379a000000000000000000000000000000000000000000000000000000000815260206004820152601a60248201527f5742423a20426174746c6520646f65736e2774206578697374730000000000006044820152606401610522565b603384604051611d4c91906129d6565b9081526040519081900360200190206005015460ff1615611dc9576040517f08c379a000000000000000000000000000000000000000000000000000000000815260206004820152601560248201527f5742423a20426174746c652069732061637469766500000000000000000000006044820152606401610522565b828211611e32576040517f08c379a000000000000000000000000000000000000000000000000000000000815260206004820152601a60248201527f5742423a20696e76616c696420626174746c6520706572696f640000000000006044820152606401610522565b6000603385604051611e4491906129d6565b9081526020016040518091039020905080600401544210611ec1576040517f08c379a000000000000000000000000000000000000000000000000000000000815260206004820152601960248201527f5742423a20626174746c6520616c726561647920656e646564000000000000006044820152606401610522565b600381018490556004810183905560405173ffffffffffffffffffffffffffffffffffffffff8316907f48af9efa0eb42768b8561a4d6eb892763a3701ff2fae21c37d480825f78f6cbc90611f1b90889088908890612bd0565b60405180910390a25050505050565b600054610100900460ff1615808015611f4a5750600054600160ff909116105b80611f645750303b158015611f64575060005460ff166001145b611ff0576040517f08c379a000000000000000000000000000000000000000000000000000000000815260206004820152602e60248201527f496e697469616c697a61626c653a20636f6e747261637420697320616c72656160448201527f647920696e697469616c697a65640000000000000000000000000000000000006064820152608401610522565b600080547fffffffffffffffffffffffffffffffffffffffffffffffffffffffffffffff00166001179055801561204e57600080547fffffffffffffffffffffffffffffffffffffffffffffffffffffffffffff00ff166101001790555b603980547fffffffffffffffffffffffff00000000000000000000000000000000000000001673ffffffffffffffffffffffffffffffffffffffff841617905580156120f157600080547fffffffffffffffffffffffffffffffffffffffffffffffffffffffffffff00ff169055604051600181527f7f26b83ff96e1f2b6a682f133852f6798a09c465da95921460cefb38474024989060200160405180910390a15b5050565b60006038826040516119d991906129d6565b60008083601f84011261211957600080fd5b50813567ffffffffffffffff81111561213157600080fd5b60208301915083602082850101111561094457600080fd5b60008060008060008060006080888a03121561216457600080fd5b873567ffffffffffffffff8082111561217c57600080fd5b6121888b838c01612107565b909950975060208a01359150808211156121a157600080fd5b6121ad8b838c01612107565b909750955060408a0135945060608a01359150808211156121cd57600080fd5b506121da8a828b01612107565b989b979a50959850939692959293505050565b6000602082840312156121ff57600080fd5b5035919050565b60005b83811015612221578181015183820152602001612209565b50506000910152565b60008151808452612242816020860160208601612206565b601f017fffffffffffffffffffffffffffffffffffffffffffffffffffffffffffffffe0169290920160200192915050565b602081526000612287602083018461222a565b9392505050565b600080602083850312156122a157600080fd5b823567ffffffffffffffff8111156122b857600080fd5b6122c485828601612107565b90969095509350505050565b600082825180855260208086019550808260051b84010181860160005b84811015612339577fffffffffffffffffffffffffffffffffffffffffffffffffffffffffffffffe086840301895261232783835161222a565b988401989250908301906001016122ed565b5090979650505050505050565b60208152600061228760208301846122d0565b7f4e487b7100000000000000000000000000000000000000000000000000000000600052604160045260246000fd5b604051601f82017fffffffffffffffffffffffffffffffffffffffffffffffffffffffffffffffe016810167ffffffffffffffff811182821017156123cf576123cf612359565b604052919050565b600082601f8301126123e857600080fd5b813567ffffffffffffffff81111561240257612402612359565b61243360207fffffffffffffffffffffffffffffffffffffffffffffffffffffffffffffffe0601f84011601612388565b81815284602083860101111561244857600080fd5b816020850160208301376000918101602001919091529392505050565b60006020828403121561247757600080fd5b813567ffffffffffffffff81111561248e57600080fd5b61249a848285016123d7565b949350505050565b60c0815260006124b560c083018961222a565b602083019790975250604081019490945260608401929092521515608083015260a090910152919050565b80151581146124ee57600080fd5b50565b6000806040838503121561250457600080fd5b823567ffffffffffffffff81111561251b57600080fd5b612527858286016123d7565b9250506020830135612538816124e0565b809150509250929050565b60c08152600061255660c083018961222a565b8281036020840152612568818961222a565b90508660408401528281036060840152612582818761222a565b9415156080840152505060a00152949350505050565b600080600080608085870312156125ae57600080fd5b843567ffffffffffffffff808211156125c657600080fd5b6125d2888389016123d7565b95506020915081870135818111156125e957600080fd5b8701601f810189136125fa57600080fd5b80358281111561260c5761260c612359565b8060051b61261b858201612388565b918252828101850191858101908c84111561263557600080fd5b86850192505b83831015612671578235868111156126535760008081fd5b6126618e89838901016123d7565b835250918601919086019061263b565b999c999b50505050604088013597606001359695505050505050565b6000806000606084860312156126a257600080fd5b833567ffffffffffffffff8111156126b957600080fd5b6126c5868287016123d7565b9660208601359650604090950135949350505050565b6000602082840312156126ed57600080fd5b813573ffffffffffffffffffffffffffffffffffffffff8116811461228757600080fd5b60006020828403121561272357600080fd5b8151612287816124e0565b8183823760009101908152919050565b600181811c9082168061275257607f821691505b60208210810361278b577f4e487b7100000000000000000000000000000000000000000000000000000000600052602260045260246000fd5b50919050565b601f8211156127db57600081815260208120601f850160051c810160208610156127b85750805b601f850160051c820191505b818110156127d7578281556001016127c4565b5050505b505050565b67ffffffffffffffff8311156127f8576127f8612359565b61280c83612806835461273e565b83612791565b6000601f84116001811461285e57600085156128285750838201355b7fffffffffffffffffffffffffffffffffffffffffffffffffffffffffffffffff600387901b1c1916600186901b1783556128f4565b6000838152602090207fffffffffffffffffffffffffffffffffffffffffffffffffffffffffffffffe0861690835b828110156128ad578685013582556020948501946001909201910161288d565b50868210156128e8577fffffffffffffffffffffffffffffffffffffffffffffffffffffffffffffffff60f88860031b161c19848701351681555b505060018560011b0183555b5050505050565b8183528181602085013750600060208284010152600060207fffffffffffffffffffffffffffffffffffffffffffffffffffffffffffffffe0601f840116840101905092915050565b60808152600061295860808301898b6128fb565b828103602084015261296b81888a6128fb565b905085604084015282810360608401526129868185876128fb565b9a9950505050505050505050565b7f4e487b7100000000000000000000000000000000000000000000000000000000600052601160045260246000fd5b8181038181111561097657610976612994565b600082516129e8818460208701612206565b9190910192915050565b604081526000612a05604083018561222a565b905082151560208301529392505050565b815167ffffffffffffffff811115612a3057612a30612359565b612a4481612a3e845461273e565b84612791565b602080601f831160018114612a975760008415612a615750858301515b7fffffffffffffffffffffffffffffffffffffffffffffffffffffffffffffffff600386901b1c1916600185901b1785556127d7565b6000858152602081207fffffffffffffffffffffffffffffffffffffffffffffffffffffffffffffffe08616915b82811015612ae457888601518255948401946001909101908401612ac5565b5085821015612b2057878501517fffffffffffffffffffffffffffffffffffffffffffffffffffffffffffffffff600388901b60f8161c191681555b5050505050600190811b01905550565b7f4e487b7100000000000000000000000000000000000000000000000000000000600052603260045260246000fd5b60007fffffffffffffffffffffffffffffffffffffffffffffffffffffffffffffffff8203612b9057612b90612994565b5060010190565b608081526000612baa608083018761222a565b8281036020840152612bbc81876122d0565b604084019590955250506060015292915050565b606081526000612be3606083018661222a565b6020830194909452506040015291905056fea2646970667358221220f69aa3d95f740e2deb82b57b21aec590da825ccac641121035e377cb6f35d58564736f6c63430008110033",
  "linkReferences": {},
  "deployedLinkReferences": {}
}