{
  "_format": "hh-sol-artifact-1",
  "contractName": "NFTRedemption",
  "sourceName": "contracts/redemption/NFTRedemption.sol",
  "abi": [
    {
      "inputs": [
        {
          "internalType": "address",
          "name": "_cdhNft",
          "type": "address"
        },
        {
          "internalType": "address",
          "name": "_towerInventory",
          "type": "address"
        },
        {
          "internalType": "address",
          "name": "_equipmentPool",
          "type": "address"
        },
        {
          "internalType": "address",
          "name": "_heroPool",
          "type": "address"
        },
        {
          "internalType": "address",
          "name": "_spellPool",
          "type": "address"
        },
        {
          "internalType": "address",
          "name": "_towerPool",
          "type": "address"
        },
        {
          "internalType": "address",
          "name": "_blackHoleAddress",
          "type": "address"
        },
        {
          "internalType": "address",
          "name": "_randomNumberSigner",
          "type": "address"
        }
      ],
      "stateMutability": "nonpayable",
      "type": "constructor"
    },
    {
      "inputs": [],
      "name": "PoolNotFound",
      "type": "error"
    },
    {
      "anonymous": false,
      "inputs": [
        {
          "indexed": true,
          "internalType": "address",
          "name": "previousOwner",
          "type": "address"
        },
        {
          "indexed": true,
          "internalType": "address",
          "name": "newOwner",
          "type": "address"
        }
      ],
      "name": "OwnershipTransferred",
      "type": "event"
    },
    {
      "anonymous": false,
      "inputs": [
        {
          "indexed": false,
          "internalType": "address",
          "name": "account",
          "type": "address"
        }
      ],
      "name": "Paused",
      "type": "event"
    },
    {
      "anonymous": false,
      "inputs": [
        {
          "indexed": false,
          "internalType": "address",
          "name": "oldblackHoleAddress",
          "type": "address"
        },
        {
          "indexed": false,
          "internalType": "address",
          "name": "newblackHoleAddress",
          "type": "address"
        }
      ],
      "name": "SetBlackHoleAddress",
      "type": "event"
    },
    {
      "anonymous": false,
      "inputs": [
        {
          "indexed": false,
          "internalType": "address",
          "name": "oldSender",
          "type": "address"
        },
        {
          "indexed": false,
          "internalType": "address",
          "name": "newSender",
          "type": "address"
        }
      ],
      "name": "SetRandomNumberSenderAddress",
      "type": "event"
    },
    {
      "anonymous": false,
      "inputs": [
        {
          "indexed": true,
          "internalType": "address",
          "name": "sender",
          "type": "address"
        },
        {
          "indexed": false,
          "internalType": "uint256",
          "name": "quantity",
          "type": "uint256"
        },
        {
          "indexed": false,
          "internalType": "uint256[]",
          "name": "cards",
          "type": "uint256[]"
        },
        {
          "indexed": false,
          "internalType": "enum NFTRedemption.TicketType",
          "name": "ticketType",
          "type": "uint8"
        },
        {
          "indexed": false,
          "internalType": "uint256",
          "name": "ticketCount",
          "type": "uint256"
        }
      ],
      "name": "TicketRedemption",
      "type": "event"
    },
    {
      "anonymous": false,
      "inputs": [
        {
          "indexed": false,
          "internalType": "address",
          "name": "account",
          "type": "address"
        }
      ],
      "name": "Unpaused",
      "type": "event"
    },
    {
      "inputs": [],
      "name": "NUMBER_OF_POOLS",
      "outputs": [
        {
          "internalType": "uint8",
          "name": "",
          "type": "uint8"
        }
      ],
      "stateMutability": "view",
      "type": "function"
    },
    {
      "inputs": [],
      "name": "blackHoleAddress",
      "outputs": [
        {
          "internalType": "address",
          "name": "",
          "type": "address"
        }
      ],
      "stateMutability": "view",
      "type": "function"
    },
    {
      "inputs": [],
      "name": "cdhNFT",
      "outputs": [
        {
          "internalType": "contract ICDHNFTInventory",
          "name": "",
          "type": "address"
        }
      ],
      "stateMutability": "view",
      "type": "function"
    },
    {
      "inputs": [],
      "name": "equipmentPool",
      "outputs": [
        {
          "internalType": "contract ICardPool",
          "name": "",
          "type": "address"
        }
      ],
      "stateMutability": "view",
      "type": "function"
    },
    {
      "inputs": [
        {
          "internalType": "bytes32",
          "name": "_baseSeed",
          "type": "bytes32"
        },
        {
          "internalType": "enum NFTRedemption.TicketType",
          "name": "_ticketType",
          "type": "uint8"
        },
        {
          "internalType": "uint256",
          "name": "i",
          "type": "uint256"
        },
        {
          "internalType": "uint256",
          "name": "_counter",
          "type": "uint256"
        }
      ],
      "name": "generateCardId",
      "outputs": [
        {
          "internalType": "uint256",
          "name": "",
          "type": "uint256"
        }
      ],
      "stateMutability": "view",
      "type": "function"
    },
    {
      "inputs": [],
      "name": "heroPool",
      "outputs": [
        {
          "internalType": "contract ICardPool",
          "name": "",
          "type": "address"
        }
      ],
      "stateMutability": "view",
      "type": "function"
    },
    {
      "inputs": [],
      "name": "owner",
      "outputs": [
        {
          "internalType": "address",
          "name": "",
          "type": "address"
        }
      ],
      "stateMutability": "view",
      "type": "function"
    },
    {
      "inputs": [],
      "name": "pause",
      "outputs": [],
      "stateMutability": "nonpayable",
      "type": "function"
    },
    {
      "inputs": [],
      "name": "paused",
      "outputs": [
        {
          "internalType": "bool",
          "name": "",
          "type": "bool"
        }
      ],
      "stateMutability": "view",
      "type": "function"
    },
    {
      "inputs": [],
      "name": "randomNumberSigner",
      "outputs": [
        {
          "internalType": "address",
          "name": "",
          "type": "address"
        }
      ],
      "stateMutability": "view",
      "type": "function"
    },
    {
      "inputs": [
        {
          "internalType": "enum NFTRedemption.TicketType",
          "name": "_ticketType",
          "type": "uint8"
        },
        {
          "internalType": "uint256",
          "name": "_quantity",
          "type": "uint256"
        },
        {
          "internalType": "bytes",
          "name": "_sig",
          "type": "bytes"
        }
      ],
      "name": "redeemTicket",
      "outputs": [],
      "stateMutability": "nonpayable",
      "type": "function"
    },
    {
      "inputs": [],
      "name": "renounceOwnership",
      "outputs": [],
      "stateMutability": "nonpayable",
      "type": "function"
    },
    {
      "inputs": [
        {
          "internalType": "address",
          "name": "",
          "type": "address"
        }
      ],
      "name": "seedNonce",
      "outputs": [
        {
          "internalType": "uint256",
          "name": "",
          "type": "uint256"
        }
      ],
      "stateMutability": "view",
      "type": "function"
    },
    {
      "inputs": [
        {
          "internalType": "address",
          "name": "_newBlackHoleAddress",
          "type": "address"
        }
      ],
      "name": "setBlackHoleAddress",
      "outputs": [],
      "stateMutability": "nonpayable",
      "type": "function"
    },
    {
      "inputs": [
        {
          "internalType": "address",
          "name": "_newSigner",
          "type": "address"
        }
      ],
      "name": "setRandomNumberSigner",
      "outputs": [],
      "stateMutability": "nonpayable",
      "type": "function"
    },
    {
      "inputs": [],
      "name": "spellPool",
      "outputs": [
        {
          "internalType": "contract ICardPool",
          "name": "",
          "type": "address"
        }
      ],
      "stateMutability": "view",
      "type": "function"
    },
    {
      "inputs": [],
      "name": "towerInventory",
      "outputs": [
        {
          "internalType": "contract ITowerInventory",
          "name": "",
          "type": "address"
        }
      ],
      "stateMutability": "view",
      "type": "function"
    },
    {
      "inputs": [],
      "name": "towerPool",
      "outputs": [
        {
          "internalType": "contract ICardPool",
          "name": "",
          "type": "address"
        }
      ],
      "stateMutability": "view",
      "type": "function"
    },
    {
      "inputs": [
        {
          "internalType": "address",
          "name": "newOwner",
          "type": "address"
        }
      ],
      "name": "transferOwnership",
      "outputs": [],
      "stateMutability": "nonpayable",
      "type": "function"
    },
    {
      "inputs": [],
      "name": "unpause",
      "outputs": [],
      "stateMutability": "nonpayable",
      "type": "function"
    }
  ],
  "bytecode": "0x60806040523480156200001157600080fd5b50604051620023a8380380620023a883398101604081905262000034916200014a565b6200003f33620000dd565b6000805460ff60a01b19169055600380546001600160a01b03199081166001600160a01b0398891617909155600480548216968816969096179095556005805486169487169490941790935560068054851692861692909217909155600180548416968516969096179095556002805483169484169490941790935560078054821694831694909417909355600880549093169116179055620001f2565b600080546001600160a01b038381166001600160a01b0319831681178455604051919092169283917f8be0079c531659141344cd1fd0a4f28419497f9722a3daafe3b4186f6b6457e09190a35050565b80516001600160a01b03811681146200014557600080fd5b919050565b600080600080600080600080610100898b0312156200016857600080fd5b62000173896200012d565b97506200018360208a016200012d565b96506200019360408a016200012d565b9550620001a360608a016200012d565b9450620001b360808a016200012d565b9350620001c360a08a016200012d565b9250620001d360c08a016200012d565b9150620001e360e08a016200012d565b90509295985092959890939650565b6121a680620002026000396000f3fe608060405234801561001057600080fd5b506004361061016c5760003560e01c80638da5cb5b116100cd578063b3e3a18f11610081578063daa26b7611610066578063daa26b7614610362578063e65ccaba14610375578063f2fde38b1461039557600080fd5b8063b3e3a18f14610322578063cb84a0c61461034257600080fd5b80639e8ccaf1116100b25780639e8ccaf1146102d5578063a05eb2ad146102f5578063a11a4b841461030f57600080fd5b80638da5cb5b1461029757806399f7db7d146102b557600080fd5b80635c975abb1161012457806373833bfa1161010957806373833bfa1461024f578063784923c51461026f5780638456cb591461028f57600080fd5b80635c975abb14610219578063715018a61461024757600080fd5b80631f2db4b0116101555780631f2db4b0146101d05780633f4ba83a146101f15780634c00b8f5146101f957600080fd5b8063012c553b1461017157806312c5cc26146101bb575b600080fd5b6008546101919073ffffffffffffffffffffffffffffffffffffffff1681565b60405173ffffffffffffffffffffffffffffffffffffffff90911681526020015b60405180910390f35b6101ce6101c9366004611c9b565b6103a8565b005b6101e36101de366004611ce0565b6104cd565b6040519081526020016101b2565b6101ce6107f2565b6004546101919073ffffffffffffffffffffffffffffffffffffffff1681565b60005474010000000000000000000000000000000000000000900460ff1660405190151581526020016101b2565b6101ce610804565b6006546101919073ffffffffffffffffffffffffffffffffffffffff1681565b6101e361027d366004611c9b565b60096020526000908152604090205481565b6101ce610816565b60005473ffffffffffffffffffffffffffffffffffffffff16610191565b6007546101919073ffffffffffffffffffffffffffffffffffffffff1681565b6001546101919073ffffffffffffffffffffffffffffffffffffffff1681565b6102fd600481565b60405160ff90911681526020016101b2565b6101ce61031d366004611c9b565b610826565b6005546101919073ffffffffffffffffffffffffffffffffffffffff1681565b6002546101919073ffffffffffffffffffffffffffffffffffffffff1681565b6101ce610370366004611d4a565b610946565b6003546101919073ffffffffffffffffffffffffffffffffffffffff1681565b6101ce6103a3366004611c9b565b610d7b565b6103b0610e32565b73ffffffffffffffffffffffffffffffffffffffff8116610432576040517f08c379a000000000000000000000000000000000000000000000000000000000815260206004820152601e60248201527f4e4654526564656d7074696f6e3a20496e76616c69642041646472657373000060448201526064015b60405180910390fd5b6007546040805173ffffffffffffffffffffffffffffffffffffffff928316815291831660208301527fc1e441010b7386bb02052b3176e2c2aa1547244af4741b992411483ac895bfd2910160405180910390a1600780547fffffffffffffffffffffffff00000000000000000000000000000000000000001673ffffffffffffffffffffffffffffffffffffffff92909216919091179055565b6040517f504f4f4c0000000000000000000000000000000000000000000000000000000060208201526024810185905260448101839052606481018290526000908190608401604080517fffffffffffffffffffffffffffffffffffffffffffffffffffffffffffffffe081840301815291905280516020909101209050600060f861055a600484611e33565b610565906001611e9d565b901b9050600061057482610eb3565b6040517f52415249545900000000000000000000000000000000000000000000000000006020820152602681018590529091508190600090604601604080517fffffffffffffffffffffffffffffffffffffffffffffffffffffffffffffffe08184030181529190528051602090910120905060006105f4606483611e33565b6105ff906001611e9d565b9050600061060e8b838b611068565b6040517f5a57245e0000000000000000000000000000000000000000000000000000000081527fff000000000000000000000000000000000000000000000000000000000000008216600482015290915060009073ffffffffffffffffffffffffffffffffffffffff861690635a57245e90602401602060405180830381865afa1580156106a0573d6000803e3d6000fd5b505050506040513d601f19601f820116820180604052508101906106c49190611eb0565b6040517f434152440000000000000000000000000000000000000000000000000000000060208201526024810186905290915060009082906044016040516020818303038152906040528051906020012060001c6107229190611e33565b6040517fa1f215f50000000000000000000000000000000000000000000000000000000081527fff00000000000000000000000000000000000000000000000000000000000000851660048201526024810182905290915060009073ffffffffffffffffffffffffffffffffffffffff88169063a1f215f590604401602060405180830381865afa1580156107bb573d6000803e3d6000fd5b505050506040513d601f19601f820116820180604052508101906107df9190611eb0565b9f9e505050505050505050505050505050565b6107fa610e32565b6108026110cb565b565b61080c610e32565b6108026000611148565b61081e610e32565b6108026111bd565b61082e610e32565b73ffffffffffffffffffffffffffffffffffffffff81166108ab576040517f08c379a000000000000000000000000000000000000000000000000000000000815260206004820152601d60248201527f4e4654526564656d7074696f6e3a20496e76616c6964207369676e65720000006044820152606401610429565b6008546040805173ffffffffffffffffffffffffffffffffffffffff928316815291831660208301527fe923287c09763afafb7f4f5abbc114ab6abe652f1e7978b8d04fc2a3e0dc29d3910160405180910390a1600880547fffffffffffffffffffffffff00000000000000000000000000000000000000001673ffffffffffffffffffffffffffffffffffffffff92909216919091179055565b61094e61122c565b33826109dc576040517f08c379a000000000000000000000000000000000000000000000000000000000815260206004820152602760248201527f4e4654526564656d7074696f6e3a2073686f756c64206265206772656174657260448201527f207468616e2030000000000000000000000000000000000000000000000000006064820152608401610429565b73ffffffffffffffffffffffffffffffffffffffff8116610a7f576040517f08c379a000000000000000000000000000000000000000000000000000000000815260206004820152602560248201527f4e4654526564656d7074696f6e3a20496e76616c69642072656465656d20616460448201527f64726573730000000000000000000000000000000000000000000000000000006064820152608401610429565b60025460075473ffffffffffffffffffffffffffffffffffffffff9182169163f242432a91849116876003811115610ab957610ab9611ec9565b876040518563ffffffff1660e01b8152600401610ad99493929190611ef8565b600060405180830381600087803b158015610af357600080fd5b505af1158015610b07573d6000803e3d6000fd5b505050506000610b16856112b1565b90506000610b268386888761131e565b90506000610b348387611f71565b67ffffffffffffffff811115610b4c57610b4c611d1b565b604051908082528060200260200182016040528015610b75578160200160208202803683370190505b5090506000610b848488611f71565b67ffffffffffffffff811115610b9c57610b9c611d1b565b604051908082528060200260200182016040528015610bc5578160200160208202803683370190505b50905060008060015b898111610c8e5760015b878111610c5f576000610bed888e85856104cd565b90508087610bfb8688611e9d565b81518110610c0b57610c0b611f88565b6020908102919091010152600186610c238688611e9d565b81518110610c3357610c33611f88565b602090810291909101015284610c4881611fb7565b955050508080610c5790611fb7565b915050610bd8565b5082610c6a81611fef565b9350508180610c7890611fb7565b9250508080610c8690611fb7565b915050610bce565b506001546040517f1f7fdffa00000000000000000000000000000000000000000000000000000000815273ffffffffffffffffffffffffffffffffffffffff90911690631f7fdffa90610ce9908a908890889060040161205f565b600060405180830381600087803b158015610d0357600080fd5b505af1158015610d17573d6000803e3d6000fd5b505050508673ffffffffffffffffffffffffffffffffffffffff167fea469048b043b8af154ae5529a34505f1cf8fd5c8f0e4760b19063294115368d8a868d8a604051610d6794939291906120dd565b60405180910390a250505050505050505050565b610d83610e32565b73ffffffffffffffffffffffffffffffffffffffff8116610e26576040517f08c379a000000000000000000000000000000000000000000000000000000000815260206004820152602660248201527f4f776e61626c653a206e6577206f776e657220697320746865207a65726f206160448201527f64647265737300000000000000000000000000000000000000000000000000006064820152608401610429565b610e2f81611148565b50565b60005473ffffffffffffffffffffffffffffffffffffffff163314610802576040517f08c379a000000000000000000000000000000000000000000000000000000000815260206004820181905260248201527f4f776e61626c653a2063616c6c6572206973206e6f7420746865206f776e65726044820152606401610429565b60007fff0000000000000000000000000000000000000000000000000000000000000082811601610efc57505060035473ffffffffffffffffffffffffffffffffffffffff1690565b7ffe000000000000000000000000000000000000000000000000000000000000007fff00000000000000000000000000000000000000000000000000000000000000831601610f6357505060045473ffffffffffffffffffffffffffffffffffffffff1690565b7ffd000000000000000000000000000000000000000000000000000000000000007fff00000000000000000000000000000000000000000000000000000000000000831601610fca57505060055473ffffffffffffffffffffffffffffffffffffffff1690565b7ffc000000000000000000000000000000000000000000000000000000000000007fff0000000000000000000000000000000000000000000000000000000000000083160161103157505060065473ffffffffffffffffffffffffffffffffffffffff1690565b6040517f76ecffc000000000000000000000000000000000000000000000000000000000815260040160405180910390fd5b919050565b6000600184600381111561107e5761107e611ec9565b036110945761108d8383611543565b90506110c4565b60028460038111156110a8576110a8611ec9565b036110b75761108d8383611652565b6110c1838361181e565b90505b9392505050565b6110d361190c565b600080547fffffffffffffffffffffff00ffffffffffffffffffffffffffffffffffffffff1690557f5db9ee0a495bf2e6ff9c91a7834c1ba4fdd244a5e8aa4e537bd38aeae4b073aa335b60405173ffffffffffffffffffffffffffffffffffffffff909116815260200160405180910390a1565b6000805473ffffffffffffffffffffffffffffffffffffffff8381167fffffffffffffffffffffffff0000000000000000000000000000000000000000831681178455604051919092169283917f8be0079c531659141344cd1fd0a4f28419497f9722a3daafe3b4186f6b6457e09190a35050565b6111c561122c565b600080547fffffffffffffffffffffff00ffffffffffffffffffffffffffffffffffffffff16740100000000000000000000000000000000000000001790557f62e78cea01bee320cd4e420270b5ea74000d11b0c9f74754ebdbfc544b05a25861111e3390565b60005474010000000000000000000000000000000000000000900460ff1615610802576040517f08c379a000000000000000000000000000000000000000000000000000000000815260206004820152601060248201527f5061757361626c653a20706175736564000000000000000000000000000000006044820152606401610429565b600060018260038111156112c7576112c7611ec9565b036112d457506005919050565b60028260038111156112e8576112e8611ec9565b036112f557506004919050565b600382600381111561130957611309611ec9565b0361131657506003919050565b506000919050565b73ffffffffffffffffffffffffffffffffffffffff84166000908152600960205260408120548186308787600381111561135a5761135a611ec9565b6040517fffffffffffffffffffffffffffffffffffffffff000000000000000000000000606095861b811660208301529390941b9092166034840152604883015260688201526088810183905260a801604080517fffffffffffffffffffffffffffffffffffffffffffffffffffffffffffffffe0818403018152919052805160209091012060085490915073ffffffffffffffffffffffffffffffffffffffff1661145d85611457846040517f19457468657265756d205369676e6564204d6573736167653a0a3332000000006020820152603c8101829052600090605c01604051602081830303815290604052805190602001209050919050565b90611990565b73ffffffffffffffffffffffffffffffffffffffff16146114da576040517f08c379a000000000000000000000000000000000000000000000000000000000815260206004820181905260248201527f4e4654526564656d7074696f6e3a20696e76616c6964207369676e61747572656044820152606401610429565b73ffffffffffffffffffffffffffffffffffffffff8716600090815260096020526040812080549161150b83611fb7565b9190505550836040516020016115219190612141565b6040516020818303038152906040528051906020012092505050949350505050565b600081600114806115545750816002145b1561158057507f030000000000000000000000000000000000000000000000000000000000000061164c565b816003148061158f5750816004145b8061159a5750816005145b1561164857603283116115ce57507f020000000000000000000000000000000000000000000000000000000000000061164c565b6032831180156115df575060558311155b1561160b57507f030000000000000000000000000000000000000000000000000000000000000061164c565b60558311801561161c575060648311155b1561164857507f040000000000000000000000000000000000000000000000000000000000000061164c565b5060005b92915050565b60008160010361168357507f030000000000000000000000000000000000000000000000000000000000000061164c565b8160020361173957603283116116ba57507f020000000000000000000000000000000000000000000000000000000000000061164c565b6032831180156116cb5750605f8311155b156116f757507f030000000000000000000000000000000000000000000000000000000000000061164c565b605f83118015611708575060648311155b1561173457507f040000000000000000000000000000000000000000000000000000000000000061164c565b611648565b816003036117e7576032831161177057507f020000000000000000000000000000000000000000000000000000000000000061164c565b6032831180156117815750605a8311155b156117ad57507f030000000000000000000000000000000000000000000000000000000000000061164c565b605a8311801561170857506064831161173457507f040000000000000000000000000000000000000000000000000000000000000061164c565b8160040361164857603283116115ce57507f020000000000000000000000000000000000000000000000000000000000000061164c565b60008160010361184f57507f020000000000000000000000000000000000000000000000000000000000000061164c565b816002148061185e5750816003145b15611648576032831161189257507f010000000000000000000000000000000000000000000000000000000000000061164c565b6032831180156118a3575060558311155b156118cf57507f020000000000000000000000000000000000000000000000000000000000000061164c565b6055831180156118e0575060648311155b1561164857507f030000000000000000000000000000000000000000000000000000000000000061164c565b60005474010000000000000000000000000000000000000000900460ff16610802576040517f08c379a000000000000000000000000000000000000000000000000000000000815260206004820152601460248201527f5061757361626c653a206e6f74207061757365640000000000000000000000006044820152606401610429565b600080600061199f85856119b4565b915091506119ac816119f9565b509392505050565b60008082516041036119ea5760208301516040840151606085015160001a6119de87828585611bac565b945094505050506119f2565b506000905060025b9250929050565b6000816004811115611a0d57611a0d611ec9565b03611a155750565b6001816004811115611a2957611a29611ec9565b03611a90576040517f08c379a000000000000000000000000000000000000000000000000000000000815260206004820152601860248201527f45434453413a20696e76616c6964207369676e617475726500000000000000006044820152606401610429565b6002816004811115611aa457611aa4611ec9565b03611b0b576040517f08c379a000000000000000000000000000000000000000000000000000000000815260206004820152601f60248201527f45434453413a20696e76616c6964207369676e6174757265206c656e677468006044820152606401610429565b6003816004811115611b1f57611b1f611ec9565b03610e2f576040517f08c379a000000000000000000000000000000000000000000000000000000000815260206004820152602260248201527f45434453413a20696e76616c6964207369676e6174757265202773272076616c60448201527f75650000000000000000000000000000000000000000000000000000000000006064820152608401610429565b6000807f7fffffffffffffffffffffffffffffff5d576e7357a4501ddfe92f46681b20a0831115611be35750600090506003611c92565b6040805160008082526020820180845289905260ff881692820192909252606081018690526080810185905260019060a0016020604051602081039080840390855afa158015611c37573d6000803e3d6000fd5b50506040517fffffffffffffffffffffffffffffffffffffffffffffffffffffffffffffffe0015191505073ffffffffffffffffffffffffffffffffffffffff8116611c8b57600060019250925050611c92565b9150600090505b94509492505050565b600060208284031215611cad57600080fd5b813573ffffffffffffffffffffffffffffffffffffffff811681146110c457600080fd5b80356004811061106357600080fd5b60008060008060808587031215611cf657600080fd5b84359350611d0660208601611cd1565b93969395505050506040820135916060013590565b7f4e487b7100000000000000000000000000000000000000000000000000000000600052604160045260246000fd5b600080600060608486031215611d5f57600080fd5b611d6884611cd1565b925060208401359150604084013567ffffffffffffffff80821115611d8c57600080fd5b818601915086601f830112611da057600080fd5b813581811115611db257611db2611d1b565b604051601f82017fffffffffffffffffffffffffffffffffffffffffffffffffffffffffffffffe0908116603f01168101908382118183101715611df857611df8611d1b565b81604052828152896020848701011115611e1157600080fd5b8260208601602083013760006020848301015280955050505050509250925092565b600082611e69577f4e487b7100000000000000000000000000000000000000000000000000000000600052601260045260246000fd5b500690565b7f4e487b7100000000000000000000000000000000000000000000000000000000600052601160045260246000fd5b8082018082111561164c5761164c611e6e565b600060208284031215611ec257600080fd5b5051919050565b7f4e487b7100000000000000000000000000000000000000000000000000000000600052602160045260246000fd5b600073ffffffffffffffffffffffffffffffffffffffff808716835280861660208401525083604083015282606083015260a06080830152611f6760a08301600481527f3078303000000000000000000000000000000000000000000000000000000000602082015260400190565b9695505050505050565b808202811582820484141761164c5761164c611e6e565b7f4e487b7100000000000000000000000000000000000000000000000000000000600052603260045260246000fd5b60007fffffffffffffffffffffffffffffffffffffffffffffffffffffffffffffffff8203611fe857611fe8611e6e565b5060010190565b600081611ffe57611ffe611e6e565b507fffffffffffffffffffffffffffffffffffffffffffffffffffffffffffffffff0190565b600081518084526020808501945080840160005b8381101561205457815187529582019590820190600101612038565b509495945050505050565b73ffffffffffffffffffffffffffffffffffffffff8416815260806020820152600061208e6080830185612024565b82810360408401526120a08185612024565b8381036060850152600481527f30783030000000000000000000000000000000000000000000000000000000006020820152905060408101611f67565b8481526080602082015260006120f66080830186612024565b90506004841061212f577f4e487b7100000000000000000000000000000000000000000000000000000000600052602160045260246000fd5b60408201939093526060015292915050565b6000825160005b818110156121625760208186018101518583015201612148565b50600092019182525091905056fea2646970667358221220c557d4a33091716d2d330978201dd744881c966532bafffdc7e58562fd1f466064736f6c63430008110033",
  "linkReferences": {},
  "deployedLinkReferences": {}
}