{
  "address": "0xbCF26943C0197d2eE0E5D05c716Be60cc2761508",
  "abi": [
    {
      "anonymous": false,
      "inputs": [
        {
          "indexed": false,
          "internalType": "uint256",
          "name": "_tokenId",
          "type": "uint256"
        },
        {
          "indexed": false,
          "internalType": "string",
          "name": "_name",
          "type": "string"
        },
        {
          "indexed": false,
          "internalType": "bool",
          "name": "_isSoulBound",
          "type": "bool"
        }
      ],
      "name": "AddBadgeType",
      "type": "event"
    },
    {
      "anonymous": false,
      "inputs": [
        {
          "indexed": true,
          "internalType": "address",
          "name": "account",
          "type": "address"
        },
        {
          "indexed": true,
          "internalType": "address",
          "name": "operator",
          "type": "address"
        },
        {
          "indexed": false,
          "internalType": "bool",
          "name": "approved",
          "type": "bool"
        }
      ],
      "name": "ApprovalForAll",
      "type": "event"
    },
    {
      "anonymous": false,
      "inputs": [
        {
          "indexed": true,
          "internalType": "address",
          "name": "_account",
          "type": "address"
        },
        {
          "indexed": true,
          "internalType": "uint256",
          "name": "_tokenId",
          "type": "uint256"
        },
        {
          "indexed": false,
          "internalType": "uint256",
          "name": "_amount",
          "type": "uint256"
        },
        {
          "indexed": false,
          "internalType": "bool",
          "name": "_isSoulBound",
          "type": "bool"
        }
      ],
      "name": "Bound",
      "type": "event"
    },
    {
      "anonymous": false,
      "inputs": [
        {
          "indexed": true,
          "internalType": "address",
          "name": "_account",
          "type": "address"
        },
        {
          "indexed": false,
          "internalType": "uint256[]",
          "name": "_ids",
          "type": "uint256[]"
        },
        {
          "indexed": false,
          "internalType": "uint256[]",
          "name": "_amounts",
          "type": "uint256[]"
        }
      ],
      "name": "BoundBatch",
      "type": "event"
    },
    {
      "anonymous": false,
      "inputs": [
        {
          "indexed": false,
          "internalType": "uint8",
          "name": "version",
          "type": "uint8"
        }
      ],
      "name": "Initialized",
      "type": "event"
    },
    {
      "anonymous": false,
      "inputs": [
        {
          "indexed": true,
          "internalType": "address",
          "name": "previousOwner",
          "type": "address"
        },
        {
          "indexed": true,
          "internalType": "address",
          "name": "newOwner",
          "type": "address"
        }
      ],
      "name": "OwnershipTransferred",
      "type": "event"
    },
    {
      "anonymous": false,
      "inputs": [
        {
          "indexed": false,
          "internalType": "address",
          "name": "account",
          "type": "address"
        }
      ],
      "name": "Paused",
      "type": "event"
    },
    {
      "anonymous": false,
      "inputs": [
        {
          "indexed": true,
          "internalType": "bytes32",
          "name": "role",
          "type": "bytes32"
        },
        {
          "indexed": true,
          "internalType": "bytes32",
          "name": "previousAdminRole",
          "type": "bytes32"
        },
        {
          "indexed": true,
          "internalType": "bytes32",
          "name": "newAdminRole",
          "type": "bytes32"
        }
      ],
      "name": "RoleAdminChanged",
      "type": "event"
    },
    {
      "anonymous": false,
      "inputs": [
        {
          "indexed": true,
          "internalType": "bytes32",
          "name": "role",
          "type": "bytes32"
        },
        {
          "indexed": true,
          "internalType": "address",
          "name": "account",
          "type": "address"
        },
        {
          "indexed": true,
          "internalType": "address",
          "name": "sender",
          "type": "address"
        }
      ],
      "name": "RoleGranted",
      "type": "event"
    },
    {
      "anonymous": false,
      "inputs": [
        {
          "indexed": true,
          "internalType": "bytes32",
          "name": "role",
          "type": "bytes32"
        },
        {
          "indexed": true,
          "internalType": "address",
          "name": "account",
          "type": "address"
        },
        {
          "indexed": true,
          "internalType": "address",
          "name": "sender",
          "type": "address"
        }
      ],
      "name": "RoleRevoked",
      "type": "event"
    },
    {
      "anonymous": false,
      "inputs": [
        {
          "indexed": true,
          "internalType": "address",
          "name": "operator",
          "type": "address"
        },
        {
          "indexed": true,
          "internalType": "address",
          "name": "from",
          "type": "address"
        },
        {
          "indexed": true,
          "internalType": "address",
          "name": "to",
          "type": "address"
        },
        {
          "indexed": false,
          "internalType": "uint256[]",
          "name": "ids",
          "type": "uint256[]"
        },
        {
          "indexed": false,
          "internalType": "uint256[]",
          "name": "values",
          "type": "uint256[]"
        }
      ],
      "name": "TransferBatch",
      "type": "event"
    },
    {
      "anonymous": false,
      "inputs": [
        {
          "indexed": true,
          "internalType": "address",
          "name": "operator",
          "type": "address"
        },
        {
          "indexed": true,
          "internalType": "address",
          "name": "from",
          "type": "address"
        },
        {
          "indexed": true,
          "internalType": "address",
          "name": "to",
          "type": "address"
        },
        {
          "indexed": false,
          "internalType": "uint256",
          "name": "id",
          "type": "uint256"
        },
        {
          "indexed": false,
          "internalType": "uint256",
          "name": "value",
          "type": "uint256"
        }
      ],
      "name": "TransferSingle",
      "type": "event"
    },
    {
      "anonymous": false,
      "inputs": [
        {
          "indexed": false,
          "internalType": "string",
          "name": "value",
          "type": "string"
        },
        {
          "indexed": true,
          "internalType": "uint256",
          "name": "id",
          "type": "uint256"
        }
      ],
      "name": "URI",
      "type": "event"
    },
    {
      "anonymous": false,
      "inputs": [
        {
          "indexed": false,
          "internalType": "address",
          "name": "account",
          "type": "address"
        }
      ],
      "name": "Unpaused",
      "type": "event"
    },
    {
      "inputs": [],
      "name": "Accessinitialize",
      "outputs": [],
      "stateMutability": "nonpayable",
      "type": "function"
    },
    {
      "inputs": [],
      "name": "DEFAULT_ADMIN_ROLE",
      "outputs": [
        {
          "internalType": "bytes32",
          "name": "",
          "type": "bytes32"
        }
      ],
      "stateMutability": "view",
      "type": "function"
    },
    {
      "inputs": [],
      "name": "MINTER_ROLE",
      "outputs": [
        {
          "internalType": "bytes32",
          "name": "",
          "type": "bytes32"
        }
      ],
      "stateMutability": "view",
      "type": "function"
    },
    {
      "inputs": [],
      "name": "MINTER_ROLE_ADMIN",
      "outputs": [
        {
          "internalType": "bytes32",
          "name": "",
          "type": "bytes32"
        }
      ],
      "stateMutability": "view",
      "type": "function"
    },
    {
      "inputs": [
        {
          "internalType": "uint256",
          "name": "_tokenId",
          "type": "uint256"
        },
        {
          "internalType": "string",
          "name": "_name",
          "type": "string"
        },
        {
          "internalType": "bool",
          "name": "_isSoulBound",
          "type": "bool"
        }
      ],
      "name": "appendBadgeType",
      "outputs": [],
      "stateMutability": "nonpayable",
      "type": "function"
    },
    {
      "inputs": [
        {
          "internalType": "uint256",
          "name": "",
          "type": "uint256"
        }
      ],
      "name": "badgeIds",
      "outputs": [
        {
          "internalType": "string",
          "name": "badgeName",
          "type": "string"
        },
        {
          "internalType": "bool",
          "name": "isSoulBoundFlag",
          "type": "bool"
        }
      ],
      "stateMutability": "view",
      "type": "function"
    },
    {
      "inputs": [
        {
          "internalType": "address",
          "name": "account",
          "type": "address"
        },
        {
          "internalType": "uint256",
          "name": "id",
          "type": "uint256"
        }
      ],
      "name": "balanceOf",
      "outputs": [
        {
          "internalType": "uint256",
          "name": "",
          "type": "uint256"
        }
      ],
      "stateMutability": "view",
      "type": "function"
    },
    {
      "inputs": [
        {
          "internalType": "address[]",
          "name": "accounts",
          "type": "address[]"
        },
        {
          "internalType": "uint256[]",
          "name": "ids",
          "type": "uint256[]"
        }
      ],
      "name": "balanceOfBatch",
      "outputs": [
        {
          "internalType": "uint256[]",
          "name": "",
          "type": "uint256[]"
        }
      ],
      "stateMutability": "view",
      "type": "function"
    },
    {
      "inputs": [
        {
          "internalType": "uint256[]",
          "name": "_tokenIds",
          "type": "uint256[]"
        },
        {
          "internalType": "uint256[]",
          "name": "_amounts",
          "type": "uint256[]"
        },
        {
          "internalType": "address",
          "name": "_sender",
          "type": "address"
        },
        {
          "internalType": "bytes",
          "name": "_signature",
          "type": "bytes"
        }
      ],
      "name": "checkVerification",
      "outputs": [
        {
          "internalType": "bool",
          "name": "",
          "type": "bool"
        }
      ],
      "stateMutability": "view",
      "type": "function"
    },
    {
      "inputs": [
        {
          "internalType": "uint256",
          "name": "_tokenId",
          "type": "uint256"
        }
      ],
      "name": "getBadgeInfo",
      "outputs": [
        {
          "internalType": "string",
          "name": "_name",
          "type": "string"
        },
        {
          "internalType": "bool",
          "name": "_isSoulBound",
          "type": "bool"
        }
      ],
      "stateMutability": "view",
      "type": "function"
    },
    {
      "inputs": [
        {
          "internalType": "bytes32",
          "name": "role",
          "type": "bytes32"
        }
      ],
      "name": "getRoleAdmin",
      "outputs": [
        {
          "internalType": "bytes32",
          "name": "",
          "type": "bytes32"
        }
      ],
      "stateMutability": "view",
      "type": "function"
    },
    {
      "inputs": [
        {
          "internalType": "bytes32",
          "name": "role",
          "type": "bytes32"
        },
        {
          "internalType": "address",
          "name": "account",
          "type": "address"
        }
      ],
      "name": "grantRole",
      "outputs": [],
      "stateMutability": "nonpayable",
      "type": "function"
    },
    {
      "inputs": [
        {
          "internalType": "bytes32",
          "name": "role",
          "type": "bytes32"
        },
        {
          "internalType": "address",
          "name": "account",
          "type": "address"
        }
      ],
      "name": "hasRole",
      "outputs": [
        {
          "internalType": "bool",
          "name": "",
          "type": "bool"
        }
      ],
      "stateMutability": "view",
      "type": "function"
    },
    {
      "inputs": [
        {
          "internalType": "string",
          "name": "_metadataUri",
          "type": "string"
        }
      ],
      "name": "initialize",
      "outputs": [],
      "stateMutability": "nonpayable",
      "type": "function"
    },
    {
      "inputs": [
        {
          "internalType": "address",
          "name": "account",
          "type": "address"
        },
        {
          "internalType": "address",
          "name": "operator",
          "type": "address"
        }
      ],
      "name": "isApprovedForAll",
      "outputs": [
        {
          "internalType": "bool",
          "name": "",
          "type": "bool"
        }
      ],
      "stateMutability": "view",
      "type": "function"
    },
    {
      "inputs": [
        {
          "internalType": "uint256",
          "name": "_tokenId",
          "type": "uint256"
        }
      ],
      "name": "isSoulBound",
      "outputs": [
        {
          "internalType": "bool",
          "name": "",
          "type": "bool"
        }
      ],
      "stateMutability": "view",
      "type": "function"
    },
    {
      "inputs": [
        {
          "internalType": "address",
          "name": "signer",
          "type": "address"
        }
      ],
      "name": "isTrustedSigner",
      "outputs": [
        {
          "internalType": "bool",
          "name": "",
          "type": "bool"
        }
      ],
      "stateMutability": "view",
      "type": "function"
    },
    {
      "inputs": [
        {
          "internalType": "address",
          "name": "_account",
          "type": "address"
        },
        {
          "internalType": "uint256",
          "name": "_id",
          "type": "uint256"
        },
        {
          "internalType": "uint256",
          "name": "_amount",
          "type": "uint256"
        }
      ],
      "name": "mint",
      "outputs": [],
      "stateMutability": "nonpayable",
      "type": "function"
    },
    {
      "inputs": [
        {
          "internalType": "address",
          "name": "to",
          "type": "address"
        },
        {
          "internalType": "uint256[]",
          "name": "_ids",
          "type": "uint256[]"
        },
        {
          "internalType": "uint256[]",
          "name": "_amounts",
          "type": "uint256[]"
        }
      ],
      "name": "mintBatch",
      "outputs": [],
      "stateMutability": "nonpayable",
      "type": "function"
    },
    {
      "inputs": [
        {
          "internalType": "address[]",
          "name": "_to",
          "type": "address[]"
        },
        {
          "internalType": "uint256[][]",
          "name": "_tokenIds",
          "type": "uint256[][]"
        },
        {
          "internalType": "uint256[][]",
          "name": "_amounts",
          "type": "uint256[][]"
        }
      ],
      "name": "mintBatchMultiple",
      "outputs": [],
      "stateMutability": "nonpayable",
      "type": "function"
    },
    {
      "inputs": [],
      "name": "owner",
      "outputs": [
        {
          "internalType": "address",
          "name": "",
          "type": "address"
        }
      ],
      "stateMutability": "view",
      "type": "function"
    },
    {
      "inputs": [],
      "name": "pause",
      "outputs": [],
      "stateMutability": "nonpayable",
      "type": "function"
    },
    {
      "inputs": [],
      "name": "paused",
      "outputs": [
        {
          "internalType": "bool",
          "name": "",
          "type": "bool"
        }
      ],
      "stateMutability": "view",
      "type": "function"
    },
    {
      "inputs": [],
      "name": "renounceOwnership",
      "outputs": [],
      "stateMutability": "nonpayable",
      "type": "function"
    },
    {
      "inputs": [
        {
          "internalType": "bytes32",
          "name": "role",
          "type": "bytes32"
        },
        {
          "internalType": "address",
          "name": "account",
          "type": "address"
        }
      ],
      "name": "renounceRole",
      "outputs": [],
      "stateMutability": "nonpayable",
      "type": "function"
    },
    {
      "inputs": [
        {
          "internalType": "bytes32",
          "name": "role",
          "type": "bytes32"
        },
        {
          "internalType": "address",
          "name": "account",
          "type": "address"
        }
      ],
      "name": "revokeRole",
      "outputs": [],
      "stateMutability": "nonpayable",
      "type": "function"
    },
    {
      "inputs": [
        {
          "internalType": "address",
          "name": "from",
          "type": "address"
        },
        {
          "internalType": "address",
          "name": "to",
          "type": "address"
        },
        {
          "internalType": "uint256[]",
          "name": "ids",
          "type": "uint256[]"
        },
        {
          "internalType": "uint256[]",
          "name": "amounts",
          "type": "uint256[]"
        },
        {
          "internalType": "bytes",
          "name": "data",
          "type": "bytes"
        }
      ],
      "name": "safeBatchTransferFrom",
      "outputs": [],
      "stateMutability": "nonpayable",
      "type": "function"
    },
    {
      "inputs": [
        {
          "internalType": "address",
          "name": "from",
          "type": "address"
        },
        {
          "internalType": "address",
          "name": "to",
          "type": "address"
        },
        {
          "internalType": "uint256",
          "name": "id",
          "type": "uint256"
        },
        {
          "internalType": "uint256",
          "name": "amount",
          "type": "uint256"
        },
        {
          "internalType": "bytes",
          "name": "data",
          "type": "bytes"
        }
      ],
      "name": "safeTransferFrom",
      "outputs": [],
      "stateMutability": "nonpayable",
      "type": "function"
    },
    {
      "inputs": [
        {
          "internalType": "address",
          "name": "",
          "type": "address"
        }
      ],
      "name": "seedNonce",
      "outputs": [
        {
          "internalType": "uint256",
          "name": "",
          "type": "uint256"
        }
      ],
      "stateMutability": "view",
      "type": "function"
    },
    {
      "inputs": [
        {
          "internalType": "address",
          "name": "operator",
          "type": "address"
        },
        {
          "internalType": "bool",
          "name": "approved",
          "type": "bool"
        }
      ],
      "name": "setApprovalForAll",
      "outputs": [],
      "stateMutability": "nonpayable",
      "type": "function"
    },
    {
      "inputs": [
        {
          "internalType": "string",
          "name": "_uri",
          "type": "string"
        }
      ],
      "name": "setBaseUri",
      "outputs": [],
      "stateMutability": "nonpayable",
      "type": "function"
    },
    {
      "inputs": [
        {
          "internalType": "address",
          "name": "verifier_",
          "type": "address"
        }
      ],
      "name": "setVerifier",
      "outputs": [],
      "stateMutability": "nonpayable",
      "type": "function"
    },
    {
      "inputs": [
        {
          "internalType": "bytes4",
          "name": "interfaceId",
          "type": "bytes4"
        }
      ],
      "name": "supportsInterface",
      "outputs": [
        {
          "internalType": "bool",
          "name": "",
          "type": "bool"
        }
      ],
      "stateMutability": "view",
      "type": "function"
    },
    {
      "inputs": [
        {
          "internalType": "address",
          "name": "newOwner",
          "type": "address"
        }
      ],
      "name": "transferOwnership",
      "outputs": [],
      "stateMutability": "nonpayable",
      "type": "function"
    },
    {
      "inputs": [],
      "name": "unpause",
      "outputs": [],
      "stateMutability": "nonpayable",
      "type": "function"
    },
    {
      "inputs": [
        {
          "internalType": "uint256",
          "name": "tokenId",
          "type": "uint256"
        }
      ],
      "name": "uri",
      "outputs": [
        {
          "internalType": "string",
          "name": "",
          "type": "string"
        }
      ],
      "stateMutability": "view",
      "type": "function"
    },
    {
      "inputs": [],
      "name": "verifier",
      "outputs": [
        {
          "internalType": "address",
          "name": "",
          "type": "address"
        }
      ],
      "stateMutability": "view",
      "type": "function"
    },
    {
      "inputs": [
        {
          "internalType": "uint256[]",
          "name": "_tokenIds",
          "type": "uint256[]"
        },
        {
          "internalType": "uint256[]",
          "name": "_amounts",
          "type": "uint256[]"
        },
        {
          "internalType": "address",
          "name": "_sender",
          "type": "address"
        },
        {
          "internalType": "bytes",
          "name": "_signature",
          "type": "bytes"
        }
      ],
      "name": "verifyAndMint",
      "outputs": [],
      "stateMutability": "nonpayable",
      "type": "function"
    }
  ],
  "transactionHash": "0x65b0a2de92f6a3bf85693cf3e22ac4515b6a2ebd6bfda5654aa4014f3d468a9c",
  "args": [],
  "numDeployments": 1,
  "solcInputHash": "68e89776f039ff01195e0154ad9d0d82",
  "bytecode": "0x608060405234801561001057600080fd5b50614bb1806100206000396000f3fe608060405234801561001057600080fd5b50600436106102915760003560e01c80638456cb5911610160578063d3d92127116100d8578063e2045b5e1161008c578063f242432a11610071578063f242432a14610655578063f2fde38b14610668578063f62d18881461067b57600080fd5b8063e2045b5e146105f9578063e985e9c51461060c57600080fd5b8063d5391393116100bd578063d5391393146105ac578063d547741f146105d3578063d81d0a15146105e657600080fd5b8063d3d9212714610555578063d508a2121461058557600080fd5b8063a0bcfc7f1161012f578063a22cb46511610114578063a22cb4651461050e578063b60a179914610521578063c7e583b11461053457600080fd5b8063a0bcfc7f146104f3578063a217fddf1461050657600080fd5b80638456cb591461047f5780638ca4f379146104875780638da5cb5b1461048f57806391d14854146104ad57600080fd5b806336568abe1161020e5780635c975abb116101c2578063715018a6116101a7578063715018a614610443578063784923c51461044b57806381e396911461046c57600080fd5b80635c975abb14610425578063695828511461043057600080fd5b80633f4ba83a116101f35780633f4ba83a146103ea5780634e1273f4146103f25780635437988d1461041257600080fd5b806336568abe146103c45780633b616ef5146103d757600080fd5b8063156e29f6116102655780632b7ac3f31161024a5780632b7ac3f31461035e5780632eb2c2d61461039e5780632f2ff15d146103b157600080fd5b8063156e29f614610326578063248a9ca31461033b57600080fd5b8062fdd58e1461029657806301ffc9a7146102bc5780630e89341c146102df57806311d15e7a146102ff575b600080fd5b6102a96102a4366004613ce5565b61068e565b6040519081526020015b60405180910390f35b6102cf6102ca366004613d3d565b610770565b60405190151581526020016102b3565b6102f26102ed366004613d5a565b61077b565b6040516102b39190613de1565b6102a97f11c2020b6b4f4e00c2410234e0c72636b4739cf7cda4d8e24ef6b881350e670481565b610339610334366004613df4565b6107bc565b005b6102a9610349366004613d5a565b600090815260fb602052604090206001015490565b61012f5473ffffffffffffffffffffffffffffffffffffffff165b60405173ffffffffffffffffffffffffffffffffffffffff90911681526020016102b3565b6103396103ac366004613fc8565b6108be565b6103396103bf366004614072565b610987565b6103396103d2366004614072565b6109b1565b6103396103e536600461409e565b610a64565b610339610c66565b6104056104003660046141a4565b610cc3565b6040516102b39190614243565b610339610420366004614256565b610e1b565b60975460ff166102cf565b6102cf61043e36600461409e565b610eae565b610339610f9a565b6102a9610459366004614256565b61012e6020526000908152604090205481565b61033961047a366004614281565b610fac565b6103396110a7565b610339611102565b60c95473ffffffffffffffffffffffffffffffffffffffff16610379565b6102cf6104bb366004614072565b600091825260fb6020908152604080842073ffffffffffffffffffffffffffffffffffffffff93909316845291905290205460ff1690565b6103396105013660046142d8565b6112f3565b6102a9600081565b61033961051c366004614315565b611347565b61033961052f3660046143ca565b611352565b610547610542366004613d5a565b611438565b6040516102b3929190614452565b6102cf610563366004614256565b61012f5473ffffffffffffffffffffffffffffffffffffffff90811691161490565b6102cf610593366004613d5a565b600090815261012d602052604090206001015460ff1690565b6102a97f9f2df0fed2c77648de5860a4cc508cd0818c85b8b8a1ab4ceeef8d981c8956a681565b6103396105e1366004614072565b6114e0565b6103396105f4366004614476565b611505565b610547610607366004613d5a565b6115e7565b6102cf61061a3660046144e0565b73ffffffffffffffffffffffffffffffffffffffff918216600090815260666020908152604080832093909416825291909152205460ff1690565b61033961066336600461450a565b61169b565b610339610676366004614256565b61175d565b6103396106893660046142d8565b611811565b600073ffffffffffffffffffffffffffffffffffffffff8316610738576040517f08c379a000000000000000000000000000000000000000000000000000000000815260206004820152602a60248201527f455243313135353a2061646472657373207a65726f206973206e6f742061207660448201527f616c6964206f776e65720000000000000000000000000000000000000000000060648201526084015b60405180910390fd5b50600081815260656020908152604080832073ffffffffffffffffffffffffffffffffffffffff861684529091529020545b92915050565b600061076a826119d4565b6060600061078883611a2a565b90508061079484611abe565b6040516020016107a592919061456f565b604051602081830303815290604052915050919050565b6107e67f11c2020b6b4f4e00c2410234e0c72636b4739cf7cda4d8e24ef6b881350e6704336104bb565b610826576040517f08c379a0000000000000000000000000000000000000000000000000000000008152602060048201526000602482015260440161072f565b61082e611b7c565b61084983838360405180602001604052806000815250611be9565b818373ffffffffffffffffffffffffffffffffffffffff167f4f995628a8ddfde89d61824d7a851752e06071e6f24b95f33c750afb8084e598836108a086600090815261012d602052604090206001015460ff1690565b604080519283529015156020830152015b60405180910390a3505050565b73ffffffffffffffffffffffffffffffffffffffff85163314806108e757506108e7853361061a565b610973576040517f08c379a000000000000000000000000000000000000000000000000000000000815260206004820152602e60248201527f455243313135353a2063616c6c6572206973206e6f7420746f6b656e206f776e60448201527f6572206f7220617070726f766564000000000000000000000000000000000000606482015260840161072f565b6109808585858585611d6b565b5050505050565b600082815260fb60205260409020600101546109a2816120b6565b6109ac83836120c0565b505050565b73ffffffffffffffffffffffffffffffffffffffff81163314610a56576040517f08c379a000000000000000000000000000000000000000000000000000000000815260206004820152602f60248201527f416363657373436f6e74726f6c3a2063616e206f6e6c792072656e6f756e636560448201527f20726f6c657320666f722073656c660000000000000000000000000000000000606482015260840161072f565b610a6082826121b4565b5050565b610a6c611b7c565b610a7884848484610eae565b610b04576040517f08c379a000000000000000000000000000000000000000000000000000000000815260206004820152602160248201527f4344484261646765733a205369676e6572206e6f7420617574686f72697a656460448201527f2e00000000000000000000000000000000000000000000000000000000000000606482015260840161072f565b73ffffffffffffffffffffffffffffffffffffffff8216600090815261012e60205260408120805491610b36836145f5565b9190505550600184511115610ba557610b50828585611505565b8173ffffffffffffffffffffffffffffffffffffffff167f0c1383b0d0e7776a82b02558457df6070b16c263267b934dc6f5f0c62e07db378585604051610b9892919061462d565b60405180910390a2610c60565b600084600081518110610bba57610bba61465b565b60200260200101519050600084600081518110610bd957610bd961465b565b60200260200101519050610bee8483836107bc565b818473ffffffffffffffffffffffffffffffffffffffff167f4f995628a8ddfde89d61824d7a851752e06071e6f24b95f33c750afb8084e59883610c4586600090815261012d602052604090206001015460ff1690565b6040805192835290151560208301520160405180910390a350505b50505050565b610c716000336104bb565b610cb1576040517f08c379a0000000000000000000000000000000000000000000000000000000008152602060048201526000602482015260440161072f565b610cb961226f565b610cc16122db565b565b60608151835114610d56576040517f08c379a000000000000000000000000000000000000000000000000000000000815260206004820152602960248201527f455243313135353a206163636f756e747320616e6420696473206c656e67746860448201527f206d69736d617463680000000000000000000000000000000000000000000000606482015260840161072f565b6000835167ffffffffffffffff811115610d7257610d72613e27565b604051908082528060200260200182016040528015610d9b578160200160208202803683370190505b50905060005b8451811015610e1357610de6858281518110610dbf57610dbf61465b565b6020026020010151858381518110610dd957610dd961465b565b602002602001015161068e565b828281518110610df857610df861465b565b6020908102919091010152610e0c816145f5565b9050610da1565b509392505050565b610e266000336104bb565b610e66576040517f08c379a0000000000000000000000000000000000000000000000000000000008152602060048201526000602482015260440161072f565b61012f80547fffffffffffffffffffffffff00000000000000000000000000000000000000001673ffffffffffffffffffffffffffffffffffffffff92909216919091179055565b73ffffffffffffffffffffffffffffffffffffffff8216600090815261012e6020908152604080832054905190918391610ef09187918a918a918791016146af565b6040516020818303038152906040528051906020012090506000610f6b85610f65846040517f19457468657265756d205369676e6564204d6573736167653a0a3332000000006020820152603c8101829052600090605c01604051602081830303815290604052805190602001209050919050565b90612358565b61012f5490915073ffffffffffffffffffffffffffffffffffffffff8083169116145b98975050505050505050565b610fa2612374565b610cc160006123f5565b610fb76000336104bb565b610ff7576040517f08c379a0000000000000000000000000000000000000000000000000000000008152602060048201526000602482015260440161072f565b604080518082018252838152821515602080830191909152600086815261012d909152919091208151819061102c9082614797565b5060209190910151600190910180547fffffffffffffffffffffffffffffffffffffffffffffffffffffffffffffff00169115159190911790556040517f88a3128d30feeedd50adf764a225ac453841565dc266a591756f2a9fd447f3249061109a908590859085906148b1565b60405180910390a1505050565b6110b26000336104bb565b6110f2576040517f08c379a0000000000000000000000000000000000000000000000000000000008152602060048201526000602482015260440161072f565b6110fa611b7c565b610cc161246c565b600054610100900460ff16158080156111225750600054600160ff909116105b8061113c5750303b15801561113c575060005460ff166001145b6111c8576040517f08c379a000000000000000000000000000000000000000000000000000000000815260206004820152602e60248201527f496e697469616c697a61626c653a20636f6e747261637420697320616c72656160448201527f647920696e697469616c697a6564000000000000000000000000000000000000606482015260840161072f565b600080547fffffffffffffffffffffffffffffffffffffffffffffffffffffffffffffff00166001179055801561122657600080547fffffffffffffffffffffffffffffffffffffffffffffffffffffffffffff00ff166101001790555b61122e6124c7565b61123960003361255e565b6112637f11c2020b6b4f4e00c2410234e0c72636b4739cf7cda4d8e24ef6b881350e67043361255e565b61128d7f9f2df0fed2c77648de5860a4cc508cd0818c85b8b8a1ab4ceeef8d981c8956a63361255e565b80156112f057600080547fffffffffffffffffffffffffffffffffffffffffffffffffffffffffffff00ff169055604051600181527f7f26b83ff96e1f2b6a682f133852f6798a09c465da95921460cefb38474024989060200160405180910390a15b50565b6112fe6000336104bb565b61133e576040517f08c379a0000000000000000000000000000000000000000000000000000000008152602060048201526000602482015260440161072f565b6112f081612568565b610a60338383612574565b61137c7f11c2020b6b4f4e00c2410234e0c72636b4739cf7cda4d8e24ef6b881350e6704336104bb565b6113bc576040517f08c379a0000000000000000000000000000000000000000000000000000000008152602060048201526000602482015260440161072f565b6113c4611b7c565b60005b8351811015610c60576114268482815181106113e5576113e561465b565b60200260200101518483815181106113ff576113ff61465b565b60200260200101518484815181106114195761141961465b565b6020026020010151611505565b80611430816145f5565b9150506113c7565b61012d60205260009081526040902080548190611454906146fe565b80601f0160208091040260200160405190810160405280929190818152602001828054611480906146fe565b80156114cd5780601f106114a2576101008083540402835291602001916114cd565b820191906000526020600020905b8154815290600101906020018083116114b057829003601f168201915b5050506001909301549192505060ff1682565b600082815260fb60205260409020600101546114fb816120b6565b6109ac83836121b4565b61152f7f11c2020b6b4f4e00c2410234e0c72636b4739cf7cda4d8e24ef6b881350e6704336104bb565b61156f576040517f08c379a0000000000000000000000000000000000000000000000000000000008152602060048201526000602482015260440161072f565b611577611b7c565b611592838383604051806020016040528060008152506126bf565b8273ffffffffffffffffffffffffffffffffffffffff167f0c1383b0d0e7776a82b02558457df6070b16c263267b934dc6f5f0c62e07db3783836040516115da92919061462d565b60405180910390a2505050565b600081815261012d6020526040812060018101548154606093929160ff16908290611611906146fe565b80601f016020809104026020016040519081016040528092919081815260200182805461163d906146fe565b801561168a5780601f1061165f5761010080835404028352916020019161168a565b820191906000526020600020905b81548152906001019060200180831161166d57829003601f168201915b509399949850939650505050505050565b73ffffffffffffffffffffffffffffffffffffffff85163314806116c457506116c4853361061a565b611750576040517f08c379a000000000000000000000000000000000000000000000000000000000815260206004820152602e60248201527f455243313135353a2063616c6c6572206973206e6f7420746f6b656e206f776e60448201527f6572206f7220617070726f766564000000000000000000000000000000000000606482015260840161072f565b6109808585858585612948565b611765612374565b73ffffffffffffffffffffffffffffffffffffffff8116611808576040517f08c379a000000000000000000000000000000000000000000000000000000000815260206004820152602660248201527f4f776e61626c653a206e6577206f776e657220697320746865207a65726f206160448201527f6464726573730000000000000000000000000000000000000000000000000000606482015260840161072f565b6112f0816123f5565b600054610100900460ff16158080156118315750600054600160ff909116105b8061184b5750303b15801561184b575060005460ff166001145b6118d7576040517f08c379a000000000000000000000000000000000000000000000000000000000815260206004820152602e60248201527f496e697469616c697a61626c653a20636f6e747261637420697320616c72656160448201527f647920696e697469616c697a6564000000000000000000000000000000000000606482015260840161072f565b600080547fffffffffffffffffffffffffffffffffffffffffffffffffffffffffffffff00166001179055801561193557600080547fffffffffffffffffffffffffffffffffffffffffffffffffffffffffffff00ff166101001790555b61194d60405180602001604052806000815250612b98565b611955612c38565b61195d612cd7565b61196682612568565b61196e611102565b8015610a6057600080547fffffffffffffffffffffffffffffffffffffffffffffffffffffffffffff00ff169055604051600181527f7f26b83ff96e1f2b6a682f133852f6798a09c465da95921460cefb38474024989060200160405180910390a15050565b60007fffffffff0000000000000000000000000000000000000000000000000000000082167f7965db0b00000000000000000000000000000000000000000000000000000000148061076a575061076a82612d76565b606060678054611a39906146fe565b80601f0160208091040260200160405190810160405280929190818152602001828054611a65906146fe565b8015611ab25780601f10611a8757610100808354040283529160200191611ab2565b820191906000526020600020905b815481529060010190602001808311611a9557829003601f168201915b50505050509050919050565b60606000611acb83612e59565b600101905060008167ffffffffffffffff811115611aeb57611aeb613e27565b6040519080825280601f01601f191660200182016040528015611b15576020820181803683370190505b5090508181016020015b7fffffffffffffffffffffffffffffffffffffffffffffffffffffffffffffffff017f3031323334353637383961626364656600000000000000000000000000000000600a86061a8153600a8504945084611b1f57509392505050565b60975460ff1615610cc1576040517f08c379a000000000000000000000000000000000000000000000000000000000815260206004820152601060248201527f5061757361626c653a2070617573656400000000000000000000000000000000604482015260640161072f565b73ffffffffffffffffffffffffffffffffffffffff8416611c8c576040517f08c379a000000000000000000000000000000000000000000000000000000000815260206004820152602160248201527f455243313135353a206d696e7420746f20746865207a65726f2061646472657360448201527f7300000000000000000000000000000000000000000000000000000000000000606482015260840161072f565b336000611c9885612f3b565b90506000611ca585612f3b565b9050611cb683600089858589612f86565b600086815260656020908152604080832073ffffffffffffffffffffffffffffffffffffffff8b16845290915281208054879290611cf59084906148dc565b9091555050604080518781526020810187905273ffffffffffffffffffffffffffffffffffffffff808a1692600092918716917fc3d58168c5ae7397731d063d5bbf3d657854427343f4c083240f7aacaa2d0f62910160405180910390a4611d6283600089898989613083565b50505050505050565b8151835114611dfc576040517f08c379a000000000000000000000000000000000000000000000000000000000815260206004820152602860248201527f455243313135353a2069647320616e6420616d6f756e7473206c656e6774682060448201527f6d69736d61746368000000000000000000000000000000000000000000000000606482015260840161072f565b73ffffffffffffffffffffffffffffffffffffffff8416611e9f576040517f08c379a000000000000000000000000000000000000000000000000000000000815260206004820152602560248201527f455243313135353a207472616e7366657220746f20746865207a65726f20616460448201527f6472657373000000000000000000000000000000000000000000000000000000606482015260840161072f565b33611eae818787878787612f86565b60005b8451811015612021576000858281518110611ece57611ece61465b565b602002602001015190506000858381518110611eec57611eec61465b565b602090810291909101810151600084815260658352604080822073ffffffffffffffffffffffffffffffffffffffff8e168352909352919091205490915081811015611fba576040517f08c379a000000000000000000000000000000000000000000000000000000000815260206004820152602a60248201527f455243313135353a20696e73756666696369656e742062616c616e636520666f60448201527f72207472616e7366657200000000000000000000000000000000000000000000606482015260840161072f565b600083815260656020908152604080832073ffffffffffffffffffffffffffffffffffffffff8e8116855292528083208585039055908b168252812080548492906120069084906148dc565b925050819055505050508061201a906145f5565b9050611eb1565b508473ffffffffffffffffffffffffffffffffffffffff168673ffffffffffffffffffffffffffffffffffffffff168273ffffffffffffffffffffffffffffffffffffffff167f4a39dc06d4c0dbc64b70af90fd698a233a518aa5d07e595d983b8c0526c8f7fb878760405161209892919061462d565b60405180910390a46120ae81878787878761330d565b505050505050565b6112f081336134ba565b600082815260fb6020908152604080832073ffffffffffffffffffffffffffffffffffffffff8516845290915290205460ff16610a6057600082815260fb6020908152604080832073ffffffffffffffffffffffffffffffffffffffff85168452909152902080547fffffffffffffffffffffffffffffffffffffffffffffffffffffffffffffff001660011790556121563390565b73ffffffffffffffffffffffffffffffffffffffff168173ffffffffffffffffffffffffffffffffffffffff16837f2f8788117e7eff1d82e926ec794901d17c78024a50270940304540a733656f0d60405160405180910390a45050565b600082815260fb6020908152604080832073ffffffffffffffffffffffffffffffffffffffff8516845290915290205460ff1615610a6057600082815260fb6020908152604080832073ffffffffffffffffffffffffffffffffffffffff8516808552925280832080547fffffffffffffffffffffffffffffffffffffffffffffffffffffffffffffff0016905551339285917ff6391f5c32d9c69d2a47ea670b442974b53935d1edc7fd64eb21e047a839171b9190a45050565b60975460ff16610cc1576040517f08c379a000000000000000000000000000000000000000000000000000000000815260206004820152601460248201527f5061757361626c653a206e6f7420706175736564000000000000000000000000604482015260640161072f565b6122e361226f565b609780547fffffffffffffffffffffffffffffffffffffffffffffffffffffffffffffff001690557f5db9ee0a495bf2e6ff9c91a7834c1ba4fdd244a5e8aa4e537bd38aeae4b073aa335b60405173ffffffffffffffffffffffffffffffffffffffff909116815260200160405180910390a1565b60008060006123678585613574565b91509150610e13816135b9565b60c95473ffffffffffffffffffffffffffffffffffffffff163314610cc1576040517f08c379a000000000000000000000000000000000000000000000000000000000815260206004820181905260248201527f4f776e61626c653a2063616c6c6572206973206e6f7420746865206f776e6572604482015260640161072f565b60c9805473ffffffffffffffffffffffffffffffffffffffff8381167fffffffffffffffffffffffff0000000000000000000000000000000000000000831681179093556040519116919082907f8be0079c531659141344cd1fd0a4f28419497f9722a3daafe3b4186f6b6457e090600090a35050565b612474611b7c565b609780547fffffffffffffffffffffffffffffffffffffffffffffffffffffffffffffff001660011790557f62e78cea01bee320cd4e420270b5ea74000d11b0c9f74754ebdbfc544b05a25861232e3390565b600054610100900460ff16610cc1576040517f08c379a000000000000000000000000000000000000000000000000000000000815260206004820152602b60248201527f496e697469616c697a61626c653a20636f6e7472616374206973206e6f74206960448201527f6e697469616c697a696e67000000000000000000000000000000000000000000606482015260840161072f565b610a6082826120c0565b6067610a608282614797565b8173ffffffffffffffffffffffffffffffffffffffff168373ffffffffffffffffffffffffffffffffffffffff160361262f576040517f08c379a000000000000000000000000000000000000000000000000000000000815260206004820152602960248201527f455243313135353a2073657474696e6720617070726f76616c2073746174757360448201527f20666f722073656c660000000000000000000000000000000000000000000000606482015260840161072f565b73ffffffffffffffffffffffffffffffffffffffff83811660008181526066602090815260408083209487168084529482529182902080547fffffffffffffffffffffffffffffffffffffffffffffffffffffffffffffff001686151590811790915591519182527f17307eab39ab6107e8899845ad3d59bd9653f200f220920489ca2b5937696c3191016108b1565b73ffffffffffffffffffffffffffffffffffffffff8416612762576040517f08c379a000000000000000000000000000000000000000000000000000000000815260206004820152602160248201527f455243313135353a206d696e7420746f20746865207a65726f2061646472657360448201527f7300000000000000000000000000000000000000000000000000000000000000606482015260840161072f565b81518351146127f3576040517f08c379a000000000000000000000000000000000000000000000000000000000815260206004820152602860248201527f455243313135353a2069647320616e6420616d6f756e7473206c656e6774682060448201527f6d69736d61746368000000000000000000000000000000000000000000000000606482015260840161072f565b3361280381600087878787612f86565b60005b84518110156128b9578381815181106128215761282161465b565b60200260200101516065600087848151811061283f5761283f61465b565b6020026020010151815260200190815260200160002060008873ffffffffffffffffffffffffffffffffffffffff1673ffffffffffffffffffffffffffffffffffffffff16815260200190815260200160002060008282546128a191906148dc565b909155508190506128b1816145f5565b915050612806565b508473ffffffffffffffffffffffffffffffffffffffff16600073ffffffffffffffffffffffffffffffffffffffff168273ffffffffffffffffffffffffffffffffffffffff167f4a39dc06d4c0dbc64b70af90fd698a233a518aa5d07e595d983b8c0526c8f7fb878760405161293192919061462d565b60405180910390a46109808160008787878761330d565b73ffffffffffffffffffffffffffffffffffffffff84166129eb576040517f08c379a000000000000000000000000000000000000000000000000000000000815260206004820152602560248201527f455243313135353a207472616e7366657220746f20746865207a65726f20616460448201527f6472657373000000000000000000000000000000000000000000000000000000606482015260840161072f565b3360006129f785612f3b565b90506000612a0485612f3b565b9050612a14838989858589612f86565b600086815260656020908152604080832073ffffffffffffffffffffffffffffffffffffffff8c16845290915290205485811015612ad4576040517f08c379a000000000000000000000000000000000000000000000000000000000815260206004820152602a60248201527f455243313135353a20696e73756666696369656e742062616c616e636520666f60448201527f72207472616e7366657200000000000000000000000000000000000000000000606482015260840161072f565b600087815260656020908152604080832073ffffffffffffffffffffffffffffffffffffffff8d8116855292528083208985039055908a16825281208054889290612b209084906148dc565b9091555050604080518881526020810188905273ffffffffffffffffffffffffffffffffffffffff808b16928c821692918816917fc3d58168c5ae7397731d063d5bbf3d657854427343f4c083240f7aacaa2d0f62910160405180910390a4612b8d848a8a8a8a8a613083565b505050505050505050565b600054610100900460ff16612c2f576040517f08c379a000000000000000000000000000000000000000000000000000000000815260206004820152602b60248201527f496e697469616c697a61626c653a20636f6e7472616374206973206e6f74206960448201527f6e697469616c697a696e67000000000000000000000000000000000000000000606482015260840161072f565b6112f08161376c565b600054610100900460ff16612ccf576040517f08c379a000000000000000000000000000000000000000000000000000000000815260206004820152602b60248201527f496e697469616c697a61626c653a20636f6e7472616374206973206e6f74206960448201527f6e697469616c697a696e67000000000000000000000000000000000000000000606482015260840161072f565b610cc1613803565b600054610100900460ff16612d6e576040517f08c379a000000000000000000000000000000000000000000000000000000000815260206004820152602b60248201527f496e697469616c697a61626c653a20636f6e7472616374206973206e6f74206960448201527f6e697469616c697a696e67000000000000000000000000000000000000000000606482015260840161072f565b610cc16138c4565b60007fffffffff0000000000000000000000000000000000000000000000000000000082167fd9b67a26000000000000000000000000000000000000000000000000000000001480612e0957507fffffffff0000000000000000000000000000000000000000000000000000000082167f0e89341c00000000000000000000000000000000000000000000000000000000145b8061076a57507f01ffc9a7000000000000000000000000000000000000000000000000000000007fffffffff0000000000000000000000000000000000000000000000000000000083161461076a565b6000807a184f03e93ff9f4daa797ed6e38ed64bf6a1f0100000000000000008310612ea2577a184f03e93ff9f4daa797ed6e38ed64bf6a1f010000000000000000830492506040015b6d04ee2d6d415b85acef81000000008310612ece576d04ee2d6d415b85acef8100000000830492506020015b662386f26fc100008310612eec57662386f26fc10000830492506010015b6305f5e1008310612f04576305f5e100830492506008015b6127108310612f1857612710830492506004015b60648310612f2a576064830492506002015b600a831061076a5760010192915050565b60408051600180825281830190925260609160009190602080830190803683370190505090508281600081518110612f7557612f7561465b565b602090810291909101015292915050565b60005b8351811015611d6257612fc8848281518110612fa757612fa761465b565b6020026020010151600090815261012d602052604090206001015460ff1690565b156130715773ffffffffffffffffffffffffffffffffffffffff861615613071576040517f08c379a000000000000000000000000000000000000000000000000000000000815260206004820152603060248201527f4344484261646765733a20536f756c20426f756e6420546f6b656e2063616e2760448201527f74206265207472616e7366657272656400000000000000000000000000000000606482015260840161072f565b8061307b816145f5565b915050612f89565b73ffffffffffffffffffffffffffffffffffffffff84163b156120ae576040517ff23a6e6100000000000000000000000000000000000000000000000000000000815273ffffffffffffffffffffffffffffffffffffffff85169063f23a6e61906130fa90899089908890889088906004016148ef565b6020604051808303816000875af1925050508015613153575060408051601f3d9081017fffffffffffffffffffffffffffffffffffffffffffffffffffffffffffffffe01682019092526131509181019061493f565b60015b61323c5761315f61495c565b806308c379a0036131b25750613173614978565b8061317e57506131b4565b806040517f08c379a000000000000000000000000000000000000000000000000000000000815260040161072f9190613de1565b505b6040517f08c379a000000000000000000000000000000000000000000000000000000000815260206004820152603460248201527f455243313135353a207472616e7366657220746f206e6f6e2d4552433131353560448201527f526563656976657220696d706c656d656e746572000000000000000000000000606482015260840161072f565b7fffffffff0000000000000000000000000000000000000000000000000000000081167ff23a6e610000000000000000000000000000000000000000000000000000000014611d62576040517f08c379a000000000000000000000000000000000000000000000000000000000815260206004820152602860248201527f455243313135353a204552433131353552656365697665722072656a6563746560448201527f6420746f6b656e73000000000000000000000000000000000000000000000000606482015260840161072f565b73ffffffffffffffffffffffffffffffffffffffff84163b156120ae576040517fbc197c8100000000000000000000000000000000000000000000000000000000815273ffffffffffffffffffffffffffffffffffffffff85169063bc197c81906133849089908990889088908890600401614a20565b6020604051808303816000875af19250505080156133dd575060408051601f3d9081017fffffffffffffffffffffffffffffffffffffffffffffffffffffffffffffffe01682019092526133da9181019061493f565b60015b6133e95761315f61495c565b7fffffffff0000000000000000000000000000000000000000000000000000000081167fbc197c810000000000000000000000000000000000000000000000000000000014611d62576040517f08c379a000000000000000000000000000000000000000000000000000000000815260206004820152602860248201527f455243313135353a204552433131353552656365697665722072656a6563746560448201527f6420746f6b656e73000000000000000000000000000000000000000000000000606482015260840161072f565b600082815260fb6020908152604080832073ffffffffffffffffffffffffffffffffffffffff8516845290915290205460ff16610a60576134fa81613964565b613505836020613983565b604051602001613516929190614a7f565b604080517fffffffffffffffffffffffffffffffffffffffffffffffffffffffffffffffe0818403018152908290527f08c379a000000000000000000000000000000000000000000000000000000000825261072f91600401613de1565b60008082516041036135aa5760208301516040840151606085015160001a61359e87828585613bcd565b945094505050506135b2565b506000905060025b9250929050565b60008160048111156135cd576135cd614b00565b036135d55750565b60018160048111156135e9576135e9614b00565b03613650576040517f08c379a000000000000000000000000000000000000000000000000000000000815260206004820152601860248201527f45434453413a20696e76616c6964207369676e61747572650000000000000000604482015260640161072f565b600281600481111561366457613664614b00565b036136cb576040517f08c379a000000000000000000000000000000000000000000000000000000000815260206004820152601f60248201527f45434453413a20696e76616c6964207369676e6174757265206c656e67746800604482015260640161072f565b60038160048111156136df576136df614b00565b036112f0576040517f08c379a000000000000000000000000000000000000000000000000000000000815260206004820152602260248201527f45434453413a20696e76616c6964207369676e6174757265202773272076616c60448201527f7565000000000000000000000000000000000000000000000000000000000000606482015260840161072f565b600054610100900460ff1661133e576040517f08c379a000000000000000000000000000000000000000000000000000000000815260206004820152602b60248201527f496e697469616c697a61626c653a20636f6e7472616374206973206e6f74206960448201527f6e697469616c697a696e67000000000000000000000000000000000000000000606482015260840161072f565b600054610100900460ff1661389a576040517f08c379a000000000000000000000000000000000000000000000000000000000815260206004820152602b60248201527f496e697469616c697a61626c653a20636f6e7472616374206973206e6f74206960448201527f6e697469616c697a696e67000000000000000000000000000000000000000000606482015260840161072f565b609780547fffffffffffffffffffffffffffffffffffffffffffffffffffffffffffffff00169055565b600054610100900460ff1661395b576040517f08c379a000000000000000000000000000000000000000000000000000000000815260206004820152602b60248201527f496e697469616c697a61626c653a20636f6e7472616374206973206e6f74206960448201527f6e697469616c697a696e67000000000000000000000000000000000000000000606482015260840161072f565b610cc1336123f5565b606061076a73ffffffffffffffffffffffffffffffffffffffff831660145b60606000613992836002614b2f565b61399d9060026148dc565b67ffffffffffffffff8111156139b5576139b5613e27565b6040519080825280601f01601f1916602001820160405280156139df576020820181803683370190505b5090507f300000000000000000000000000000000000000000000000000000000000000081600081518110613a1657613a1661465b565b60200101907effffffffffffffffffffffffffffffffffffffffffffffffffffffffffffff1916908160001a9053507f780000000000000000000000000000000000000000000000000000000000000081600181518110613a7957613a7961465b565b60200101907effffffffffffffffffffffffffffffffffffffffffffffffffffffffffffff1916908160001a9053506000613ab5846002614b2f565b613ac09060016148dc565b90505b6001811115613b5d577f303132333435363738396162636465660000000000000000000000000000000085600f1660108110613b0157613b0161465b565b1a60f81b828281518110613b1757613b1761465b565b60200101907effffffffffffffffffffffffffffffffffffffffffffffffffffffffffffff1916908160001a90535060049490941c93613b5681614b46565b9050613ac3565b508315613bc6576040517f08c379a000000000000000000000000000000000000000000000000000000000815260206004820181905260248201527f537472696e67733a20686578206c656e67746820696e73756666696369656e74604482015260640161072f565b9392505050565b6000807f7fffffffffffffffffffffffffffffff5d576e7357a4501ddfe92f46681b20a0831115613c045750600090506003613cb3565b6040805160008082526020820180845289905260ff881692820192909252606081018690526080810185905260019060a0016020604051602081039080840390855afa158015613c58573d6000803e3d6000fd5b50506040517fffffffffffffffffffffffffffffffffffffffffffffffffffffffffffffffe0015191505073ffffffffffffffffffffffffffffffffffffffff8116613cac57600060019250925050613cb3565b9150600090505b94509492505050565b803573ffffffffffffffffffffffffffffffffffffffff81168114613ce057600080fd5b919050565b60008060408385031215613cf857600080fd5b613d0183613cbc565b946020939093013593505050565b7fffffffff00000000000000000000000000000000000000000000000000000000811681146112f057600080fd5b600060208284031215613d4f57600080fd5b8135613bc681613d0f565b600060208284031215613d6c57600080fd5b5035919050565b60005b83811015613d8e578181015183820152602001613d76565b50506000910152565b60008151808452613daf816020860160208601613d73565b601f017fffffffffffffffffffffffffffffffffffffffffffffffffffffffffffffffe0169290920160200192915050565b602081526000613bc66020830184613d97565b600080600060608486031215613e0957600080fd5b613e1284613cbc565b95602085013595506040909401359392505050565b7f4e487b7100000000000000000000000000000000000000000000000000000000600052604160045260246000fd5b7fffffffffffffffffffffffffffffffffffffffffffffffffffffffffffffffe0601f830116810181811067ffffffffffffffff82111715613e9a57613e9a613e27565b6040525050565b600067ffffffffffffffff821115613ebb57613ebb613e27565b5060051b60200190565b600082601f830112613ed657600080fd5b81356020613ee382613ea1565b604051613ef08282613e56565b83815260059390931b8501820192828101915086841115613f1057600080fd5b8286015b84811015613f2b5780358352918301918301613f14565b509695505050505050565b600082601f830112613f4757600080fd5b813567ffffffffffffffff811115613f6157613f61613e27565b604051613f9660207fffffffffffffffffffffffffffffffffffffffffffffffffffffffffffffffe0601f8501160182613e56565b818152846020838601011115613fab57600080fd5b816020850160208301376000918101602001919091529392505050565b600080600080600060a08688031215613fe057600080fd5b613fe986613cbc565b9450613ff760208701613cbc565b9350604086013567ffffffffffffffff8082111561401457600080fd5b61402089838a01613ec5565b9450606088013591508082111561403657600080fd5b61404289838a01613ec5565b9350608088013591508082111561405857600080fd5b5061406588828901613f36565b9150509295509295909350565b6000806040838503121561408557600080fd5b8235915061409560208401613cbc565b90509250929050565b600080600080608085870312156140b457600080fd5b843567ffffffffffffffff808211156140cc57600080fd5b6140d888838901613ec5565b955060208701359150808211156140ee57600080fd5b6140fa88838901613ec5565b945061410860408801613cbc565b9350606087013591508082111561411e57600080fd5b5061412b87828801613f36565b91505092959194509250565b600082601f83011261414857600080fd5b8135602061415582613ea1565b6040516141628282613e56565b83815260059390931b850182019282810191508684111561418257600080fd5b8286015b84811015613f2b5761419781613cbc565b8352918301918301614186565b600080604083850312156141b757600080fd5b823567ffffffffffffffff808211156141cf57600080fd5b6141db86838701614137565b935060208501359150808211156141f157600080fd5b506141fe85828601613ec5565b9150509250929050565b600081518084526020808501945080840160005b838110156142385781518752958201959082019060010161421c565b509495945050505050565b602081526000613bc66020830184614208565b60006020828403121561426857600080fd5b613bc682613cbc565b80358015158114613ce057600080fd5b60008060006060848603121561429657600080fd5b83359250602084013567ffffffffffffffff8111156142b457600080fd5b6142c086828701613f36565b9250506142cf60408501614271565b90509250925092565b6000602082840312156142ea57600080fd5b813567ffffffffffffffff81111561430157600080fd5b61430d84828501613f36565b949350505050565b6000806040838503121561432857600080fd5b61433183613cbc565b915061409560208401614271565b600082601f83011261435057600080fd5b8135602061435d82613ea1565b60405161436a8282613e56565b83815260059390931b850182019282810191508684111561438a57600080fd5b8286015b84811015613f2b57803567ffffffffffffffff8111156143ae5760008081fd5b6143bc8986838b0101613ec5565b84525091830191830161438e565b6000806000606084860312156143df57600080fd5b833567ffffffffffffffff808211156143f757600080fd5b61440387838801614137565b9450602086013591508082111561441957600080fd5b6144258783880161433f565b9350604086013591508082111561443b57600080fd5b506144488682870161433f565b9150509250925092565b6040815260006144656040830185613d97565b905082151560208301529392505050565b60008060006060848603121561448b57600080fd5b61449484613cbc565b9250602084013567ffffffffffffffff808211156144b157600080fd5b6144bd87838801613ec5565b935060408601359150808211156144d357600080fd5b5061444886828701613ec5565b600080604083850312156144f357600080fd5b6144fc83613cbc565b915061409560208401613cbc565b600080600080600060a0868803121561452257600080fd5b61452b86613cbc565b945061453960208701613cbc565b93506040860135925060608601359150608086013567ffffffffffffffff81111561456357600080fd5b61406588828901613f36565b60008351614581818460208801613d73565b835190830190614595818360208801613d73565b7f2e6a736f6e0000000000000000000000000000000000000000000000000000009101908152600501949350505050565b7f4e487b7100000000000000000000000000000000000000000000000000000000600052601160045260246000fd5b60007fffffffffffffffffffffffffffffffffffffffffffffffffffffffffffffffff8203614626576146266145c6565b5060010190565b6040815260006146406040830185614208565b82810360208401526146528185614208565b95945050505050565b7f4e487b7100000000000000000000000000000000000000000000000000000000600052603260045260246000fd5b805160009060208084018383156142385781518752958201959082019060010161421c565b7fffffffffffffffffffffffffffffffffffffffff0000000000000000000000008560601b16815260006146ef6146e9601484018761468a565b8561468a565b92835250506020019392505050565b600181811c9082168061471257607f821691505b60208210810361474b577f4e487b7100000000000000000000000000000000000000000000000000000000600052602260045260246000fd5b50919050565b601f8211156109ac57600081815260208120601f850160051c810160208610156147785750805b601f850160051c820191505b818110156120ae57828155600101614784565b815167ffffffffffffffff8111156147b1576147b1613e27565b6147c5816147bf84546146fe565b84614751565b602080601f83116001811461481857600084156147e25750858301515b7fffffffffffffffffffffffffffffffffffffffffffffffffffffffffffffffff600386901b1c1916600185901b1785556120ae565b6000858152602081207fffffffffffffffffffffffffffffffffffffffffffffffffffffffffffffffe08616915b8281101561486557888601518255948401946001909101908401614846565b50858210156148a157878501517fffffffffffffffffffffffffffffffffffffffffffffffffffffffffffffffff600388901b60f8161c191681555b5050505050600190811b01905550565b8381526060602082015260006148ca6060830185613d97565b90508215156040830152949350505050565b8082018082111561076a5761076a6145c6565b600073ffffffffffffffffffffffffffffffffffffffff808816835280871660208401525084604083015283606083015260a0608083015261493460a0830184613d97565b979650505050505050565b60006020828403121561495157600080fd5b8151613bc681613d0f565b600060033d11156149755760046000803e5060005160e01c5b90565b600060443d10156149865790565b6040517ffffffffffffffffffffffffffffffffffffffffffffffffffffffffffffffffc803d016004833e81513d67ffffffffffffffff81602484011181841117156149d457505050505090565b82850191508151818111156149ec5750505050505090565b843d8701016020828501011115614a065750505050505090565b614a1560208286010187613e56565b509095945050505050565b600073ffffffffffffffffffffffffffffffffffffffff808816835280871660208401525060a06040830152614a5960a0830186614208565b8281036060840152614a6b8186614208565b90508281036080840152610f8e8185613d97565b7f416363657373436f6e74726f6c3a206163636f756e7420000000000000000000815260008351614ab7816017850160208801613d73565b7f206973206d697373696e6720726f6c65200000000000000000000000000000006017918401918201528351614af4816028840160208801613d73565b01602801949350505050565b7f4e487b7100000000000000000000000000000000000000000000000000000000600052602160045260246000fd5b808202811582820484141761076a5761076a6145c6565b600081614b5557614b556145c6565b507fffffffffffffffffffffffffffffffffffffffffffffffffffffffffffffffff019056fea26469706673582212202586376f2cd8a332364c97b9a5610fb82d8aaaee15729de46ac09f43953355ce64736f6c63430008110033",
  "devdoc": {
    "kind": "dev",
    "methods": {
      "balanceOf(address,uint256)": {
        "details": "See {IERC1155-balanceOf}. Requirements: - `account` cannot be the zero address."
      },
      "balanceOfBatch(address[],uint256[])": {
        "details": "See {IERC1155-balanceOfBatch}. Requirements: - `accounts` and `ids` must have the same length."
      },
      "getRoleAdmin(bytes32)": {
        "details": "Returns the admin role that controls `role`. See {grantRole} and {revokeRole}. To change a role's admin, use {_setRoleAdmin}."
      },
      "grantRole(bytes32,address)": {
        "details": "Grants `role` to `account`. If `account` had not been already granted `role`, emits a {RoleGranted} event. Requirements: - the caller must have ``role``'s admin role. May emit a {RoleGranted} event."
      },
      "hasRole(bytes32,address)": {
        "details": "Returns `true` if `account` has been granted `role`."
      },
      "isApprovedForAll(address,address)": {
        "details": "See {IERC1155-isApprovedForAll}."
      },
      "owner()": {
        "details": "Returns the address of the current owner."
      },
      "paused()": {
        "details": "Returns true if the contract is paused, and false otherwise."
      },
      "renounceOwnership()": {
        "details": "Leaves the contract without owner. It will not be possible to call `onlyOwner` functions anymore. Can only be called by the current owner. NOTE: Renouncing ownership will leave the contract without an owner, thereby removing any functionality that is only available to the owner."
      },
      "renounceRole(bytes32,address)": {
        "details": "Revokes `role` from the calling account. Roles are often managed via {grantRole} and {revokeRole}: this function's purpose is to provide a mechanism for accounts to lose their privileges if they are compromised (such as when a trusted device is misplaced). If the calling account had been revoked `role`, emits a {RoleRevoked} event. Requirements: - the caller must be `account`. May emit a {RoleRevoked} event."
      },
      "revokeRole(bytes32,address)": {
        "details": "Revokes `role` from `account`. If `account` had been granted `role`, emits a {RoleRevoked} event. Requirements: - the caller must have ``role``'s admin role. May emit a {RoleRevoked} event."
      },
      "safeBatchTransferFrom(address,address,uint256[],uint256[],bytes)": {
        "details": "See {IERC1155-safeBatchTransferFrom}."
      },
      "safeTransferFrom(address,address,uint256,uint256,bytes)": {
        "details": "See {IERC1155-safeTransferFrom}."
      },
      "setApprovalForAll(address,bool)": {
        "details": "See {IERC1155-setApprovalForAll}."
      },
      "transferOwnership(address)": {
        "details": "Transfers ownership of the contract to a new account (`newOwner`). Can only be called by the current owner."
      }
    },
    "version": 1
  },
  "userdoc": {
    "kind": "user",
    "methods": {},
    "version": 1
  },
  "storageLayout": {
    "storage": [
      {
        "astId": 547,
        "contract": "contracts/token/SBT/CDHBadges.sol:CDHBadges",
        "label": "_initialized",
        "offset": 0,
        "slot": "0",
        "type": "t_uint8"
      },
      {
        "astId": 550,
        "contract": "contracts/token/SBT/CDHBadges.sol:CDHBadges",
        "label": "_initializing",
        "offset": 1,
        "slot": "0",
        "type": "t_bool"
      },
      {
        "astId": 2657,
        "contract": "contracts/token/SBT/CDHBadges.sol:CDHBadges",
        "label": "__gap",
        "offset": 0,
        "slot": "1",
        "type": "t_array(t_uint256)50_storage"
      },
      {
        "astId": 2876,
        "contract": "contracts/token/SBT/CDHBadges.sol:CDHBadges",
        "label": "__gap",
        "offset": 0,
        "slot": "51",
        "type": "t_array(t_uint256)50_storage"
      },
      {
        "astId": 938,
        "contract": "contracts/token/SBT/CDHBadges.sol:CDHBadges",
        "label": "_balances",
        "offset": 0,
        "slot": "101",
        "type": "t_mapping(t_uint256,t_mapping(t_address,t_uint256))"
      },
      {
        "astId": 944,
        "contract": "contracts/token/SBT/CDHBadges.sol:CDHBadges",
        "label": "_operatorApprovals",
        "offset": 0,
        "slot": "102",
        "type": "t_mapping(t_address,t_mapping(t_address,t_bool))"
      },
      {
        "astId": 946,
        "contract": "contracts/token/SBT/CDHBadges.sol:CDHBadges",
        "label": "_uri",
        "offset": 0,
        "slot": "103",
        "type": "t_string_storage"
      },
      {
        "astId": 2153,
        "contract": "contracts/token/SBT/CDHBadges.sol:CDHBadges",
        "label": "__gap",
        "offset": 0,
        "slot": "104",
        "type": "t_array(t_uint256)47_storage"
      },
      {
        "astId": 730,
        "contract": "contracts/token/SBT/CDHBadges.sol:CDHBadges",
        "label": "_paused",
        "offset": 0,
        "slot": "151",
        "type": "t_bool"
      },
      {
        "astId": 835,
        "contract": "contracts/token/SBT/CDHBadges.sol:CDHBadges",
        "label": "__gap",
        "offset": 0,
        "slot": "152",
        "type": "t_array(t_uint256)49_storage"
      },
      {
        "astId": 419,
        "contract": "contracts/token/SBT/CDHBadges.sol:CDHBadges",
        "label": "_owner",
        "offset": 0,
        "slot": "201",
        "type": "t_address"
      },
      {
        "astId": 539,
        "contract": "contracts/token/SBT/CDHBadges.sol:CDHBadges",
        "label": "__gap",
        "offset": 0,
        "slot": "202",
        "type": "t_array(t_uint256)49_storage"
      },
      {
        "astId": 39,
        "contract": "contracts/token/SBT/CDHBadges.sol:CDHBadges",
        "label": "_roles",
        "offset": 0,
        "slot": "251",
        "type": "t_mapping(t_bytes32,t_struct(RoleData)34_storage)"
      },
      {
        "astId": 334,
        "contract": "contracts/token/SBT/CDHBadges.sol:CDHBadges",
        "label": "__gap",
        "offset": 0,
        "slot": "252",
        "type": "t_array(t_uint256)49_storage"
      },
      {
        "astId": 9170,
        "contract": "contracts/token/SBT/CDHBadges.sol:CDHBadges",
        "label": "badgeIds",
        "offset": 0,
        "slot": "301",
        "type": "t_mapping(t_uint256,t_struct(BadgeInfo)9165_storage)"
      },
      {
        "astId": 9174,
        "contract": "contracts/token/SBT/CDHBadges.sol:CDHBadges",
        "label": "seedNonce",
        "offset": 0,
        "slot": "302",
        "type": "t_mapping(t_address,t_uint256)"
      },
      {
        "astId": 9176,
        "contract": "contracts/token/SBT/CDHBadges.sol:CDHBadges",
        "label": "_verifier",
        "offset": 0,
        "slot": "303",
        "type": "t_address"
      }
    ],
    "types": {
      "t_address": {
        "encoding": "inplace",
        "label": "address",
        "numberOfBytes": "20"
      },
      "t_array(t_uint256)47_storage": {
        "base": "t_uint256",
        "encoding": "inplace",
        "label": "uint256[47]",
        "numberOfBytes": "1504"
      },
      "t_array(t_uint256)49_storage": {
        "base": "t_uint256",
        "encoding": "inplace",
        "label": "uint256[49]",
        "numberOfBytes": "1568"
      },
      "t_array(t_uint256)50_storage": {
        "base": "t_uint256",
        "encoding": "inplace",
        "label": "uint256[50]",
        "numberOfBytes": "1600"
      },
      "t_bool": {
        "encoding": "inplace",
        "label": "bool",
        "numberOfBytes": "1"
      },
      "t_bytes32": {
        "encoding": "inplace",
        "label": "bytes32",
        "numberOfBytes": "32"
      },
      "t_mapping(t_address,t_bool)": {
        "encoding": "mapping",
        "key": "t_address",
        "label": "mapping(address => bool)",
        "numberOfBytes": "32",
        "value": "t_bool"
      },
      "t_mapping(t_address,t_mapping(t_address,t_bool))": {
        "encoding": "mapping",
        "key": "t_address",
        "label": "mapping(address => mapping(address => bool))",
        "numberOfBytes": "32",
        "value": "t_mapping(t_address,t_bool)"
      },
      "t_mapping(t_address,t_uint256)": {
        "encoding": "mapping",
        "key": "t_address",
        "label": "mapping(address => uint256)",
        "numberOfBytes": "32",
        "value": "t_uint256"
      },
      "t_mapping(t_bytes32,t_struct(RoleData)34_storage)": {
        "encoding": "mapping",
        "key": "t_bytes32",
        "label": "mapping(bytes32 => struct AccessControlUpgradeable.RoleData)",
        "numberOfBytes": "32",
        "value": "t_struct(RoleData)34_storage"
      },
      "t_mapping(t_uint256,t_mapping(t_address,t_uint256))": {
        "encoding": "mapping",
        "key": "t_uint256",
        "label": "mapping(uint256 => mapping(address => uint256))",
        "numberOfBytes": "32",
        "value": "t_mapping(t_address,t_uint256)"
      },
      "t_mapping(t_uint256,t_struct(BadgeInfo)9165_storage)": {
        "encoding": "mapping",
        "key": "t_uint256",
        "label": "mapping(uint256 => struct CDHBadges.BadgeInfo)",
        "numberOfBytes": "32",
        "value": "t_struct(BadgeInfo)9165_storage"
      },
      "t_string_storage": {
        "encoding": "bytes",
        "label": "string",
        "numberOfBytes": "32"
      },
      "t_struct(BadgeInfo)9165_storage": {
        "encoding": "inplace",
        "label": "struct CDHBadges.BadgeInfo",
        "members": [
          {
            "astId": 9162,
            "contract": "contracts/token/SBT/CDHBadges.sol:CDHBadges",
            "label": "badgeName",
            "offset": 0,
            "slot": "0",
            "type": "t_string_storage"
          },
          {
            "astId": 9164,
            "contract": "contracts/token/SBT/CDHBadges.sol:CDHBadges",
            "label": "isSoulBoundFlag",
            "offset": 0,
            "slot": "1",
            "type": "t_bool"
          }
        ],
        "numberOfBytes": "64"
      },
      "t_struct(RoleData)34_storage": {
        "encoding": "inplace",
        "label": "struct AccessControlUpgradeable.RoleData",
        "members": [
          {
            "astId": 31,
            "contract": "contracts/token/SBT/CDHBadges.sol:CDHBadges",
            "label": "members",
            "offset": 0,
            "slot": "0",
            "type": "t_mapping(t_address,t_bool)"
          },
          {
            "astId": 33,
            "contract": "contracts/token/SBT/CDHBadges.sol:CDHBadges",
            "label": "adminRole",
            "offset": 0,
            "slot": "1",
            "type": "t_bytes32"
          }
        ],
        "numberOfBytes": "64"
      },
      "t_uint256": {
        "encoding": "inplace",
        "label": "uint256",
        "numberOfBytes": "32"
      },
      "t_uint8": {
        "encoding": "inplace",
        "label": "uint8",
        "numberOfBytes": "1"
      }
    }
  }
}