{
  "address": "0x34ee84036C47d852901b7069aBD80171D9A489a6",
  "abi": [
    {
      "inputs": [],
      "stateMutability": "nonpayable",
      "type": "constructor"
    },
    {
      "anonymous": false,
      "inputs": [
        {
          "indexed": true,
          "internalType": "bytes32",
          "name": "role",
          "type": "bytes32"
        },
        {
          "indexed": true,
          "internalType": "address",
          "name": "account",
          "type": "address"
        },
        {
          "indexed": true,
          "internalType": "address",
          "name": "sender",
          "type": "address"
        }
      ],
      "name": "GameRoleGranted",
      "type": "event"
    },
    {
      "anonymous": false,
      "inputs": [
        {
          "indexed": true,
          "internalType": "bytes32",
          "name": "role",
          "type": "bytes32"
        },
        {
          "indexed": true,
          "internalType": "address",
          "name": "account",
          "type": "address"
        },
        {
          "indexed": true,
          "internalType": "address",
          "name": "sender",
          "type": "address"
        }
      ],
      "name": "GameRoleRevoked",
      "type": "event"
    },
    {
      "anonymous": false,
      "inputs": [
        {
          "indexed": true,
          "internalType": "bytes32",
          "name": "role",
          "type": "bytes32"
        },
        {
          "indexed": true,
          "internalType": "bytes32",
          "name": "previousAdminRole",
          "type": "bytes32"
        },
        {
          "indexed": true,
          "internalType": "bytes32",
          "name": "newAdminRole",
          "type": "bytes32"
        }
      ],
      "name": "RoleAdminChanged",
      "type": "event"
    },
    {
      "anonymous": false,
      "inputs": [
        {
          "indexed": true,
          "internalType": "bytes32",
          "name": "role",
          "type": "bytes32"
        },
        {
          "indexed": true,
          "internalType": "address",
          "name": "account",
          "type": "address"
        },
        {
          "indexed": true,
          "internalType": "address",
          "name": "sender",
          "type": "address"
        }
      ],
      "name": "RoleGranted",
      "type": "event"
    },
    {
      "anonymous": false,
      "inputs": [
        {
          "indexed": true,
          "internalType": "bytes32",
          "name": "role",
          "type": "bytes32"
        },
        {
          "indexed": true,
          "internalType": "address",
          "name": "account",
          "type": "address"
        },
        {
          "indexed": true,
          "internalType": "address",
          "name": "sender",
          "type": "address"
        }
      ],
      "name": "RoleRevoked",
      "type": "event"
    },
    {
      "inputs": [],
      "name": "DEFAULT_ADMIN_ROLE",
      "outputs": [
        {
          "internalType": "bytes32",
          "name": "",
          "type": "bytes32"
        }
      ],
      "stateMutability": "view",
      "type": "function"
    },
    {
      "inputs": [],
      "name": "MANAGER_ROLE",
      "outputs": [
        {
          "internalType": "bytes32",
          "name": "",
          "type": "bytes32"
        }
      ],
      "stateMutability": "view",
      "type": "function"
    },
    {
      "inputs": [
        {
          "internalType": "address",
          "name": "_address",
          "type": "address"
        }
      ],
      "name": "addAdminRole",
      "outputs": [],
      "stateMutability": "nonpayable",
      "type": "function"
    },
    {
      "inputs": [
        {
          "internalType": "bytes32",
          "name": "_role",
          "type": "bytes32"
        },
        {
          "internalType": "address",
          "name": "_address",
          "type": "address"
        }
      ],
      "name": "addRole",
      "outputs": [],
      "stateMutability": "nonpayable",
      "type": "function"
    },
    {
      "inputs": [
        {
          "internalType": "bytes32",
          "name": "role",
          "type": "bytes32"
        }
      ],
      "name": "getRoleAdmin",
      "outputs": [
        {
          "internalType": "bytes32",
          "name": "",
          "type": "bytes32"
        }
      ],
      "stateMutability": "view",
      "type": "function"
    },
    {
      "inputs": [
        {
          "internalType": "bytes32",
          "name": "role",
          "type": "bytes32"
        },
        {
          "internalType": "address",
          "name": "account",
          "type": "address"
        }
      ],
      "name": "grantRole",
      "outputs": [],
      "stateMutability": "nonpayable",
      "type": "function"
    },
    {
      "inputs": [
        {
          "internalType": "address",
          "name": "_address",
          "type": "address"
        }
      ],
      "name": "hasAdminRole",
      "outputs": [
        {
          "internalType": "bool",
          "name": "",
          "type": "bool"
        }
      ],
      "stateMutability": "view",
      "type": "function"
    },
    {
      "inputs": [
        {
          "internalType": "bytes32",
          "name": "role",
          "type": "bytes32"
        },
        {
          "internalType": "address",
          "name": "account",
          "type": "address"
        }
      ],
      "name": "hasRole",
      "outputs": [
        {
          "internalType": "bool",
          "name": "",
          "type": "bool"
        }
      ],
      "stateMutability": "view",
      "type": "function"
    },
    {
      "inputs": [
        {
          "internalType": "address",
          "name": "_address",
          "type": "address"
        }
      ],
      "name": "isAuthorized",
      "outputs": [
        {
          "internalType": "bool",
          "name": "",
          "type": "bool"
        }
      ],
      "stateMutability": "view",
      "type": "function"
    },
    {
      "inputs": [
        {
          "internalType": "address",
          "name": "_address",
          "type": "address"
        }
      ],
      "name": "removeAdminRole",
      "outputs": [],
      "stateMutability": "nonpayable",
      "type": "function"
    },
    {
      "inputs": [
        {
          "internalType": "bytes32",
          "name": "_role",
          "type": "bytes32"
        },
        {
          "internalType": "address",
          "name": "_address",
          "type": "address"
        }
      ],
      "name": "removeRole",
      "outputs": [],
      "stateMutability": "nonpayable",
      "type": "function"
    },
    {
      "inputs": [
        {
          "internalType": "bytes32",
          "name": "role",
          "type": "bytes32"
        },
        {
          "internalType": "address",
          "name": "account",
          "type": "address"
        }
      ],
      "name": "renounceRole",
      "outputs": [],
      "stateMutability": "nonpayable",
      "type": "function"
    },
    {
      "inputs": [
        {
          "internalType": "bytes32",
          "name": "role",
          "type": "bytes32"
        },
        {
          "internalType": "address",
          "name": "account",
          "type": "address"
        }
      ],
      "name": "revokeRole",
      "outputs": [],
      "stateMutability": "nonpayable",
      "type": "function"
    },
    {
      "inputs": [
        {
          "internalType": "bytes4",
          "name": "interfaceId",
          "type": "bytes4"
        }
      ],
      "name": "supportsInterface",
      "outputs": [
        {
          "internalType": "bool",
          "name": "",
          "type": "bool"
        }
      ],
      "stateMutability": "view",
      "type": "function"
    }
  ],
  "transactionHash": "0xe2cc6b4a1255526b14efb9af9cb003695e34a38338d07d9de1b34074488fb529",
  "args": [],
  "numDeployments": 1,
  "solcInputHash": "68e89776f039ff01195e0154ad9d0d82",
  "bytecode": "0x608060405234801561001057600080fd5b5061001c60003361004b565b6100467f241ecf16d79d0f8dbfb92cbc07fe17840425976cf0667f022fe9877caa831b083361004b565b6100f7565b6100558282610059565b5050565b6000828152602081815260408083206001600160a01b038516845290915290205460ff16610055576000828152602081815260408083206001600160a01b03851684529091529020805460ff191660011790556100b33390565b6001600160a01b0316816001600160a01b0316837f2f8788117e7eff1d82e926ec794901d17c78024a50270940304540a733656f0d60405160405180910390a45050565b610db7806101066000396000f3fe608060405234801561001057600080fd5b50600436106100ea5760003560e01c8063c395fcb31161008c578063e959b38a11610066578063e959b38a14610208578063ec87621c1461021b578063f6ba000714610242578063fe9fbb801461025557600080fd5b8063c395fcb3146101cf578063d547741f146101e2578063dccfe310146101f557600080fd5b806336568abe116100c857806336568abe1461015d5780636595171c1461017057806391d1485414610183578063a217fddf146101c757600080fd5b806301ffc9a7146100ef578063248a9ca3146101175780632f2ff15d14610148575b600080fd5b6101026100fd366004610ad4565b610268565b60405190151581526020015b60405180910390f35b61013a610125366004610b16565b60009081526020819052604090206001015490565b60405190815260200161010e565b61015b610156366004610b58565b610301565b005b61015b61016b366004610b58565b61032b565b61015b61017e366004610b84565b6103e3565b610102610191366004610b58565b60009182526020828152604080842073ffffffffffffffffffffffffffffffffffffffff93909316845291905290205460ff1690565b61013a600081565b6101026101dd366004610b84565b610436565b61015b6101f0366004610b58565b610483565b61015b610203366004610b84565b6104a8565b61015b610216366004610b58565b6104fb565b61013a7f241ecf16d79d0f8dbfb92cbc07fe17840425976cf0667f022fe9877caa831b0881565b61015b610250366004610b58565b61054e565b610102610263366004610b84565b6105a1565b60007fffffffff0000000000000000000000000000000000000000000000000000000082167f7965db0b0000000000000000000000000000000000000000000000000000000014806102fb57507f01ffc9a7000000000000000000000000000000000000000000000000000000007fffffffff000000000000000000000000000000000000000000000000000000008316145b92915050565b60008281526020819052604090206001015461031c816105ff565b610326838361060c565b505050565b73ffffffffffffffffffffffffffffffffffffffff811633146103d5576040517f08c379a000000000000000000000000000000000000000000000000000000000815260206004820152602f60248201527f416363657373436f6e74726f6c3a2063616e206f6e6c792072656e6f756e636560448201527f20726f6c657320666f722073656c66000000000000000000000000000000000060648201526084015b60405180910390fd5b6103df82826106fc565b5050565b6103ee600082610301565b604051339073ffffffffffffffffffffffffffffffffffffffff8316906000907fc58a470b87456942d2b42a34f6350fc7072a9f1b32689b6ffc09e9c051196c3c908290a450565b73ffffffffffffffffffffffffffffffffffffffff811660009081527fad3228b676f7d3cd4284a5443f17f1962b36e491b30a40b2405849e597ba5fb5602052604081205460ff166102fb565b60008281526020819052604090206001015461049e816105ff565b61032683836106fc565b6104b3600082610483565b604051339073ffffffffffffffffffffffffffffffffffffffff8316906000907fe769c05f0e11b2d52410be0991885c36161e937b5d90fe7eafa7dc7a2fe383bb908290a450565b6105058282610301565b604051339073ffffffffffffffffffffffffffffffffffffffff83169084907fc58a470b87456942d2b42a34f6350fc7072a9f1b32689b6ffc09e9c051196c3c90600090a45050565b6105588282610483565b604051339073ffffffffffffffffffffffffffffffffffffffff83169084907fe769c05f0e11b2d52410be0991885c36161e937b5d90fe7eafa7dc7a2fe383bb90600090a45050565b60006105ac82610436565b806102fb575073ffffffffffffffffffffffffffffffffffffffff821660009081527fe84508f2c7fa9c351146748b3025cb78b45df37d868e48c6a75102fecdeee645602052604090205460ff166102fb565b61060981336107b3565b50565b60008281526020818152604080832073ffffffffffffffffffffffffffffffffffffffff8516845290915290205460ff166103df5760008281526020818152604080832073ffffffffffffffffffffffffffffffffffffffff85168452909152902080547fffffffffffffffffffffffffffffffffffffffffffffffffffffffffffffff0016600117905561069e3390565b73ffffffffffffffffffffffffffffffffffffffff168173ffffffffffffffffffffffffffffffffffffffff16837f2f8788117e7eff1d82e926ec794901d17c78024a50270940304540a733656f0d60405160405180910390a45050565b60008281526020818152604080832073ffffffffffffffffffffffffffffffffffffffff8516845290915290205460ff16156103df5760008281526020818152604080832073ffffffffffffffffffffffffffffffffffffffff8516808552925280832080547fffffffffffffffffffffffffffffffffffffffffffffffffffffffffffffff0016905551339285917ff6391f5c32d9c69d2a47ea670b442974b53935d1edc7fd64eb21e047a839171b9190a45050565b60008281526020818152604080832073ffffffffffffffffffffffffffffffffffffffff8516845290915290205460ff166103df576107f18161086b565b6107fc83602061088a565b60405160200161080d929190610bc3565b604080517fffffffffffffffffffffffffffffffffffffffffffffffffffffffffffffffe0818403018152908290527f08c379a00000000000000000000000000000000000000000000000000000000082526103cc91600401610c44565b60606102fb73ffffffffffffffffffffffffffffffffffffffff831660145b60606000610899836002610cc4565b6108a4906002610cdb565b67ffffffffffffffff8111156108bc576108bc610cee565b6040519080825280601f01601f1916602001820160405280156108e6576020820181803683370190505b5090507f30000000000000000000000000000000000000000000000000000000000000008160008151811061091d5761091d610d1d565b60200101907effffffffffffffffffffffffffffffffffffffffffffffffffffffffffffff1916908160001a9053507f78000000000000000000000000000000000000000000000000000000000000008160018151811061098057610980610d1d565b60200101907effffffffffffffffffffffffffffffffffffffffffffffffffffffffffffff1916908160001a90535060006109bc846002610cc4565b6109c7906001610cdb565b90505b6001811115610a64577f303132333435363738396162636465660000000000000000000000000000000085600f1660108110610a0857610a08610d1d565b1a60f81b828281518110610a1e57610a1e610d1d565b60200101907effffffffffffffffffffffffffffffffffffffffffffffffffffffffffffff1916908160001a90535060049490941c93610a5d81610d4c565b90506109ca565b508315610acd576040517f08c379a000000000000000000000000000000000000000000000000000000000815260206004820181905260248201527f537472696e67733a20686578206c656e67746820696e73756666696369656e7460448201526064016103cc565b9392505050565b600060208284031215610ae657600080fd5b81357fffffffff0000000000000000000000000000000000000000000000000000000081168114610acd57600080fd5b600060208284031215610b2857600080fd5b5035919050565b803573ffffffffffffffffffffffffffffffffffffffff81168114610b5357600080fd5b919050565b60008060408385031215610b6b57600080fd5b82359150610b7b60208401610b2f565b90509250929050565b600060208284031215610b9657600080fd5b610acd82610b2f565b60005b83811015610bba578181015183820152602001610ba2565b50506000910152565b7f416363657373436f6e74726f6c3a206163636f756e7420000000000000000000815260008351610bfb816017850160208801610b9f565b7f206973206d697373696e6720726f6c65200000000000000000000000000000006017918401918201528351610c38816028840160208801610b9f565b01602801949350505050565b6020815260008251806020840152610c63816040850160208701610b9f565b601f017fffffffffffffffffffffffffffffffffffffffffffffffffffffffffffffffe0169190910160400192915050565b7f4e487b7100000000000000000000000000000000000000000000000000000000600052601160045260246000fd5b80820281158282048414176102fb576102fb610c95565b808201808211156102fb576102fb610c95565b7f4e487b7100000000000000000000000000000000000000000000000000000000600052604160045260246000fd5b7f4e487b7100000000000000000000000000000000000000000000000000000000600052603260045260246000fd5b600081610d5b57610d5b610c95565b507fffffffffffffffffffffffffffffffffffffffffffffffffffffffffffffffff019056fea264697066735822122095a664e4c01c6fdf5e1d9a6d2f2f6d3ba04bc6e04d172739a3f1f4cfb61ecef764736f6c63430008110033",
  "devdoc": {
    "details": "this is an upgradable function",
    "kind": "dev",
    "methods": {
      "addAdminRole(address)": {
        "params": {
          "_address": "address that will be getting role"
        }
      },
      "addRole(bytes32,address)": {
        "params": {
          "_address": "address that will be getting role"
        }
      },
      "getRoleAdmin(bytes32)": {
        "details": "Returns the admin role that controls `role`. See {grantRole} and {revokeRole}. To change a role's admin, use {_setRoleAdmin}."
      },
      "grantRole(bytes32,address)": {
        "details": "Grants `role` to `account`. If `account` had not been already granted `role`, emits a {RoleGranted} event. Requirements: - the caller must have ``role``'s admin role. May emit a {RoleGranted} event."
      },
      "hasAdminRole(address)": {
        "params": {
          "_address": "address that has admin role"
        },
        "returns": {
          "_0": "bool true if address is admmin"
        }
      },
      "hasRole(bytes32,address)": {
        "details": "Returns `true` if `account` has been granted `role`."
      },
      "removeAdminRole(address)": {
        "params": {
          "_address": "address that will be getting role"
        }
      },
      "removeRole(bytes32,address)": {
        "params": {
          "_address": "address that will be revoked"
        }
      },
      "renounceRole(bytes32,address)": {
        "details": "Revokes `role` from the calling account. Roles are often managed via {grantRole} and {revokeRole}: this function's purpose is to provide a mechanism for accounts to lose their privileges if they are compromised (such as when a trusted device is misplaced). If the calling account had been revoked `role`, emits a {RoleRevoked} event. Requirements: - the caller must be `account`. May emit a {RoleRevoked} event."
      },
      "revokeRole(bytes32,address)": {
        "details": "Revokes `role` from `account`. If `account` had been granted `role`, emits a {RoleRevoked} event. Requirements: - the caller must have ``role``'s admin role. May emit a {RoleRevoked} event."
      },
      "supportsInterface(bytes4)": {
        "details": "See {IERC165-supportsInterface}."
      }
    },
    "title": "A contract for giving role for address",
    "version": 1
  },
  "userdoc": {
    "kind": "user",
    "methods": {
      "addAdminRole(address)": {
        "notice": "function to give an address Admin role"
      },
      "addRole(bytes32,address)": {
        "notice": "function to give role to an address"
      },
      "constructor": {
        "notice": "Constructor for setting up default roles"
      },
      "hasAdminRole(address)": {
        "notice": "function to check an address has Admin role"
      },
      "removeAdminRole(address)": {
        "notice": "function to give an address Admin role"
      },
      "removeRole(bytes32,address)": {
        "notice": "function to remove role of an address"
      }
    },
    "version": 1
  },
  "storageLayout": {
    "storage": [
      {
        "astId": 3779,
        "contract": "contracts/game/GameAccessControls.sol:GameAccessControls",
        "label": "_roles",
        "offset": 0,
        "slot": "0",
        "type": "t_mapping(t_bytes32,t_struct(RoleData)3774_storage)"
      }
    ],
    "types": {
      "t_address": {
        "encoding": "inplace",
        "label": "address",
        "numberOfBytes": "20"
      },
      "t_bool": {
        "encoding": "inplace",
        "label": "bool",
        "numberOfBytes": "1"
      },
      "t_bytes32": {
        "encoding": "inplace",
        "label": "bytes32",
        "numberOfBytes": "32"
      },
      "t_mapping(t_address,t_bool)": {
        "encoding": "mapping",
        "key": "t_address",
        "label": "mapping(address => bool)",
        "numberOfBytes": "32",
        "value": "t_bool"
      },
      "t_mapping(t_bytes32,t_struct(RoleData)3774_storage)": {
        "encoding": "mapping",
        "key": "t_bytes32",
        "label": "mapping(bytes32 => struct AccessControl.RoleData)",
        "numberOfBytes": "32",
        "value": "t_struct(RoleData)3774_storage"
      },
      "t_struct(RoleData)3774_storage": {
        "encoding": "inplace",
        "label": "struct AccessControl.RoleData",
        "members": [
          {
            "astId": 3771,
            "contract": "contracts/game/GameAccessControls.sol:GameAccessControls",
            "label": "members",
            "offset": 0,
            "slot": "0",
            "type": "t_mapping(t_address,t_bool)"
          },
          {
            "astId": 3773,
            "contract": "contracts/game/GameAccessControls.sol:GameAccessControls",
            "label": "adminRole",
            "offset": 0,
            "slot": "1",
            "type": "t_bytes32"
          }
        ],
        "numberOfBytes": "64"
      }
    }
  }
}