{
  "address": "0xDadd1125B8Df98A66Abd5EB302C0d9Ca5A061dC2",
  "abi": [
    {
      "anonymous": false,
      "inputs": [
        {
          "indexed": true,
          "internalType": "address",
          "name": "_operatorAddress",
          "type": "address"
        },
        {
          "indexed": false,
          "internalType": "string",
          "name": "_battleId",
          "type": "string"
        },
        {
          "indexed": false,
          "internalType": "string[]",
          "name": "_bossIds",
          "type": "string[]"
        },
        {
          "indexed": false,
          "internalType": "uint256",
          "name": "_startTime",
          "type": "uint256"
        },
        {
          "indexed": false,
          "internalType": "uint256",
          "name": "_endTime",
          "type": "uint256"
        }
      ],
      "name": "CreateBattle",
      "type": "event"
    },
    {
      "anonymous": false,
      "inputs": [
        {
          "indexed": true,
          "internalType": "address",
          "name": "_operatorAddress",
          "type": "address"
        },
        {
          "indexed": false,
          "internalType": "string",
          "name": "_bossId",
          "type": "string"
        },
        {
          "indexed": false,
          "internalType": "string",
          "name": "_name",
          "type": "string"
        },
        {
          "indexed": false,
          "internalType": "uint256",
          "name": "_maxHp",
          "type": "uint256"
        },
        {
          "indexed": false,
          "internalType": "string",
          "name": "_uri",
          "type": "string"
        }
      ],
      "name": "CreateBoss",
      "type": "event"
    },
    {
      "anonymous": false,
      "inputs": [
        {
          "indexed": false,
          "internalType": "string",
          "name": "_battleId",
          "type": "string"
        },
        {
          "indexed": false,
          "internalType": "bool",
          "name": "_status",
          "type": "bool"
        }
      ],
      "name": "DisableBattle",
      "type": "event"
    },
    {
      "anonymous": false,
      "inputs": [
        {
          "indexed": false,
          "internalType": "string",
          "name": "_battleId",
          "type": "string"
        },
        {
          "indexed": false,
          "internalType": "bool",
          "name": "_status",
          "type": "bool"
        }
      ],
      "name": "EnableBattle",
      "type": "event"
    },
    {
      "anonymous": false,
      "inputs": [
        {
          "indexed": false,
          "internalType": "uint8",
          "name": "version",
          "type": "uint8"
        }
      ],
      "name": "Initialized",
      "type": "event"
    },
    {
      "anonymous": false,
      "inputs": [
        {
          "indexed": true,
          "internalType": "address",
          "name": "_operatorAddress",
          "type": "address"
        },
        {
          "indexed": false,
          "internalType": "string",
          "name": "_battleId",
          "type": "string"
        },
        {
          "indexed": false,
          "internalType": "uint256",
          "name": "_startTime",
          "type": "uint256"
        },
        {
          "indexed": false,
          "internalType": "uint256",
          "name": "_endTime",
          "type": "uint256"
        }
      ],
      "name": "UpdateBattle",
      "type": "event"
    },
    {
      "anonymous": false,
      "inputs": [
        {
          "indexed": true,
          "internalType": "address",
          "name": "_operatorAddress",
          "type": "address"
        },
        {
          "indexed": false,
          "internalType": "string",
          "name": "_bossId",
          "type": "string"
        },
        {
          "indexed": false,
          "internalType": "string",
          "name": "_name",
          "type": "string"
        },
        {
          "indexed": false,
          "internalType": "uint256",
          "name": "_maxHp",
          "type": "uint256"
        },
        {
          "indexed": false,
          "internalType": "string",
          "name": "_uri",
          "type": "string"
        }
      ],
      "name": "UpdateBoss",
      "type": "event"
    },
    {
      "inputs": [],
      "name": "accessControls",
      "outputs": [
        {
          "internalType": "contract GameAccessControls",
          "name": "",
          "type": "address"
        }
      ],
      "stateMutability": "view",
      "type": "function"
    },
    {
      "inputs": [
        {
          "internalType": "uint256",
          "name": "",
          "type": "uint256"
        }
      ],
      "name": "battleList",
      "outputs": [
        {
          "internalType": "string",
          "name": "",
          "type": "string"
        }
      ],
      "stateMutability": "view",
      "type": "function"
    },
    {
      "inputs": [
        {
          "internalType": "string",
          "name": "",
          "type": "string"
        }
      ],
      "name": "battles",
      "outputs": [
        {
          "internalType": "string",
          "name": "battleId",
          "type": "string"
        },
        {
          "internalType": "uint256",
          "name": "bossCount",
          "type": "uint256"
        },
        {
          "internalType": "uint256",
          "name": "startTime",
          "type": "uint256"
        },
        {
          "internalType": "uint256",
          "name": "endTime",
          "type": "uint256"
        },
        {
          "internalType": "bool",
          "name": "status",
          "type": "bool"
        },
        {
          "internalType": "uint256",
          "name": "index",
          "type": "uint256"
        }
      ],
      "stateMutability": "view",
      "type": "function"
    },
    {
      "inputs": [
        {
          "internalType": "uint256",
          "name": "",
          "type": "uint256"
        }
      ],
      "name": "bossList",
      "outputs": [
        {
          "internalType": "string",
          "name": "",
          "type": "string"
        }
      ],
      "stateMutability": "view",
      "type": "function"
    },
    {
      "inputs": [
        {
          "internalType": "string",
          "name": "",
          "type": "string"
        }
      ],
      "name": "bosses",
      "outputs": [
        {
          "internalType": "string",
          "name": "bossId",
          "type": "string"
        },
        {
          "internalType": "string",
          "name": "name",
          "type": "string"
        },
        {
          "internalType": "uint256",
          "name": "maxHp",
          "type": "uint256"
        },
        {
          "internalType": "string",
          "name": "uri",
          "type": "string"
        },
        {
          "internalType": "bool",
          "name": "status",
          "type": "bool"
        },
        {
          "internalType": "uint256",
          "name": "index",
          "type": "uint256"
        }
      ],
      "stateMutability": "view",
      "type": "function"
    },
    {
      "inputs": [
        {
          "internalType": "string[]",
          "name": "_bossId",
          "type": "string[]"
        }
      ],
      "name": "checkActiveBosses",
      "outputs": [],
      "stateMutability": "view",
      "type": "function"
    },
    {
      "inputs": [
        {
          "internalType": "string",
          "name": "_battleId",
          "type": "string"
        }
      ],
      "name": "checkBattleEnded",
      "outputs": [
        {
          "internalType": "bool",
          "name": "",
          "type": "bool"
        }
      ],
      "stateMutability": "view",
      "type": "function"
    },
    {
      "inputs": [
        {
          "internalType": "string",
          "name": "_battleId",
          "type": "string"
        }
      ],
      "name": "checkBattleExists",
      "outputs": [
        {
          "internalType": "bool",
          "name": "",
          "type": "bool"
        }
      ],
      "stateMutability": "view",
      "type": "function"
    },
    {
      "inputs": [
        {
          "internalType": "string",
          "name": "_battleId",
          "type": "string"
        }
      ],
      "name": "checkBattleStatus",
      "outputs": [
        {
          "internalType": "bool",
          "name": "",
          "type": "bool"
        }
      ],
      "stateMutability": "view",
      "type": "function"
    },
    {
      "inputs": [
        {
          "internalType": "string",
          "name": "_bossId",
          "type": "string"
        }
      ],
      "name": "checkBossExists",
      "outputs": [
        {
          "internalType": "bool",
          "name": "",
          "type": "bool"
        }
      ],
      "stateMutability": "view",
      "type": "function"
    },
    {
      "inputs": [
        {
          "internalType": "string",
          "name": "_bossId",
          "type": "string"
        }
      ],
      "name": "checkBossStatus",
      "outputs": [
        {
          "internalType": "bool",
          "name": "",
          "type": "bool"
        }
      ],
      "stateMutability": "view",
      "type": "function"
    },
    {
      "inputs": [
        {
          "internalType": "string",
          "name": "_battleId",
          "type": "string"
        },
        {
          "internalType": "string[]",
          "name": "_bossIds",
          "type": "string[]"
        },
        {
          "internalType": "uint256",
          "name": "_startTime",
          "type": "uint256"
        },
        {
          "internalType": "uint256",
          "name": "_endTime",
          "type": "uint256"
        }
      ],
      "name": "createBattle",
      "outputs": [],
      "stateMutability": "nonpayable",
      "type": "function"
    },
    {
      "inputs": [
        {
          "internalType": "string",
          "name": "bossId",
          "type": "string"
        },
        {
          "internalType": "string",
          "name": "name",
          "type": "string"
        },
        {
          "internalType": "uint256",
          "name": "maxHp",
          "type": "uint256"
        },
        {
          "internalType": "string",
          "name": "uri",
          "type": "string"
        }
      ],
      "name": "createBoss",
      "outputs": [],
      "stateMutability": "nonpayable",
      "type": "function"
    },
    {
      "inputs": [],
      "name": "getAllBattle",
      "outputs": [
        {
          "internalType": "string[]",
          "name": "",
          "type": "string[]"
        }
      ],
      "stateMutability": "view",
      "type": "function"
    },
    {
      "inputs": [],
      "name": "getAllBosses",
      "outputs": [
        {
          "internalType": "string[]",
          "name": "",
          "type": "string[]"
        }
      ],
      "stateMutability": "view",
      "type": "function"
    },
    {
      "inputs": [
        {
          "internalType": "string",
          "name": "_battleId",
          "type": "string"
        }
      ],
      "name": "getBattlePeriod",
      "outputs": [
        {
          "internalType": "uint256",
          "name": "startTime",
          "type": "uint256"
        },
        {
          "internalType": "uint256",
          "name": "endTime",
          "type": "uint256"
        }
      ],
      "stateMutability": "view",
      "type": "function"
    },
    {
      "inputs": [],
      "name": "getLatestBattle",
      "outputs": [
        {
          "internalType": "string",
          "name": "battleId",
          "type": "string"
        }
      ],
      "stateMutability": "view",
      "type": "function"
    },
    {
      "inputs": [
        {
          "internalType": "contract GameAccessControls",
          "name": "_accessControls",
          "type": "address"
        }
      ],
      "name": "initialize",
      "outputs": [],
      "stateMutability": "nonpayable",
      "type": "function"
    },
    {
      "inputs": [],
      "name": "reInitialize",
      "outputs": [],
      "stateMutability": "nonpayable",
      "type": "function"
    },
    {
      "inputs": [
        {
          "internalType": "string",
          "name": "_battleId",
          "type": "string"
        },
        {
          "internalType": "bool",
          "name": "_status",
          "type": "bool"
        }
      ],
      "name": "setBattleStatus",
      "outputs": [],
      "stateMutability": "nonpayable",
      "type": "function"
    },
    {
      "inputs": [
        {
          "internalType": "string",
          "name": "_bossId",
          "type": "string"
        },
        {
          "internalType": "bool",
          "name": "_status",
          "type": "bool"
        }
      ],
      "name": "setBossStatus",
      "outputs": [],
      "stateMutability": "nonpayable",
      "type": "function"
    },
    {
      "inputs": [
        {
          "internalType": "string",
          "name": "_battleId",
          "type": "string"
        },
        {
          "internalType": "uint256",
          "name": "_startTime",
          "type": "uint256"
        },
        {
          "internalType": "uint256",
          "name": "_endTime",
          "type": "uint256"
        }
      ],
      "name": "updateBattle",
      "outputs": [],
      "stateMutability": "nonpayable",
      "type": "function"
    },
    {
      "inputs": [
        {
          "internalType": "string",
          "name": "bossId",
          "type": "string"
        },
        {
          "internalType": "string",
          "name": "name",
          "type": "string"
        },
        {
          "internalType": "uint256",
          "name": "maxHp",
          "type": "uint256"
        },
        {
          "internalType": "string",
          "name": "uri",
          "type": "string"
        }
      ],
      "name": "updateBoss",
      "outputs": [],
      "stateMutability": "nonpayable",
      "type": "function"
    }
  ],
  "transactionHash": "0x24a18818ea9719983075c5dee646e3e36d1a3b865e32378c57d4f84b5e58c57a",
  "args": [],
  "numDeployments": 2,
  "solcInputHash": "68e89776f039ff01195e0154ad9d0d82",
  "bytecode": "0x60806040523480156200001157600080fd5b506200001c62000022565b620000e4565b600054610100900460ff16156200008f5760405162461bcd60e51b815260206004820152602760248201527f496e697469616c697a61626c653a20636f6e747261637420697320696e697469604482015266616c697a696e6760c81b606482015260840160405180910390fd5b60005460ff9081161015620000e2576000805460ff191660ff9081179091556040519081527f7f26b83ff96e1f2b6a682f133852f6798a09c465da95921460cefb38474024989060200160405180910390a15b565b6129be80620000f46000396000f3fe608060405234801561001057600080fd5b506004361061018d5760003560e01c806377bb7b78116100e3578063ac0d46461161008c578063c2451bdc11610066578063c2451bdc14610382578063c4d66de814610395578063e59f94b7146103a857600080fd5b8063ac0d46461461035f578063b24a97c314610372578063bf81ee6d1461037a57600080fd5b80638abf3a0e116100bd5780638abf3a0e14610314578063a07418d614610339578063a83e54c21461034c57600080fd5b806377bb7b78146102c95780637e4fceaf146102ee578063856515741461030157600080fd5b806340e8e1851161014557806356b1bc9a1161011f57806356b1bc9a1461025c5780635d49778914610271578063748365ef1461028457600080fd5b806340e8e1851461021357806347ff16ac146102265780634fa1290d1461024957600080fd5b806325eeb4f51161017657806325eeb4f5146101d05780632de23337146101e357806332165c3c146101eb57600080fd5b8063159a9239146101925780631bc143a5146101a7575b600080fd5b6101a56101a03660046121a2565b6103bb565b005b6101ba6101b5366004612234565b610685565b6040516101c791906122bb565b60405180910390f35b6101ba6101de366004612234565b610731565b6101a5610741565b6101fe6101f93660046122d5565b61087b565b604080519283526020830191909152016101c7565b6101a56102213660046123b1565b6108cb565b6102396102343660046122d5565b610975565b60405190151581526020016101c7565b6101a56102573660046121a2565b6109a2565b610264610c2a565b6040516101c7919061243b565b61023961027f3660046122d5565b610d03565b6037546102a49073ffffffffffffffffffffffffffffffffffffffff1681565b60405173ffffffffffffffffffffffffffffffffffffffff90911681526020016101c7565b6102dc6102d73660046122d5565b610da0565b6040516101c79695949392919061244e565b6101a56102fc36600461249d565b610e6c565b61023961030f3660046122d5565b611051565b6103276103223660046122d5565b61107f565b6040516101c7969594939291906124ef565b6101a5610347366004612544565b61125a565b6101a561035a36600461249d565b6115c7565b61023961036d3660046122d5565b6117ac565b610264611922565b6101ba6119f2565b6101a56103903660046125b8565b611aae565b6101a56103a3366004612606565b611d61565b6102396103b63660046122d5565b611f2b565b6037546040517ffe9fbb8000000000000000000000000000000000000000000000000000000000815233600482018190529173ffffffffffffffffffffffffffffffffffffffff169063fe9fbb8090602401602060405180830381865afa15801561042a573d6000803e3d6000fd5b505050506040513d601f19601f8201168201806040525081019061044e919061263c565b6104b9576040517f08c379a000000000000000000000000000000000000000000000000000000000815260206004820181905260248201527f5742423a20556e617574686f72697a656420746f2075706461746520626f737360448201526064015b60405180910390fd5b6104c285611f2b565b610528576040517f08c379a000000000000000000000000000000000000000000000000000000000815260206004820152601760248201527f5742423a20426f737320646f65736e277420657869737400000000000000000060448201526064016104b0565b600060358660405161053a9190612659565b908152604051908190036020019020600481015490915060ff16156105bb576040517f08c379a000000000000000000000000000000000000000000000000000000000815260206004820152601360248201527f5742423a20426f7373206973206163746976650000000000000000000000000060448201526064016104b0565b806105c68782612717565b50600181016105d58682612717565b5060028101849055600381016105eb8482612717565b50603680546001810182556000919091527f4a11f94e20a93c79f6ec743a1954ec4fc2c08429ae2122118bf234b2185c81b8016106288782612717565b508173ffffffffffffffffffffffffffffffffffffffff167fe84e5250e15f8fc9c44338f80b627457e114179c263f3707ff9beeed895f8ca4878787876040516106759493929190612831565b60405180910390a2505050505050565b6034818154811061069557600080fd5b9060005260206000200160009150905080546106b090612675565b80601f01602080910402602001604051908101604052809291908181526020018280546106dc90612675565b80156107295780601f106106fe57610100808354040283529160200191610729565b820191906000526020600020905b81548152906001019060200180831161070c57829003601f168201915b505050505081565b6036818154811061069557600080fd5b600054600290610100900460ff16158015610763575060005460ff8083169116105b6107ef576040517f08c379a000000000000000000000000000000000000000000000000000000000815260206004820152602e60248201527f496e697469616c697a61626c653a20636f6e747261637420697320616c72656160448201527f647920696e697469616c697a656400000000000000000000000000000000000060648201526084016104b0565b600080547fffffffffffffffffffffffffffffffffffffffffffffffffffffffffffff00001660ff8316908117610100177fffffffffffffffffffffffffffffffffffffffffffffffffffffffffffff00ff169091556040519081527f7f26b83ff96e1f2b6a682f133852f6798a09c465da95921460cefb38474024989060200160405180910390a150565b60008060338360405161088e9190612659565b9081526020016040518091039020600301546033846040516108b09190612659565b90815260200160405180910390206004015491509150915091565b60005b8151811015610971576108f98282815181106108ec576108ec61287b565b6020026020010151611051565b61095f576040517f08c379a000000000000000000000000000000000000000000000000000000000815260206004820152601560248201527f5742423a20626f7373206e6f742063726561746564000000000000000000000060448201526064016104b0565b80610969816128d9565b9150506108ce565b5050565b60006033826040516109879190612659565b90815260200160405180910390206004015442119050919050565b6037546040517ffe9fbb8000000000000000000000000000000000000000000000000000000000815233600482018190529173ffffffffffffffffffffffffffffffffffffffff169063fe9fbb8090602401602060405180830381865afa158015610a11573d6000803e3d6000fd5b505050506040513d601f19601f82011682018060405250810190610a35919061263c565b610a9b576040517f08c379a000000000000000000000000000000000000000000000000000000000815260206004820181905260248201527f5742423a20556e617574686f72697a656420746f2063726561746520626f737360448201526064016104b0565b610aa485611f2b565b15610b0b576040517f08c379a000000000000000000000000000000000000000000000000000000000815260206004820152601860248201527f5742423a20426f737320616c726561647920457869737473000000000000000060448201526064016104b0565b6000603586604051610b1d9190612659565b908152604051908190036020019020905080610b398782612717565b5060018101610b488682612717565b506002810184905560038101610b5e8482612717565b506004810180547fffffffffffffffffffffffffffffffffffffffffffffffffffffffffffffff001660019081179091556036805491820181556000527f4a11f94e20a93c79f6ec743a1954ec4fc2c08429ae2122118bf234b2185c81b801610bc78782612717565b50603654610bd790600190612911565b600582015560405173ffffffffffffffffffffffffffffffffffffffff8316907f7d51e5ba65a244038915d444c0ca607e0b05121999d92bf11349864f8ec00bc090610675908990899089908990612831565b60606036805480602002602001604051908101604052809291908181526020016000905b82821015610cfa578382906000526020600020018054610c6d90612675565b80601f0160208091040260200160405190810160405280929190818152602001828054610c9990612675565b8015610ce65780601f10610cbb57610100808354040283529160200191610ce6565b820191906000526020600020905b815481529060010190602001808311610cc957829003601f168201915b505050505081526020019060010190610c4e565b50505050905090565b6000610d0e826117ac565b610d74576040517f08c379a000000000000000000000000000000000000000000000000000000000815260206004820152601a60248201527f5742423a20426174746c6520646f65736e27742065786973747300000000000060448201526064016104b0565b603382604051610d849190612659565b9081526040519081900360200190206005015460ff1692915050565b8051602081830181018051603382529282019190930120915280548190610dc690612675565b80601f0160208091040260200160405190810160405280929190818152602001828054610df290612675565b8015610e3f5780601f10610e1457610100808354040283529160200191610e3f565b820191906000526020600020905b815481529060010190602001808311610e2257829003601f168201915b505050506002830154600384015460048501546005860154600690960154949592949193509160ff169086565b6037546040517ffe9fbb8000000000000000000000000000000000000000000000000000000000815233600482015273ffffffffffffffffffffffffffffffffffffffff9091169063fe9fbb8090602401602060405180830381865afa158015610eda573d6000803e3d6000fd5b505050506040513d601f19601f82011682018060405250810190610efe919061263c565b610f8a576040517f08c379a000000000000000000000000000000000000000000000000000000000815260206004820152602760248201527f5742423a20556e617574686f72697a656420746f2075706461746520626f737360448201527f207374617475730000000000000000000000000000000000000000000000000060648201526084016104b0565b610f9382611f2b565b610ff9576040517f08c379a000000000000000000000000000000000000000000000000000000000815260206004820152601760248201527f5742423a20426f737320646f65736e277420657869737400000000000000000060448201526064016104b0565b600060358360405161100b9190612659565b90815260405190819003602001902060040180549215157fffffffffffffffffffffffffffffffffffffffffffffffffffffffffffffff00909316929092179091555050565b60006035826040516110639190612659565b9081526040519081900360200190206004015460ff1692915050565b80516020818301810180516035825292820191909301209152805481906110a590612675565b80601f01602080910402602001604051908101604052809291908181526020018280546110d190612675565b801561111e5780601f106110f35761010080835404028352916020019161111e565b820191906000526020600020905b81548152906001019060200180831161110157829003601f168201915b50505050509080600101805461113390612675565b80601f016020809104026020016040519081016040528092919081815260200182805461115f90612675565b80156111ac5780601f10611181576101008083540402835291602001916111ac565b820191906000526020600020905b81548152906001019060200180831161118f57829003601f168201915b5050505050908060020154908060030180546111c790612675565b80601f01602080910402602001604051908101604052809291908181526020018280546111f390612675565b80156112405780601f1061121557610100808354040283529160200191611240565b820191906000526020600020905b81548152906001019060200180831161122357829003601f168201915b505050506004830154600590930154919260ff1691905086565b6037546040517ffe9fbb8000000000000000000000000000000000000000000000000000000000815233600482018190529173ffffffffffffffffffffffffffffffffffffffff169063fe9fbb8090602401602060405180830381865afa1580156112c9573d6000803e3d6000fd5b505050506040513d601f19601f820116820180604052508101906112ed919061263c565b611379576040517f08c379a000000000000000000000000000000000000000000000000000000000815260206004820152602260248201527f5742423a20556e617574686f72697a656420746f20637265617465206261747460448201527f6c6500000000000000000000000000000000000000000000000000000000000060648201526084016104b0565b611382856117ac565b156113e9576040517f08c379a000000000000000000000000000000000000000000000000000000000815260206004820152601a60248201527f5742423a20426174746c6520616c72656164792045786973747300000000000060448201526064016104b0565b828211611452576040517f08c379a000000000000000000000000000000000000000000000000000000000815260206004820152601a60248201527f5742423a20696e76616c696420626174746c6520706572696f6400000000000060448201526064016104b0565b61145b846108cb565b600060338660405161146d9190612659565b9081526040519081900360200190209050806114898782612717565b5060038101849055600481018390556005810180547fffffffffffffffffffffffffffffffffffffffffffffffffffffffffffffff00166001908117909155855160028301556034805491820181556000527f46bddb1178e94d7f2892ff5f366840eb658911794f2c3a44c450aa2c505186c1016115078782612717565b5060345461151790600190612911565b600682015560005b855181101561157a578160010186828151811061153e5761153e61287b565b602090810291909101810151825460018101845560009384529190922001906115679082612717565b5080611572816128d9565b91505061151f565b508173ffffffffffffffffffffffffffffffffffffffff167fbf930b6a4190ef0d2e18f5890bf0a9d9cadbdb0806e46cdf21ac172ca43f76a687878787604051610675949392919061292a565b6037546040517ffe9fbb8000000000000000000000000000000000000000000000000000000000815233600482015273ffffffffffffffffffffffffffffffffffffffff9091169063fe9fbb8090602401602060405180830381865afa158015611635573d6000803e3d6000fd5b505050506040513d601f19601f82011682018060405250810190611659919061263c565b6116e5576040517f08c379a000000000000000000000000000000000000000000000000000000000815260206004820152602660248201527f5742423a20556e617574686f72697a656420746f2073657420626174746c652060448201527f737461747573000000000000000000000000000000000000000000000000000060648201526084016104b0565b6116ee826117ac565b611754576040517f08c379a000000000000000000000000000000000000000000000000000000000815260206004820152601960248201527f5742423a20426174746c6520646f65736e27742065786973740000000000000060448201526064016104b0565b60006033836040516117669190612659565b90815260405190819003602001902060050180549215157fffffffffffffffffffffffffffffffffffffffffffffffffffffffffffffff00909316929092179091555050565b6034546000901561191a5760006034805480602002602001604051908101604052809291908181526020016000905b828210156118875783829060005260206000200180546117fa90612675565b80601f016020809104026020016040519081016040528092919081815260200182805461182690612675565b80156118735780601f1061184857610100808354040283529160200191611873565b820191906000526020600020905b81548152906001019060200180831161185657829003601f168201915b5050505050815260200190600101906117db565b50505050905060005b815181101561191757836040516020016118aa9190612659565b604051602081830303815290604052805190602001208282815181106118d2576118d261287b565b60200260200101516040516020016118ea9190612659565b604051602081830303815290604052805190602001200361190f575060019392505050565b600101611890565b50505b506000919050565b60606034805480602002602001604051908101604052809291908181526020016000905b82821015610cfa57838290600052602060002001805461196590612675565b80601f016020809104026020016040519081016040528092919081815260200182805461199190612675565b80156119de5780601f106119b3576101008083540402835291602001916119de565b820191906000526020600020905b8154815290600101906020018083116119c157829003601f168201915b505050505081526020019060010190611946565b6034805460609190611a0690600190612911565b81548110611a1657611a1661287b565b906000526020600020018054611a2b90612675565b80601f0160208091040260200160405190810160405280929190818152602001828054611a5790612675565b8015611aa45780601f10611a7957610100808354040283529160200191611aa4565b820191906000526020600020905b815481529060010190602001808311611a8757829003601f168201915b5050505050905090565b6037546040517ffe9fbb8000000000000000000000000000000000000000000000000000000000815233600482018190529173ffffffffffffffffffffffffffffffffffffffff169063fe9fbb8090602401602060405180830381865afa158015611b1d573d6000803e3d6000fd5b505050506040513d601f19601f82011682018060405250810190611b41919061263c565b611bcd576040517f08c379a000000000000000000000000000000000000000000000000000000000815260206004820152602260248201527f5742423a20556e617574686f72697a656420746f20757064617465206261747460448201527f6c6500000000000000000000000000000000000000000000000000000000000060648201526084016104b0565b611bd6846117ac565b611c3c576040517f08c379a000000000000000000000000000000000000000000000000000000000815260206004820152601a60248201527f5742423a20426174746c6520646f65736e27742065786973747300000000000060448201526064016104b0565b603384604051611c4c9190612659565b9081526040519081900360200190206005015460ff1615611cc9576040517f08c379a000000000000000000000000000000000000000000000000000000000815260206004820152601560248201527f5742423a20426174746c6520697320616374697665000000000000000000000060448201526064016104b0565b6000603385604051611cdb9190612659565b908152604051908190036020019020905080611cf78682612717565b50600381018490556004810183905560405173ffffffffffffffffffffffffffffffffffffffff8316907f48af9efa0eb42768b8561a4d6eb892763a3701ff2fae21c37d480825f78f6cbc90611d5290889088908890612963565b60405180910390a25050505050565b600054610100900460ff1615808015611d815750600054600160ff909116105b80611d9b5750303b158015611d9b575060005460ff166001145b611e27576040517f08c379a000000000000000000000000000000000000000000000000000000000815260206004820152602e60248201527f496e697469616c697a61626c653a20636f6e747261637420697320616c72656160448201527f647920696e697469616c697a656400000000000000000000000000000000000060648201526084016104b0565b600080547fffffffffffffffffffffffffffffffffffffffffffffffffffffffffffffff001660011790558015611e8557600080547fffffffffffffffffffffffffffffffffffffffffffffffffffffffffffff00ff166101001790555b603780547fffffffffffffffffffffffff00000000000000000000000000000000000000001673ffffffffffffffffffffffffffffffffffffffff8416179055801561097157600080547fffffffffffffffffffffffffffffffffffffffffffffffffffffffffffff00ff169055604051600181527f7f26b83ff96e1f2b6a682f133852f6798a09c465da95921460cefb38474024989060200160405180910390a15050565b6036546000901561191a5760006036805480602002602001604051908101604052809291908181526020016000905b82821015612006578382906000526020600020018054611f7990612675565b80601f0160208091040260200160405190810160405280929190818152602001828054611fa590612675565b8015611ff25780601f10611fc757610100808354040283529160200191611ff2565b820191906000526020600020905b815481529060010190602001808311611fd557829003601f168201915b505050505081526020019060010190611f5a565b50505050905060005b815181101561191757836040516020016120299190612659565b604051602081830303815290604052805190602001208282815181106120515761205161287b565b60200260200101516040516020016120699190612659565b604051602081830303815290604052805190602001200361208e575060019392505050565b60010161200f565b7f4e487b7100000000000000000000000000000000000000000000000000000000600052604160045260246000fd5b604051601f82017fffffffffffffffffffffffffffffffffffffffffffffffffffffffffffffffe016810167ffffffffffffffff8111828210171561210c5761210c612096565b604052919050565b600082601f83011261212557600080fd5b813567ffffffffffffffff81111561213f5761213f612096565b61217060207fffffffffffffffffffffffffffffffffffffffffffffffffffffffffffffffe0601f840116016120c5565b81815284602083860101111561218557600080fd5b816020850160208301376000918101602001919091529392505050565b600080600080608085870312156121b857600080fd5b843567ffffffffffffffff808211156121d057600080fd5b6121dc88838901612114565b955060208701359150808211156121f257600080fd5b6121fe88838901612114565b945060408701359350606087013591508082111561221b57600080fd5b5061222887828801612114565b91505092959194509250565b60006020828403121561224657600080fd5b5035919050565b60005b83811015612268578181015183820152602001612250565b50506000910152565b6000815180845261228981602086016020860161224d565b601f017fffffffffffffffffffffffffffffffffffffffffffffffffffffffffffffffe0169290920160200192915050565b6020815260006122ce6020830184612271565b9392505050565b6000602082840312156122e757600080fd5b813567ffffffffffffffff8111156122fe57600080fd5b61230a84828501612114565b949350505050565b600082601f83011261232357600080fd5b8135602067ffffffffffffffff8083111561234057612340612096565b8260051b61234f8382016120c5565b938452858101830193838101908886111561236957600080fd5b84880192505b858310156123a5578235848111156123875760008081fd5b6123958a87838c0101612114565b835250918401919084019061236f565b98975050505050505050565b6000602082840312156123c357600080fd5b813567ffffffffffffffff8111156123da57600080fd5b61230a84828501612312565b600081518084526020808501808196508360051b8101915082860160005b8581101561242e57828403895261241c848351612271565b98850198935090840190600101612404565b5091979650505050505050565b6020815260006122ce60208301846123e6565b60c08152600061246160c0830189612271565b602083019790975250604081019490945260608401929092521515608083015260a090910152919050565b801515811461249a57600080fd5b50565b600080604083850312156124b057600080fd5b823567ffffffffffffffff8111156124c757600080fd5b6124d385828601612114565b92505060208301356124e48161248c565b809150509250929050565b60c08152600061250260c0830189612271565b82810360208401526125148189612271565b9050866040840152828103606084015261252e8187612271565b9415156080840152505060a00152949350505050565b6000806000806080858703121561255a57600080fd5b843567ffffffffffffffff8082111561257257600080fd5b61257e88838901612114565b9550602087013591508082111561259457600080fd5b506125a187828801612312565b949794965050505060408301359260600135919050565b6000806000606084860312156125cd57600080fd5b833567ffffffffffffffff8111156125e457600080fd5b6125f086828701612114565b9660208601359650604090950135949350505050565b60006020828403121561261857600080fd5b813573ffffffffffffffffffffffffffffffffffffffff811681146122ce57600080fd5b60006020828403121561264e57600080fd5b81516122ce8161248c565b6000825161266b81846020870161224d565b9190910192915050565b600181811c9082168061268957607f821691505b6020821081036126c2577f4e487b7100000000000000000000000000000000000000000000000000000000600052602260045260246000fd5b50919050565b601f82111561271257600081815260208120601f850160051c810160208610156126ef5750805b601f850160051c820191505b8181101561270e578281556001016126fb565b5050505b505050565b815167ffffffffffffffff81111561273157612731612096565b6127458161273f8454612675565b846126c8565b602080601f83116001811461279857600084156127625750858301515b7fffffffffffffffffffffffffffffffffffffffffffffffffffffffffffffffff600386901b1c1916600185901b17855561270e565b6000858152602081207fffffffffffffffffffffffffffffffffffffffffffffffffffffffffffffffe08616915b828110156127e5578886015182559484019460019091019084016127c6565b508582101561282157878501517fffffffffffffffffffffffffffffffffffffffffffffffffffffffffffffffff600388901b60f8161c191681555b5050505050600190811b01905550565b6080815260006128446080830187612271565b82810360208401526128568187612271565b905084604084015282810360608401526128708185612271565b979650505050505050565b7f4e487b7100000000000000000000000000000000000000000000000000000000600052603260045260246000fd5b7f4e487b7100000000000000000000000000000000000000000000000000000000600052601160045260246000fd5b60007fffffffffffffffffffffffffffffffffffffffffffffffffffffffffffffffff820361290a5761290a6128aa565b5060010190565b81810381811115612924576129246128aa565b92915050565b60808152600061293d6080830187612271565b828103602084015261294f81876123e6565b604084019590955250506060015292915050565b6060815260006129766060830186612271565b6020830194909452506040015291905056fea2646970667358221220d2246205a35c9af4d5e03de15c9d7ab81ec793f6589ae0f6b97f419e37fa39ef64736f6c63430008110033",
  "devdoc": {
    "kind": "dev",
    "methods": {
      "checkActiveBosses(string[])": {
        "params": {
          "_bossId": "is should be given as parameter"
        }
      },
      "checkBattleEnded(string)": {
        "params": {
          "_battleId": "its a string"
        }
      },
      "checkBattleStatus(string)": {
        "params": {
          "_battleId": "its a string"
        }
      },
      "checkBossStatus(string)": {
        "params": {
          "_bossId": "is should be given as parameter"
        }
      },
      "createBattle(string,string[],uint256,uint256)": {
        "params": {
          "_battleId": "which is a string and identify battles,",
          "_bossIds": "which is an array of string,",
          "_endTime": "are unix timestamp",
          "_startTime": "and"
        }
      },
      "createBoss(string,string,uint256,string)": {
        "params": {
          "bossId": "which is a string and identify boss,",
          "maxHp": "is uint that have boss health and",
          "name": "which is name of string,",
          "uri": "is a string"
        }
      },
      "getBattlePeriod(string)": {
        "params": {
          "_battleId": "which is in string format"
        }
      },
      "updateBattle(string,uint256,uint256)": {
        "params": {
          "_battleId": "which is a string and identify battles,",
          "_endTime": "are unix timestamp",
          "_startTime": "and"
        }
      },
      "updateBoss(string,string,uint256,string)": {
        "params": {
          "bossId": "which is a string and identify boss,",
          "maxHp": "is uint that have boss health and",
          "name": "which is name of string,",
          "uri": "is a string"
        }
      }
    },
    "version": 1
  },
  "userdoc": {
    "kind": "user",
    "methods": {
      "battleList(uint256)": {
        "notice": "An array of all the battle identifiers that have been created."
      },
      "battles(string)": {
        "notice": "Mapping of battle data, where the key is the battle's identifier and the value is the battle's data structure."
      },
      "bossList(uint256)": {
        "notice": "An array of all the boss identifiers that have been created."
      },
      "bosses(string)": {
        "notice": "Mapping of boss data, where the key is the boss's identifier and the value is the boss's data structure."
      },
      "checkActiveBosses(string[])": {
        "notice": "checks the boss is available or not"
      },
      "checkBattleEnded(string)": {
        "notice": "to check the battle Ended or not i.e true or false"
      },
      "checkBattleStatus(string)": {
        "notice": "function to check the battleStatus i.e true or false"
      },
      "checkBossStatus(string)": {
        "notice": "checks the boss is available or not"
      },
      "createBattle(string,string[],uint256,uint256)": {
        "notice": "function to create battle requires battleId and bossId, starting time and ending time"
      },
      "createBoss(string,string,uint256,string)": {
        "notice": "Method to create a new boss."
      },
      "getAllBattle()": {
        "notice": "return the list of all bosses"
      },
      "getAllBosses()": {
        "notice": "return the list of all bosses"
      },
      "getBattlePeriod(string)": {
        "notice": "gives the end time of an battle in unix"
      },
      "getLatestBattle()": {
        "notice": "return the last created battle"
      },
      "updateBattle(string,uint256,uint256)": {
        "notice": "function to update battle requires battleId, bossId, starting time and ending time along with battle status.         Note: 1. Battle should be inactive to be able to update.               2. If battle should be updated with new bosses or updated boss, new battle SHOULD be created"
      },
      "updateBoss(string,string,uint256,string)": {
        "notice": "function to update the boss character"
      }
    },
    "version": 1
  },
  "storageLayout": {
    "storage": [
      {
        "astId": 547,
        "contract": "contracts/game/WBBActionsV2.sol:WBBActionsV2",
        "label": "_initialized",
        "offset": 0,
        "slot": "0",
        "type": "t_uint8"
      },
      {
        "astId": 550,
        "contract": "contracts/game/WBBActionsV2.sol:WBBActionsV2",
        "label": "_initializing",
        "offset": 1,
        "slot": "0",
        "type": "t_bool"
      },
      {
        "astId": 2657,
        "contract": "contracts/game/WBBActionsV2.sol:WBBActionsV2",
        "label": "__gap",
        "offset": 0,
        "slot": "1",
        "type": "t_array(t_uint256)50_storage"
      },
      {
        "astId": 6892,
        "contract": "contracts/game/WBBActionsV2.sol:WBBActionsV2",
        "label": "battles",
        "offset": 0,
        "slot": "51",
        "type": "t_mapping(t_string_memory_ptr,t_struct(Battle)6873_storage)"
      },
      {
        "astId": 6896,
        "contract": "contracts/game/WBBActionsV2.sol:WBBActionsV2",
        "label": "battleList",
        "offset": 0,
        "slot": "52",
        "type": "t_array(t_string_storage)dyn_storage"
      },
      {
        "astId": 6902,
        "contract": "contracts/game/WBBActionsV2.sol:WBBActionsV2",
        "label": "bosses",
        "offset": 0,
        "slot": "53",
        "type": "t_mapping(t_string_memory_ptr,t_struct(Boss)6886_storage)"
      },
      {
        "astId": 6906,
        "contract": "contracts/game/WBBActionsV2.sol:WBBActionsV2",
        "label": "bossList",
        "offset": 0,
        "slot": "54",
        "type": "t_array(t_string_storage)dyn_storage"
      },
      {
        "astId": 6055,
        "contract": "contracts/game/WBBActionsV2.sol:WBBActionsV2",
        "label": "accessControls",
        "offset": 0,
        "slot": "55",
        "type": "t_contract(GameAccessControls)5769"
      }
    ],
    "types": {
      "t_array(t_string_storage)dyn_storage": {
        "base": "t_string_storage",
        "encoding": "dynamic_array",
        "label": "string[]",
        "numberOfBytes": "32"
      },
      "t_array(t_uint256)50_storage": {
        "base": "t_uint256",
        "encoding": "inplace",
        "label": "uint256[50]",
        "numberOfBytes": "1600"
      },
      "t_bool": {
        "encoding": "inplace",
        "label": "bool",
        "numberOfBytes": "1"
      },
      "t_contract(GameAccessControls)5769": {
        "encoding": "inplace",
        "label": "contract GameAccessControls",
        "numberOfBytes": "20"
      },
      "t_mapping(t_string_memory_ptr,t_struct(Battle)6873_storage)": {
        "encoding": "mapping",
        "key": "t_string_memory_ptr",
        "label": "mapping(string => struct WBBData.Battle)",
        "numberOfBytes": "32",
        "value": "t_struct(Battle)6873_storage"
      },
      "t_mapping(t_string_memory_ptr,t_struct(Boss)6886_storage)": {
        "encoding": "mapping",
        "key": "t_string_memory_ptr",
        "label": "mapping(string => struct WBBData.Boss)",
        "numberOfBytes": "32",
        "value": "t_struct(Boss)6886_storage"
      },
      "t_string_memory_ptr": {
        "encoding": "bytes",
        "label": "string",
        "numberOfBytes": "32"
      },
      "t_string_storage": {
        "encoding": "bytes",
        "label": "string",
        "numberOfBytes": "32"
      },
      "t_struct(Battle)6873_storage": {
        "encoding": "inplace",
        "label": "struct WBBData.Battle",
        "members": [
          {
            "astId": 6859,
            "contract": "contracts/game/WBBActionsV2.sol:WBBActionsV2",
            "label": "battleId",
            "offset": 0,
            "slot": "0",
            "type": "t_string_storage"
          },
          {
            "astId": 6862,
            "contract": "contracts/game/WBBActionsV2.sol:WBBActionsV2",
            "label": "bossIds",
            "offset": 0,
            "slot": "1",
            "type": "t_array(t_string_storage)dyn_storage"
          },
          {
            "astId": 6864,
            "contract": "contracts/game/WBBActionsV2.sol:WBBActionsV2",
            "label": "bossCount",
            "offset": 0,
            "slot": "2",
            "type": "t_uint256"
          },
          {
            "astId": 6866,
            "contract": "contracts/game/WBBActionsV2.sol:WBBActionsV2",
            "label": "startTime",
            "offset": 0,
            "slot": "3",
            "type": "t_uint256"
          },
          {
            "astId": 6868,
            "contract": "contracts/game/WBBActionsV2.sol:WBBActionsV2",
            "label": "endTime",
            "offset": 0,
            "slot": "4",
            "type": "t_uint256"
          },
          {
            "astId": 6870,
            "contract": "contracts/game/WBBActionsV2.sol:WBBActionsV2",
            "label": "status",
            "offset": 0,
            "slot": "5",
            "type": "t_bool"
          },
          {
            "astId": 6872,
            "contract": "contracts/game/WBBActionsV2.sol:WBBActionsV2",
            "label": "index",
            "offset": 0,
            "slot": "6",
            "type": "t_uint256"
          }
        ],
        "numberOfBytes": "224"
      },
      "t_struct(Boss)6886_storage": {
        "encoding": "inplace",
        "label": "struct WBBData.Boss",
        "members": [
          {
            "astId": 6875,
            "contract": "contracts/game/WBBActionsV2.sol:WBBActionsV2",
            "label": "bossId",
            "offset": 0,
            "slot": "0",
            "type": "t_string_storage"
          },
          {
            "astId": 6877,
            "contract": "contracts/game/WBBActionsV2.sol:WBBActionsV2",
            "label": "name",
            "offset": 0,
            "slot": "1",
            "type": "t_string_storage"
          },
          {
            "astId": 6879,
            "contract": "contracts/game/WBBActionsV2.sol:WBBActionsV2",
            "label": "maxHp",
            "offset": 0,
            "slot": "2",
            "type": "t_uint256"
          },
          {
            "astId": 6881,
            "contract": "contracts/game/WBBActionsV2.sol:WBBActionsV2",
            "label": "uri",
            "offset": 0,
            "slot": "3",
            "type": "t_string_storage"
          },
          {
            "astId": 6883,
            "contract": "contracts/game/WBBActionsV2.sol:WBBActionsV2",
            "label": "status",
            "offset": 0,
            "slot": "4",
            "type": "t_bool"
          },
          {
            "astId": 6885,
            "contract": "contracts/game/WBBActionsV2.sol:WBBActionsV2",
            "label": "index",
            "offset": 0,
            "slot": "5",
            "type": "t_uint256"
          }
        ],
        "numberOfBytes": "192"
      },
      "t_uint256": {
        "encoding": "inplace",
        "label": "uint256",
        "numberOfBytes": "32"
      },
      "t_uint8": {
        "encoding": "inplace",
        "label": "uint8",
        "numberOfBytes": "1"
      }
    }
  }
}