{
  "address": "0x35D2F51DBC8b401B11fA3FE04423E0f5cd9fEDb4",
  "abi": [
    {
      "inputs": [],
      "stateMutability": "nonpayable",
      "type": "constructor"
    },
    {
      "inputs": [],
      "name": "NotEnoughTokens",
      "type": "error"
    },
    {
      "anonymous": false,
      "inputs": [
        {
          "indexed": false,
          "internalType": "uint8",
          "name": "version",
          "type": "uint8"
        }
      ],
      "name": "Initialized",
      "type": "event"
    },
    {
      "anonymous": false,
      "inputs": [
        {
          "indexed": true,
          "internalType": "address",
          "name": "_player",
          "type": "address"
        },
        {
          "indexed": false,
          "internalType": "uint256",
          "name": "_tokenId",
          "type": "uint256"
        },
        {
          "indexed": false,
          "internalType": "string",
          "name": "_battleId",
          "type": "string"
        },
        {
          "indexed": false,
          "internalType": "uint256",
          "name": "_stakedTokenTime",
          "type": "uint256"
        }
      ],
      "name": "NFTRestaked",
      "type": "event"
    },
    {
      "anonymous": false,
      "inputs": [
        {
          "indexed": true,
          "internalType": "address",
          "name": "_nftOwner",
          "type": "address"
        },
        {
          "indexed": false,
          "internalType": "uint256",
          "name": "_tokenId",
          "type": "uint256"
        },
        {
          "indexed": false,
          "internalType": "string",
          "name": "_battleId",
          "type": "string"
        },
        {
          "indexed": false,
          "internalType": "uint256",
          "name": "_stakedTokenTime",
          "type": "uint256"
        }
      ],
      "name": "NFTStaked",
      "type": "event"
    },
    {
      "anonymous": false,
      "inputs": [
        {
          "indexed": true,
          "internalType": "address",
          "name": "_nftReceiver",
          "type": "address"
        },
        {
          "indexed": false,
          "internalType": "uint256",
          "name": "_tokenId",
          "type": "uint256"
        },
        {
          "indexed": false,
          "internalType": "string",
          "name": "_battleId",
          "type": "string"
        }
      ],
      "name": "NFTUnstaked",
      "type": "event"
    },
    {
      "anonymous": false,
      "inputs": [
        {
          "indexed": false,
          "internalType": "address",
          "name": "account",
          "type": "address"
        }
      ],
      "name": "Paused",
      "type": "event"
    },
    {
      "anonymous": false,
      "inputs": [
        {
          "indexed": false,
          "internalType": "uint256",
          "name": "_coolDownPeriod",
          "type": "uint256"
        },
        {
          "indexed": false,
          "internalType": "uint256",
          "name": "_newCoolDownPeriod",
          "type": "uint256"
        },
        {
          "indexed": false,
          "internalType": "address",
          "name": "_sender",
          "type": "address"
        }
      ],
      "name": "SetCoolDownPeriod",
      "type": "event"
    },
    {
      "anonymous": false,
      "inputs": [
        {
          "indexed": false,
          "internalType": "uint256",
          "name": "_maxOldCount",
          "type": "uint256"
        },
        {
          "indexed": false,
          "internalType": "uint256",
          "name": "_maxNewCount",
          "type": "uint256"
        },
        {
          "indexed": false,
          "internalType": "address",
          "name": "_sender",
          "type": "address"
        }
      ],
      "name": "SetMaxStakeCount",
      "type": "event"
    },
    {
      "anonymous": false,
      "inputs": [
        {
          "indexed": true,
          "internalType": "address",
          "name": "_oldNFTContract",
          "type": "address"
        },
        {
          "indexed": true,
          "internalType": "address",
          "name": "_nftContract",
          "type": "address"
        },
        {
          "indexed": false,
          "internalType": "address",
          "name": "_sender",
          "type": "address"
        }
      ],
      "name": "SetNFTContract",
      "type": "event"
    },
    {
      "anonymous": false,
      "inputs": [
        {
          "indexed": true,
          "internalType": "address",
          "name": "_oldHolder",
          "type": "address"
        },
        {
          "indexed": true,
          "internalType": "address",
          "name": "_newholder",
          "type": "address"
        },
        {
          "indexed": false,
          "internalType": "address",
          "name": "_sender",
          "type": "address"
        }
      ],
      "name": "SetNFTHolder",
      "type": "event"
    },
    {
      "anonymous": false,
      "inputs": [
        {
          "indexed": true,
          "internalType": "address",
          "name": "_oldTokenContract",
          "type": "address"
        },
        {
          "indexed": true,
          "internalType": "address",
          "name": "_newTokenContract",
          "type": "address"
        },
        {
          "indexed": false,
          "internalType": "address",
          "name": "_sender",
          "type": "address"
        }
      ],
      "name": "SetTokenContract",
      "type": "event"
    },
    {
      "anonymous": false,
      "inputs": [
        {
          "indexed": true,
          "internalType": "address",
          "name": "_oldWBBActionsAddress",
          "type": "address"
        },
        {
          "indexed": true,
          "internalType": "address",
          "name": "_newWBBActionsAddress",
          "type": "address"
        },
        {
          "indexed": false,
          "internalType": "address",
          "name": "_sender",
          "type": "address"
        }
      ],
      "name": "SetWBBActionsAddress",
      "type": "event"
    },
    {
      "anonymous": false,
      "inputs": [
        {
          "indexed": false,
          "internalType": "address",
          "name": "account",
          "type": "address"
        }
      ],
      "name": "Unpaused",
      "type": "event"
    },
    {
      "inputs": [],
      "name": "accessControls",
      "outputs": [
        {
          "internalType": "contract GameAccessControls",
          "name": "",
          "type": "address"
        }
      ],
      "stateMutability": "view",
      "type": "function"
    },
    {
      "inputs": [],
      "name": "cdhNFT",
      "outputs": [
        {
          "internalType": "contract ICDHNFTInventory",
          "name": "",
          "type": "address"
        }
      ],
      "stateMutability": "view",
      "type": "function"
    },
    {
      "inputs": [
        {
          "internalType": "uint256",
          "name": "_nftCount",
          "type": "uint256"
        },
        {
          "internalType": "uint256",
          "name": "_balance",
          "type": "uint256"
        }
      ],
      "name": "checkRequiredTokenBalance",
      "outputs": [
        {
          "internalType": "bool",
          "name": "",
          "type": "bool"
        }
      ],
      "stateMutability": "view",
      "type": "function"
    },
    {
      "inputs": [],
      "name": "cooldownPeriod",
      "outputs": [
        {
          "internalType": "uint256",
          "name": "",
          "type": "uint256"
        }
      ],
      "stateMutability": "view",
      "type": "function"
    },
    {
      "inputs": [],
      "name": "enableBattlePeriodUnstake",
      "outputs": [
        {
          "internalType": "bool",
          "name": "",
          "type": "bool"
        }
      ],
      "stateMutability": "view",
      "type": "function"
    },
    {
      "inputs": [
        {
          "internalType": "address",
          "name": "_player",
          "type": "address"
        }
      ],
      "name": "getAllToken",
      "outputs": [
        {
          "internalType": "uint256[]",
          "name": "",
          "type": "uint256[]"
        }
      ],
      "stateMutability": "view",
      "type": "function"
    },
    {
      "inputs": [
        {
          "internalType": "address",
          "name": "_player",
          "type": "address"
        },
        {
          "internalType": "uint256",
          "name": "_tokenId",
          "type": "uint256"
        }
      ],
      "name": "getStakedTokenTime",
      "outputs": [
        {
          "internalType": "uint256",
          "name": "",
          "type": "uint256"
        }
      ],
      "stateMutability": "view",
      "type": "function"
    },
    {
      "inputs": [
        {
          "internalType": "address",
          "name": "_player",
          "type": "address"
        },
        {
          "internalType": "string",
          "name": "_battleId",
          "type": "string"
        }
      ],
      "name": "getStakedTokensForBattle",
      "outputs": [
        {
          "internalType": "uint256[]",
          "name": "tokenIds",
          "type": "uint256[]"
        }
      ],
      "stateMutability": "view",
      "type": "function"
    },
    {
      "inputs": [
        {
          "internalType": "contract ICDHNFTInventory",
          "name": "_cdhNFTAddress",
          "type": "address"
        },
        {
          "internalType": "contract IToken",
          "name": "_tokenAddress",
          "type": "address"
        },
        {
          "internalType": "address",
          "name": "_nftHolder",
          "type": "address"
        },
        {
          "internalType": "uint256",
          "name": "_maxStakeCount",
          "type": "uint256"
        },
        {
          "internalType": "contract IWBBActions",
          "name": "_wbbActionsAddress",
          "type": "address"
        },
        {
          "internalType": "contract GameAccessControls",
          "name": "_accessControls",
          "type": "address"
        }
      ],
      "name": "initialize",
      "outputs": [],
      "stateMutability": "nonpayable",
      "type": "function"
    },
    {
      "inputs": [
        {
          "internalType": "string",
          "name": "_pastBattleId",
          "type": "string"
        },
        {
          "internalType": "address",
          "name": "_player",
          "type": "address"
        }
      ],
      "name": "isEligibleToStake",
      "outputs": [
        {
          "internalType": "bool",
          "name": "",
          "type": "bool"
        }
      ],
      "stateMutability": "view",
      "type": "function"
    },
    {
      "inputs": [],
      "name": "lastInteractionTime",
      "outputs": [
        {
          "internalType": "uint256",
          "name": "",
          "type": "uint256"
        }
      ],
      "stateMutability": "view",
      "type": "function"
    },
    {
      "inputs": [],
      "name": "latestBattle",
      "outputs": [
        {
          "internalType": "string",
          "name": "",
          "type": "string"
        }
      ],
      "stateMutability": "view",
      "type": "function"
    },
    {
      "inputs": [],
      "name": "maxStakeCount",
      "outputs": [
        {
          "internalType": "uint256",
          "name": "",
          "type": "uint256"
        }
      ],
      "stateMutability": "view",
      "type": "function"
    },
    {
      "inputs": [],
      "name": "minTokensRequired",
      "outputs": [
        {
          "internalType": "uint256",
          "name": "",
          "type": "uint256"
        }
      ],
      "stateMutability": "view",
      "type": "function"
    },
    {
      "inputs": [],
      "name": "nftHolder",
      "outputs": [
        {
          "internalType": "address",
          "name": "",
          "type": "address"
        }
      ],
      "stateMutability": "view",
      "type": "function"
    },
    {
      "inputs": [],
      "name": "pause",
      "outputs": [],
      "stateMutability": "nonpayable",
      "type": "function"
    },
    {
      "inputs": [],
      "name": "paused",
      "outputs": [
        {
          "internalType": "bool",
          "name": "",
          "type": "bool"
        }
      ],
      "stateMutability": "view",
      "type": "function"
    },
    {
      "inputs": [
        {
          "internalType": "uint256",
          "name": "_tokenId",
          "type": "uint256"
        },
        {
          "internalType": "string",
          "name": "_battleId",
          "type": "string"
        }
      ],
      "name": "restake",
      "outputs": [],
      "stateMutability": "nonpayable",
      "type": "function"
    },
    {
      "inputs": [
        {
          "internalType": "string",
          "name": "_battleId",
          "type": "string"
        }
      ],
      "name": "restakeAll",
      "outputs": [],
      "stateMutability": "nonpayable",
      "type": "function"
    },
    {
      "inputs": [],
      "name": "restakeAllOnLatestBattle",
      "outputs": [],
      "stateMutability": "nonpayable",
      "type": "function"
    },
    {
      "inputs": [
        {
          "internalType": "uint256",
          "name": "_tokenId",
          "type": "uint256"
        }
      ],
      "name": "restakeOnLatestBattle",
      "outputs": [],
      "stateMutability": "nonpayable",
      "type": "function"
    },
    {
      "inputs": [
        {
          "internalType": "uint256[]",
          "name": "_tokenIds",
          "type": "uint256[]"
        },
        {
          "internalType": "string",
          "name": "_battleId",
          "type": "string"
        }
      ],
      "name": "restakeTokens",
      "outputs": [],
      "stateMutability": "nonpayable",
      "type": "function"
    },
    {
      "inputs": [
        {
          "internalType": "uint256[]",
          "name": "_tokenIds",
          "type": "uint256[]"
        }
      ],
      "name": "restakeTokensOnLatestBattle",
      "outputs": [],
      "stateMutability": "nonpayable",
      "type": "function"
    },
    {
      "inputs": [
        {
          "internalType": "bool",
          "name": "_unstakeStatus",
          "type": "bool"
        }
      ],
      "name": "setBattlePeriodUnstakeStatus",
      "outputs": [],
      "stateMutability": "nonpayable",
      "type": "function"
    },
    {
      "inputs": [
        {
          "internalType": "address",
          "name": "_nftContract",
          "type": "address"
        }
      ],
      "name": "setCDHNFTContractAddress",
      "outputs": [],
      "stateMutability": "nonpayable",
      "type": "function"
    },
    {
      "inputs": [
        {
          "internalType": "uint256",
          "name": "_time",
          "type": "uint256"
        }
      ],
      "name": "setCoolDownPeriod",
      "outputs": [
        {
          "internalType": "uint256",
          "name": "",
          "type": "uint256"
        }
      ],
      "stateMutability": "nonpayable",
      "type": "function"
    },
    {
      "inputs": [
        {
          "internalType": "uint256",
          "name": "_maxCount",
          "type": "uint256"
        }
      ],
      "name": "setMaxStakeCount",
      "outputs": [],
      "stateMutability": "nonpayable",
      "type": "function"
    },
    {
      "inputs": [
        {
          "internalType": "uint256",
          "name": "_value",
          "type": "uint256"
        }
      ],
      "name": "setMinTokensRequired",
      "outputs": [],
      "stateMutability": "nonpayable",
      "type": "function"
    },
    {
      "inputs": [
        {
          "internalType": "address",
          "name": "_holder",
          "type": "address"
        }
      ],
      "name": "setNFTHolderAddress",
      "outputs": [],
      "stateMutability": "nonpayable",
      "type": "function"
    },
    {
      "inputs": [
        {
          "internalType": "address",
          "name": "_tokenAddress",
          "type": "address"
        }
      ],
      "name": "setToken",
      "outputs": [],
      "stateMutability": "nonpayable",
      "type": "function"
    },
    {
      "inputs": [
        {
          "internalType": "address",
          "name": "_wbbActionsAddress",
          "type": "address"
        }
      ],
      "name": "setWBBActionsContract",
      "outputs": [],
      "stateMutability": "nonpayable",
      "type": "function"
    },
    {
      "inputs": [
        {
          "internalType": "uint256",
          "name": "_tokenId",
          "type": "uint256"
        },
        {
          "internalType": "string",
          "name": "_battleId",
          "type": "string"
        }
      ],
      "name": "stake",
      "outputs": [],
      "stateMutability": "nonpayable",
      "type": "function"
    },
    {
      "inputs": [],
      "name": "stakeAllOnLatestBattle",
      "outputs": [],
      "stateMutability": "nonpayable",
      "type": "function"
    },
    {
      "inputs": [
        {
          "internalType": "uint256",
          "name": "_tokenId",
          "type": "uint256"
        }
      ],
      "name": "stakeOnLatestBattle",
      "outputs": [],
      "stateMutability": "nonpayable",
      "type": "function"
    },
    {
      "inputs": [
        {
          "internalType": "uint256[]",
          "name": "tokenIds",
          "type": "uint256[]"
        },
        {
          "internalType": "string",
          "name": "_battleId",
          "type": "string"
        }
      ],
      "name": "stakeTokens",
      "outputs": [],
      "stateMutability": "nonpayable",
      "type": "function"
    },
    {
      "inputs": [
        {
          "internalType": "uint256[]",
          "name": "_tokenIds",
          "type": "uint256[]"
        }
      ],
      "name": "stakeTokensOnLatestBattle",
      "outputs": [],
      "stateMutability": "nonpayable",
      "type": "function"
    },
    {
      "inputs": [
        {
          "internalType": "address",
          "name": "",
          "type": "address"
        }
      ],
      "name": "stakers",
      "outputs": [
        {
          "internalType": "uint256",
          "name": "blockNumber",
          "type": "uint256"
        }
      ],
      "stateMutability": "view",
      "type": "function"
    },
    {
      "inputs": [
        {
          "internalType": "uint256",
          "name": "",
          "type": "uint256"
        }
      ],
      "name": "stakersAddress",
      "outputs": [
        {
          "internalType": "address",
          "name": "",
          "type": "address"
        }
      ],
      "stateMutability": "view",
      "type": "function"
    },
    {
      "inputs": [],
      "name": "tokenAddress",
      "outputs": [
        {
          "internalType": "contract IToken",
          "name": "",
          "type": "address"
        }
      ],
      "stateMutability": "view",
      "type": "function"
    },
    {
      "inputs": [
        {
          "internalType": "uint256",
          "name": "",
          "type": "uint256"
        }
      ],
      "name": "tokenOwner",
      "outputs": [
        {
          "internalType": "address",
          "name": "",
          "type": "address"
        }
      ],
      "stateMutability": "view",
      "type": "function"
    },
    {
      "inputs": [
        {
          "internalType": "uint256",
          "name": "",
          "type": "uint256"
        }
      ],
      "name": "tokenToBattleId",
      "outputs": [
        {
          "internalType": "string",
          "name": "",
          "type": "string"
        }
      ],
      "stateMutability": "view",
      "type": "function"
    },
    {
      "inputs": [],
      "name": "unpause",
      "outputs": [],
      "stateMutability": "nonpayable",
      "type": "function"
    },
    {
      "inputs": [
        {
          "internalType": "uint256",
          "name": "_tokenId",
          "type": "uint256"
        },
        {
          "internalType": "string",
          "name": "_battleId",
          "type": "string"
        }
      ],
      "name": "unstake",
      "outputs": [],
      "stateMutability": "nonpayable",
      "type": "function"
    },
    {
      "inputs": [
        {
          "internalType": "string",
          "name": "_battleId",
          "type": "string"
        }
      ],
      "name": "unstakeAll",
      "outputs": [],
      "stateMutability": "nonpayable",
      "type": "function"
    },
    {
      "inputs": [
        {
          "internalType": "address",
          "name": "_player",
          "type": "address"
        },
        {
          "internalType": "string",
          "name": "_battleId",
          "type": "string"
        }
      ],
      "name": "unstakeAllInternal",
      "outputs": [],
      "stateMutability": "nonpayable",
      "type": "function"
    },
    {
      "inputs": [
        {
          "internalType": "uint256[]",
          "name": "tokenIds",
          "type": "uint256[]"
        },
        {
          "internalType": "string",
          "name": "_battleId",
          "type": "string"
        }
      ],
      "name": "unstakeTokens",
      "outputs": [],
      "stateMutability": "nonpayable",
      "type": "function"
    },
    {
      "inputs": [
        {
          "internalType": "address",
          "name": "_player",
          "type": "address"
        },
        {
          "internalType": "uint256[]",
          "name": "_tokenIds",
          "type": "uint256[]"
        },
        {
          "internalType": "string",
          "name": "_battleId",
          "type": "string"
        }
      ],
      "name": "unstakeTokensInternal",
      "outputs": [],
      "stateMutability": "nonpayable",
      "type": "function"
    },
    {
      "inputs": [
        {
          "internalType": "uint256[]",
          "name": "_tokenIds",
          "type": "uint256[]"
        },
        {
          "internalType": "string",
          "name": "_battleId",
          "type": "string"
        },
        {
          "internalType": "address",
          "name": "_player",
          "type": "address"
        }
      ],
      "name": "validStakeCount",
      "outputs": [
        {
          "internalType": "bool",
          "name": "",
          "type": "bool"
        }
      ],
      "stateMutability": "view",
      "type": "function"
    },
    {
      "inputs": [],
      "name": "wbbActions",
      "outputs": [
        {
          "internalType": "contract IWBBActions",
          "name": "",
          "type": "address"
        }
      ],
      "stateMutability": "view",
      "type": "function"
    }
  ],
  "transactionHash": "0xc3aa344fa743f87aebd1f5d3cc9259884e5364083e25b4f066cde598599bd53c",
  "args": [],
  "numDeployments": 1,
  "solcInputHash": "68e89776f039ff01195e0154ad9d0d82",
  "bytecode": "0x60806040523480156200001157600080fd5b506200001c62000022565b620000e4565b600054610100900460ff16156200008f5760405162461bcd60e51b815260206004820152602760248201527f496e697469616c697a61626c653a20636f6e747261637420697320696e697469604482015266616c697a696e6760c81b606482015260840160405180910390fd5b60005460ff9081161015620000e2576000805460ff191660ff9081179091556040519081527f7f26b83ff96e1f2b6a682f133852f6798a09c465da95921460cefb38474024989060200160405180910390a15b565b614b5d80620000f46000396000f3fe608060405234801561001057600080fd5b506004361061032b5760003560e01c80639168ae72116101b2578063c46d0c93116100f9578063d7c15bf6116100a2578063ee20aed01161007c578063ee20aed014610731578063ef4af91a14610744578063f71d50bb14610757578063ffaeee811461076a57600080fd5b8063d7c15bf614610702578063dee2d74c1461070b578063e7e4e1f71461071e57600080fd5b8063ca4c20d0116100d3578063ca4c20d0146106d3578063d0a068ff146106dc578063d2bd85d6146106ef57600080fd5b8063c46d0c931461069a578063c7c8afbc146106ad578063c8b3f67f146106c057600080fd5b8063a86fd23e1161015b578063ab5dc68511610135578063ab5dc68514610661578063ad53fdbc14610674578063b345b8c01461068757600080fd5b8063a86fd23e14610632578063a8bc29a614610645578063a90d86671461064e57600080fd5b80639b6c26821161018c5780639b6c2682146105df5780639d76ea58146105f25780639e8ccaf11461061257600080fd5b80639168ae72146105a7578063951a5683146105ca57806395fbf3a9146105d757600080fd5b80635acf099c11610276578063736f616b1161021f5780638456cb59116101f95780638456cb59146105845780638de91d321461058c5780638e6622fb1461059457600080fd5b8063736f616b1461053e578063748365ef14610551578063751408c51461057157600080fd5b806367f134a01161025057806367f134a0146105055780636f74ecbf14610518578063736e327a1461052b57600080fd5b80635acf099c146104935780635c975abb146104da5780636064fcc8146104e557600080fd5b80632ac34bc1116102d857806332b5a1b3116102b257806332b5a1b3146104655780633f4ba83a146104785780634ed148181461048057600080fd5b80632ac34bc11461041f5780632e4723fd146104325780632fc5dcea1461045257600080fd5b80631b48ba07116103095780631b48ba07146103845780631caaa487146103c957806328fb7745146103ff57600080fd5b80630421af781461033057806304646a4914610358578063144fa6d71461036f575b600080fd5b61034361033e366004613ffa565b610772565b60405190151581526020015b60405180910390f35b61036160a15481565b60405190815260200161034f565b61038261037d36600461403e565b6107a2565b005b6099546103a49073ffffffffffffffffffffffffffffffffffffffff1681565b60405173ffffffffffffffffffffffffffffffffffffffff909116815260200161034f565b6103a46103d736600461405b565b609f6020526000908152604090205473ffffffffffffffffffffffffffffffffffffffff1681565b61041261040d36600461403e565b6109be565b60405161034f9190614074565b61038261042d36600461425c565b610a80565b61044561044036600461405b565b610b3a565b60405161034f919061432e565b610382610460366004614341565b610bd4565b6103826104733660046143b7565b610cf6565b610382610fc9565b61038261048e36600461403e565b6110e5565b6103616104a1366004614430565b73ffffffffffffffffffffffffffffffffffffffff919091166000908152609e6020908152604080832093835260029093019052205490565b60335460ff16610343565b609b546103a49073ffffffffffffffffffffffffffffffffffffffff1681565b61038261051336600461445c565b6112fc565b61038261052636600461405b565b61130b565b61038261053936600461405b565b611422565b61036161054c36600461405b565b611437565b609a546103a49073ffffffffffffffffffffffffffffffffffffffff1681565b6103a461057f36600461405b565b611598565b6103826115cf565b6103826116e9565b6103826105a2366004614499565b611807565b6103616105b536600461403e565b609e6020526000908152604090206003015481565b60a3546103439060ff1681565b61044561192c565b6103826105ed36600461405b565b6119e7565b6098546103a49073ffffffffffffffffffffffffffffffffffffffff1681565b6097546103a49073ffffffffffffffffffffffffffffffffffffffff1681565b6103826106403660046144d6565b611b43565b610361609c5481565b61038261065c36600461445c565b611b87565b61038261066f36600461425c565b611b93565b61038261068236600461425c565b611bd6565b61038261069536600461403e565b611c18565b6103826106a836600461403e565b611e2f565b6103436106bb36600461450b565b612046565b6103826106ce3660046144d6565b612095565b61036160a45481565b6103826106ea36600461455d565b6120d5565b6103826106fd366004614499565b6121f1565b61036160a25481565b61041261071936600461455d565b6121fc565b61038261072c36600461445c565b612293565b61038261073f3660046145a5565b61229e565b61038261075236600461405b565b6123e1565b6103436107653660046145c2565b6123f3565b610382612453565b60008060a454846107839190614669565b61079590670de0b6b3a7640000614669565b8310159150505b92915050565b600033609a546040517ffe9fbb8000000000000000000000000000000000000000000000000000000000815273ffffffffffffffffffffffffffffffffffffffff808416600483015292935091169063fe9fbb8090602401602060405180830381865afa158015610817573d6000803e3d6000fd5b505050506040513d601f19601f8201168201806040525081019061083b9190614680565b6108a6576040517f08c379a000000000000000000000000000000000000000000000000000000000815260206004820152601160248201527f5742423a20556e617574686f72697a656400000000000000000000000000000060448201526064015b60405180910390fd5b73ffffffffffffffffffffffffffffffffffffffff8216610923576040517f08c379a000000000000000000000000000000000000000000000000000000000815260206004820152601a60248201527f5742423a20496e76616c696420746f6b656e2061646472657373000000000000604482015260640161089d565b60985460405173ffffffffffffffffffffffffffffffffffffffff83811682528481169216907f674d28769cbbfd17daf174e00c6a31cb6d8a30ac58fd38b1098bb2267a888d049060200160405180910390a350609880547fffffffffffffffffffffffff00000000000000000000000000000000000000001673ffffffffffffffffffffffffffffffffffffffff92909216919091179055565b6097546040517f178b6de600000000000000000000000000000000000000000000000000000000815273ffffffffffffffffffffffffffffffffffffffff838116600483015260609260009291169063178b6de690602401600060405180830381865afa158015610a33573d6000803e3d6000fd5b505050506040513d6000823e601f3d9081017fffffffffffffffffffffffffffffffffffffffffffffffffffffffffffffffe0168201604052610a79919081019061469d565b9392505050565b33610a8c8383836123f3565b610af2576040517f08c379a000000000000000000000000000000000000000000000000000000000815260206004820152601760248201527f5742423a204d617820746f6b656e73207374616b65642e000000000000000000604482015260640161089d565b60005b8351811015610b3457610b2282858381518110610b1457610b1461472e565b602002602001015185612524565b80610b2c8161475d565b915050610af5565b50505050565b60a06020526000908152604090208054610b5390614795565b80601f0160208091040260200160405190810160405280929190818152602001828054610b7f90614795565b8015610bcc5780601f10610ba157610100808354040283529160200191610bcc565b820191906000526020600020905b815481529060010190602001808311610baf57829003601f168201915b505050505081565b609a5473ffffffffffffffffffffffffffffffffffffffff1663fe9fbb80336040517fffffffff0000000000000000000000000000000000000000000000000000000060e084901b16815273ffffffffffffffffffffffffffffffffffffffff9091166004820152602401602060405180830381865afa158015610c5c573d6000803e3d6000fd5b505050506040513d601f19601f82011682018060405250810190610c809190614680565b610ce6576040517f08c379a000000000000000000000000000000000000000000000000000000000815260206004820152601160248201527f5742423a20556e617574686f72697a6564000000000000000000000000000000604482015260640161089d565b610cf1838383612b57565b505050565b600054610100900460ff1615808015610d165750600054600160ff909116105b80610d305750303b158015610d30575060005460ff166001145b610dbc576040517f08c379a000000000000000000000000000000000000000000000000000000000815260206004820152602e60248201527f496e697469616c697a61626c653a20636f6e747261637420697320616c72656160448201527f647920696e697469616c697a6564000000000000000000000000000000000000606482015260840161089d565b600080547fffffffffffffffffffffffffffffffffffffffffffffffffffffffffffffff001660011790558015610e1a57600080547fffffffffffffffffffffffffffffffffffffffffffffffffffffffffffff00ff166101001790555b6097805473ffffffffffffffffffffffffffffffffffffffff808a167fffffffffffffffffffffffff0000000000000000000000000000000000000000928316179092556098805489841692169190911790558516610ed5576040517f08c379a000000000000000000000000000000000000000000000000000000000815260206004820152601460248201527f5742423a20496e76616c69642061646472657373000000000000000000000000604482015260640161089d565b609b805473ffffffffffffffffffffffffffffffffffffffff8088167fffffffffffffffffffffffff00000000000000000000000000000000000000009283161790925560a286905560998054868416908316179055609a80549285169290911691909117905542609c55606460a455610f4d612bfc565b610f55612c93565b610f5d612d32565b8015610fc057600080547fffffffffffffffffffffffffffffffffffffffffffffffffffffffffffff00ff169055604051600181527f7f26b83ff96e1f2b6a682f133852f6798a09c465da95921460cefb38474024989060200160405180910390a15b50505050505050565b609a5473ffffffffffffffffffffffffffffffffffffffff1663fe9fbb80336040517fffffffff0000000000000000000000000000000000000000000000000000000060e084901b16815273ffffffffffffffffffffffffffffffffffffffff9091166004820152602401602060405180830381865afa158015611051573d6000803e3d6000fd5b505050506040513d601f19601f820116820180604052508101906110759190614680565b6110db576040517f08c379a000000000000000000000000000000000000000000000000000000000815260206004820152601160248201527f5742423a20556e617574686f72697a6564000000000000000000000000000000604482015260640161089d565b6110e3612dd1565b565b600033609a546040517ffe9fbb8000000000000000000000000000000000000000000000000000000000815273ffffffffffffffffffffffffffffffffffffffff808416600483015292935091169063fe9fbb8090602401602060405180830381865afa15801561115a573d6000803e3d6000fd5b505050506040513d601f19601f8201168201806040525081019061117e9190614680565b6111e4576040517f08c379a000000000000000000000000000000000000000000000000000000000815260206004820152601160248201527f5742423a20556e617574686f72697a6564000000000000000000000000000000604482015260640161089d565b73ffffffffffffffffffffffffffffffffffffffff8216611261576040517f08c379a000000000000000000000000000000000000000000000000000000000815260206004820152601460248201527f5742423a20496e76616c69642061646472657373000000000000000000000000604482015260640161089d565b609b5460405173ffffffffffffffffffffffffffffffffffffffff83811682528481169216907fa7f03fec4d5b1cee7e6fdc141121fcd9a66cc8ed8052279b58191222ea42ef179060200160405180910390a350609b80547fffffffffffffffffffffffff00000000000000000000000000000000000000001673ffffffffffffffffffffffffffffffffffffffff92909216919091179055565b611307338383612e4e565b5050565b609a5473ffffffffffffffffffffffffffffffffffffffff1663fe9fbb80336040517fffffffff0000000000000000000000000000000000000000000000000000000060e084901b16815273ffffffffffffffffffffffffffffffffffffffff9091166004820152602401602060405180830381865afa158015611393573d6000803e3d6000fd5b505050506040513d601f19601f820116820180604052508101906113b79190614680565b61141d576040517f08c379a000000000000000000000000000000000000000000000000000000000815260206004820152601160248201527f5742423a20556e617574686f72697a6564000000000000000000000000000000604482015260640161089d565b60a455565b611434338261142f61192c565b612e4e565b50565b60008033609a546040517ffe9fbb8000000000000000000000000000000000000000000000000000000000815273ffffffffffffffffffffffffffffffffffffffff808416600483015292935091169063fe9fbb8090602401602060405180830381865afa1580156114ad573d6000803e3d6000fd5b505050506040513d601f19601f820116820180604052508101906114d19190614680565b611537576040517f08c379a000000000000000000000000000000000000000000000000000000000815260206004820152601160248201527f5742423a20556e617574686f72697a6564000000000000000000000000000000604482015260640161089d565b60a154604080519182526020820185905273ffffffffffffffffffffffffffffffffffffffff831682820152517f413a859b874b81545b2b22a26facd81777b79bce9f7631657c033f4d4a5d1cbb9181900360600190a1505060a181905590565b609d81815481106115a857600080fd5b60009182526020909120015473ffffffffffffffffffffffffffffffffffffffff16905081565b609a5473ffffffffffffffffffffffffffffffffffffffff1663fe9fbb80336040517fffffffff0000000000000000000000000000000000000000000000000000000060e084901b16815273ffffffffffffffffffffffffffffffffffffffff9091166004820152602401602060405180830381865afa158015611657573d6000803e3d6000fd5b505050506040513d601f19601f8201168201806040525081019061167b9190614680565b6116e1576040517f08c379a000000000000000000000000000000000000000000000000000000000815260206004820152601160248201527f5742423a20556e617574686f72697a6564000000000000000000000000000000604482015260640161089d565b6110e3613208565b6000336097546040517f178b6de600000000000000000000000000000000000000000000000000000000815273ffffffffffffffffffffffffffffffffffffffff80841660048301529293506000929091169063178b6de690602401600060405180830381865afa158015611762573d6000803e3d6000fd5b505050506040513d6000823e601f3d9081017fffffffffffffffffffffffffffffffffffffffffffffffffffffffffffffffe01682016040526117a8919081019061469d565b805190915060006117b761192c565b90508115610b345760005b82811015611800576117ee858583815181106117e0576117e061472e565b602002602001015184612524565b806117f88161475d565b9150506117c2565b5050505050565b336000908152609e602052604080822090516118249084906147e8565b908152604080519182900360209081018320805480830285018301909352828452919083018282801561187657602002820191906000526020600020905b815481526020019060010190808311611862575b505083519394505082159150610cf190505760005b81811015610b34573073ffffffffffffffffffffffffffffffffffffffff166367f134a08483815181106118c1576118c161472e565b6020026020010151866040518363ffffffff1660e01b81526004016118e7929190614804565b600060405180830381600087803b15801561190157600080fd5b505af1158015611915573d6000803e3d6000fd5b5050505080806119249061475d565b91505061188b565b609954604080517fbf81ee6d000000000000000000000000000000000000000000000000000000008152905160609273ffffffffffffffffffffffffffffffffffffffff169163bf81ee6d9160048083019260009291908290030181865afa15801561199c573d6000803e3d6000fd5b505050506040513d6000823e601f3d9081017fffffffffffffffffffffffffffffffffffffffffffffffffffffffffffffffe01682016040526119e2919081019061481d565b905090565b600033609a546040517ffe9fbb8000000000000000000000000000000000000000000000000000000000815273ffffffffffffffffffffffffffffffffffffffff808416600483015292935091169063fe9fbb8090602401602060405180830381865afa158015611a5c573d6000803e3d6000fd5b505050506040513d601f19601f82011682018060405250810190611a809190614680565b611ae6576040517f08c379a000000000000000000000000000000000000000000000000000000000815260206004820152601160248201527f5742423a20556e617574686f72697a6564000000000000000000000000000000604482015260640161089d565b60a254604080519182526020820184905273ffffffffffffffffffffffffffffffffffffffff831682820152517f13a511f20997079f309d264161b7628709fc727ea5bcd135d26d44d20a7133929181900360600190a15060a255565b60005b815181101561130757611b7533838381518110611b6557611b6561472e565b602002602001015161142f61192c565b80611b7f8161475d565b915050611b46565b33610cf1818484613263565b3360005b8351811015610b3457611bc482858381518110611bb657611bb661472e565b602002602001015185613263565b80611bce8161475d565b915050611b97565b60005b8251811015610cf157611c0633848381518110611bf857611bf861472e565b602002602001015184612e4e565b80611c108161475d565b915050611bd9565b600033609a546040517ffe9fbb8000000000000000000000000000000000000000000000000000000000815273ffffffffffffffffffffffffffffffffffffffff808416600483015292935091169063fe9fbb8090602401602060405180830381865afa158015611c8d573d6000803e3d6000fd5b505050506040513d601f19601f82011682018060405250810190611cb19190614680565b611d17576040517f08c379a000000000000000000000000000000000000000000000000000000000815260206004820152601160248201527f5742423a20556e617574686f72697a6564000000000000000000000000000000604482015260640161089d565b73ffffffffffffffffffffffffffffffffffffffff8216611d94576040517f08c379a000000000000000000000000000000000000000000000000000000000815260206004820152601960248201527f5742423a20496e76616c6964204e465420636f6e747261637400000000000000604482015260640161089d565b60975460405173ffffffffffffffffffffffffffffffffffffffff83811682528481169216907fcc84b7dfa78b34bb94bda9e3e859b03781c64e9c8870f014f905deb5917d1e349060200160405180910390a350609780547fffffffffffffffffffffffff00000000000000000000000000000000000000001673ffffffffffffffffffffffffffffffffffffffff92909216919091179055565b600033609a546040517ffe9fbb8000000000000000000000000000000000000000000000000000000000815273ffffffffffffffffffffffffffffffffffffffff808416600483015292935091169063fe9fbb8090602401602060405180830381865afa158015611ea4573d6000803e3d6000fd5b505050506040513d601f19601f82011682018060405250810190611ec89190614680565b611f2e576040517f08c379a000000000000000000000000000000000000000000000000000000000815260206004820152601160248201527f5742423a20556e617574686f72697a6564000000000000000000000000000000604482015260640161089d565b73ffffffffffffffffffffffffffffffffffffffff8216611fab576040517f08c379a000000000000000000000000000000000000000000000000000000000815260206004820152601d60248201527f5742423a20496e76616c696420416374696f6e7320636f6e7472616374000000604482015260640161089d565b60995460405173ffffffffffffffffffffffffffffffffffffffff83811682528481169216907f34094423c59427e099490ccde795f4a7c4741be966ee850d712bd3777efd51849060200160405180910390a350609980547fffffffffffffffffffffffff00000000000000000000000000000000000000001673ffffffffffffffffffffffffffffffffffffffff92909216919091179055565b73ffffffffffffffffffffffffffffffffffffffff81166000908152609e6020526040808220905182919061207c9086906147e8565b9081526040519081900360200190205411905092915050565b600061209f61192c565b905060005b8251811015610cf1576120c3338483815181106117e0576117e061472e565b806120cd8161475d565b9150506120a4565b609a5473ffffffffffffffffffffffffffffffffffffffff1663fe9fbb80336040517fffffffff0000000000000000000000000000000000000000000000000000000060e084901b16815273ffffffffffffffffffffffffffffffffffffffff9091166004820152602401602060405180830381865afa15801561215d573d6000803e3d6000fd5b505050506040513d601f19601f820116820180604052508101906121819190614680565b6121e7576040517f08c379a000000000000000000000000000000000000000000000000000000000815260206004820152601160248201527f5742423a20556e617574686f72697a6564000000000000000000000000000000604482015260640161089d565b6113078282613bc7565b336113078183613bc7565b73ffffffffffffffffffffffffffffffffffffffff82166000908152609e6020526040908190209051606091906122349084906147e8565b908152604080519182900360209081018320805480830285018301909352828452919083018282801561228657602002820191906000526020600020905b815481526020019060010190808311612272575b5050505050905092915050565b611307338383612524565b609a5473ffffffffffffffffffffffffffffffffffffffff1663fe9fbb80336040517fffffffff0000000000000000000000000000000000000000000000000000000060e084901b16815273ffffffffffffffffffffffffffffffffffffffff9091166004820152602401602060405180830381865afa158015612326573d6000803e3d6000fd5b505050506040513d601f19601f8201168201806040525081019061234a9190614680565b6123b0576040517f08c379a000000000000000000000000000000000000000000000000000000000815260206004820152601160248201527f5742423a20556e617574686f72697a6564000000000000000000000000000000604482015260640161089d565b60a380547fffffffffffffffffffffffffffffffffffffffffffffffffffffffffffffff0016911515919091179055565b61143433826123ee61192c565b612524565b60a254835173ffffffffffffffffffffffffffffffffffffffff83166000908152609e602052604080822090519193929161242f9087906147e8565b908152604051908190036020019020546124499190614894565b1115949350505050565b600061245d61192c565b336000908152609e60205260408082209051929350909161247f9084906147e8565b90815260408051918290036020908101832080548083028501830190935282845291908301828280156124d157602002820191906000526020600020905b8154815260200190600101908083116124bd575b505083519394505082159150610cf190505760005b81811015610b3457612512338483815181106125045761250461472e565b602002602001015186612e4e565b8061251c8161475d565b9150506124e6565b61252c613d01565b612534613d6e565b6099546040517f5d49778900000000000000000000000000000000000000000000000000000000815273ffffffffffffffffffffffffffffffffffffffff90911690635d4977899061258a90849060040161432e565b602060405180830381865afa1580156125a7573d6000803e3d6000fd5b505050506040513d601f19601f820116820180604052508101906125cb9190614680565b612657576040517f08c379a000000000000000000000000000000000000000000000000000000000815260206004820152602160248201527f5742423a20626174746c65206e6f742063726561746564206f7220616374697660448201527f6500000000000000000000000000000000000000000000000000000000000000606482015260840161089d565b6099546040517f47ff16ac00000000000000000000000000000000000000000000000000000000815273ffffffffffffffffffffffffffffffffffffffff909116906347ff16ac906126ad90849060040161432e565b602060405180830381865afa1580156126ca573d6000803e3d6000fd5b505050506040513d601f19601f820116820180604052508101906126ee9190614680565b15612755576040517f08c379a000000000000000000000000000000000000000000000000000000000815260206004820152601160248201527f5742423a20626174746c6520656e646564000000000000000000000000000000604482015260640161089d565b73ffffffffffffffffffffffffffffffffffffffff83166000908152609e60205260408082209051909190829061278d9085906147e8565b90815260408051918290036020908101832080548083028501830190935282845291908301828280156127df57602002820191906000526020600020905b8154815260200190600101908083116127cb575b505083516098546040517f70a0823100000000000000000000000000000000000000000000000000000000815273ffffffffffffffffffffffffffffffffffffffff8c811660048301529697509195600095501692506370a082319150602401602060405180830381865afa15801561285c573d6000803e3d6000fd5b505050506040513d601f19601f8201168201806040525081019061288091906148a7565b9050612896612890836001614894565b82610772565b15612b175743600385015560405184906128b19087906147e8565b908152604051602091819003820181208054600180820183556000928352939091200188905585906128e49088906147e8565b908152604051908190036020019020546128fe91906148c0565b6000878152600186016020908152604080832093909355600287018152828220429055609f815282822080547fffffffffffffffffffffffff00000000000000000000000000000000000000001673ffffffffffffffffffffffffffffffffffffffff8c1617905560a09052206129758682614921565b50816000036129ef57609d80546001810182556000919091527fd26e832454299e9fabb89e0e5fffdc046d4e14431bc1bf607ffb2e8a1ddecf7b0180547fffffffffffffffffffffffff00000000000000000000000000000000000000001673ffffffffffffffffffffffffffffffffffffffff89161790555b609754609b546040517ff242432a00000000000000000000000000000000000000000000000000000000815273ffffffffffffffffffffffffffffffffffffffff8a811660048301529182166024820152604481018990526001606482015260a06084820152600260a48201527f307800000000000000000000000000000000000000000000000000000000000060c482015291169063f242432a9060e401600060405180830381600087803b158015612aa857600080fd5b505af1158015612abc573d6000803e3d6000fd5b505050508673ffffffffffffffffffffffffffffffffffffffff167fa2a4b640524f5410a2969ac3f90a5c7a3197662d845ba3bdf16fe9010e5aad9a878742604051612b0a93929190614a3b565b60405180910390a2612b49565b6040517f22bbb43c00000000000000000000000000000000000000000000000000000000815260040160405180910390fd5b50505050610cf16001606555565b60005b8251811015610b34573373ffffffffffffffffffffffffffffffffffffffff16609f6000858481518110612b9057612b9061472e565b60209081029190910181015182528101919091526040016000205473ffffffffffffffffffffffffffffffffffffffff1603612bea57612bea84848381518110612bdc57612bdc61472e565b602002602001015184613263565b80612bf48161475d565b915050612b5a565b600054610100900460ff166110e3576040517f08c379a000000000000000000000000000000000000000000000000000000000815260206004820152602b60248201527f496e697469616c697a61626c653a20636f6e7472616374206973206e6f74206960448201527f6e697469616c697a696e67000000000000000000000000000000000000000000606482015260840161089d565b600054610100900460ff16612d2a576040517f08c379a000000000000000000000000000000000000000000000000000000000815260206004820152602b60248201527f496e697469616c697a61626c653a20636f6e7472616374206973206e6f74206960448201527f6e697469616c697a696e67000000000000000000000000000000000000000000606482015260840161089d565b6110e3613de8565b600054610100900460ff16612dc9576040517f08c379a000000000000000000000000000000000000000000000000000000000815260206004820152602b60248201527f496e697469616c697a61626c653a20636f6e7472616374206973206e6f74206960448201527f6e697469616c697a696e67000000000000000000000000000000000000000000606482015260840161089d565b6110e3613ea9565b612dd9613f40565b603380547fffffffffffffffffffffffffffffffffffffffffffffffffffffffffffffff001690557f5db9ee0a495bf2e6ff9c91a7834c1ba4fdd244a5e8aa4e537bd38aeae4b073aa335b60405173ffffffffffffffffffffffffffffffffffffffff909116815260200160405180910390a1565b6099546040517f5d49778900000000000000000000000000000000000000000000000000000000815273ffffffffffffffffffffffffffffffffffffffff90911690635d49778990612ea490849060040161432e565b602060405180830381865afa158015612ec1573d6000803e3d6000fd5b505050506040513d601f19601f82011682018060405250810190612ee59190614680565b612f71576040517f08c379a000000000000000000000000000000000000000000000000000000000815260206004820152602160248201527f5742423a20626174746c65206e6f742063726561746564206f7220616374697660448201527f6500000000000000000000000000000000000000000000000000000000000000606482015260840161089d565b6000828152609f602052604090205473ffffffffffffffffffffffffffffffffffffffff848116911614613001576040517f08c379a000000000000000000000000000000000000000000000000000000000815260206004820152601260248201527f5742423a20556e617574686f72697a65642e0000000000000000000000000000604482015260640161089d565b6000828152609f602052604090205473ffffffffffffffffffffffffffffffffffffffff1661308c576040517f08c379a000000000000000000000000000000000000000000000000000000000815260206004820152601860248201527f5742423a20546f6b656e204964206e6f74207374616b65640000000000000000604482015260640161089d565b6099546040517f47ff16ac00000000000000000000000000000000000000000000000000000000815273ffffffffffffffffffffffffffffffffffffffff909116906347ff16ac906130e290849060040161432e565b602060405180830381865afa1580156130ff573d6000803e3d6000fd5b505050506040513d601f19601f820116820180604052508101906131239190614680565b1561318a576040517f08c379a000000000000000000000000000000000000000000000000000000000815260206004820152601160248201527f5742423a20626174746c6520656e646564000000000000000000000000000000604482015260640161089d565b73ffffffffffffffffffffffffffffffffffffffff83166000818152609e602090815260408083208684526002810190925291829020429081905591519092917f426eb4f62756d59893dffae42e39f4a32ec6d17cab2605ed0e8b6e1891c241be916131fa918791879190614a3b565b60405180910390a250505050565b613210613d01565b603380547fffffffffffffffffffffffffffffffffffffffffffffffffffffffffffffff001660011790557f62e78cea01bee320cd4e420270b5ea74000d11b0c9f74754ebdbfc544b05a258612e243390565b61326b613d6e565b6000828152609f602052604090205473ffffffffffffffffffffffffffffffffffffffff8481169116146132fb576040517f08c379a000000000000000000000000000000000000000000000000000000000815260206004820152601260248201527f5742423a20556e617574686f72697a65642e0000000000000000000000000000604482015260640161089d565b6099546040517f5d49778900000000000000000000000000000000000000000000000000000000815273ffffffffffffffffffffffffffffffffffffffff90911690635d4977899061335190849060040161432e565b602060405180830381865afa15801561336e573d6000803e3d6000fd5b505050506040513d601f19601f820116820180604052508101906133929190614680565b61341e576040517f08c379a000000000000000000000000000000000000000000000000000000000815260206004820152602160248201527f5742423a20626174746c65206e6f742063726561746564206f7220616374697660448201527f6500000000000000000000000000000000000000000000000000000000000000606482015260840161089d565b808051906020012060a060008481526020019081526020016000206040516134469190614a64565b6040518091039020146134da576040517f08c379a0000000000000000000000000000000000000000000000000000000008152602060048201526024808201527f5742423a2043617264206e6f74207374616b656420696e20676976656e20626160448201527f74746c6500000000000000000000000000000000000000000000000000000000606482015260840161089d565b73ffffffffffffffffffffffffffffffffffffffff83166000908152609e6020526040902060a35460ff16156136355760a15460008481526002830160205260409020546135289190614894565b421180156135ca57506099546040517f47ff16ac00000000000000000000000000000000000000000000000000000000815273ffffffffffffffffffffffffffffffffffffffff909116906347ff16ac9061358790859060040161432e565b602060405180830381865afa1580156135a4573d6000803e3d6000fd5b505050506040513d601f19601f820116820180604052508101906135c89190614680565b155b613630576040517f08c379a000000000000000000000000000000000000000000000000000000000815260206004820152601660248201527f5742423a20636f6f6c646f776e206e6f74206f76657200000000000000000000604482015260640161089d565b613732565b6099546040517f47ff16ac00000000000000000000000000000000000000000000000000000000815273ffffffffffffffffffffffffffffffffffffffff909116906347ff16ac9061368b90859060040161432e565b602060405180830381865afa1580156136a8573d6000803e3d6000fd5b505050506040513d601f19601f820116820180604052508101906136cc9190614680565b613732576040517f08c379a000000000000000000000000000000000000000000000000000000000815260206004820152601660248201527f5742423a20426174746c65206e6f7420656e6465642e00000000000000000000604482015260640161089d565b600083815260018201602052604080822054905190919083906137569086906147e8565b90815260405190819003602001812054915060009084906137789087906147e8565b9081526040519081900360200190206137926001846148c0565b815481106137a2576137a261472e565b9060005260206000200154905083600001856040516137c191906147e8565b90815260200160405180910390208054806137de576137de614af8565b600190038181906000526020600020016000905590556000846000018660405161380891906147e8565b908152604051908190036020019020541115613881578581146138815780846000018660405161383891906147e8565b908152602001604051809103902084815481106138575761385761472e565b60009182526020808320909101929092558281526001860190915260408082208590558782528120555b6000868152600285016020526040808220919091555184906138a49087906147e8565b90815260405190819003602001902054600003613a5157609d8054600091906138cf906001906148c0565b815481106138df576138df61472e565b600091825260209091200154609d805473ffffffffffffffffffffffffffffffffffffffff9092169250908061391757613917614af8565b60008281526020902081017fffffffffffffffffffffffffffffffffffffffffffffffffffffffffffffffff90810180547fffffffffffffffffffffffff0000000000000000000000000000000000000000169055019055609d5415613a4f576000805b609d548110156139f0578973ffffffffffffffffffffffffffffffffffffffff16609d82815481106139af576139af61472e565b60009182526020909120015473ffffffffffffffffffffffffffffffffffffffff16036139de578091506139f0565b806139e88161475d565b91505061397b565b5081609d8281548110613a0557613a0561472e565b9060005260206000200160006101000a81548173ffffffffffffffffffffffffffffffffffffffff021916908373ffffffffffffffffffffffffffffffffffffffff160217905550505b505b6000868152609f6020908152604080832080547fffffffffffffffffffffffff000000000000000000000000000000000000000016905560a09091528120613a9891613fac565b609754609b546040517ff242432a00000000000000000000000000000000000000000000000000000000815273ffffffffffffffffffffffffffffffffffffffff91821660048201528982166024820152604481018990526001606482015260a06084820152600260a48201527f307800000000000000000000000000000000000000000000000000000000000060c482015291169063f242432a9060e401600060405180830381600087803b158015613b5157600080fd5b505af1158015613b65573d6000803e3d6000fd5b505050508673ffffffffffffffffffffffffffffffffffffffff167fcdc644f7a40cb5d51e46e25428f724a3e15ae38f01d0e83c3c863f51719004db8787604051613bb1929190614804565b60405180910390a250505050610cf16001606555565b73ffffffffffffffffffffffffffffffffffffffff82166000908152609e60205260408082209051613bfa9084906147e8565b9081526040805191829003602090810183208054808302850183019093528284529190830182828015613c4c57602002820191906000526020600020905b815481526020019060010190808311613c38575b5050835193945050508115159050613cc0576040517f08c379a000000000000000000000000000000000000000000000000000000000815260206004820152601760248201527f5742423a204e465473206172656e2774207374616b6564000000000000000000604482015260640161089d565b60005b8181101561180057613cef85848381518110613ce157613ce161472e565b602002602001015186613263565b80613cf98161475d565b915050613cc3565b60335460ff16156110e3576040517f08c379a000000000000000000000000000000000000000000000000000000000815260206004820152601060248201527f5061757361626c653a2070617573656400000000000000000000000000000000604482015260640161089d565b600260655403613dda576040517f08c379a000000000000000000000000000000000000000000000000000000000815260206004820152601f60248201527f5265656e7472616e637947756172643a207265656e7472616e742063616c6c00604482015260640161089d565b6002606555565b6001606555565b600054610100900460ff16613e7f576040517f08c379a000000000000000000000000000000000000000000000000000000000815260206004820152602b60248201527f496e697469616c697a61626c653a20636f6e7472616374206973206e6f74206960448201527f6e697469616c697a696e67000000000000000000000000000000000000000000606482015260840161089d565b603380547fffffffffffffffffffffffffffffffffffffffffffffffffffffffffffffff00169055565b600054610100900460ff16613de1576040517f08c379a000000000000000000000000000000000000000000000000000000000815260206004820152602b60248201527f496e697469616c697a61626c653a20636f6e7472616374206973206e6f74206960448201527f6e697469616c697a696e67000000000000000000000000000000000000000000606482015260840161089d565b60335460ff166110e3576040517f08c379a000000000000000000000000000000000000000000000000000000000815260206004820152601460248201527f5061757361626c653a206e6f7420706175736564000000000000000000000000604482015260640161089d565b508054613fb890614795565b6000825580601f10613fc8575050565b601f01602090049060005260206000209081019061143491905b80821115613ff65760008155600101613fe2565b5090565b6000806040838503121561400d57600080fd5b50508035926020909101359150565b73ffffffffffffffffffffffffffffffffffffffff8116811461143457600080fd5b60006020828403121561405057600080fd5b8135610a798161401c565b60006020828403121561406d57600080fd5b5035919050565b6020808252825182820181905260009190848201906040850190845b818110156140ac57835183529284019291840191600101614090565b50909695505050505050565b7f4e487b7100000000000000000000000000000000000000000000000000000000600052604160045260246000fd5b604051601f82017fffffffffffffffffffffffffffffffffffffffffffffffffffffffffffffffe016810167ffffffffffffffff8111828210171561412e5761412e6140b8565b604052919050565b600067ffffffffffffffff821115614150576141506140b8565b5060051b60200190565b600082601f83011261416b57600080fd5b8135602061418061417b83614136565b6140e7565b82815260059290921b8401810191818101908684111561419f57600080fd5b8286015b848110156141ba57803583529183019183016141a3565b509695505050505050565b600067ffffffffffffffff8211156141df576141df6140b8565b50601f017fffffffffffffffffffffffffffffffffffffffffffffffffffffffffffffffe01660200190565b600082601f83011261421c57600080fd5b813561422a61417b826141c5565b81815284602083860101111561423f57600080fd5b816020850160208301376000918101602001919091529392505050565b6000806040838503121561426f57600080fd5b823567ffffffffffffffff8082111561428757600080fd5b6142938683870161415a565b935060208501359150808211156142a957600080fd5b506142b68582860161420b565b9150509250929050565b60005b838110156142db5781810151838201526020016142c3565b50506000910152565b600081518084526142fc8160208601602086016142c0565b601f017fffffffffffffffffffffffffffffffffffffffffffffffffffffffffffffffe0169290920160200192915050565b602081526000610a7960208301846142e4565b60008060006060848603121561435657600080fd5b83356143618161401c565b9250602084013567ffffffffffffffff8082111561437e57600080fd5b61438a8783880161415a565b935060408601359150808211156143a057600080fd5b506143ad8682870161420b565b9150509250925092565b60008060008060008060c087890312156143d057600080fd5b86356143db8161401c565b955060208701356143eb8161401c565b945060408701356143fb8161401c565b93506060870135925060808701356144128161401c565b915060a08701356144228161401c565b809150509295509295509295565b6000806040838503121561444357600080fd5b823561444e8161401c565b946020939093013593505050565b6000806040838503121561446f57600080fd5b82359150602083013567ffffffffffffffff81111561448d57600080fd5b6142b68582860161420b565b6000602082840312156144ab57600080fd5b813567ffffffffffffffff8111156144c257600080fd5b6144ce8482850161420b565b949350505050565b6000602082840312156144e857600080fd5b813567ffffffffffffffff8111156144ff57600080fd5b6144ce8482850161415a565b6000806040838503121561451e57600080fd5b823567ffffffffffffffff81111561453557600080fd5b6145418582860161420b565b92505060208301356145528161401c565b809150509250929050565b6000806040838503121561457057600080fd5b823561457b8161401c565b9150602083013567ffffffffffffffff81111561448d57600080fd5b801515811461143457600080fd5b6000602082840312156145b757600080fd5b8135610a7981614597565b6000806000606084860312156145d757600080fd5b833567ffffffffffffffff808211156145ef57600080fd5b6145fb8783880161415a565b9450602086013591508082111561461157600080fd5b5061461e8682870161420b565b925050604084013561462f8161401c565b809150509250925092565b7f4e487b7100000000000000000000000000000000000000000000000000000000600052601160045260246000fd5b808202811582820484141761079c5761079c61463a565b60006020828403121561469257600080fd5b8151610a7981614597565b600060208083850312156146b057600080fd5b825167ffffffffffffffff8111156146c757600080fd5b8301601f810185136146d857600080fd5b80516146e661417b82614136565b81815260059190911b8201830190838101908783111561470557600080fd5b928401925b828410156147235783518252928401929084019061470a565b979650505050505050565b7f4e487b7100000000000000000000000000000000000000000000000000000000600052603260045260246000fd5b60007fffffffffffffffffffffffffffffffffffffffffffffffffffffffffffffffff820361478e5761478e61463a565b5060010190565b600181811c908216806147a957607f821691505b6020821081036147e2577f4e487b7100000000000000000000000000000000000000000000000000000000600052602260045260246000fd5b50919050565b600082516147fa8184602087016142c0565b9190910192915050565b8281526040602082015260006144ce60408301846142e4565b60006020828403121561482f57600080fd5b815167ffffffffffffffff81111561484657600080fd5b8201601f8101841361485757600080fd5b805161486561417b826141c5565b81815285602083850101111561487a57600080fd5b61488b8260208301602086016142c0565b95945050505050565b8082018082111561079c5761079c61463a565b6000602082840312156148b957600080fd5b5051919050565b8181038181111561079c5761079c61463a565b601f821115610cf157600081815260208120601f850160051c810160208610156148fa5750805b601f850160051c820191505b8181101561491957828155600101614906565b505050505050565b815167ffffffffffffffff81111561493b5761493b6140b8565b61494f816149498454614795565b846148d3565b602080601f8311600181146149a2576000841561496c5750858301515b7fffffffffffffffffffffffffffffffffffffffffffffffffffffffffffffffff600386901b1c1916600185901b178555614919565b6000858152602081207fffffffffffffffffffffffffffffffffffffffffffffffffffffffffffffffe08616915b828110156149ef578886015182559484019460019091019084016149d0565b5085821015614a2b57878501517fffffffffffffffffffffffffffffffffffffffffffffffffffffffffffffffff600388901b60f8161c191681555b5050505050600190811b01905550565b838152606060208201526000614a5460608301856142e4565b9050826040830152949350505050565b6000808354614a7281614795565b60018281168015614a8a5760018114614abd57614aec565b7fffffffffffffffffffffffffffffffffffffffffffffffffffffffffffffff0084168752821515830287019450614aec565b8760005260208060002060005b85811015614ae35781548a820152908401908201614aca565b50505082870194505b50929695505050505050565b7f4e487b7100000000000000000000000000000000000000000000000000000000600052603160045260246000fdfea2646970667358221220c9ed5e5e0585523abd36a81923bedf1351c763ba26c8d2e8605e155418cb292464736f6c63430008110033",
  "devdoc": {
    "details": "BattleOps are being inherited in this contract",
    "kind": "dev",
    "methods": {
      "checkRequiredTokenBalance(uint256,uint256)": {
        "params": {
          "_balance": "user ERC20 token balance",
          "_nftCount": "how many nft user have"
        },
        "returns": {
          "_0": "true if he has higher ERC20 token balance than required"
        }
      },
      "constructor": {
        "custom:oz-upgrades-unsafe-allow": "constructor"
      },
      "getAllToken(address)": {
        "params": {
          "_player": "Address of the player to get all tokens"
        }
      },
      "getStakedTokenTime(address,uint256)": {
        "params": {
          "_player": "Address of player getting staked time for token",
          "_tokenId": "Staked TokenID"
        }
      },
      "getStakedTokensForBattle(address,string)": {
        "params": {
          "_player": "is the user address"
        }
      },
      "initialize(address,address,address,uint256,address,address)": {
        "params": {
          "_accessControls": "Contract address for access controls",
          "_cdhNFTAddress": "Contract address for NFT Inventory,",
          "_maxStakeCount": "Number of tokens",
          "_nftHolder": "Address who holds on staking",
          "_tokenAddress": "Contract address for ERC20 token",
          "_wbbActionsAddress": "Contract address for WorldBossBattle Actions"
        }
      },
      "isEligibleToStake(string,address)": {
        "params": {
          "_pastBattleId": "Previous battleID",
          "_player": "Address of player checking eligibility of"
        },
        "returns": {
          "_0": "boolean if statement is true"
        }
      },
      "paused()": {
        "details": "Returns true if the contract is paused, and false otherwise."
      },
      "restake(uint256,string)": {
        "params": {
          "_battleId": "in which the token id will be restaked",
          "_tokenId": "is tokenid that user have"
        }
      },
      "restakeAll(string)": {
        "params": {
          "_battleId": "in which the token id will be restaked"
        }
      },
      "restakeOnLatestBattle(uint256)": {
        "params": {
          "_tokenId": "is tokenId that user are about to stake"
        }
      },
      "restakeTokens(uint256[],string)": {
        "params": {
          "_battleId": "in which the token id will be restaked",
          "_tokenIds": "is tokenid that user have staked"
        }
      },
      "restakeTokensOnLatestBattle(uint256[])": {
        "params": {
          "_tokenIds": "is tokenid that user are about to stake"
        }
      },
      "setBattlePeriodUnstakeStatus(bool)": {
        "params": {
          "_unstakeStatus": "boolean"
        }
      },
      "setCDHNFTContractAddress(address)": {
        "details": "only authorized addresses could change NFT contract address",
        "params": {
          "_nftContract": "new NFT address"
        }
      },
      "setCoolDownPeriod(uint256)": {
        "params": {
          "_time": "in unix"
        },
        "returns": {
          "_0": "_time"
        }
      },
      "setMinTokensRequired(uint256)": {
        "params": {
          "_value": "a uint value for setting minimum tokens required."
        }
      },
      "setNFTHolderAddress(address)": {
        "details": "only authorized addresses could change holder address",
        "params": {
          "_holder": "new NFT holder address"
        }
      },
      "setToken(address)": {
        "details": "only authorized addresses could change token contract address",
        "params": {
          "_tokenAddress": "is the new token address"
        }
      },
      "setWBBActionsContract(address)": {
        "details": "only authorized addresses could change WBB Actions contract address",
        "params": {
          "_wbbActionsAddress": "new wbbActionsContract address"
        }
      },
      "stake(uint256,string)": {
        "details": "it calls internalStake function for further processing",
        "params": {
          "_battleId": "is unique battle in which the NFT will be staked",
          "_tokenId": "TokenID of CDH NFT"
        }
      },
      "stakeAllOnLatestBattle()": {
        "details": "Stake all the tokens owned by the address"
      },
      "stakeOnLatestBattle(uint256)": {
        "params": {
          "_tokenId": "is tokenId that user are about to stake"
        }
      },
      "stakeTokens(uint256[],string)": {
        "details": "it calls internalStake function for further processing",
        "params": {
          "_battleId": "is unique battle in which the NFT will be staked",
          "tokenIds": "is an array of tokenId of CDH NFT"
        }
      },
      "stakeTokensOnLatestBattle(uint256[])": {
        "params": {
          "_tokenIds": "an array of NFT"
        }
      },
      "unstake(uint256,string)": {
        "details": "Calls internalUnStake function for unstaking tokens",
        "params": {
          "_battleId": "is unique battle from which the NFT will be unstaked",
          "_tokenId": "TokenId of CDH NFT"
        }
      },
      "unstakeAll(string)": {
        "details": "it calls internalUnStakeAll function for further processing",
        "params": {
          "_battleId": "is unique battle in which the NFT will be unstaked"
        }
      },
      "unstakeAllInternal(address,string)": {
        "details": "it calls internalUnStakeAll function for further processing",
        "params": {
          "_battleId": "unique battle in which the NFT will be unstaked",
          "_player": "the address of a user which nft will be unstaked"
        }
      },
      "unstakeTokens(uint256[],string)": {
        "details": "it calls internalUnStake function for further processing",
        "params": {
          "_battleId": "is unique battle in which the NFT will be unstaked",
          "tokenIds": "is tokenId of CDHNFT"
        }
      },
      "unstakeTokensInternal(address,uint256[],string)": {
        "details": "it calls internalUnStakeAll function for further processing",
        "params": {
          "_battleId": "unique battle in which the NFT will be unstaked",
          "_player": "the address of a user which nft will be unstaked",
          "_tokenIds": "tokenid that user staked"
        }
      },
      "validStakeCount(uint256[],string,address)": {
        "params": {
          "_tokenIds": "tokenIDs that about to staked"
        }
      }
    },
    "stateVariables": {
      "enableBattlePeriodUnstake": {
        "details": "true - unstake after cool down period end, false - unstake after battle ends"
      }
    },
    "title": "WorldBossBattle, the game will support NFTs for in-game items and stakes the NFTs to join the P2E event.",
    "version": 1
  },
  "userdoc": {
    "events": {
      "NFTRestaked(address,uint256,string,uint256)": {
        "notice": "Event is emitted when NFT is re-staked with owner address, token id and in which battle the token is re-staked"
      },
      "NFTStaked(address,uint256,string,uint256)": {
        "notice": "Event is emitted when NFT is staked with owner address, token id and in which battle the token is staked"
      },
      "NFTUnstaked(address,uint256,string)": {
        "notice": "Event is emitted when NFT is un-staked with owner address, token id and in which battle the token is un-staked"
      },
      "SetCoolDownPeriod(uint256,uint256,address)": {
        "notice": "Event for setting cooldown period for user to be able to restake / unstake token"
      },
      "SetMaxStakeCount(uint256,uint256,address)": {
        "notice": "Event for when setting maximum number of token a user can stake which emits old count and new count address along with sender address"
      },
      "SetNFTContract(address,address,address)": {
        "notice": "Event for when setting NFT contract which emits old NFT address and new NFT address along with sender address"
      },
      "SetNFTHolder(address,address,address)": {
        "notice": "Event for when setting NFT Holder which emits old nftHolder address and new nftHolder address along with sender address"
      },
      "SetTokenContract(address,address,address)": {
        "notice": "Event for when setting ERC20 Token contract which emits old token address and new token address along with sender address"
      },
      "SetWBBActionsAddress(address,address,address)": {
        "notice": "Event for when setting WBBActions contract Address which emits old WBBActions address and new WBBActions address along with sender address"
      }
    },
    "kind": "user",
    "methods": {
      "cdhNFT()": {
        "notice": "to store cdhNFT contract address"
      },
      "checkRequiredTokenBalance(uint256,uint256)": {
        "notice": "Internal methods for staking operations"
      },
      "cooldownPeriod()": {
        "notice": "to store the cooldownPeriod"
      },
      "enableBattlePeriodUnstake()": {
        "notice": "Flag to enable or disable the battle unstake period."
      },
      "getAllToken(address)": {
        "notice": "function to get all the token that a address has in the Inventory contract"
      },
      "getStakedTokenTime(address,uint256)": {
        "notice": "function to see user stakedTokenTime for specific tokenId"
      },
      "getStakedTokensForBattle(address,string)": {
        "notice": "Get all the tokens staked by user in the battleId"
      },
      "initialize(address,address,address,uint256,address,address)": {
        "notice": "Since it is upgradable function it is initialized instead of using constructor"
      },
      "latestBattle()": {
        "notice": "function to get the latest battle that is created"
      },
      "maxStakeCount()": {
        "notice": "to store the value in which a user can stake"
      },
      "minTokensRequired()": {
        "notice": "minimum Tokens for staking"
      },
      "pause()": {
        "notice": "Pause contract so users wont be able to stake new tokens"
      },
      "restake(uint256,string)": {
        "notice": "Restake tokenId on battleId for the user"
      },
      "restakeAll(string)": {
        "notice": "Function to restakeAll all tokens owned by the player on a battle"
      },
      "restakeAllOnLatestBattle()": {
        "notice": "function where user can restakeAll without battleId"
      },
      "restakeOnLatestBattle(uint256)": {
        "notice": "function where user can restake without battleId"
      },
      "restakeTokens(uint256[],string)": {
        "notice": "function where  restakeTokens works"
      },
      "restakeTokensOnLatestBattle(uint256[])": {
        "notice": "function where user can restake an array without battleId"
      },
      "setBattlePeriodUnstakeStatus(bool)": {
        "notice": "Set the boolean status to enable Battle period stake"
      },
      "setCDHNFTContractAddress(address)": {
        "notice": "function to change the contract address of CDH NFT"
      },
      "setCoolDownPeriod(uint256)": {
        "notice": "to set the cooldown period"
      },
      "setMaxStakeCount(uint256)": {
        "notice": "function to set the limit of token that can be staked"
      },
      "setMinTokensRequired(uint256)": {
        "notice": "Set the minimum number of tokens required for staking nft in WBB"
      },
      "setNFTHolderAddress(address)": {
        "notice": "Change the holder address that will set CDH NFT"
      },
      "setToken(address)": {
        "notice": "function to change the contract address of ERC20 token"
      },
      "setWBBActionsContract(address)": {
        "notice": "Change the WBBActionsContract address that will set WBBActionsContract"
      },
      "stake(uint256,string)": {
        "notice": "Function to stake a single CDHNFT that sender owns"
      },
      "stakeAllOnLatestBattle()": {
        "notice": "function where user can stake all NFT without battleId"
      },
      "stakeOnLatestBattle(uint256)": {
        "notice": "function where user can stake without battleId"
      },
      "stakeTokens(uint256[],string)": {
        "notice": "Function to stake a array of CDH NFT that sender owns"
      },
      "stakeTokensOnLatestBattle(uint256[])": {
        "notice": "function to stake an array of token without battleID"
      },
      "stakers(address)": {
        "notice": "Mapping for TokenStakers"
      },
      "stakersAddress(uint256)": {
        "notice": "List of active staker address"
      },
      "tokenAddress()": {
        "notice": "to store ERC20 token contract"
      },
      "tokenOwner(uint256)": {
        "notice": "Mapping of tokenId to owner's address"
      },
      "tokenToBattleId(uint256)": {
        "notice": "maps tokenId to battleId"
      },
      "unpause()": {
        "notice": "UnPause contract so users be able to stake new tokens again"
      },
      "unstake(uint256,string)": {
        "notice": "public function to unstake a single CDHNFT that sender owns"
      },
      "unstakeAll(string)": {
        "notice": "public function to unstake all CDHNFT that sender owns"
      },
      "unstakeAllInternal(address,string)": {
        "notice": "Internal function to unstake all CDHNFT that sender owns"
      },
      "unstakeTokens(uint256[],string)": {
        "notice": "public function to unstake an array of  CDHNFT that sender owns"
      },
      "unstakeTokensInternal(address,uint256[],string)": {
        "notice": "Internal function to unstake tokens CDHNFT that sender owns"
      },
      "validStakeCount(uint256[],string,address)": {
        "notice": "Check the limit of token that can be staked"
      }
    },
    "notice": "you can use this contract for only staking, un-staking and re-staking the NFTs",
    "version": 1
  },
  "storageLayout": {
    "storage": [
      {
        "astId": 547,
        "contract": "contracts/game/WorldBossBattle.sol:WorldBossBattle",
        "label": "_initialized",
        "offset": 0,
        "slot": "0",
        "type": "t_uint8"
      },
      {
        "astId": 550,
        "contract": "contracts/game/WorldBossBattle.sol:WorldBossBattle",
        "label": "_initializing",
        "offset": 1,
        "slot": "0",
        "type": "t_bool"
      },
      {
        "astId": 2657,
        "contract": "contracts/game/WorldBossBattle.sol:WorldBossBattle",
        "label": "__gap",
        "offset": 0,
        "slot": "1",
        "type": "t_array(t_uint256)50_storage"
      },
      {
        "astId": 730,
        "contract": "contracts/game/WorldBossBattle.sol:WorldBossBattle",
        "label": "_paused",
        "offset": 0,
        "slot": "51",
        "type": "t_bool"
      },
      {
        "astId": 835,
        "contract": "contracts/game/WorldBossBattle.sol:WorldBossBattle",
        "label": "__gap",
        "offset": 0,
        "slot": "52",
        "type": "t_array(t_uint256)49_storage"
      },
      {
        "astId": 850,
        "contract": "contracts/game/WorldBossBattle.sol:WorldBossBattle",
        "label": "_status",
        "offset": 0,
        "slot": "101",
        "type": "t_uint256"
      },
      {
        "astId": 908,
        "contract": "contracts/game/WorldBossBattle.sol:WorldBossBattle",
        "label": "__gap",
        "offset": 0,
        "slot": "102",
        "type": "t_array(t_uint256)49_storage"
      },
      {
        "astId": 7024,
        "contract": "contracts/game/WorldBossBattle.sol:WorldBossBattle",
        "label": "cdhNFT",
        "offset": 0,
        "slot": "151",
        "type": "t_contract(ICDHNFTInventory)8887"
      },
      {
        "astId": 7028,
        "contract": "contracts/game/WorldBossBattle.sol:WorldBossBattle",
        "label": "tokenAddress",
        "offset": 0,
        "slot": "152",
        "type": "t_contract(IToken)8907"
      },
      {
        "astId": 7031,
        "contract": "contracts/game/WorldBossBattle.sol:WorldBossBattle",
        "label": "wbbActions",
        "offset": 0,
        "slot": "153",
        "type": "t_contract(IWBBActions)9023"
      },
      {
        "astId": 7034,
        "contract": "contracts/game/WorldBossBattle.sol:WorldBossBattle",
        "label": "accessControls",
        "offset": 0,
        "slot": "154",
        "type": "t_contract(GameAccessControls)5769"
      },
      {
        "astId": 7036,
        "contract": "contracts/game/WorldBossBattle.sol:WorldBossBattle",
        "label": "nftHolder",
        "offset": 0,
        "slot": "155",
        "type": "t_address"
      },
      {
        "astId": 7038,
        "contract": "contracts/game/WorldBossBattle.sol:WorldBossBattle",
        "label": "lastInteractionTime",
        "offset": 0,
        "slot": "156",
        "type": "t_uint256"
      },
      {
        "astId": 7058,
        "contract": "contracts/game/WorldBossBattle.sol:WorldBossBattle",
        "label": "stakersAddress",
        "offset": 0,
        "slot": "157",
        "type": "t_array(t_address)dyn_storage"
      },
      {
        "astId": 7064,
        "contract": "contracts/game/WorldBossBattle.sol:WorldBossBattle",
        "label": "stakers",
        "offset": 0,
        "slot": "158",
        "type": "t_mapping(t_address,t_struct(TokenStaker)7054_storage)"
      },
      {
        "astId": 7069,
        "contract": "contracts/game/WorldBossBattle.sol:WorldBossBattle",
        "label": "tokenOwner",
        "offset": 0,
        "slot": "159",
        "type": "t_mapping(t_uint256,t_address)"
      },
      {
        "astId": 7074,
        "contract": "contracts/game/WorldBossBattle.sol:WorldBossBattle",
        "label": "tokenToBattleId",
        "offset": 0,
        "slot": "160",
        "type": "t_mapping(t_uint256,t_string_storage)"
      },
      {
        "astId": 7077,
        "contract": "contracts/game/WorldBossBattle.sol:WorldBossBattle",
        "label": "cooldownPeriod",
        "offset": 0,
        "slot": "161",
        "type": "t_uint256"
      },
      {
        "astId": 7080,
        "contract": "contracts/game/WorldBossBattle.sol:WorldBossBattle",
        "label": "maxStakeCount",
        "offset": 0,
        "slot": "162",
        "type": "t_uint256"
      },
      {
        "astId": 7083,
        "contract": "contracts/game/WorldBossBattle.sol:WorldBossBattle",
        "label": "enableBattlePeriodUnstake",
        "offset": 0,
        "slot": "163",
        "type": "t_bool"
      },
      {
        "astId": 7086,
        "contract": "contracts/game/WorldBossBattle.sol:WorldBossBattle",
        "label": "minTokensRequired",
        "offset": 0,
        "slot": "164",
        "type": "t_uint256"
      }
    ],
    "types": {
      "t_address": {
        "encoding": "inplace",
        "label": "address",
        "numberOfBytes": "20"
      },
      "t_array(t_address)dyn_storage": {
        "base": "t_address",
        "encoding": "dynamic_array",
        "label": "address[]",
        "numberOfBytes": "32"
      },
      "t_array(t_uint256)49_storage": {
        "base": "t_uint256",
        "encoding": "inplace",
        "label": "uint256[49]",
        "numberOfBytes": "1568"
      },
      "t_array(t_uint256)50_storage": {
        "base": "t_uint256",
        "encoding": "inplace",
        "label": "uint256[50]",
        "numberOfBytes": "1600"
      },
      "t_array(t_uint256)dyn_storage": {
        "base": "t_uint256",
        "encoding": "dynamic_array",
        "label": "uint256[]",
        "numberOfBytes": "32"
      },
      "t_bool": {
        "encoding": "inplace",
        "label": "bool",
        "numberOfBytes": "1"
      },
      "t_contract(GameAccessControls)5769": {
        "encoding": "inplace",
        "label": "contract GameAccessControls",
        "numberOfBytes": "20"
      },
      "t_contract(ICDHNFTInventory)8887": {
        "encoding": "inplace",
        "label": "contract ICDHNFTInventory",
        "numberOfBytes": "20"
      },
      "t_contract(IToken)8907": {
        "encoding": "inplace",
        "label": "contract IToken",
        "numberOfBytes": "20"
      },
      "t_contract(IWBBActions)9023": {
        "encoding": "inplace",
        "label": "contract IWBBActions",
        "numberOfBytes": "20"
      },
      "t_mapping(t_address,t_struct(TokenStaker)7054_storage)": {
        "encoding": "mapping",
        "key": "t_address",
        "label": "mapping(address => struct WorldBossBattle.TokenStaker)",
        "numberOfBytes": "32",
        "value": "t_struct(TokenStaker)7054_storage"
      },
      "t_mapping(t_string_memory_ptr,t_array(t_uint256)dyn_storage)": {
        "encoding": "mapping",
        "key": "t_string_memory_ptr",
        "label": "mapping(string => uint256[])",
        "numberOfBytes": "32",
        "value": "t_array(t_uint256)dyn_storage"
      },
      "t_mapping(t_uint256,t_address)": {
        "encoding": "mapping",
        "key": "t_uint256",
        "label": "mapping(uint256 => address)",
        "numberOfBytes": "32",
        "value": "t_address"
      },
      "t_mapping(t_uint256,t_string_storage)": {
        "encoding": "mapping",
        "key": "t_uint256",
        "label": "mapping(uint256 => string)",
        "numberOfBytes": "32",
        "value": "t_string_storage"
      },
      "t_mapping(t_uint256,t_uint256)": {
        "encoding": "mapping",
        "key": "t_uint256",
        "label": "mapping(uint256 => uint256)",
        "numberOfBytes": "32",
        "value": "t_uint256"
      },
      "t_string_memory_ptr": {
        "encoding": "bytes",
        "label": "string",
        "numberOfBytes": "32"
      },
      "t_string_storage": {
        "encoding": "bytes",
        "label": "string",
        "numberOfBytes": "32"
      },
      "t_struct(TokenStaker)7054_storage": {
        "encoding": "inplace",
        "label": "struct WorldBossBattle.TokenStaker",
        "members": [
          {
            "astId": 7043,
            "contract": "contracts/game/WorldBossBattle.sol:WorldBossBattle",
            "label": "battleTokenIds",
            "offset": 0,
            "slot": "0",
            "type": "t_mapping(t_string_memory_ptr,t_array(t_uint256)dyn_storage)"
          },
          {
            "astId": 7047,
            "contract": "contracts/game/WorldBossBattle.sol:WorldBossBattle",
            "label": "tokenIndex",
            "offset": 0,
            "slot": "1",
            "type": "t_mapping(t_uint256,t_uint256)"
          },
          {
            "astId": 7051,
            "contract": "contracts/game/WorldBossBattle.sol:WorldBossBattle",
            "label": "stakedTokenTime",
            "offset": 0,
            "slot": "2",
            "type": "t_mapping(t_uint256,t_uint256)"
          },
          {
            "astId": 7053,
            "contract": "contracts/game/WorldBossBattle.sol:WorldBossBattle",
            "label": "blockNumber",
            "offset": 0,
            "slot": "3",
            "type": "t_uint256"
          }
        ],
        "numberOfBytes": "128"
      },
      "t_uint256": {
        "encoding": "inplace",
        "label": "uint256",
        "numberOfBytes": "32"
      },
      "t_uint8": {
        "encoding": "inplace",
        "label": "uint8",
        "numberOfBytes": "1"
      }
    }
  }
}