{
  "_format": "hh-sol-artifact-1",
  "contractName": "GameSession",
  "sourceName": "contracts/game/Session.sol",
  "abi": [
    {
      "anonymous": false,
      "inputs": [
        {
          "indexed": false,
          "internalType": "uint8",
          "name": "version",
          "type": "uint8"
        }
      ],
      "name": "Initialized",
      "type": "event"
    },
    {
      "anonymous": false,
      "inputs": [
        {
          "indexed": true,
          "internalType": "address",
          "name": "previousOwner",
          "type": "address"
        },
        {
          "indexed": true,
          "internalType": "address",
          "name": "newOwner",
          "type": "address"
        }
      ],
      "name": "OwnershipTransferred",
      "type": "event"
    },
    {
      "anonymous": false,
      "inputs": [
        {
          "indexed": true,
          "internalType": "address",
          "name": "sender",
          "type": "address"
        },
        {
          "indexed": false,
          "internalType": "bytes32",
          "name": "oldSessionId",
          "type": "bytes32"
        },
        {
          "indexed": false,
          "internalType": "bytes32",
          "name": "newSessionId",
          "type": "bytes32"
        }
      ],
      "name": "Synced",
      "type": "event"
    },
    {
      "inputs": [
        {
          "internalType": "address",
          "name": "msgSender",
          "type": "address"
        }
      ],
      "name": "getSessionId",
      "outputs": [
        {
          "internalType": "bytes32",
          "name": "",
          "type": "bytes32"
        }
      ],
      "stateMutability": "view",
      "type": "function"
    },
    {
      "inputs": [],
      "name": "isRegisteredUser",
      "outputs": [
        {
          "internalType": "bool",
          "name": "",
          "type": "bool"
        }
      ],
      "stateMutability": "view",
      "type": "function"
    },
    {
      "inputs": [],
      "name": "owner",
      "outputs": [
        {
          "internalType": "address",
          "name": "",
          "type": "address"
        }
      ],
      "stateMutability": "view",
      "type": "function"
    },
    {
      "inputs": [],
      "name": "renounceOwnership",
      "outputs": [],
      "stateMutability": "nonpayable",
      "type": "function"
    },
    {
      "inputs": [
        {
          "internalType": "address",
          "name": "",
          "type": "address"
        }
      ],
      "name": "sessions",
      "outputs": [
        {
          "internalType": "bytes32",
          "name": "",
          "type": "bytes32"
        }
      ],
      "stateMutability": "view",
      "type": "function"
    },
    {
      "inputs": [
        {
          "internalType": "address",
          "name": "_signer",
          "type": "address"
        }
      ],
      "name": "setSigner",
      "outputs": [],
      "stateMutability": "nonpayable",
      "type": "function"
    },
    {
      "inputs": [
        {
          "internalType": "bytes",
          "name": "signature",
          "type": "bytes"
        },
        {
          "internalType": "bytes32",
          "name": "sessionId",
          "type": "bytes32"
        },
        {
          "internalType": "uint256[]",
          "name": "stakedTokens",
          "type": "uint256[]"
        }
      ],
      "name": "sync",
      "outputs": [
        {
          "internalType": "bool",
          "name": "success",
          "type": "bool"
        }
      ],
      "stateMutability": "nonpayable",
      "type": "function"
    },
    {
      "inputs": [
        {
          "internalType": "address",
          "name": "",
          "type": "address"
        }
      ],
      "name": "syncedTime",
      "outputs": [
        {
          "internalType": "uint256",
          "name": "",
          "type": "uint256"
        }
      ],
      "stateMutability": "view",
      "type": "function"
    },
    {
      "inputs": [
        {
          "internalType": "address",
          "name": "newOwner",
          "type": "address"
        }
      ],
      "name": "transferOwnership",
      "outputs": [],
      "stateMutability": "nonpayable",
      "type": "function"
    },
    {
      "inputs": [],
      "name": "updateSession",
      "outputs": [
        {
          "internalType": "bool",
          "name": "",
          "type": "bool"
        }
      ],
      "stateMutability": "nonpayable",
      "type": "function"
    },
    {
      "inputs": [
        {
          "internalType": "bytes32",
          "name": "hash",
          "type": "bytes32"
        },
        {
          "internalType": "bytes",
          "name": "signature",
          "type": "bytes"
        }
      ],
      "name": "verify",
      "outputs": [
        {
          "internalType": "bool",
          "name": "",
          "type": "bool"
        }
      ],
      "stateMutability": "view",
      "type": "function"
    }
  ],
  "bytecode": "0x608060405234801561001057600080fd5b50610e9d806100206000396000f3fe608060405234801561001057600080fd5b50600436106100c95760003560e01c80636c19e78311610081578063c49d30b21161005b578063c49d30b2146101b3578063e481e0a8146101c6578063f2fde38b146101ce57600080fd5b80636c19e7831461016e578063715018a6146101835780638da5cb5b1461018b57600080fd5b8063366b19ae116100b2578063366b19ae14610109578063431a1b971461012057806369d47dd81461014e57600080fd5b806306f809fb146100ce578063258ae582146100f6575b600080fd5b6100e16100dc366004610c76565b6101e1565b60405190151581526020015b60405180910390f35b6100e1610104366004610d49565b61036b565b3360009081526066602052604090205415156100e1565b61014061012e366004610d90565b60666020526000908152604090205481565b6040519081526020016100ed565b61014061015c366004610d90565b60676020526000908152604090205481565b61018161017c366004610d90565b61040a565b005b6101816104ce565b60335460405173ffffffffffffffffffffffffffffffffffffffff90911681526020016100ed565b6101406101c1366004610d90565b6104e2565b6100e16105d2565b6101816101dc366004610d90565b61060b565b33600081815260666020526040812054909190848114610262576040517f08c379a000000000000000000000000000000000000000000000000000000000815260206004820181905260248201527f576f726c64426174746c653a2053657373696f6e20686173206368616e67656460448201526064015b60405180910390fd5b600061026f8684876106c2565b905061027b818861036b565b6102e1576040517f08c379a000000000000000000000000000000000000000000000000000000000815260206004820152601d60248201527f576f726c64426174746c653a20436f756c646e2774205665726966792e0000006044820152606401610259565b60006102ec846106f8565b73ffffffffffffffffffffffffffffffffffffffff85166000818152606660209081526040808320859055606782529182902042905581518b815290810184905292935090917ff977e7d4096cc35c20f46a1c7160bf678955959f7f0bf364c3d8130207f0e1d6910160405180910390a2506001979650505050505050565b6000806103c5846040517f19457468657265756d205369676e6564204d6573736167653a0a3332000000006020820152603c8101829052600090605c01604051602081830303815290604052805190602001209050919050565b60655490915073ffffffffffffffffffffffffffffffffffffffff166103eb8285610767565b73ffffffffffffffffffffffffffffffffffffffff1614949350505050565b73ffffffffffffffffffffffffffffffffffffffff8116610487576040517f08c379a000000000000000000000000000000000000000000000000000000000815260206004820152600f60248201527f496e76616c6964206164647265737300000000000000000000000000000000006044820152606401610259565b606580547fffffffffffffffffffffffff00000000000000000000000000000000000000001673ffffffffffffffffffffffffffffffffffffffff92909216919091179055565b6104d661078b565b6104e0600061080c565b565b73ffffffffffffffffffffffffffffffffffffffff81166000908152606660205260408120548082036105cc576040517fffffffffffffffffffffffffffffffffffffffff0000000000000000000000003360601b1660208201524360348201526105c9906054015b604080517fffffffffffffffffffffffffffffffffffffffffffffffffffffffffffffffe081840301815282825280516020918201207f19457468657265756d205369676e6564204d6573736167653a0a33320000000084830152603c8085019190915282518085039091018152605c909301909152815191012090565b90505b92915050565b6000336105de816106f8565b73ffffffffffffffffffffffffffffffffffffffff90911660009081526066602052604090205550600190565b61061361078b565b73ffffffffffffffffffffffffffffffffffffffff81166106b6576040517f08c379a000000000000000000000000000000000000000000000000000000000815260206004820152602660248201527f4f776e61626c653a206e6577206f776e657220697320746865207a65726f206160448201527f64647265737300000000000000000000000000000000000000000000000000006064820152608401610259565b6106bf8161080c565b50565b60008383836040516020016106d993929190610dcd565b6040516020818303038152906040528051906020012090509392505050565b73ffffffffffffffffffffffffffffffffffffffff811660009081526066602090815260408083205490517fffffffffffffffffffffffffffffffffffffffff0000000000000000000000003360601b169281019290925260348201524360548201526105cc9060740161054b565b60008060006107768585610883565b91509150610783816108c8565b509392505050565b60335473ffffffffffffffffffffffffffffffffffffffff1633146104e0576040517f08c379a000000000000000000000000000000000000000000000000000000000815260206004820181905260248201527f4f776e61626c653a2063616c6c6572206973206e6f7420746865206f776e65726044820152606401610259565b6033805473ffffffffffffffffffffffffffffffffffffffff8381167fffffffffffffffffffffffff0000000000000000000000000000000000000000831681179093556040519116919082907f8be0079c531659141344cd1fd0a4f28419497f9722a3daafe3b4186f6b6457e090600090a35050565b60008082516041036108b95760208301516040840151606085015160001a6108ad87828585610a7b565b945094505050506108c1565b506000905060025b9250929050565b60008160048111156108dc576108dc610e38565b036108e45750565b60018160048111156108f8576108f8610e38565b0361095f576040517f08c379a000000000000000000000000000000000000000000000000000000000815260206004820152601860248201527f45434453413a20696e76616c6964207369676e617475726500000000000000006044820152606401610259565b600281600481111561097357610973610e38565b036109da576040517f08c379a000000000000000000000000000000000000000000000000000000000815260206004820152601f60248201527f45434453413a20696e76616c6964207369676e6174757265206c656e677468006044820152606401610259565b60038160048111156109ee576109ee610e38565b036106bf576040517f08c379a000000000000000000000000000000000000000000000000000000000815260206004820152602260248201527f45434453413a20696e76616c6964207369676e6174757265202773272076616c60448201527f75650000000000000000000000000000000000000000000000000000000000006064820152608401610259565b6000807f7fffffffffffffffffffffffffffffff5d576e7357a4501ddfe92f46681b20a0831115610ab25750600090506003610b61565b6040805160008082526020820180845289905260ff881692820192909252606081018690526080810185905260019060a0016020604051602081039080840390855afa158015610b06573d6000803e3d6000fd5b50506040517fffffffffffffffffffffffffffffffffffffffffffffffffffffffffffffffe0015191505073ffffffffffffffffffffffffffffffffffffffff8116610b5a57600060019250925050610b61565b9150600090505b94509492505050565b7f4e487b7100000000000000000000000000000000000000000000000000000000600052604160045260246000fd5b604051601f82017fffffffffffffffffffffffffffffffffffffffffffffffffffffffffffffffe016810167ffffffffffffffff81118282101715610be057610be0610b6a565b604052919050565b600082601f830112610bf957600080fd5b813567ffffffffffffffff811115610c1357610c13610b6a565b610c4460207fffffffffffffffffffffffffffffffffffffffffffffffffffffffffffffffe0601f84011601610b99565b818152846020838601011115610c5957600080fd5b816020850160208301376000918101602001919091529392505050565b600080600060608486031215610c8b57600080fd5b833567ffffffffffffffff80821115610ca357600080fd5b610caf87838801610be8565b945060209150818601359350604086013581811115610ccd57600080fd5b8601601f81018813610cde57600080fd5b803582811115610cf057610cf0610b6a565b8060051b9250610d01848401610b99565b818152928201840192848101908a851115610d1b57600080fd5b928501925b84841015610d3957833582529285019290850190610d20565b8096505050505050509250925092565b60008060408385031215610d5c57600080fd5b82359150602083013567ffffffffffffffff811115610d7a57600080fd5b610d8685828601610be8565b9150509250929050565b600060208284031215610da257600080fd5b813573ffffffffffffffffffffffffffffffffffffffff81168114610dc657600080fd5b9392505050565b600060608201858352602073ffffffffffffffffffffffffffffffffffffffff86168185015260606040850152818551808452608086019150828701935060005b81811015610e2a57845183529383019391830191600101610e0e565b509098975050505050505050565b7f4e487b7100000000000000000000000000000000000000000000000000000000600052602160045260246000fdfea2646970667358221220936be0025a2e11d22c3aadaf106978f74e0b01f60954211d4c47f5846b22dd5864736f6c63430008110033",
  "linkReferences": {},
  "deployedLinkReferences": {}
}