{
  "_format": "hh-sol-artifact-1",
  "contractName": "CDHInventory",
  "sourceName": "contracts/inventory/CDHInventory.sol",
  "abi": [
    {
      "inputs": [
        {
          "internalType": "string",
          "name": "_uri",
          "type": "string"
        }
      ],
      "stateMutability": "nonpayable",
      "type": "constructor"
    },
    {
      "anonymous": false,
      "inputs": [
        {
          "indexed": true,
          "internalType": "address",
          "name": "account",
          "type": "address"
        },
        {
          "indexed": true,
          "internalType": "address",
          "name": "operator",
          "type": "address"
        },
        {
          "indexed": false,
          "internalType": "bool",
          "name": "approved",
          "type": "bool"
        }
      ],
      "name": "ApprovalForAll",
      "type": "event"
    },
    {
      "anonymous": false,
      "inputs": [
        {
          "indexed": true,
          "internalType": "address",
          "name": "previousOwner",
          "type": "address"
        },
        {
          "indexed": true,
          "internalType": "address",
          "name": "newOwner",
          "type": "address"
        }
      ],
      "name": "OwnershipTransferred",
      "type": "event"
    },
    {
      "anonymous": false,
      "inputs": [
        {
          "indexed": false,
          "internalType": "address",
          "name": "account",
          "type": "address"
        }
      ],
      "name": "Paused",
      "type": "event"
    },
    {
      "anonymous": false,
      "inputs": [
        {
          "indexed": true,
          "internalType": "bytes32",
          "name": "role",
          "type": "bytes32"
        },
        {
          "indexed": true,
          "internalType": "bytes32",
          "name": "previousAdminRole",
          "type": "bytes32"
        },
        {
          "indexed": true,
          "internalType": "bytes32",
          "name": "newAdminRole",
          "type": "bytes32"
        }
      ],
      "name": "RoleAdminChanged",
      "type": "event"
    },
    {
      "anonymous": false,
      "inputs": [
        {
          "indexed": true,
          "internalType": "bytes32",
          "name": "role",
          "type": "bytes32"
        },
        {
          "indexed": true,
          "internalType": "address",
          "name": "account",
          "type": "address"
        },
        {
          "indexed": true,
          "internalType": "address",
          "name": "sender",
          "type": "address"
        }
      ],
      "name": "RoleGranted",
      "type": "event"
    },
    {
      "anonymous": false,
      "inputs": [
        {
          "indexed": true,
          "internalType": "bytes32",
          "name": "role",
          "type": "bytes32"
        },
        {
          "indexed": true,
          "internalType": "address",
          "name": "account",
          "type": "address"
        },
        {
          "indexed": true,
          "internalType": "address",
          "name": "sender",
          "type": "address"
        }
      ],
      "name": "RoleRevoked",
      "type": "event"
    },
    {
      "anonymous": false,
      "inputs": [
        {
          "indexed": false,
          "internalType": "bytes1",
          "name": "poolId",
          "type": "bytes1"
        },
        {
          "indexed": false,
          "internalType": "address",
          "name": "poolAddress",
          "type": "address"
        }
      ],
      "name": "SetNewPool",
      "type": "event"
    },
    {
      "anonymous": false,
      "inputs": [
        {
          "indexed": true,
          "internalType": "address",
          "name": "operator",
          "type": "address"
        },
        {
          "indexed": true,
          "internalType": "address",
          "name": "from",
          "type": "address"
        },
        {
          "indexed": true,
          "internalType": "address",
          "name": "to",
          "type": "address"
        },
        {
          "indexed": false,
          "internalType": "uint256[]",
          "name": "ids",
          "type": "uint256[]"
        },
        {
          "indexed": false,
          "internalType": "uint256[]",
          "name": "values",
          "type": "uint256[]"
        }
      ],
      "name": "TransferBatch",
      "type": "event"
    },
    {
      "anonymous": false,
      "inputs": [
        {
          "indexed": true,
          "internalType": "address",
          "name": "operator",
          "type": "address"
        },
        {
          "indexed": true,
          "internalType": "address",
          "name": "from",
          "type": "address"
        },
        {
          "indexed": true,
          "internalType": "address",
          "name": "to",
          "type": "address"
        },
        {
          "indexed": false,
          "internalType": "uint256",
          "name": "id",
          "type": "uint256"
        },
        {
          "indexed": false,
          "internalType": "uint256",
          "name": "value",
          "type": "uint256"
        }
      ],
      "name": "TransferSingle",
      "type": "event"
    },
    {
      "anonymous": false,
      "inputs": [
        {
          "indexed": false,
          "internalType": "string",
          "name": "value",
          "type": "string"
        },
        {
          "indexed": true,
          "internalType": "uint256",
          "name": "id",
          "type": "uint256"
        }
      ],
      "name": "URI",
      "type": "event"
    },
    {
      "anonymous": false,
      "inputs": [
        {
          "indexed": false,
          "internalType": "address",
          "name": "account",
          "type": "address"
        }
      ],
      "name": "Unpaused",
      "type": "event"
    },
    {
      "inputs": [],
      "name": "DEFAULT_ADMIN_ROLE",
      "outputs": [
        {
          "internalType": "bytes32",
          "name": "",
          "type": "bytes32"
        }
      ],
      "stateMutability": "view",
      "type": "function"
    },
    {
      "inputs": [],
      "name": "MINTER_ROLE",
      "outputs": [
        {
          "internalType": "bytes32",
          "name": "",
          "type": "bytes32"
        }
      ],
      "stateMutability": "view",
      "type": "function"
    },
    {
      "inputs": [],
      "name": "MINTER_ROLE_ADMIN",
      "outputs": [
        {
          "internalType": "bytes32",
          "name": "",
          "type": "bytes32"
        }
      ],
      "stateMutability": "view",
      "type": "function"
    },
    {
      "inputs": [
        {
          "internalType": "address",
          "name": "account",
          "type": "address"
        },
        {
          "internalType": "uint256",
          "name": "id",
          "type": "uint256"
        }
      ],
      "name": "balanceOf",
      "outputs": [
        {
          "internalType": "uint256",
          "name": "",
          "type": "uint256"
        }
      ],
      "stateMutability": "view",
      "type": "function"
    },
    {
      "inputs": [
        {
          "internalType": "address[]",
          "name": "accounts",
          "type": "address[]"
        },
        {
          "internalType": "uint256[]",
          "name": "ids",
          "type": "uint256[]"
        }
      ],
      "name": "balanceOfBatch",
      "outputs": [
        {
          "internalType": "uint256[]",
          "name": "",
          "type": "uint256[]"
        }
      ],
      "stateMutability": "view",
      "type": "function"
    },
    {
      "inputs": [
        {
          "internalType": "uint256",
          "name": "tokenId",
          "type": "uint256"
        }
      ],
      "name": "card",
      "outputs": [
        {
          "internalType": "uint256",
          "name": "",
          "type": "uint256"
        }
      ],
      "stateMutability": "pure",
      "type": "function"
    },
    {
      "inputs": [
        {
          "internalType": "address",
          "name": "user",
          "type": "address"
        }
      ],
      "name": "count",
      "outputs": [
        {
          "internalType": "uint256",
          "name": "",
          "type": "uint256"
        }
      ],
      "stateMutability": "view",
      "type": "function"
    },
    {
      "inputs": [
        {
          "internalType": "uint256",
          "name": "_cardId",
          "type": "uint256"
        }
      ],
      "name": "countByCardId",
      "outputs": [
        {
          "internalType": "uint256",
          "name": "",
          "type": "uint256"
        }
      ],
      "stateMutability": "view",
      "type": "function"
    },
    {
      "inputs": [
        {
          "internalType": "address",
          "name": "user",
          "type": "address"
        }
      ],
      "name": "getAllTokens",
      "outputs": [
        {
          "internalType": "uint256[]",
          "name": "",
          "type": "uint256[]"
        }
      ],
      "stateMutability": "view",
      "type": "function"
    },
    {
      "inputs": [
        {
          "internalType": "bytes32",
          "name": "role",
          "type": "bytes32"
        }
      ],
      "name": "getRoleAdmin",
      "outputs": [
        {
          "internalType": "bytes32",
          "name": "",
          "type": "bytes32"
        }
      ],
      "stateMutability": "view",
      "type": "function"
    },
    {
      "inputs": [
        {
          "internalType": "bytes32",
          "name": "role",
          "type": "bytes32"
        },
        {
          "internalType": "uint256",
          "name": "index",
          "type": "uint256"
        }
      ],
      "name": "getRoleMember",
      "outputs": [
        {
          "internalType": "address",
          "name": "",
          "type": "address"
        }
      ],
      "stateMutability": "view",
      "type": "function"
    },
    {
      "inputs": [
        {
          "internalType": "bytes32",
          "name": "role",
          "type": "bytes32"
        }
      ],
      "name": "getRoleMemberCount",
      "outputs": [
        {
          "internalType": "uint256",
          "name": "",
          "type": "uint256"
        }
      ],
      "stateMutability": "view",
      "type": "function"
    },
    {
      "inputs": [
        {
          "internalType": "bytes32",
          "name": "role",
          "type": "bytes32"
        },
        {
          "internalType": "address",
          "name": "account",
          "type": "address"
        }
      ],
      "name": "grantRole",
      "outputs": [],
      "stateMutability": "nonpayable",
      "type": "function"
    },
    {
      "inputs": [
        {
          "internalType": "bytes32",
          "name": "role",
          "type": "bytes32"
        },
        {
          "internalType": "address",
          "name": "account",
          "type": "address"
        }
      ],
      "name": "hasRole",
      "outputs": [
        {
          "internalType": "bool",
          "name": "",
          "type": "bool"
        }
      ],
      "stateMutability": "view",
      "type": "function"
    },
    {
      "inputs": [
        {
          "internalType": "uint256",
          "name": "id",
          "type": "uint256"
        }
      ],
      "name": "info",
      "outputs": [
        {
          "internalType": "string",
          "name": "name",
          "type": "string"
        },
        {
          "internalType": "bytes16",
          "name": "cardType",
          "type": "bytes16"
        },
        {
          "internalType": "bytes1",
          "name": "rarity",
          "type": "bytes1"
        },
        {
          "internalType": "uint256",
          "name": "rank",
          "type": "uint256"
        },
        {
          "internalType": "uint256",
          "name": "level",
          "type": "uint256"
        },
        {
          "internalType": "string",
          "name": "_uri",
          "type": "string"
        },
        {
          "internalType": "uint256",
          "name": "blockNum",
          "type": "uint256"
        }
      ],
      "stateMutability": "view",
      "type": "function"
    },
    {
      "inputs": [
        {
          "internalType": "address",
          "name": "account",
          "type": "address"
        },
        {
          "internalType": "address",
          "name": "operator",
          "type": "address"
        }
      ],
      "name": "isApprovedForAll",
      "outputs": [
        {
          "internalType": "bool",
          "name": "",
          "type": "bool"
        }
      ],
      "stateMutability": "view",
      "type": "function"
    },
    {
      "inputs": [
        {
          "internalType": "address",
          "name": "account",
          "type": "address"
        },
        {
          "internalType": "uint256",
          "name": "cardId",
          "type": "uint256"
        },
        {
          "internalType": "uint256",
          "name": "amount",
          "type": "uint256"
        },
        {
          "internalType": "bytes",
          "name": "data",
          "type": "bytes"
        }
      ],
      "name": "mint",
      "outputs": [],
      "stateMutability": "nonpayable",
      "type": "function"
    },
    {
      "inputs": [
        {
          "internalType": "address",
          "name": "to",
          "type": "address"
        },
        {
          "internalType": "uint256[]",
          "name": "cardIds",
          "type": "uint256[]"
        },
        {
          "internalType": "uint256[]",
          "name": "amounts",
          "type": "uint256[]"
        },
        {
          "internalType": "bytes",
          "name": "data",
          "type": "bytes"
        }
      ],
      "name": "mintBatch",
      "outputs": [],
      "stateMutability": "nonpayable",
      "type": "function"
    },
    {
      "inputs": [],
      "name": "owner",
      "outputs": [
        {
          "internalType": "address",
          "name": "",
          "type": "address"
        }
      ],
      "stateMutability": "view",
      "type": "function"
    },
    {
      "inputs": [
        {
          "internalType": "uint256",
          "name": "id",
          "type": "uint256"
        }
      ],
      "name": "parse",
      "outputs": [
        {
          "internalType": "bytes1",
          "name": "token",
          "type": "bytes1"
        },
        {
          "internalType": "bytes4",
          "name": "cdhId",
          "type": "bytes4"
        },
        {
          "internalType": "bytes1",
          "name": "poolId",
          "type": "bytes1"
        },
        {
          "internalType": "bytes32",
          "name": "cardType",
          "type": "bytes32"
        },
        {
          "internalType": "bytes1",
          "name": "rarity",
          "type": "bytes1"
        },
        {
          "internalType": "uint256",
          "name": "counter_",
          "type": "uint256"
        }
      ],
      "stateMutability": "pure",
      "type": "function"
    },
    {
      "inputs": [],
      "name": "pause",
      "outputs": [],
      "stateMutability": "nonpayable",
      "type": "function"
    },
    {
      "inputs": [],
      "name": "paused",
      "outputs": [
        {
          "internalType": "bool",
          "name": "",
          "type": "bool"
        }
      ],
      "stateMutability": "view",
      "type": "function"
    },
    {
      "inputs": [
        {
          "internalType": "bytes1",
          "name": "poolId",
          "type": "bytes1"
        }
      ],
      "name": "pool",
      "outputs": [
        {
          "internalType": "address",
          "name": "",
          "type": "address"
        }
      ],
      "stateMutability": "view",
      "type": "function"
    },
    {
      "inputs": [
        {
          "internalType": "uint256",
          "name": "token",
          "type": "uint256"
        }
      ],
      "name": "pool",
      "outputs": [
        {
          "internalType": "address",
          "name": "",
          "type": "address"
        }
      ],
      "stateMutability": "view",
      "type": "function"
    },
    {
      "inputs": [],
      "name": "renounceOwnership",
      "outputs": [],
      "stateMutability": "nonpayable",
      "type": "function"
    },
    {
      "inputs": [
        {
          "internalType": "bytes32",
          "name": "role",
          "type": "bytes32"
        },
        {
          "internalType": "address",
          "name": "account",
          "type": "address"
        }
      ],
      "name": "renounceRole",
      "outputs": [],
      "stateMutability": "nonpayable",
      "type": "function"
    },
    {
      "inputs": [
        {
          "internalType": "bytes32",
          "name": "role",
          "type": "bytes32"
        },
        {
          "internalType": "address",
          "name": "account",
          "type": "address"
        }
      ],
      "name": "revokeRole",
      "outputs": [],
      "stateMutability": "nonpayable",
      "type": "function"
    },
    {
      "inputs": [
        {
          "internalType": "address",
          "name": "from",
          "type": "address"
        },
        {
          "internalType": "address",
          "name": "to",
          "type": "address"
        },
        {
          "internalType": "uint256[]",
          "name": "ids",
          "type": "uint256[]"
        },
        {
          "internalType": "uint256[]",
          "name": "amounts",
          "type": "uint256[]"
        },
        {
          "internalType": "bytes",
          "name": "data",
          "type": "bytes"
        }
      ],
      "name": "safeBatchTransferFrom",
      "outputs": [],
      "stateMutability": "nonpayable",
      "type": "function"
    },
    {
      "inputs": [
        {
          "internalType": "address",
          "name": "from",
          "type": "address"
        },
        {
          "internalType": "address",
          "name": "to",
          "type": "address"
        },
        {
          "internalType": "uint256",
          "name": "id",
          "type": "uint256"
        },
        {
          "internalType": "uint256",
          "name": "amount",
          "type": "uint256"
        },
        {
          "internalType": "bytes",
          "name": "data",
          "type": "bytes"
        }
      ],
      "name": "safeTransferFrom",
      "outputs": [],
      "stateMutability": "nonpayable",
      "type": "function"
    },
    {
      "inputs": [
        {
          "internalType": "address",
          "name": "operator",
          "type": "address"
        },
        {
          "internalType": "bool",
          "name": "approved",
          "type": "bool"
        }
      ],
      "name": "setApprovalForAll",
      "outputs": [],
      "stateMutability": "nonpayable",
      "type": "function"
    },
    {
      "inputs": [
        {
          "internalType": "bytes1",
          "name": "poolId",
          "type": "bytes1"
        },
        {
          "internalType": "address",
          "name": "poolAddress",
          "type": "address"
        }
      ],
      "name": "setPool",
      "outputs": [],
      "stateMutability": "nonpayable",
      "type": "function"
    },
    {
      "inputs": [
        {
          "internalType": "string",
          "name": "newuri",
          "type": "string"
        }
      ],
      "name": "setURI",
      "outputs": [],
      "stateMutability": "nonpayable",
      "type": "function"
    },
    {
      "inputs": [
        {
          "internalType": "bytes4",
          "name": "interfaceId",
          "type": "bytes4"
        }
      ],
      "name": "supportsInterface",
      "outputs": [
        {
          "internalType": "bool",
          "name": "",
          "type": "bool"
        }
      ],
      "stateMutability": "view",
      "type": "function"
    },
    {
      "inputs": [
        {
          "internalType": "address",
          "name": "newOwner",
          "type": "address"
        }
      ],
      "name": "transferOwnership",
      "outputs": [],
      "stateMutability": "nonpayable",
      "type": "function"
    },
    {
      "inputs": [],
      "name": "unpause",
      "outputs": [],
      "stateMutability": "nonpayable",
      "type": "function"
    },
    {
      "inputs": [
        {
          "internalType": "uint256",
          "name": "tokenId",
          "type": "uint256"
        }
      ],
      "name": "uri",
      "outputs": [
        {
          "internalType": "string",
          "name": "",
          "type": "string"
        }
      ],
      "stateMutability": "view",
      "type": "function"
    }
  ],
  "bytecode": "0x60806040523480156200001157600080fd5b506040516200581238038062005812833981810160405260208110156200003757600080fd5b81019080805160405193929190846401000000008211156200005857600080fd5b838201915060208201858111156200006f57600080fd5b82518660018202830111640100000000821117156200008d57600080fd5b8083526020830192505050908051906020019080838360005b83811015620000c3578082015181840152602081019050620000a6565b50505050905090810190601f168015620000f15780820380516001836020036101000a031916815260200191505b506040525050508060006200010b620002e460201b60201c565b9050806000806101000a81548173ffffffffffffffffffffffffffffffffffffffff021916908373ffffffffffffffffffffffffffffffffffffffff1602179055508073ffffffffffffffffffffffffffffffffffffffff16600073ffffffffffffffffffffffffffffffffffffffff167f8be0079c531659141344cd1fd0a4f28419497f9722a3daafe3b4186f6b6457e060405160405180910390a35060008060146101000a81548160ff021916908315150217905550620001db6301ffc9a760e01b620002ec60201b60201c565b620001ec81620003f560201b60201c565b6200020463d9b67a2660e01b620002ec60201b60201c565b6200021c630e89341c60e01b620002ec60201b60201c565b50620002416000801b62000235620002e460201b60201c565b6200041160201b60201c565b620002997f9f2df0fed2c77648de5860a4cc508cd0818c85b8b8a1ab4ceeef8d981c8956a660001b7f11c2020b6b4f4e00c2410234e0c72636b4739cf7cda4d8e24ef6b881350e670460001b6200042760201b60201c565b620002dd7f11c2020b6b4f4e00c2410234e0c72636b4739cf7cda4d8e24ef6b881350e670460001b620002d1620002e460201b60201c565b6200041160201b60201c565b50620006ba565b600033905090565b63ffffffff60e01b817bffffffffffffffffffffffffffffffffffffffffffffffffffffffff1916141562000389576040517f08c379a000000000000000000000000000000000000000000000000000000000815260040180806020018281038252601c8152602001807f4552433136353a20696e76616c696420696e746572666163652069640000000081525060200191505060405180910390fd5b6001806000837bffffffffffffffffffffffffffffffffffffffffffffffffffffffff19167bffffffffffffffffffffffffffffffffffffffffffffffffffffffff1916815260200190815260200160002060006101000a81548160ff02191690831515021790555050565b80600490805190602001906200040d92919062000604565b5050565b6200042382826200048b60201b60201c565b5050565b806005600084815260200190815260200160002060020154837fbd79b86ffe0ab8e8776151514217cd7cacd52c909f66475c3af44e129f0b00ff60405160405180910390a48060056000848152602001908152602001600020600201819055505050565b620004ba81600560008581526020019081526020016000206000016200052f60201b620031b31790919060201c565b156200052b57620004d0620002e460201b60201c565b73ffffffffffffffffffffffffffffffffffffffff168173ffffffffffffffffffffffffffffffffffffffff16837f2f8788117e7eff1d82e926ec794901d17c78024a50270940304540a733656f0d60405160405180910390a45b5050565b60006200055f836000018373ffffffffffffffffffffffffffffffffffffffff1660001b6200056760201b60201c565b905092915050565b60006200057b8383620005e160201b60201c565b620005d6578260000182908060018154018082558091505060019003906000526020600020016000909190919091505582600001805490508360010160008481526020019081526020016000208190555060019050620005db565b600090505b92915050565b600080836001016000848152602001908152602001600020541415905092915050565b828054600181600116156101000203166002900490600052602060002090601f0160209004810192826200063c576000855562000688565b82601f106200065757805160ff191683800117855562000688565b8280016001018555821562000688579182015b82811115620006875782518255916020019190600101906200066a565b5b5090506200069791906200069b565b5090565b5b80821115620006b65760008160009055506001016200069c565b5090565b61514880620006ca6000396000f3fe608060405234801561001057600080fd5b506004361061021b5760003560e01c8063715018a611610125578063a22cb465116100ad578063d547741f1161007c578063d547741f146112b3578063e985e9c514611301578063f242432a1461137b578063f2fde38b1461148a578063fe313112146114ce5761021b565b8063a22cb465146111c1578063bfcfd9b914611211578063ca15c87314611253578063d5391393146112955761021b565b80638da5cb5b116100f45780638da5cb5b14610fbf5780638e2ce69a14610ff35780639010d07c146110dd57806391d148541461113f578063a217fddf146111a35761021b565b8063715018a614610e7a57806371bc5e1f14610e84578063731133e914610ec65780638456cb5914610fb55761021b565b8063263a8527116101a857806336568abe1161017757806336568abe14610bf15780633f4ba83a14610c3f5780634e1273f414610c495780635630710914610dea5780635c975abb14610e5a5761021b565b8063263a85271461079b5780632e340599146108155780632eb2c2d6146109805780632f2ff15d14610ba35761021b565b80630e89341c116101ef5780630e89341c146103f857806311d15e7a1461049f578063178b6de6146104bd5780631f7fdffa14610556578063248a9ca3146107595761021b565b8062fdd58e1461022057806301ffc9a71461028257806302fe5305146102e557806305d85eda146103a0575b600080fd5b61026c6004803603604081101561023657600080fd5b81019080803573ffffffffffffffffffffffffffffffffffffffff16906020019092919080359060200190929190505050611526565b6040518082815260200191505060405180910390f35b6102cd6004803603602081101561029857600080fd5b8101908080357bffffffffffffffffffffffffffffffffffffffffffffffffffffffff19169060200190929190505050611606565b60405180821515815260200191505060405180910390f35b61039e600480360360208110156102fb57600080fd5b810190808035906020019064010000000081111561031857600080fd5b82018360208201111561032a57600080fd5b8035906020019184600183028401116401000000008311171561034c57600080fd5b91908080601f016020809104026020016040519081016040528093929190818152602001838380828437600081840152601f19601f82011690508083019250505050505050919291929050505061166e565b005b6103e2600480360360208110156103b657600080fd5b81019080803573ffffffffffffffffffffffffffffffffffffffff169060200190929190505050611699565b6040518082815260200191505060405180910390f35b6104246004803603602081101561040e57600080fd5b81019080803590602001909291905050506116e5565b6040518080602001828103825283818151815260200191508051906020019080838360005b83811015610464578082015181840152602081019050610449565b50505050905090810190601f1680156104915780820380516001836020036101000a031916815260200191505b509250505060405180910390f35b6104a761179a565b6040518082815260200191505060405180910390f35b6104ff600480360360208110156104d357600080fd5b81019080803573ffffffffffffffffffffffffffffffffffffffff1690602001909291905050506117c1565b6040518080602001828103825283818151815260200191508051906020019060200280838360005b83811015610542578082015181840152602081019050610527565b505050509050019250505060405180910390f35b6107576004803603608081101561056c57600080fd5b81019080803573ffffffffffffffffffffffffffffffffffffffff169060200190929190803590602001906401000000008111156105a957600080fd5b8201836020820111156105bb57600080fd5b803590602001918460208302840111640100000000831117156105dd57600080fd5b919080806020026020016040519081016040528093929190818152602001838360200280828437600081840152601f19601f8201169050808301925050505050505091929192908035906020019064010000000081111561063d57600080fd5b82018360208201111561064f57600080fd5b8035906020019184602083028401116401000000008311171561067157600080fd5b919080806020026020016040519081016040528093929190818152602001838360200280828437600081840152601f19601f820116905080830192505050505050509192919290803590602001906401000000008111156106d157600080fd5b8201836020820111156106e357600080fd5b8035906020019184600183028401116401000000008311171561070557600080fd5b91908080601f016020809104026020016040519081016040528093929190818152602001838380828437600081840152601f19601f820116905080830192505050505050509192919290505050611858565b005b6107856004803603602081101561076f57600080fd5b8101908080359060200190929190505050611942565b6040518082815260200191505060405180910390f35b6107e9600480360360208110156107b157600080fd5b8101908080357effffffffffffffffffffffffffffffffffffffffffffffffffffffffffffff19169060200190929190505050611962565b604051808273ffffffffffffffffffffffffffffffffffffffff16815260200191505060405180910390f35b6108416004803603602081101561082b57600080fd5b81019080803590602001909291905050506119e3565b6040518080602001886fffffffffffffffffffffffffffffffff19168152602001877effffffffffffffffffffffffffffffffffffffffffffffffffffffffffffff191681526020018681526020018581526020018060200184815260200183810383528a818151815260200191508051906020019080838360005b838110156108d85780820151818401526020810190506108bd565b50505050905090810190601f1680156109055780820380516001836020036101000a031916815260200191505b50838103825285818151815260200191508051906020019080838360005b8381101561093e578082015181840152602081019050610923565b50505050905090810190601f16801561096b5780820380516001836020036101000a031916815260200191505b50995050505050505050505060405180910390f35b610ba1600480360360a081101561099657600080fd5b81019080803573ffffffffffffffffffffffffffffffffffffffff169060200190929190803573ffffffffffffffffffffffffffffffffffffffff169060200190929190803590602001906401000000008111156109f357600080fd5b820183602082011115610a0557600080fd5b80359060200191846020830284011164010000000083111715610a2757600080fd5b919080806020026020016040519081016040528093929190818152602001838360200280828437600081840152601f19601f82011690508083019250505050505050919291929080359060200190640100000000811115610a8757600080fd5b820183602082011115610a9957600080fd5b80359060200191846020830284011164010000000083111715610abb57600080fd5b919080806020026020016040519081016040528093929190818152602001838360200280828437600081840152601f19601f82011690508083019250505050505050919291929080359060200190640100000000811115610b1b57600080fd5b820183602082011115610b2d57600080fd5b80359060200191846001830284011164010000000083111715610b4f57600080fd5b91908080601f016020809104026020016040519081016040528093929190818152602001838380828437600081840152601f19601f820116905080830192505050505050509192919290505050611c97565b005b610bef60048036036040811015610bb957600080fd5b8101908080359060200190929190803573ffffffffffffffffffffffffffffffffffffffff169060200190929190505050612122565b005b610c3d60048036036040811015610c0757600080fd5b8101908080359060200190929190803573ffffffffffffffffffffffffffffffffffffffff1690602001909291905050506121ac565b005b610c47612245565b005b610d9360048036036040811015610c5f57600080fd5b8101908080359060200190640100000000811115610c7c57600080fd5b820183602082011115610c8e57600080fd5b80359060200191846020830284011164010000000083111715610cb057600080fd5b919080806020026020016040519081016040528093929190818152602001838360200280828437600081840152601f19601f82011690508083019250505050505050919291929080359060200190640100000000811115610d1057600080fd5b820183602082011115610d2257600080fd5b80359060200191846020830284011164010000000083111715610d4457600080fd5b919080806020026020016040519081016040528093929190818152602001838360200280828437600081840152601f19601f82011690508083019250505050505050919291929050505061226e565b6040518080602001828103825283818151815260200191508051906020019060200280838360005b83811015610dd6578082015181840152602081019050610dbb565b505050509050019250505060405180910390f35b610e5860048036036040811015610e0057600080fd5b8101908080357effffffffffffffffffffffffffffffffffffffffffffffffffffffffffffff19169060200190929190803573ffffffffffffffffffffffffffffffffffffffff169060200190929190505050612380565b005b610e626125c9565b60405180821515815260200191505060405180910390f35b610e826125df565b005b610eb060048036036020811015610e9a57600080fd5b810190808035906020019092919050505061274c565b6040518082815260200191505060405180910390f35b610fb360048036036080811015610edc57600080fd5b81019080803573ffffffffffffffffffffffffffffffffffffffff169060200190929190803590602001909291908035906020019092919080359060200190640100000000811115610f2d57600080fd5b820183602082011115610f3f57600080fd5b80359060200191846001830284011164010000000083111715610f6157600080fd5b91908080601f016020809104026020016040519081016040528093929190818152602001838380828437600081840152601f19601f820116905080830192505050505050509192919290505050612769565b005b610fbd6127c6565b005b610fc76127ef565b604051808273ffffffffffffffffffffffffffffffffffffffff16815260200191505060405180910390f35b61101f6004803603602081101561100957600080fd5b8101908080359060200190929190505050612818565b60405180877effffffffffffffffffffffffffffffffffffffffffffffffffffffffffffff19168152602001867bffffffffffffffffffffffffffffffffffffffffffffffffffffffff19168152602001857effffffffffffffffffffffffffffffffffffffffffffffffffffffffffffff19168152602001848152602001837effffffffffffffffffffffffffffffffffffffffffffffffffffffffffffff19168152602001828152602001965050505050505060405180910390f35b611113600480360360408110156110f357600080fd5b81019080803590602001909291908035906020019092919050505061288e565b604051808273ffffffffffffffffffffffffffffffffffffffff16815260200191505060405180910390f35b61118b6004803603604081101561115557600080fd5b8101908080359060200190929190803573ffffffffffffffffffffffffffffffffffffffff1690602001909291905050506128c0565b60405180821515815260200191505060405180910390f35b6111ab6128f2565b6040518082815260200191505060405180910390f35b61120f600480360360408110156111d757600080fd5b81019080803573ffffffffffffffffffffffffffffffffffffffff1690602001909291908035151590602001909291905050506128f9565b005b61123d6004803603602081101561122757600080fd5b8101908080359060200190929190505050612a92565b6040518082815260200191505060405180910390f35b61127f6004803603602081101561126957600080fd5b8101908080359060200190929190505050612aa3565b6040518082815260200191505060405180910390f35b61129d612aca565b6040518082815260200191505060405180910390f35b6112ff600480360360408110156112c957600080fd5b8101908080359060200190929190803573ffffffffffffffffffffffffffffffffffffffff169060200190929190505050612af1565b005b6113636004803603604081101561131757600080fd5b81019080803573ffffffffffffffffffffffffffffffffffffffff169060200190929190803573ffffffffffffffffffffffffffffffffffffffff169060200190929190505050612b7b565b60405180821515815260200191505060405180910390f35b611488600480360360a081101561139157600080fd5b81019080803573ffffffffffffffffffffffffffffffffffffffff169060200190929190803573ffffffffffffffffffffffffffffffffffffffff16906020019092919080359060200190929190803590602001909291908035906020019064010000000081111561140257600080fd5b82018360208201111561141457600080fd5b8035906020019184600183028401116401000000008311171561143657600080fd5b91908080601f016020809104026020016040519081016040528093929190818152602001838380828437600081840152601f19601f820116905080830192505050505050509192919290505050612c0f565b005b6114cc600480360360208110156114a057600080fd5b81019080803573ffffffffffffffffffffffffffffffffffffffff169060200190929190505050612f84565b005b6114fa600480360360208110156114e457600080fd5b8101908080359060200190929190505050613176565b604051808273ffffffffffffffffffffffffffffffffffffffff16815260200191505060405180910390f35b60008073ffffffffffffffffffffffffffffffffffffffff168373ffffffffffffffffffffffffffffffffffffffff1614156115ad576040517f08c379a000000000000000000000000000000000000000000000000000000000815260040180806020018281038252602b815260200180614f1e602b913960400191505060405180910390fd5b6002600083815260200190815260200160002060008473ffffffffffffffffffffffffffffffffffffffff1673ffffffffffffffffffffffffffffffffffffffff16815260200190815260200160002054905092915050565b600060016000837bffffffffffffffffffffffffffffffffffffffffffffffffffffffff19167bffffffffffffffffffffffffffffffffffffffffffffffffffffffff1916815260200190815260200160002060009054906101000a900460ff169050919050565b6000801b6116838161167e6131e3565b6128c0565b61168c57600080fd5b611695826131eb565b5050565b6000600a60008373ffffffffffffffffffffffffffffffffffffffff1673ffffffffffffffffffffffffffffffffffffffff168152602001908152602001600020805490509050919050565b6060600960008381526020019081526020016000208054600181600116156101000203166002900480601f01602080910402602001604051908101604052809291908181526020018280546001816001161561010002031660029004801561178e5780601f106117635761010080835404028352916020019161178e565b820191906000526020600020905b81548152906001019060200180831161177157829003601f168201915b50505050509050919050565b7f11c2020b6b4f4e00c2410234e0c72636b4739cf7cda4d8e24ef6b881350e670460001b81565b6060600a60008373ffffffffffffffffffffffffffffffffffffffff1673ffffffffffffffffffffffffffffffffffffffff16815260200190815260200160002080548060200260200160405190810160405280929190818152602001828054801561184c57602002820191906000526020600020905b815481526020019060010190808311611838575b50505050509050919050565b61188c7f9f2df0fed2c77648de5860a4cc508cd0818c85b8b8a1ab4ceeef8d981c8956a660001b6118876131e3565b6128c0565b61189557600080fd5b6000835167ffffffffffffffff811180156118af57600080fd5b506040519080825280602002602001820160405280156118de5781602001602082028036833780820191505090505b50905060005b845181101561192e576119098582815181106118fc57fe5b6020026020010151613205565b82828151811061191557fe5b60200260200101818152505080806001019150506118e4565b5061193b858285856137cd565b5050505050565b600060056000838152602001908152602001600020600201549050919050565b600060076000837effffffffffffffffffffffffffffffffffffffffffffffffffffffffffffff19167effffffffffffffffffffffffffffffffffffffffffffffffffffffffffffff1916815260200190815260200160002060009054906101000a900473ffffffffffffffffffffffffffffffffffffffff169050919050565b606060008060008060606000806119f989612a92565b90506000600860008b815260200190815260200160002060009054906101000a900473ffffffffffffffffffffffffffffffffffffffff1690508073ffffffffffffffffffffffffffffffffffffffff16639188d312836040518263ffffffff1660e01b81526004018082815260200191505060006040518083038186803b158015611a8457600080fd5b505afa158015611a98573d6000803e3d6000fd5b505050506040513d6000823e3d601f19601f8201168201806040525060c0811015611ac257600080fd5b8101908080516040519392919084640100000000821115611ae257600080fd5b83820191506020820185811115611af857600080fd5b8251866001820283011164010000000082111715611b1557600080fd5b8083526020830192505050908051906020019080838360005b83811015611b49578082015181840152602081019050611b2e565b50505050905090810190601f168015611b765780820380516001836020036101000a031916815260200191505b506040526020018051906020019092919080519060200190929190805190602001909291908051906020019092919080516040519392919084640100000000821115611bc157600080fd5b83820191506020820185811115611bd757600080fd5b8251866001820283011164010000000082111715611bf457600080fd5b8083526020830192505050908051906020019080838360005b83811015611c28578082015181840152602081019050611c0d565b50505050905090810190601f168015611c555780820380516001836020036101000a031916815260200191505b50604052505050809950819a50829b50839c50849d50859e50505050505050600b60008b81526020019081526020016000205492505050919395979092949650565b8151835114611cf1576040517f08c379a000000000000000000000000000000000000000000000000000000000815260040180806020018281038252602881526020018061509b6028913960400191505060405180910390fd5b600073ffffffffffffffffffffffffffffffffffffffff168473ffffffffffffffffffffffffffffffffffffffff161415611d77576040517f08c379a0000000000000000000000000000000000000000000000000000000008152600401808060200182810382526025815260200180614fc86025913960400191505060405180910390fd5b611d7f6131e3565b73ffffffffffffffffffffffffffffffffffffffff168573ffffffffffffffffffffffffffffffffffffffff161480611dc55750611dc485611dbf6131e3565b612b7b565b5b611e1a576040517f08c379a0000000000000000000000000000000000000000000000000000000008152600401808060200182810382526032815260200180614fed6032913960400191505060405180910390fd5b6000611e246131e3565b9050611e34818787878787613aef565b60005b8451811015612005576000858281518110611e4e57fe5b602002602001015190506000858381518110611e6657fe5b60200260200101519050611eed816040518060600160405280602a815260200161501f602a91396002600086815260200190815260200160002060008d73ffffffffffffffffffffffffffffffffffffffff1673ffffffffffffffffffffffffffffffffffffffff16815260200190815260200160002054613cf09092919063ffffffff16565b6002600084815260200190815260200160002060008b73ffffffffffffffffffffffffffffffffffffffff1673ffffffffffffffffffffffffffffffffffffffff16815260200190815260200160002081905550611fa4816002600085815260200190815260200160002060008b73ffffffffffffffffffffffffffffffffffffffff1673ffffffffffffffffffffffffffffffffffffffff16815260200190815260200160002054613daa90919063ffffffff16565b6002600084815260200190815260200160002060008a73ffffffffffffffffffffffffffffffffffffffff1673ffffffffffffffffffffffffffffffffffffffff168152602001908152602001600020819055505050806001019050611e37565b508473ffffffffffffffffffffffffffffffffffffffff168673ffffffffffffffffffffffffffffffffffffffff168273ffffffffffffffffffffffffffffffffffffffff167f4a39dc06d4c0dbc64b70af90fd698a233a518aa5d07e595d983b8c0526c8f7fb8787604051808060200180602001838103835285818151815260200191508051906020019060200280838360005b838110156120b557808201518184015260208101905061209a565b50505050905001838103825284818151815260200191508051906020019060200280838360005b838110156120f75780820151818401526020810190506120dc565b5050505090500194505050505060405180910390a461211a818787878787613e32565b505050505050565b61214960056000848152602001908152602001600020600201546121446131e3565b6128c0565b61219e576040517f08c379a000000000000000000000000000000000000000000000000000000000815260040180806020018281038252602f815260200180614eef602f913960400191505060405180910390fd5b6121a882826141c1565b5050565b6121b46131e3565b73ffffffffffffffffffffffffffffffffffffffff168173ffffffffffffffffffffffffffffffffffffffff1614612237576040517f08c379a000000000000000000000000000000000000000000000000000000000815260040180806020018281038252602f8152602001806150e4602f913960400191505060405180910390fd5b6122418282614255565b5050565b6000801b61225a816122556131e3565b6128c0565b61226357600080fd5b61226b6142e9565b50565b606081518351146122ca576040517f08c379a00000000000000000000000000000000000000000000000000000000081526004018080602001828103825260298152602001806150726029913960400191505060405180910390fd5b6000835167ffffffffffffffff811180156122e457600080fd5b506040519080825280602002602001820160405280156123135781602001602082028036833780820191505090505b50905060005b84518110156123755761235285828151811061233157fe5b602002602001015185838151811061234557fe5b6020026020010151611526565b82828151811061235e57fe5b602002602001018181525050806001019050612319565b508091505092915050565b6000801b612395816123906131e3565b6128c0565b61239e57600080fd5b600073ffffffffffffffffffffffffffffffffffffffff1660076000857effffffffffffffffffffffffffffffffffffffffffffffffffffffffffffff19167effffffffffffffffffffffffffffffffffffffffffffffffffffffffffffff1916815260200190815260200160002060009054906101000a900473ffffffffffffffffffffffffffffffffffffffff1673ffffffffffffffffffffffffffffffffffffffff16146124b7576040517f08c379a00000000000000000000000000000000000000000000000000000000081526004018080602001828103825260118152602001807f4475706c696361746520506f6f6c20494400000000000000000000000000000081525060200191505060405180910390fd5b7febeda574509491f8af1764dd814d8dc1edc8e4b917707c15584de69e4beba476838360405180837effffffffffffffffffffffffffffffffffffffffffffffffffffffffffffff191681526020018273ffffffffffffffffffffffffffffffffffffffff1681526020019250505060405180910390a18160076000857effffffffffffffffffffffffffffffffffffffffffffffffffffffffffffff19167effffffffffffffffffffffffffffffffffffffffffffffffffffffffffffff1916815260200190815260200160002060006101000a81548173ffffffffffffffffffffffffffffffffffffffff021916908373ffffffffffffffffffffffffffffffffffffffff160217905550505050565b60008060149054906101000a900460ff16905090565b6125e76131e3565b73ffffffffffffffffffffffffffffffffffffffff166126056127ef565b73ffffffffffffffffffffffffffffffffffffffff161461268e576040517f08c379a00000000000000000000000000000000000000000000000000000000081526004018080602001828103825260208152602001807f4f776e61626c653a2063616c6c6572206973206e6f7420746865206f776e657281525060200191505060405180910390fd5b600073ffffffffffffffffffffffffffffffffffffffff1660008054906101000a900473ffffffffffffffffffffffffffffffffffffffff1673ffffffffffffffffffffffffffffffffffffffff167f8be0079c531659141344cd1fd0a4f28419497f9722a3daafe3b4186f6b6457e060405160405180910390a360008060006101000a81548173ffffffffffffffffffffffffffffffffffffffff021916908373ffffffffffffffffffffffffffffffffffffffff160217905550565b600060066000838152602001908152602001600020549050919050565b61279d7f9f2df0fed2c77648de5860a4cc508cd0818c85b8b8a1ab4ceeef8d981c8956a660001b6127986131e3565b6128c0565b6127a657600080fd5b60006127b184613205565b90506127bf858285856143d3565b5050505050565b6000801b6127db816127d66131e3565b6128c0565b6127e457600080fd5b6127ec6145d6565b50565b60008060009054906101000a900473ffffffffffffffffffffffffffffffffffffffff16905090565b600080600080600080600087905060e08082901c901b60001b955087905060f860d882901c901b60001b94508790506080605882901c901b60001b935087905060f8605082901c901b60001b925087905060c080601083901c901b901c915087905060f881901b60001b96505091939550919395565b60006128b882600560008681526020019081526020016000206000016146c290919063ffffffff16565b905092915050565b60006128ea82600560008681526020019081526020016000206000016146dc90919063ffffffff16565b905092915050565b6000801b81565b8173ffffffffffffffffffffffffffffffffffffffff166129186131e3565b73ffffffffffffffffffffffffffffffffffffffff161415612985576040517f08c379a00000000000000000000000000000000000000000000000000000000081526004018080602001828103825260298152602001806150496029913960400191505060405180910390fd5b80600360006129926131e3565b73ffffffffffffffffffffffffffffffffffffffff1673ffffffffffffffffffffffffffffffffffffffff16815260200190815260200160002060008473ffffffffffffffffffffffffffffffffffffffff1673ffffffffffffffffffffffffffffffffffffffff16815260200190815260200160002060006101000a81548160ff0219169083151502179055508173ffffffffffffffffffffffffffffffffffffffff16612a3f6131e3565b73ffffffffffffffffffffffffffffffffffffffff167f17307eab39ab6107e8899845ad3d59bd9653f200f220920489ca2b5937696c318360405180821515815260200191505060405180910390a35050565b600060508083901c901b9050919050565b6000612ac36005600084815260200190815260200160002060000161470c565b9050919050565b7f9f2df0fed2c77648de5860a4cc508cd0818c85b8b8a1ab4ceeef8d981c8956a660001b81565b612b186005600084815260200190815260200160002060020154612b136131e3565b6128c0565b612b6d576040517f08c379a0000000000000000000000000000000000000000000000000000000008152600401808060200182810382526030815260200180614f986030913960400191505060405180910390fd5b612b778282614255565b5050565b6000600360008473ffffffffffffffffffffffffffffffffffffffff1673ffffffffffffffffffffffffffffffffffffffff16815260200190815260200160002060008373ffffffffffffffffffffffffffffffffffffffff1673ffffffffffffffffffffffffffffffffffffffff16815260200190815260200160002060009054906101000a900460ff16905092915050565b600073ffffffffffffffffffffffffffffffffffffffff168473ffffffffffffffffffffffffffffffffffffffff161415612c95576040517f08c379a0000000000000000000000000000000000000000000000000000000008152600401808060200182810382526025815260200180614fc86025913960400191505060405180910390fd5b612c9d6131e3565b73ffffffffffffffffffffffffffffffffffffffff168573ffffffffffffffffffffffffffffffffffffffff161480612ce35750612ce285612cdd6131e3565b612b7b565b5b612d38576040517f08c379a0000000000000000000000000000000000000000000000000000000008152600401808060200182810382526029815260200180614f6f6029913960400191505060405180910390fd5b6000612d426131e3565b9050612d62818787612d5388614721565b612d5c88614721565b87613aef565b612ddf836040518060600160405280602a815260200161501f602a91396002600088815260200190815260200160002060008a73ffffffffffffffffffffffffffffffffffffffff1673ffffffffffffffffffffffffffffffffffffffff16815260200190815260200160002054613cf09092919063ffffffff16565b6002600086815260200190815260200160002060008873ffffffffffffffffffffffffffffffffffffffff1673ffffffffffffffffffffffffffffffffffffffff16815260200190815260200160002081905550612e96836002600087815260200190815260200160002060008873ffffffffffffffffffffffffffffffffffffffff1673ffffffffffffffffffffffffffffffffffffffff16815260200190815260200160002054613daa90919063ffffffff16565b6002600086815260200190815260200160002060008773ffffffffffffffffffffffffffffffffffffffff1673ffffffffffffffffffffffffffffffffffffffff168152602001908152602001600020819055508473ffffffffffffffffffffffffffffffffffffffff168673ffffffffffffffffffffffffffffffffffffffff168273ffffffffffffffffffffffffffffffffffffffff167fc3d58168c5ae7397731d063d5bbf3d657854427343f4c083240f7aacaa2d0f628787604051808381526020018281526020019250505060405180910390a4612f7c818787878787614792565b505050505050565b612f8c6131e3565b73ffffffffffffffffffffffffffffffffffffffff16612faa6127ef565b73ffffffffffffffffffffffffffffffffffffffff1614613033576040517f08c379a00000000000000000000000000000000000000000000000000000000081526004018080602001828103825260208152602001807f4f776e61626c653a2063616c6c6572206973206e6f7420746865206f776e657281525060200191505060405180910390fd5b600073ffffffffffffffffffffffffffffffffffffffff168173ffffffffffffffffffffffffffffffffffffffff1614156130b9576040517f08c379a0000000000000000000000000000000000000000000000000000000008152600401808060200182810382526026815260200180614f496026913960400191505060405180910390fd5b8073ffffffffffffffffffffffffffffffffffffffff1660008054906101000a900473ffffffffffffffffffffffffffffffffffffffff1673ffffffffffffffffffffffffffffffffffffffff167f8be0079c531659141344cd1fd0a4f28419497f9722a3daafe3b4186f6b6457e060405160405180910390a3806000806101000a81548173ffffffffffffffffffffffffffffffffffffffff021916908373ffffffffffffffffffffffffffffffffffffffff16021790555050565b60006008600083815260200190815260200160002060009054906101000a900473ffffffffffffffffffffffffffffffffffffffff169050919050565b60006131db836000018373ffffffffffffffffffffffffffffffffffffffff1660001b614a9f565b905092915050565b600033905090565b8060049080519060200190613201929190614cf1565b5050565b600080600061321384612818565b955050509350505060008114613291576040517f08c379a000000000000000000000000000000000000000000000000000000000815260040180806020018281038252600f8152602001807f4361726420494420496e76616c6964000000000000000000000000000000000081525060200191505060405180910390fd5b600060076000847effffffffffffffffffffffffffffffffffffffffffffffffffffffffffffff19167effffffffffffffffffffffffffffffffffffffffffffffffffffffffffffff1916815260200190815260200160002060009054906101000a900473ffffffffffffffffffffffffffffffffffffffff16905060008190508073ffffffffffffffffffffffffffffffffffffffff16634f558e79876040518263ffffffff1660e01b81526004018082815260200191505060206040518083038186803b15801561336357600080fd5b505afa158015613377573d6000803e3d6000fd5b505050506040513d602081101561338d57600080fd5b8101908080519060200190929190505050613410576040517f08c379a00000000000000000000000000000000000000000000000000000000081526004018080602001828103825260138152602001807f4361726420646f6573206e6f742065786973740000000000000000000000000081525060200191505060405180910390fd5b600660008781526020019081526020016000206000815480929190600101919050555060008660001b90506010600660008981526020019081526020016000205460001b901b81179050600160001b811790506000600b60008360001c815260200190815260200160002054146134ef576040517f08c379a00000000000000000000000000000000000000000000000000000000081526004018080602001828103825260148152602001807f546f6b656e20616c7265616479206d696e74656400000000000000000000000081525060200191505060405180910390fd5b82600860008360001c815260200190815260200160002060006101000a81548173ffffffffffffffffffffffffffffffffffffffff021916908373ffffffffffffffffffffffffffffffffffffffff16021790555060008273ffffffffffffffffffffffffffffffffffffffff16639188d312896040518263ffffffff1660e01b81526004018082815260200191505060006040518083038186803b15801561359757600080fd5b505afa1580156135ab573d6000803e3d6000fd5b505050506040513d6000823e3d601f19601f8201168201806040525060c08110156135d557600080fd5b81019080805160405193929190846401000000008211156135f557600080fd5b8382019150602082018581111561360b57600080fd5b825186600182028301116401000000008211171561362857600080fd5b8083526020830192505050908051906020019080838360005b8381101561365c578082015181840152602081019050613641565b50505050905090810190601f1680156136895780820380516001836020036101000a031916815260200191505b5060405260200180519060200190929190805190602001909291908051906020019092919080519060200190929190805160405193929190846401000000008211156136d457600080fd5b838201915060208201858111156136ea57600080fd5b825186600182028301116401000000008211171561370757600080fd5b8083526020830192505050908051906020019080838360005b8381101561373b578082015181840152602081019050613720565b50505050905090810190601f1680156137685780820380516001836020036101000a031916815260200191505b506040525050509550505050505080600960008460001c815260200190815260200160002090805190602001906137a0929190614cf1565b5043600b60008460001c8152602001908152602001600020819055508160001c9650505050505050919050565b600073ffffffffffffffffffffffffffffffffffffffff168473ffffffffffffffffffffffffffffffffffffffff161415613853576040517f08c379a00000000000000000000000000000000000000000000000000000000081526004018080602001828103825260218152602001806150c36021913960400191505060405180910390fd5b81518351146138ad576040517f08c379a000000000000000000000000000000000000000000000000000000000815260040180806020018281038252602881526020018061509b6028913960400191505060405180910390fd5b60006138b76131e3565b90506138c881600087878787613aef565b60005b84518110156139d15761395d600260008784815181106138e757fe5b6020026020010151815260200190815260200160002060008873ffffffffffffffffffffffffffffffffffffffff1673ffffffffffffffffffffffffffffffffffffffff1681526020019081526020016000205485838151811061394757fe5b6020026020010151613daa90919063ffffffff16565b6002600087848151811061396d57fe5b6020026020010151815260200190815260200160002060008873ffffffffffffffffffffffffffffffffffffffff1673ffffffffffffffffffffffffffffffffffffffff1681526020019081526020016000208190555080806001019150506138cb565b508473ffffffffffffffffffffffffffffffffffffffff16600073ffffffffffffffffffffffffffffffffffffffff168273ffffffffffffffffffffffffffffffffffffffff167f4a39dc06d4c0dbc64b70af90fd698a233a518aa5d07e595d983b8c0526c8f7fb8787604051808060200180602001838103835285818151815260200191508051906020019060200280838360005b83811015613a82578082015181840152602081019050613a67565b50505050905001838103825284818151815260200191508051906020019060200280838360005b83811015613ac4578082015181840152602081019050613aa9565b5050505090500194505050505060405180910390a4613ae881600087878787613e32565b5050505050565b613af76125c9565b15613b6a576040517f08c379a00000000000000000000000000000000000000000000000000000000081526004018080602001828103825260108152602001807f5061757361626c653a207061757365640000000000000000000000000000000081525060200191505060405180910390fd5b6000600a60008773ffffffffffffffffffffffffffffffffffffffff1673ffffffffffffffffffffffffffffffffffffffff168152602001908152602001600020905060005b8451811015613ce657600a60008773ffffffffffffffffffffffffffffffffffffffff1673ffffffffffffffffffffffffffffffffffffffff168152602001908152602001600020858281518110613c0457fe5b6020026020010151908060018154018082558091505060019003906000526020600020016000909190919091505560005b8280549050811015613cd857858281518110613c4d57fe5b6020026020010151838281548110613c6157fe5b90600052602060002001541415613ccb5782600184805490500381548110613c8557fe5b9060005260206000200154838281548110613c9c57fe5b906000526020600020018190555082805480613cb457fe5b600190038181906000526020600020016000905590555b8080600101915050613c35565b508080600101915050613bb0565b5050505050505050565b6000838311158290613d9d576040517f08c379a00000000000000000000000000000000000000000000000000000000081526004018080602001828103825283818151815260200191508051906020019080838360005b83811015613d62578082015181840152602081019050613d47565b50505050905090810190601f168015613d8f5780820380516001836020036101000a031916815260200191505b509250505060405180910390fd5b5082840390509392505050565b600080828401905083811015613e28576040517f08c379a000000000000000000000000000000000000000000000000000000000815260040180806020018281038252601b8152602001807f536166654d6174683a206164646974696f6e206f766572666c6f77000000000081525060200191505060405180910390fd5b8091505092915050565b613e518473ffffffffffffffffffffffffffffffffffffffff16614b0f565b156141b9578373ffffffffffffffffffffffffffffffffffffffff1663bc197c8187878686866040518663ffffffff1660e01b8152600401808673ffffffffffffffffffffffffffffffffffffffff1681526020018573ffffffffffffffffffffffffffffffffffffffff168152602001806020018060200180602001848103845287818151815260200191508051906020019060200280838360005b83811015613f09578082015181840152602081019050613eee565b50505050905001848103835286818151815260200191508051906020019060200280838360005b83811015613f4b578082015181840152602081019050613f30565b50505050905001848103825285818151815260200191508051906020019080838360005b83811015613f8a578082015181840152602081019050613f6f565b50505050905090810190601f168015613fb75780820380516001836020036101000a031916815260200191505b5098505050505050505050602060405180830381600087803b158015613fdc57600080fd5b505af192505050801561401057506040513d6020811015613ffc57600080fd5b810190808051906020019092919050505060015b61411a5761401c614dba565b8061402757506140c9565b806040517f08c379a00000000000000000000000000000000000000000000000000000000081526004018080602001828103825283818151815260200191508051906020019080838360005b8381101561408e578082015181840152602081019050614073565b50505050905090810190601f1680156140bb5780820380516001836020036101000a031916815260200191505b509250505060405180910390fd5b6040517f08c379a0000000000000000000000000000000000000000000000000000000008152600401808060200182810382526034815260200180614e716034913960400191505060405180910390fd5b63bc197c8160e01b7bffffffffffffffffffffffffffffffffffffffffffffffffffffffff1916817bffffffffffffffffffffffffffffffffffffffffffffffffffffffff1916146141b7576040517f08c379a0000000000000000000000000000000000000000000000000000000008152600401808060200182810382526028815260200180614ec76028913960400191505060405180910390fd5b505b505050505050565b6141e981600560008581526020019081526020016000206000016131b390919063ffffffff16565b15614251576141f66131e3565b73ffffffffffffffffffffffffffffffffffffffff168173ffffffffffffffffffffffffffffffffffffffff16837f2f8788117e7eff1d82e926ec794901d17c78024a50270940304540a733656f0d60405160405180910390a45b5050565b61427d8160056000858152602001908152602001600020600001614b2290919063ffffffff16565b156142e55761428a6131e3565b73ffffffffffffffffffffffffffffffffffffffff168173ffffffffffffffffffffffffffffffffffffffff16837ff6391f5c32d9c69d2a47ea670b442974b53935d1edc7fd64eb21e047a839171b60405160405180910390a45b5050565b6142f16125c9565b614363576040517f08c379a00000000000000000000000000000000000000000000000000000000081526004018080602001828103825260148152602001807f5061757361626c653a206e6f742070617573656400000000000000000000000081525060200191505060405180910390fd5b60008060146101000a81548160ff0219169083151502179055507f5db9ee0a495bf2e6ff9c91a7834c1ba4fdd244a5e8aa4e537bd38aeae4b073aa6143a66131e3565b604051808273ffffffffffffffffffffffffffffffffffffffff16815260200191505060405180910390a1565b600073ffffffffffffffffffffffffffffffffffffffff168473ffffffffffffffffffffffffffffffffffffffff161415614459576040517f08c379a00000000000000000000000000000000000000000000000000000000081526004018080602001828103825260218152602001806150c36021913960400191505060405180910390fd5b60006144636131e3565b90506144848160008761447588614721565b61447e88614721565b87613aef565b6144e7836002600087815260200190815260200160002060008873ffffffffffffffffffffffffffffffffffffffff1673ffffffffffffffffffffffffffffffffffffffff16815260200190815260200160002054613daa90919063ffffffff16565b6002600086815260200190815260200160002060008773ffffffffffffffffffffffffffffffffffffffff1673ffffffffffffffffffffffffffffffffffffffff168152602001908152602001600020819055508473ffffffffffffffffffffffffffffffffffffffff16600073ffffffffffffffffffffffffffffffffffffffff168273ffffffffffffffffffffffffffffffffffffffff167fc3d58168c5ae7397731d063d5bbf3d657854427343f4c083240f7aacaa2d0f628787604051808381526020018281526020019250505060405180910390a46145cf81600087878787614792565b5050505050565b6145de6125c9565b15614651576040517f08c379a00000000000000000000000000000000000000000000000000000000081526004018080602001828103825260108152602001807f5061757361626c653a207061757365640000000000000000000000000000000081525060200191505060405180910390fd5b6001600060146101000a81548160ff0219169083151502179055507f62e78cea01bee320cd4e420270b5ea74000d11b0c9f74754ebdbfc544b05a2586146956131e3565b604051808273ffffffffffffffffffffffffffffffffffffffff16815260200191505060405180910390a1565b60006146d18360000183614b52565b60001c905092915050565b6000614704836000018373ffffffffffffffffffffffffffffffffffffffff1660001b614bd5565b905092915050565b600061471a82600001614bf8565b9050919050565b60606000600167ffffffffffffffff8111801561473d57600080fd5b5060405190808252806020026020018201604052801561476c5781602001602082028036833780820191505090505b509050828160008151811061477d57fe5b60200260200101818152505080915050919050565b6147b18473ffffffffffffffffffffffffffffffffffffffff16614b0f565b15614a97578373ffffffffffffffffffffffffffffffffffffffff1663f23a6e6187878686866040518663ffffffff1660e01b8152600401808673ffffffffffffffffffffffffffffffffffffffff1681526020018573ffffffffffffffffffffffffffffffffffffffff16815260200184815260200183815260200180602001828103825283818151815260200191508051906020019080838360005b8381101561486a57808201518184015260208101905061484f565b50505050905090810190601f1680156148975780820380516001836020036101000a031916815260200191505b509650505050505050602060405180830381600087803b1580156148ba57600080fd5b505af19250505080156148ee57506040513d60208110156148da57600080fd5b810190808051906020019092919050505060015b6149f8576148fa614dba565b8061490557506149a7565b806040517f08c379a00000000000000000000000000000000000000000000000000000000081526004018080602001828103825283818151815260200191508051906020019080838360005b8381101561496c578082015181840152602081019050614951565b50505050905090810190601f1680156149995780820380516001836020036101000a031916815260200191505b509250505060405180910390fd5b6040517f08c379a0000000000000000000000000000000000000000000000000000000008152600401808060200182810382526034815260200180614e716034913960400191505060405180910390fd5b63f23a6e6160e01b7bffffffffffffffffffffffffffffffffffffffffffffffffffffffff1916817bffffffffffffffffffffffffffffffffffffffffffffffffffffffff191614614a95576040517f08c379a0000000000000000000000000000000000000000000000000000000008152600401808060200182810382526028815260200180614ec76028913960400191505060405180910390fd5b505b505050505050565b6000614aab8383614bd5565b614b04578260000182908060018154018082558091505060019003906000526020600020016000909190919091505582600001805490508360010160008481526020019081526020016000208190555060019050614b09565b600090505b92915050565b600080823b905060008111915050919050565b6000614b4a836000018373ffffffffffffffffffffffffffffffffffffffff1660001b614c09565b905092915050565b600081836000018054905011614bb3576040517f08c379a0000000000000000000000000000000000000000000000000000000008152600401808060200182810382526022815260200180614ea56022913960400191505060405180910390fd5b826000018281548110614bc257fe5b9060005260206000200154905092915050565b600080836001016000848152602001908152602001600020541415905092915050565b600081600001805490509050919050565b60008083600101600084815260200190815260200160002054905060008114614ce55760006001820390506000600186600001805490500390506000866000018281548110614c5457fe5b9060005260206000200154905080876000018481548110614c7157fe5b9060005260206000200181905550600183018760010160008381526020019081526020016000208190555086600001805480614ca957fe5b60019003818190600052602060002001600090559055866001016000878152602001908152602001600020600090556001945050505050614ceb565b60009150505b92915050565b828054600181600116156101000203166002900490600052602060002090601f016020900481019282614d275760008555614d6e565b82601f10614d4057805160ff1916838001178555614d6e565b82800160010185558215614d6e579182015b82811115614d6d578251825591602001919060010190614d52565b5b509050614d7b9190614d7f565b5090565b5b80821115614d98576000816000905550600101614d80565b5090565b6000601f19601f8301169050919050565b60008160e01c9050919050565b600060443d1015614dca57614e6d565b60046000803e614ddb600051614dad565b6308c379a08114614dec5750614e6d565b60405160043d036004823e80513d602482011167ffffffffffffffff82111715614e1857505050614e6d565b808201805167ffffffffffffffff811115614e37575050505050614e6d565b8060208301013d8501811115614e5257505050505050614e6d565b614e5b82614d9c565b60208401016040528296505050505050505b9056fe455243313135353a207472616e7366657220746f206e6f6e2045524331313535526563656976657220696d706c656d656e746572456e756d657261626c655365743a20696e646578206f7574206f6620626f756e6473455243313135353a204552433131353552656365697665722072656a656374656420746f6b656e73416363657373436f6e74726f6c3a2073656e646572206d75737420626520616e2061646d696e20746f206772616e74455243313135353a2062616c616e636520717565727920666f7220746865207a65726f20616464726573734f776e61626c653a206e6577206f776e657220697320746865207a65726f2061646472657373455243313135353a2063616c6c6572206973206e6f74206f776e6572206e6f7220617070726f766564416363657373436f6e74726f6c3a2073656e646572206d75737420626520616e2061646d696e20746f207265766f6b65455243313135353a207472616e7366657220746f20746865207a65726f2061646472657373455243313135353a207472616e736665722063616c6c6572206973206e6f74206f776e6572206e6f7220617070726f766564455243313135353a20696e73756666696369656e742062616c616e636520666f72207472616e73666572455243313135353a2073657474696e6720617070726f76616c2073746174757320666f722073656c66455243313135353a206163636f756e747320616e6420696473206c656e677468206d69736d61746368455243313135353a2069647320616e6420616d6f756e7473206c656e677468206d69736d61746368455243313135353a206d696e7420746f20746865207a65726f2061646472657373416363657373436f6e74726f6c3a2063616e206f6e6c792072656e6f756e636520726f6c657320666f722073656c66a2646970667358221220178530e104e02b9f2a48c98e23d73b49ad3eace9f6391311617a8b3b98d147d764736f6c63430007060033",
  "linkReferences": {},
  "deployedLinkReferences": {}
}