{
  "_format": "hh-sol-artifact-1",
  "contractName": "NFTFusion",
  "sourceName": "contracts/fusion/v1/NFTFusion.sol",
  "abi": [
    {
      "anonymous": false,
      "inputs": [
        {
          "indexed": false,
          "internalType": "address",
          "name": "_owner",
          "type": "address"
        },
        {
          "indexed": true,
          "internalType": "address",
          "name": "_oldAddress",
          "type": "address"
        },
        {
          "indexed": true,
          "internalType": "address",
          "name": "_newAddress",
          "type": "address"
        }
      ],
      "name": "ERC1155AddressChanged",
      "type": "event"
    },
    {
      "anonymous": false,
      "inputs": [
        {
          "indexed": false,
          "internalType": "address",
          "name": "_owner",
          "type": "address"
        },
        {
          "indexed": true,
          "internalType": "address",
          "name": "_oldAddress",
          "type": "address"
        },
        {
          "indexed": true,
          "internalType": "address",
          "name": "_newAddress",
          "type": "address"
        }
      ],
      "name": "ERC20AddressChanged",
      "type": "event"
    },
    {
      "anonymous": false,
      "inputs": [
        {
          "indexed": false,
          "internalType": "address",
          "name": "_oldReceiver",
          "type": "address"
        },
        {
          "indexed": false,
          "internalType": "address",
          "name": "_newReceiver",
          "type": "address"
        }
      ],
      "name": "FundReceiverChanged",
      "type": "event"
    },
    {
      "anonymous": false,
      "inputs": [
        {
          "indexed": false,
          "internalType": "uint8",
          "name": "version",
          "type": "uint8"
        }
      ],
      "name": "Initialized",
      "type": "event"
    },
    {
      "anonymous": false,
      "inputs": [
        {
          "indexed": true,
          "internalType": "address",
          "name": "_sender",
          "type": "address"
        },
        {
          "indexed": false,
          "internalType": "uint256",
          "name": "assetQuantity",
          "type": "uint256"
        },
        {
          "indexed": false,
          "internalType": "string",
          "name": "_assetsId",
          "type": "string"
        },
        {
          "indexed": false,
          "internalType": "uint256[]",
          "name": "_tokenIds",
          "type": "uint256[]"
        },
        {
          "indexed": false,
          "internalType": "uint256[]",
          "name": "_tokenAmounts",
          "type": "uint256[]"
        },
        {
          "indexed": false,
          "internalType": "uint256",
          "name": "rERC20TokenAmount",
          "type": "uint256"
        }
      ],
      "name": "NFTFused",
      "type": "event"
    },
    {
      "anonymous": false,
      "inputs": [
        {
          "indexed": true,
          "internalType": "address",
          "name": "previousOwner",
          "type": "address"
        },
        {
          "indexed": true,
          "internalType": "address",
          "name": "newOwner",
          "type": "address"
        }
      ],
      "name": "OwnershipTransferred",
      "type": "event"
    },
    {
      "anonymous": false,
      "inputs": [
        {
          "indexed": false,
          "internalType": "address",
          "name": "account",
          "type": "address"
        }
      ],
      "name": "Paused",
      "type": "event"
    },
    {
      "anonymous": false,
      "inputs": [
        {
          "indexed": false,
          "internalType": "address",
          "name": "_owner",
          "type": "address"
        },
        {
          "indexed": true,
          "internalType": "address",
          "name": "_oldAddress",
          "type": "address"
        },
        {
          "indexed": true,
          "internalType": "address",
          "name": "_newAddress",
          "type": "address"
        }
      ],
      "name": "TokenReceiverChanged",
      "type": "event"
    },
    {
      "anonymous": false,
      "inputs": [
        {
          "indexed": false,
          "internalType": "address",
          "name": "account",
          "type": "address"
        }
      ],
      "name": "Unpaused",
      "type": "event"
    },
    {
      "anonymous": false,
      "inputs": [
        {
          "indexed": false,
          "internalType": "address",
          "name": "_owner",
          "type": "address"
        },
        {
          "indexed": true,
          "internalType": "address",
          "name": "_oldSigner",
          "type": "address"
        },
        {
          "indexed": true,
          "internalType": "address",
          "name": "_newSigner",
          "type": "address"
        }
      ],
      "name": "VerifierChanged",
      "type": "event"
    },
    {
      "inputs": [],
      "name": "erc1155Token",
      "outputs": [
        {
          "internalType": "contract IERC1155",
          "name": "",
          "type": "address"
        }
      ],
      "stateMutability": "view",
      "type": "function"
    },
    {
      "inputs": [],
      "name": "erc20Token",
      "outputs": [
        {
          "internalType": "contract IERC20",
          "name": "",
          "type": "address"
        }
      ],
      "stateMutability": "view",
      "type": "function"
    },
    {
      "inputs": [
        {
          "internalType": "string",
          "name": "_assetsId",
          "type": "string"
        },
        {
          "internalType": "uint256",
          "name": "assetQuantity",
          "type": "uint256"
        },
        {
          "internalType": "uint256[]",
          "name": "tokenIds",
          "type": "uint256[]"
        },
        {
          "internalType": "uint256[]",
          "name": "amounts",
          "type": "uint256[]"
        },
        {
          "internalType": "uint256",
          "name": "rTokenAmount",
          "type": "uint256"
        },
        {
          "internalType": "bytes",
          "name": "_sig",
          "type": "bytes"
        }
      ],
      "name": "fuse",
      "outputs": [],
      "stateMutability": "nonpayable",
      "type": "function"
    },
    {
      "inputs": [
        {
          "internalType": "address",
          "name": "",
          "type": "address"
        },
        {
          "internalType": "uint256",
          "name": "",
          "type": "uint256"
        }
      ],
      "name": "fusionAssetsPerAddress",
      "outputs": [
        {
          "internalType": "string",
          "name": "assetsId",
          "type": "string"
        },
        {
          "internalType": "uint256",
          "name": "assetQuantity",
          "type": "uint256"
        },
        {
          "internalType": "address",
          "name": "sender",
          "type": "address"
        },
        {
          "internalType": "uint256",
          "name": "blockNumber",
          "type": "uint256"
        }
      ],
      "stateMutability": "view",
      "type": "function"
    },
    {
      "inputs": [],
      "name": "fusionCounter",
      "outputs": [
        {
          "internalType": "uint256",
          "name": "",
          "type": "uint256"
        }
      ],
      "stateMutability": "view",
      "type": "function"
    },
    {
      "inputs": [
        {
          "internalType": "address",
          "name": "",
          "type": "address"
        }
      ],
      "name": "fusionNonces",
      "outputs": [
        {
          "internalType": "uint256",
          "name": "",
          "type": "uint256"
        }
      ],
      "stateMutability": "view",
      "type": "function"
    },
    {
      "inputs": [
        {
          "internalType": "address",
          "name": "_receiverToken",
          "type": "address"
        },
        {
          "internalType": "address",
          "name": "_inventoryAddress",
          "type": "address"
        },
        {
          "internalType": "address",
          "name": "_verifier",
          "type": "address"
        },
        {
          "internalType": "address",
          "name": "_tokenReceiver",
          "type": "address"
        }
      ],
      "name": "initialize",
      "outputs": [],
      "stateMutability": "nonpayable",
      "type": "function"
    },
    {
      "inputs": [],
      "name": "owner",
      "outputs": [
        {
          "internalType": "address",
          "name": "",
          "type": "address"
        }
      ],
      "stateMutability": "view",
      "type": "function"
    },
    {
      "inputs": [],
      "name": "pause",
      "outputs": [],
      "stateMutability": "nonpayable",
      "type": "function"
    },
    {
      "inputs": [],
      "name": "paused",
      "outputs": [
        {
          "internalType": "bool",
          "name": "",
          "type": "bool"
        }
      ],
      "stateMutability": "view",
      "type": "function"
    },
    {
      "inputs": [],
      "name": "renounceOwnership",
      "outputs": [],
      "stateMutability": "nonpayable",
      "type": "function"
    },
    {
      "inputs": [
        {
          "internalType": "address",
          "name": "_newErc1155Token",
          "type": "address"
        }
      ],
      "name": "setERC1155TokenAddress",
      "outputs": [],
      "stateMutability": "nonpayable",
      "type": "function"
    },
    {
      "inputs": [
        {
          "internalType": "address",
          "name": "_newErc20Token",
          "type": "address"
        }
      ],
      "name": "setERC20TokenAddress",
      "outputs": [],
      "stateMutability": "nonpayable",
      "type": "function"
    },
    {
      "inputs": [
        {
          "internalType": "address",
          "name": "_newTokenReceiver",
          "type": "address"
        }
      ],
      "name": "setTokenReceiver",
      "outputs": [],
      "stateMutability": "nonpayable",
      "type": "function"
    },
    {
      "inputs": [
        {
          "internalType": "address",
          "name": "_newVerifier",
          "type": "address"
        }
      ],
      "name": "setVerifier",
      "outputs": [],
      "stateMutability": "nonpayable",
      "type": "function"
    },
    {
      "inputs": [
        {
          "internalType": "address",
          "name": "newOwner",
          "type": "address"
        }
      ],
      "name": "transferOwnership",
      "outputs": [],
      "stateMutability": "nonpayable",
      "type": "function"
    },
    {
      "inputs": [],
      "name": "unpause",
      "outputs": [],
      "stateMutability": "nonpayable",
      "type": "function"
    },
    {
      "inputs": [],
      "name": "verifier",
      "outputs": [
        {
          "internalType": "address",
          "name": "",
          "type": "address"
        }
      ],
      "stateMutability": "view",
      "type": "function"
    }
  ],
  "bytecode": "0x608060405234801561001057600080fd5b506120d5806100206000396000f3fe608060405234801561001057600080fd5b50600436106101365760003560e01c80638a13eea7116100b2578063e891e9d111610081578063eae483c511610066578063eae483c5146102b9578063f2fde38b146102cc578063f8c8765e146102df57600080fd5b8063e891e9d114610293578063e8dca193146102a657600080fd5b80638a13eea7146102225780638da5cb5b146102425780639a2fbc11146102605780639cc6bcf61461028057600080fd5b80635c975abb11610109578063715018a6116100ee578063715018a6146101ef5780638456cb59146101f7578063858c4122146101ff57600080fd5b80635c975abb146101c257806367ac7bd7146101d857600080fd5b806321f422681461013b5780632b7ac3f3146101855780633f4ba83a146101a55780635437988d146101af575b600080fd5b60985461015b9073ffffffffffffffffffffffffffffffffffffffff1681565b60405173ffffffffffffffffffffffffffffffffffffffff90911681526020015b60405180910390f35b60995461015b9073ffffffffffffffffffffffffffffffffffffffff1681565b6101ad6102f2565b005b6101ad6101bd3660046118e9565b610304565b60335460ff16604051901515815260200161017c565b6101e1609c5481565b60405190815260200161017c565b6101ad6103a4565b6101ad6103b6565b61021261020d36600461190b565b6103c6565b60405161017c94939291906119a3565b60975461015b9073ffffffffffffffffffffffffffffffffffffffff1681565b60655473ffffffffffffffffffffffffffffffffffffffff1661015b565b6101e161026e3660046118e9565b609d6020526000908152604090205481565b6101ad61028e366004611b07565b6104b4565b6101ad6102a13660046118e9565b610993565b6101ad6102b43660046118e9565b610a33565b6101ad6102c73660046118e9565b610ad3565b6101ad6102da3660046118e9565b610b73565b6101ad6102ed366004611bd2565b610c2a565b6102fa610e49565b610302610eca565b565b61030c610e49565b60995460405133815273ffffffffffffffffffffffffffffffffffffffff8381169216907fab33b60d90e477d6167b1a1d4836dba194477e182f98e153fd984ed5ce6d10229060200160405180910390a3609980547fffffffffffffffffffffffff00000000000000000000000000000000000000001673ffffffffffffffffffffffffffffffffffffffff92909216919091179055565b6103ac610e49565b6103026000610f47565b6103be610e49565b610302610fbe565b609e60205281600052604060002081815481106103e257600080fd5b90600052602060002090600602016000915091505080600001805461040690611c26565b80601f016020809104026020016040519081016040528092919081815260200182805461043290611c26565b801561047f5780601f106104545761010080835404028352916020019161047f565b820191906000526020600020905b81548152906001019060200180831161046257829003601f168201915b50505050600183015460048401546005909401549293909273ffffffffffffffffffffffffffffffffffffffff909116915084565b6104bc611019565b600088511161052c576040517f08c379a000000000000000000000000000000000000000000000000000000000815260206004820152601f60248201527f4e4654467573696f6e3a20696e76616c696420667573696f6e2061737365740060448201526064015b60405180910390fd5b8483146105bb576040517f08c379a000000000000000000000000000000000000000000000000000000000815260206004820152602860248201527f4e4654467573696f6e3a20746f6b656e49647320616e6420616d6f756e74732060448201527f6d69736d617463680000000000000000000000000000000000000000000000006064820152608401610523565b6000871161064b576040517f08c379a000000000000000000000000000000000000000000000000000000000815260206004820152602560248201527f4e4654467573696f6e3a206173736574207175616e74697479206c657373207460448201527f68616e20300000000000000000000000000000000000000000000000000000006064820152608401610523565b3361065c818a898989898989611086565b61066557600080fd5b60006040518060c001604052808b81526020018a815260200189898080602002602001604051908101604052809392919081815260200183836020028082843760009201919091525050509082525060408051602089810282810182019093528982529283019290918a918a918291850190849080828437600092018290525093855250505073ffffffffffffffffffffffffffffffffffffffff8516602080840182905243604094850152908252609e81529181208054600181018255908252919020825192935083926006909202019081906107439082611cc8565b506020828101516001830155604083015180516107669260028501920190611860565b5060608201518051610782916003840191602090910190611860565b5060808201518160040160006101000a81548173ffffffffffffffffffffffffffffffffffffffff021916908373ffffffffffffffffffffffffffffffffffffffff16021790555060a0820151816005015550506001609c60008282546107e99190611e11565b9091555050609754609a546040517f23b872dd00000000000000000000000000000000000000000000000000000000815273ffffffffffffffffffffffffffffffffffffffff85811660048301529182166024820152604481018790529116906323b872dd906064016020604051808303816000875af1158015610871573d6000803e3d6000fd5b505050506040513d601f19601f820116820180604052508101906108959190611e24565b50609854609b546040517f2eb2c2d600000000000000000000000000000000000000000000000000000000815273ffffffffffffffffffffffffffffffffffffffff92831692632eb2c2d6926108fb928792909116908d908d908d908d90600401611e91565b600060405180830381600087803b15801561091557600080fd5b505af1158015610929573d6000803e3d6000fd5b505050508173ffffffffffffffffffffffffffffffffffffffff167f230553f9e3f46100d977f7c735c9ab53d357abfda860d845fad69ab0515808388a8c8b8b8b8b8b60405161097f9796959493929190611f23565b60405180910390a250505050505050505050565b61099b610e49565b609a5460405133815273ffffffffffffffffffffffffffffffffffffffff8381169216907f3584087bcde6e3409cd6ae1b03a7f6df4d4d16260b30a2eba238667b75f11aef9060200160405180910390a3609a80547fffffffffffffffffffffffff00000000000000000000000000000000000000001673ffffffffffffffffffffffffffffffffffffffff92909216919091179055565b610a3b610e49565b60985460405133815273ffffffffffffffffffffffffffffffffffffffff8381169216907f7b527cf5496cfe1efcfcfdf9c61e425c87db760bfc55e25385bbe239f933bcfe9060200160405180910390a3609880547fffffffffffffffffffffffff00000000000000000000000000000000000000001673ffffffffffffffffffffffffffffffffffffffff92909216919091179055565b610adb610e49565b60975460405133815273ffffffffffffffffffffffffffffffffffffffff8381169216907fc1bfbf9661511674152474745f2d72f898c05054b7c032351d636101c1ec3dd39060200160405180910390a3609780547fffffffffffffffffffffffff00000000000000000000000000000000000000001673ffffffffffffffffffffffffffffffffffffffff92909216919091179055565b610b7b610e49565b73ffffffffffffffffffffffffffffffffffffffff8116610c1e576040517f08c379a000000000000000000000000000000000000000000000000000000000815260206004820152602660248201527f4f776e61626c653a206e6577206f776e657220697320746865207a65726f206160448201527f64647265737300000000000000000000000000000000000000000000000000006064820152608401610523565b610c2781610f47565b50565b600054610100900460ff1615808015610c4a5750600054600160ff909116105b80610c645750303b158015610c64575060005460ff166001145b610cf0576040517f08c379a000000000000000000000000000000000000000000000000000000000815260206004820152602e60248201527f496e697469616c697a61626c653a20636f6e747261637420697320616c72656160448201527f647920696e697469616c697a65640000000000000000000000000000000000006064820152608401610523565b600080547fffffffffffffffffffffffffffffffffffffffffffffffffffffffffffffff001660011790558015610d4e57600080547fffffffffffffffffffffffffffffffffffffffffffffffffffffffffffff00ff166101001790555b6097805473ffffffffffffffffffffffffffffffffffffffff8088167fffffffffffffffffffffffff0000000000000000000000000000000000000000928316179092556098805487841690831617905560998054868416908316179055609a8054928516928216929092179091556000609c55609b805490911661dead179055610dd7611248565b610ddf6112e7565b8015610e4257600080547fffffffffffffffffffffffffffffffffffffffffffffffffffffffffffff00ff169055604051600181527f7f26b83ff96e1f2b6a682f133852f6798a09c465da95921460cefb38474024989060200160405180910390a15b5050505050565b60655473ffffffffffffffffffffffffffffffffffffffff163314610302576040517f08c379a000000000000000000000000000000000000000000000000000000000815260206004820181905260248201527f4f776e61626c653a2063616c6c6572206973206e6f7420746865206f776e65726044820152606401610523565b610ed2611386565b603380547fffffffffffffffffffffffffffffffffffffffffffffffffffffffffffffff001690557f5db9ee0a495bf2e6ff9c91a7834c1ba4fdd244a5e8aa4e537bd38aeae4b073aa335b60405173ffffffffffffffffffffffffffffffffffffffff909116815260200160405180910390a1565b6065805473ffffffffffffffffffffffffffffffffffffffff8381167fffffffffffffffffffffffff0000000000000000000000000000000000000000831681179093556040519116919082907f8be0079c531659141344cd1fd0a4f28419497f9722a3daafe3b4186f6b6457e090600090a35050565b610fc6611019565b603380547fffffffffffffffffffffffffffffffffffffffffffffffffffffffffffffff001660011790557f62e78cea01bee320cd4e420270b5ea74000d11b0c9f74754ebdbfc544b05a258610f1d3390565b60335460ff1615610302576040517f08c379a000000000000000000000000000000000000000000000000000000000815260206004820152601060248201527f5061757361626c653a20706175736564000000000000000000000000000000006044820152606401610523565b73ffffffffffffffffffffffffffffffffffffffff88166000908152609d60209081526040808320549051909183916110d1918d9130918e918e918e918e918e918e918c9101611fbb565b604080517fffffffffffffffffffffffffffffffffffffffffffffffffffffffffffffffe0818403018152919052805160209091012060995490915073ffffffffffffffffffffffffffffffffffffffff166111848561117e846040517f19457468657265756d205369676e6564204d6573736167653a0a3332000000006020820152603c8101829052600090605c01604051602081830303815290604052805190602001209050919050565b906113f2565b73ffffffffffffffffffffffffffffffffffffffff1614611201576040517f08c379a000000000000000000000000000000000000000000000000000000000815260206004820152601c60248201527f4e4654467573696f6e3a20696e76616c6964207369676e6174757265000000006044820152606401610523565b73ffffffffffffffffffffffffffffffffffffffff8b166000908152609d6020526040812080549161123283612038565b9091555060019c9b505050505050505050505050565b600054610100900460ff166112df576040517f08c379a000000000000000000000000000000000000000000000000000000000815260206004820152602b60248201527f496e697469616c697a61626c653a20636f6e7472616374206973206e6f74206960448201527f6e697469616c697a696e670000000000000000000000000000000000000000006064820152608401610523565b610302611418565b600054610100900460ff1661137e576040517f08c379a000000000000000000000000000000000000000000000000000000000815260206004820152602b60248201527f496e697469616c697a61626c653a20636f6e7472616374206973206e6f74206960448201527f6e697469616c697a696e670000000000000000000000000000000000000000006064820152608401610523565b6103026114d9565b60335460ff16610302576040517f08c379a000000000000000000000000000000000000000000000000000000000815260206004820152601460248201527f5061757361626c653a206e6f74207061757365640000000000000000000000006044820152606401610523565b60008060006114018585611579565b9150915061140e816115be565b5090505b92915050565b600054610100900460ff166114af576040517f08c379a000000000000000000000000000000000000000000000000000000000815260206004820152602b60248201527f496e697469616c697a61626c653a20636f6e7472616374206973206e6f74206960448201527f6e697469616c697a696e670000000000000000000000000000000000000000006064820152608401610523565b603380547fffffffffffffffffffffffffffffffffffffffffffffffffffffffffffffff00169055565b600054610100900460ff16611570576040517f08c379a000000000000000000000000000000000000000000000000000000000815260206004820152602b60248201527f496e697469616c697a61626c653a20636f6e7472616374206973206e6f74206960448201527f6e697469616c697a696e670000000000000000000000000000000000000000006064820152608401610523565b61030233610f47565b60008082516041036115af5760208301516040840151606085015160001a6115a387828585611771565b945094505050506115b7565b506000905060025b9250929050565b60008160048111156115d2576115d2612070565b036115da5750565b60018160048111156115ee576115ee612070565b03611655576040517f08c379a000000000000000000000000000000000000000000000000000000000815260206004820152601860248201527f45434453413a20696e76616c6964207369676e617475726500000000000000006044820152606401610523565b600281600481111561166957611669612070565b036116d0576040517f08c379a000000000000000000000000000000000000000000000000000000000815260206004820152601f60248201527f45434453413a20696e76616c6964207369676e6174757265206c656e677468006044820152606401610523565b60038160048111156116e4576116e4612070565b03610c27576040517f08c379a000000000000000000000000000000000000000000000000000000000815260206004820152602260248201527f45434453413a20696e76616c6964207369676e6174757265202773272076616c60448201527f75650000000000000000000000000000000000000000000000000000000000006064820152608401610523565b6000807f7fffffffffffffffffffffffffffffff5d576e7357a4501ddfe92f46681b20a08311156117a85750600090506003611857565b6040805160008082526020820180845289905260ff881692820192909252606081018690526080810185905260019060a0016020604051602081039080840390855afa1580156117fc573d6000803e3d6000fd5b50506040517fffffffffffffffffffffffffffffffffffffffffffffffffffffffffffffffe0015191505073ffffffffffffffffffffffffffffffffffffffff811661185057600060019250925050611857565b9150600090505b94509492505050565b82805482825590600052602060002090810192821561189b579160200282015b8281111561189b578251825591602001919060010190611880565b506118a79291506118ab565b5090565b5b808211156118a757600081556001016118ac565b803573ffffffffffffffffffffffffffffffffffffffff811681146118e457600080fd5b919050565b6000602082840312156118fb57600080fd5b611904826118c0565b9392505050565b6000806040838503121561191e57600080fd5b611927836118c0565b946020939093013593505050565b60005b83811015611950578181015183820152602001611938565b50506000910152565b60008151808452611971816020860160208601611935565b601f017fffffffffffffffffffffffffffffffffffffffffffffffffffffffffffffffe0169290920160200192915050565b6080815260006119b66080830187611959565b60208301959095525073ffffffffffffffffffffffffffffffffffffffff929092166040830152606090910152919050565b7f4e487b7100000000000000000000000000000000000000000000000000000000600052604160045260246000fd5b600082601f830112611a2857600080fd5b813567ffffffffffffffff80821115611a4357611a436119e8565b604051601f83017fffffffffffffffffffffffffffffffffffffffffffffffffffffffffffffffe0908116603f01168101908282118183101715611a8957611a896119e8565b81604052838152866020858801011115611aa257600080fd5b836020870160208301376000602085830101528094505050505092915050565b60008083601f840112611ad457600080fd5b50813567ffffffffffffffff811115611aec57600080fd5b6020830191508360208260051b85010111156115b757600080fd5b60008060008060008060008060c0898b031215611b2357600080fd5b883567ffffffffffffffff80821115611b3b57600080fd5b611b478c838d01611a17565b995060208b0135985060408b0135915080821115611b6457600080fd5b611b708c838d01611ac2565b909850965060608b0135915080821115611b8957600080fd5b611b958c838d01611ac2565b909650945060808b0135935060a08b0135915080821115611bb557600080fd5b50611bc28b828c01611a17565b9150509295985092959890939650565b60008060008060808587031215611be857600080fd5b611bf1856118c0565b9350611bff602086016118c0565b9250611c0d604086016118c0565b9150611c1b606086016118c0565b905092959194509250565b600181811c90821680611c3a57607f821691505b602082108103611c73577f4e487b7100000000000000000000000000000000000000000000000000000000600052602260045260246000fd5b50919050565b601f821115611cc357600081815260208120601f850160051c81016020861015611ca05750805b601f850160051c820191505b81811015611cbf57828155600101611cac565b5050505b505050565b815167ffffffffffffffff811115611ce257611ce26119e8565b611cf681611cf08454611c26565b84611c79565b602080601f831160018114611d495760008415611d135750858301515b7fffffffffffffffffffffffffffffffffffffffffffffffffffffffffffffffff600386901b1c1916600185901b178555611cbf565b6000858152602081207fffffffffffffffffffffffffffffffffffffffffffffffffffffffffffffffe08616915b82811015611d9657888601518255948401946001909101908401611d77565b5085821015611dd257878501517fffffffffffffffffffffffffffffffffffffffffffffffffffffffffffffffff600388901b60f8161c191681555b5050505050600190811b01905550565b7f4e487b7100000000000000000000000000000000000000000000000000000000600052601160045260246000fd5b8082018082111561141257611412611de2565b600060208284031215611e3657600080fd5b8151801515811461190457600080fd5b81835260007f07ffffffffffffffffffffffffffffffffffffffffffffffffffffffffffffff831115611e7857600080fd5b8260051b80836020870137939093016020019392505050565b600073ffffffffffffffffffffffffffffffffffffffff808916835280881660208401525060a06040830152611ecb60a083018688611e46565b8281036060840152611ede818587611e46565b8381036080909401939093525050600381527f307830000000000000000000000000000000000000000000000000000000000060208201526040019695505050505050565b87815260a060208201526000611f3c60a0830189611959565b8281036040840152611f4f81888a611e46565b90508281036060840152611f64818688611e46565b91505082608083015298975050505050505050565b60007f07ffffffffffffffffffffffffffffffffffffffffffffffffffffffffffffff831115611fa857600080fd5b8260051b80838637939093019392505050565b60007fffffffffffffffffffffffffffffffffffffffff000000000000000000000000808c60601b168352808b60601b166014840152508851612005816028850160208d01611935565b61201f6120186028838601018a8c611f79565b8789611f79565b9485525050506020820152604001979650505050505050565b60007fffffffffffffffffffffffffffffffffffffffffffffffffffffffffffffffff820361206957612069611de2565b5060010190565b7f4e487b7100000000000000000000000000000000000000000000000000000000600052602160045260246000fdfea2646970667358221220a983988ff117af3a961d8915976dbddfccb2e02d36c88dd39e0655f6dee79c7f64736f6c63430008110033",
  "linkReferences": {},
  "deployedLinkReferences": {}
}