{
  "_format": "hh-sol-artifact-1",
  "contractName": "WBBActions",
  "sourceName": "contracts/game/WBBActions.sol",
  "abi": [
    {
      "inputs": [],
      "stateMutability": "nonpayable",
      "type": "constructor"
    },
    {
      "anonymous": false,
      "inputs": [
        {
          "indexed": true,
          "internalType": "address",
          "name": "_operatorAddress",
          "type": "address"
        },
        {
          "indexed": false,
          "internalType": "string",
          "name": "_battleId",
          "type": "string"
        },
        {
          "indexed": false,
          "internalType": "string[]",
          "name": "_bossIds",
          "type": "string[]"
        },
        {
          "indexed": false,
          "internalType": "uint256",
          "name": "_startTime",
          "type": "uint256"
        },
        {
          "indexed": false,
          "internalType": "uint256",
          "name": "_endTime",
          "type": "uint256"
        }
      ],
      "name": "CreateBattle",
      "type": "event"
    },
    {
      "anonymous": false,
      "inputs": [
        {
          "indexed": true,
          "internalType": "address",
          "name": "_operatorAddress",
          "type": "address"
        },
        {
          "indexed": false,
          "internalType": "string",
          "name": "_bossId",
          "type": "string"
        },
        {
          "indexed": false,
          "internalType": "string",
          "name": "_name",
          "type": "string"
        },
        {
          "indexed": false,
          "internalType": "uint256",
          "name": "_maxHp",
          "type": "uint256"
        },
        {
          "indexed": false,
          "internalType": "string",
          "name": "_uri",
          "type": "string"
        }
      ],
      "name": "CreateBoss",
      "type": "event"
    },
    {
      "anonymous": false,
      "inputs": [
        {
          "indexed": false,
          "internalType": "uint8",
          "name": "version",
          "type": "uint8"
        }
      ],
      "name": "Initialized",
      "type": "event"
    },
    {
      "anonymous": false,
      "inputs": [
        {
          "indexed": true,
          "internalType": "address",
          "name": "_operatorAddress",
          "type": "address"
        },
        {
          "indexed": false,
          "internalType": "string",
          "name": "_battleId",
          "type": "string"
        },
        {
          "indexed": false,
          "internalType": "uint256",
          "name": "_startTime",
          "type": "uint256"
        },
        {
          "indexed": false,
          "internalType": "uint256",
          "name": "_endTime",
          "type": "uint256"
        }
      ],
      "name": "UpdateBattle",
      "type": "event"
    },
    {
      "anonymous": false,
      "inputs": [
        {
          "indexed": true,
          "internalType": "address",
          "name": "_operatorAddress",
          "type": "address"
        },
        {
          "indexed": false,
          "internalType": "string",
          "name": "_bossId",
          "type": "string"
        },
        {
          "indexed": false,
          "internalType": "string",
          "name": "_name",
          "type": "string"
        },
        {
          "indexed": false,
          "internalType": "uint256",
          "name": "_maxHp",
          "type": "uint256"
        },
        {
          "indexed": false,
          "internalType": "string",
          "name": "_uri",
          "type": "string"
        }
      ],
      "name": "UpdateBoss",
      "type": "event"
    },
    {
      "inputs": [],
      "name": "accessControls",
      "outputs": [
        {
          "internalType": "contract IGameAccessControls",
          "name": "",
          "type": "address"
        }
      ],
      "stateMutability": "view",
      "type": "function"
    },
    {
      "inputs": [
        {
          "internalType": "string",
          "name": "",
          "type": "string"
        }
      ],
      "name": "battleExists",
      "outputs": [
        {
          "internalType": "bool",
          "name": "",
          "type": "bool"
        }
      ],
      "stateMutability": "view",
      "type": "function"
    },
    {
      "inputs": [
        {
          "internalType": "uint256",
          "name": "",
          "type": "uint256"
        }
      ],
      "name": "battleList",
      "outputs": [
        {
          "internalType": "string",
          "name": "",
          "type": "string"
        }
      ],
      "stateMutability": "view",
      "type": "function"
    },
    {
      "inputs": [
        {
          "internalType": "string",
          "name": "",
          "type": "string"
        }
      ],
      "name": "battles",
      "outputs": [
        {
          "internalType": "string",
          "name": "battleId",
          "type": "string"
        },
        {
          "internalType": "uint256",
          "name": "bossCount",
          "type": "uint256"
        },
        {
          "internalType": "uint256",
          "name": "startTime",
          "type": "uint256"
        },
        {
          "internalType": "uint256",
          "name": "endTime",
          "type": "uint256"
        },
        {
          "internalType": "bool",
          "name": "status",
          "type": "bool"
        },
        {
          "internalType": "uint256",
          "name": "index",
          "type": "uint256"
        }
      ],
      "stateMutability": "view",
      "type": "function"
    },
    {
      "inputs": [
        {
          "internalType": "string",
          "name": "",
          "type": "string"
        }
      ],
      "name": "bossExists",
      "outputs": [
        {
          "internalType": "bool",
          "name": "",
          "type": "bool"
        }
      ],
      "stateMutability": "view",
      "type": "function"
    },
    {
      "inputs": [
        {
          "internalType": "uint256",
          "name": "",
          "type": "uint256"
        }
      ],
      "name": "bossList",
      "outputs": [
        {
          "internalType": "string",
          "name": "",
          "type": "string"
        }
      ],
      "stateMutability": "view",
      "type": "function"
    },
    {
      "inputs": [
        {
          "internalType": "string",
          "name": "",
          "type": "string"
        }
      ],
      "name": "bosses",
      "outputs": [
        {
          "internalType": "string",
          "name": "bossId",
          "type": "string"
        },
        {
          "internalType": "string",
          "name": "name",
          "type": "string"
        },
        {
          "internalType": "uint256",
          "name": "maxHp",
          "type": "uint256"
        },
        {
          "internalType": "string",
          "name": "uri",
          "type": "string"
        },
        {
          "internalType": "bool",
          "name": "status",
          "type": "bool"
        },
        {
          "internalType": "uint256",
          "name": "index",
          "type": "uint256"
        }
      ],
      "stateMutability": "view",
      "type": "function"
    },
    {
      "inputs": [
        {
          "internalType": "string[]",
          "name": "_bossId",
          "type": "string[]"
        }
      ],
      "name": "checkActiveBosses",
      "outputs": [],
      "stateMutability": "view",
      "type": "function"
    },
    {
      "inputs": [
        {
          "internalType": "string",
          "name": "_battleId",
          "type": "string"
        }
      ],
      "name": "checkBattleEnded",
      "outputs": [
        {
          "internalType": "bool",
          "name": "",
          "type": "bool"
        }
      ],
      "stateMutability": "view",
      "type": "function"
    },
    {
      "inputs": [
        {
          "internalType": "string",
          "name": "_battleId",
          "type": "string"
        }
      ],
      "name": "checkBattleExists",
      "outputs": [
        {
          "internalType": "bool",
          "name": "",
          "type": "bool"
        }
      ],
      "stateMutability": "view",
      "type": "function"
    },
    {
      "inputs": [
        {
          "internalType": "string",
          "name": "_battleId",
          "type": "string"
        }
      ],
      "name": "checkBattleStarted",
      "outputs": [
        {
          "internalType": "bool",
          "name": "",
          "type": "bool"
        }
      ],
      "stateMutability": "view",
      "type": "function"
    },
    {
      "inputs": [
        {
          "internalType": "string",
          "name": "_battleId",
          "type": "string"
        }
      ],
      "name": "checkBattleStatus",
      "outputs": [
        {
          "internalType": "bool",
          "name": "",
          "type": "bool"
        }
      ],
      "stateMutability": "view",
      "type": "function"
    },
    {
      "inputs": [
        {
          "internalType": "string",
          "name": "_bossId",
          "type": "string"
        }
      ],
      "name": "checkBossExists",
      "outputs": [
        {
          "internalType": "bool",
          "name": "",
          "type": "bool"
        }
      ],
      "stateMutability": "view",
      "type": "function"
    },
    {
      "inputs": [
        {
          "internalType": "string",
          "name": "_bossId",
          "type": "string"
        }
      ],
      "name": "checkBossStatus",
      "outputs": [
        {
          "internalType": "bool",
          "name": "",
          "type": "bool"
        }
      ],
      "stateMutability": "view",
      "type": "function"
    },
    {
      "inputs": [
        {
          "internalType": "string",
          "name": "_battleId",
          "type": "string"
        },
        {
          "internalType": "string[]",
          "name": "_bossIds",
          "type": "string[]"
        },
        {
          "internalType": "uint256",
          "name": "_startTime",
          "type": "uint256"
        },
        {
          "internalType": "uint256",
          "name": "_endTime",
          "type": "uint256"
        }
      ],
      "name": "createBattle",
      "outputs": [],
      "stateMutability": "nonpayable",
      "type": "function"
    },
    {
      "inputs": [
        {
          "internalType": "string",
          "name": "bossId",
          "type": "string"
        },
        {
          "internalType": "string",
          "name": "name",
          "type": "string"
        },
        {
          "internalType": "uint256",
          "name": "maxHp",
          "type": "uint256"
        },
        {
          "internalType": "string",
          "name": "uri",
          "type": "string"
        }
      ],
      "name": "createBoss",
      "outputs": [],
      "stateMutability": "nonpayable",
      "type": "function"
    },
    {
      "inputs": [],
      "name": "getAllBattle",
      "outputs": [
        {
          "internalType": "string[]",
          "name": "",
          "type": "string[]"
        }
      ],
      "stateMutability": "view",
      "type": "function"
    },
    {
      "inputs": [],
      "name": "getAllBosses",
      "outputs": [
        {
          "internalType": "string[]",
          "name": "",
          "type": "string[]"
        }
      ],
      "stateMutability": "view",
      "type": "function"
    },
    {
      "inputs": [
        {
          "internalType": "string",
          "name": "_battleId",
          "type": "string"
        }
      ],
      "name": "getBattlePeriod",
      "outputs": [
        {
          "internalType": "uint256",
          "name": "startTime",
          "type": "uint256"
        },
        {
          "internalType": "uint256",
          "name": "endTime",
          "type": "uint256"
        }
      ],
      "stateMutability": "view",
      "type": "function"
    },
    {
      "inputs": [],
      "name": "getLatestBattle",
      "outputs": [
        {
          "internalType": "string",
          "name": "battleId",
          "type": "string"
        }
      ],
      "stateMutability": "view",
      "type": "function"
    },
    {
      "inputs": [
        {
          "internalType": "contract IGameAccessControls",
          "name": "_accessControls",
          "type": "address"
        }
      ],
      "name": "initialize",
      "outputs": [],
      "stateMutability": "nonpayable",
      "type": "function"
    },
    {
      "inputs": [
        {
          "internalType": "string",
          "name": "_battleId",
          "type": "string"
        },
        {
          "internalType": "bool",
          "name": "_status",
          "type": "bool"
        }
      ],
      "name": "setBattleStatus",
      "outputs": [],
      "stateMutability": "nonpayable",
      "type": "function"
    },
    {
      "inputs": [
        {
          "internalType": "string",
          "name": "_bossId",
          "type": "string"
        },
        {
          "internalType": "bool",
          "name": "_status",
          "type": "bool"
        }
      ],
      "name": "setBossStatus",
      "outputs": [],
      "stateMutability": "nonpayable",
      "type": "function"
    },
    {
      "inputs": [
        {
          "internalType": "string",
          "name": "_battleId",
          "type": "string"
        },
        {
          "internalType": "uint256",
          "name": "_startTime",
          "type": "uint256"
        },
        {
          "internalType": "uint256",
          "name": "_endTime",
          "type": "uint256"
        }
      ],
      "name": "updateBattle",
      "outputs": [],
      "stateMutability": "nonpayable",
      "type": "function"
    },
    {
      "inputs": [
        {
          "internalType": "string",
          "name": "bossId",
          "type": "string"
        },
        {
          "internalType": "string",
          "name": "name",
          "type": "string"
        },
        {
          "internalType": "uint256",
          "name": "maxHp",
          "type": "uint256"
        },
        {
          "internalType": "string",
          "name": "uri",
          "type": "string"
        }
      ],
      "name": "updateBoss",
      "outputs": [],
      "stateMutability": "nonpayable",
      "type": "function"
    }
  ],
  "bytecode": "0x60806040523480156200001157600080fd5b506200001c62000022565b620000e4565b600054610100900460ff16156200008f5760405162461bcd60e51b815260206004820152602760248201527f496e697469616c697a61626c653a20636f6e747261637420697320696e697469604482015266616c697a696e6760c81b606482015260840160405180910390fd5b60005460ff9081161015620000e2576000805460ff191660ff9081179091556040519081527f7f26b83ff96e1f2b6a682f133852f6798a09c465da95921460cefb38474024989060200160405180910390a15b565b61286e80620000f46000396000f3fe608060405234801561001057600080fd5b50600436106101a35760003560e01c806385651574116100ee578063b778e18311610097578063c4d66de811610071578063c4d66de8146103b6578063c5c0a462146103c9578063e59f94b7146103f7578063f7ddad0c1461040a57600080fd5b8063b778e18314610388578063bf81ee6d1461039b578063c2451bdc146103a357600080fd5b8063a83e54c2116100c8578063a83e54c21461035a578063ac0d46461461036d578063b24a97c31461038057600080fd5b8063856515741461030f5780638abf3a0e14610322578063a07418d61461034757600080fd5b80634fa1290d11610150578063748365ef1161012a578063748365ef1461029257806377bb7b78146102d75780637e4fceaf146102fc57600080fd5b80634fa1290d1461025757806356b1bc9a1461026a5780635d4977891461027f57600080fd5b806332165c3c1161018157806332165c3c146101f957806340e8e1851461022157806347ff16ac1461023457600080fd5b8063159a9239146101a85780631bc143a5146101bd57806325eeb4f5146101e6575b600080fd5b6101bb6101b6366004612052565b610438565b005b6101d06101cb3660046120e4565b610702565b6040516101dd919061216b565b60405180910390f35b6101d06101f43660046120e4565b6107ae565b61020c610207366004612185565b6107be565b604080519283526020830191909152016101dd565b6101bb61022f366004612261565b61080e565b610247610242366004612185565b6108b8565b60405190151581526020016101dd565b6101bb610265366004612052565b6108e5565b610272610bbd565b6040516101dd91906122eb565b61024761028d366004612185565b610c96565b6039546102b29073ffffffffffffffffffffffffffffffffffffffff1681565b60405173ffffffffffffffffffffffffffffffffffffffff90911681526020016101dd565b6102ea6102e5366004612185565b610d33565b6040516101dd969594939291906122fe565b6101bb61030a36600461234d565b610dff565b61024761031d366004612185565b610fe4565b610335610330366004612185565b611012565b6040516101dd9695949392919061239f565b6101bb6103553660046123f4565b6111ed565b6101bb61036836600461234d565b611625565b61024761037b366004612185565b61180a565b610272611835565b610247610396366004612185565b611905565b6101d0611932565b6101bb6103b1366004612468565b6119ee565b6101bb6103c43660046124b6565b611d6a565b6102476103d7366004612185565b805160208183018101805160388252928201919093012091525460ff1681565b610247610405366004612185565b611f34565b610247610418366004612185565b805160208183018101805160378252928201919093012091525460ff1681565b6039546040517f5026c82600000000000000000000000000000000000000000000000000000000815233600482018190529173ffffffffffffffffffffffffffffffffffffffff1690635026c82690602401602060405180830381865afa1580156104a7573d6000803e3d6000fd5b505050506040513d601f19601f820116820180604052508101906104cb91906124ec565b610536576040517f08c379a000000000000000000000000000000000000000000000000000000000815260206004820181905260248201527f5742423a20556e617574686f72697a656420746f2075706461746520626f737360448201526064015b60405180910390fd5b61053f85611f34565b6105a5576040517f08c379a000000000000000000000000000000000000000000000000000000000815260206004820152601760248201527f5742423a20426f737320646f65736e2774206578697374000000000000000000604482015260640161052d565b60006035866040516105b79190612509565b908152604051908190036020019020600481015490915060ff1615610638576040517f08c379a000000000000000000000000000000000000000000000000000000000815260206004820152601360248201527f5742423a20426f73732069732061637469766500000000000000000000000000604482015260640161052d565b8061064387826125c7565b506001810161065286826125c7565b50600281018490556003810161066884826125c7565b50603680546001810182556000919091527f4a11f94e20a93c79f6ec743a1954ec4fc2c08429ae2122118bf234b2185c81b8016106a587826125c7565b508173ffffffffffffffffffffffffffffffffffffffff167fe84e5250e15f8fc9c44338f80b627457e114179c263f3707ff9beeed895f8ca4878787876040516106f294939291906126e1565b60405180910390a2505050505050565b6034818154811061071257600080fd5b90600052602060002001600091509050805461072d90612525565b80601f016020809104026020016040519081016040528092919081815260200182805461075990612525565b80156107a65780601f1061077b576101008083540402835291602001916107a6565b820191906000526020600020905b81548152906001019060200180831161078957829003601f168201915b505050505081565b6036818154811061071257600080fd5b6000806033836040516107d19190612509565b9081526020016040518091039020600301546033846040516107f39190612509565b90815260200160405180910390206004015491509150915091565b60005b81518110156108b45761083c82828151811061082f5761082f61272b565b6020026020010151610fe4565b6108a2576040517f08c379a000000000000000000000000000000000000000000000000000000000815260206004820152601560248201527f5742423a20626f7373206e6f7420637265617465640000000000000000000000604482015260640161052d565b806108ac81612789565b915050610811565b5050565b60006033826040516108ca9190612509565b90815260200160405180910390206004015442119050919050565b6039546040517f5026c82600000000000000000000000000000000000000000000000000000000815233600482018190529173ffffffffffffffffffffffffffffffffffffffff1690635026c82690602401602060405180830381865afa158015610954573d6000803e3d6000fd5b505050506040513d601f19601f8201168201806040525081019061097891906124ec565b6109de576040517f08c379a000000000000000000000000000000000000000000000000000000000815260206004820181905260248201527f5742423a20556e617574686f72697a656420746f2063726561746520626f7373604482015260640161052d565b6109e785611f34565b15610a4e576040517f08c379a000000000000000000000000000000000000000000000000000000000815260206004820152601860248201527f5742423a20426f737320616c7265616479204578697374730000000000000000604482015260640161052d565b6000603586604051610a609190612509565b908152604051908190036020019020905080610a7c87826125c7565b5060018101610a8b86826125c7565b506002810184905560038101610aa184826125c7565b506004810180547fffffffffffffffffffffffffffffffffffffffffffffffffffffffffffffff001660019081179091556036805491820181556000527f4a11f94e20a93c79f6ec743a1954ec4fc2c08429ae2122118bf234b2185c81b801610b0a87826125c7565b506001603887604051610b1d9190612509565b90815260405190819003602001902080549115157fffffffffffffffffffffffffffffffffffffffffffffffffffffffffffffff00909216919091179055603654610b6a906001906127c1565b600582015560405173ffffffffffffffffffffffffffffffffffffffff8316907f7d51e5ba65a244038915d444c0ca607e0b05121999d92bf11349864f8ec00bc0906106f29089908990899089906126e1565b60606036805480602002602001604051908101604052809291908181526020016000905b82821015610c8d578382906000526020600020018054610c0090612525565b80601f0160208091040260200160405190810160405280929190818152602001828054610c2c90612525565b8015610c795780601f10610c4e57610100808354040283529160200191610c79565b820191906000526020600020905b815481529060010190602001808311610c5c57829003601f168201915b505050505081526020019060010190610be1565b50505050905090565b6000610ca18261180a565b610d07576040517f08c379a000000000000000000000000000000000000000000000000000000000815260206004820152601a60248201527f5742423a20426174746c6520646f65736e277420657869737473000000000000604482015260640161052d565b603382604051610d179190612509565b9081526040519081900360200190206005015460ff1692915050565b8051602081830181018051603382529282019190930120915280548190610d5990612525565b80601f0160208091040260200160405190810160405280929190818152602001828054610d8590612525565b8015610dd25780601f10610da757610100808354040283529160200191610dd2565b820191906000526020600020905b815481529060010190602001808311610db557829003601f168201915b505050506002830154600384015460048501546005860154600690960154949592949193509160ff169086565b6039546040517f5026c82600000000000000000000000000000000000000000000000000000000815233600482015273ffffffffffffffffffffffffffffffffffffffff90911690635026c82690602401602060405180830381865afa158015610e6d573d6000803e3d6000fd5b505050506040513d601f19601f82011682018060405250810190610e9191906124ec565b610f1d576040517f08c379a000000000000000000000000000000000000000000000000000000000815260206004820152602760248201527f5742423a20556e617574686f72697a656420746f2075706461746520626f737360448201527f2073746174757300000000000000000000000000000000000000000000000000606482015260840161052d565b610f2682611f34565b610f8c576040517f08c379a000000000000000000000000000000000000000000000000000000000815260206004820152601760248201527f5742423a20426f737320646f65736e2774206578697374000000000000000000604482015260640161052d565b6000603583604051610f9e9190612509565b90815260405190819003602001902060040180549215157fffffffffffffffffffffffffffffffffffffffffffffffffffffffffffffff00909316929092179091555050565b6000603582604051610ff69190612509565b9081526040519081900360200190206004015460ff1692915050565b805160208183018101805160358252928201919093012091528054819061103890612525565b80601f016020809104026020016040519081016040528092919081815260200182805461106490612525565b80156110b15780601f10611086576101008083540402835291602001916110b1565b820191906000526020600020905b81548152906001019060200180831161109457829003601f168201915b5050505050908060010180546110c690612525565b80601f01602080910402602001604051908101604052809291908181526020018280546110f290612525565b801561113f5780601f106111145761010080835404028352916020019161113f565b820191906000526020600020905b81548152906001019060200180831161112257829003601f168201915b50505050509080600201549080600301805461115a90612525565b80601f016020809104026020016040519081016040528092919081815260200182805461118690612525565b80156111d35780601f106111a8576101008083540402835291602001916111d3565b820191906000526020600020905b8154815290600101906020018083116111b657829003601f168201915b505050506004830154600590930154919260ff1691905086565b6039546040517f5026c82600000000000000000000000000000000000000000000000000000000815233600482018190529173ffffffffffffffffffffffffffffffffffffffff1690635026c82690602401602060405180830381865afa15801561125c573d6000803e3d6000fd5b505050506040513d601f19601f8201168201806040525081019061128091906124ec565b61130c576040517f08c379a000000000000000000000000000000000000000000000000000000000815260206004820152602260248201527f5742423a20556e617574686f72697a656420746f20637265617465206261747460448201527f6c65000000000000000000000000000000000000000000000000000000000000606482015260840161052d565b6113158561180a565b1561137c576040517f08c379a000000000000000000000000000000000000000000000000000000000815260206004820152601a60248201527f5742423a20426174746c6520616c726561647920457869737473000000000000604482015260640161052d565b8282116113e5576040517f08c379a000000000000000000000000000000000000000000000000000000000815260206004820152601a60248201527f5742423a20696e76616c696420626174746c6520706572696f64000000000000604482015260640161052d565b6113ee8461080e565b60006033866040516114009190612509565b90815260405190819003602001902090508061141c87826125c7565b5060038101849055600481018390556005810180547fffffffffffffffffffffffffffffffffffffffffffffffffffffffffffffff00166001908117909155855160028301556034805491820181556000527f46bddb1178e94d7f2892ff5f366840eb658911794f2c3a44c450aa2c505186c10161149a87826125c7565b5060016037876040516114ad9190612509565b90815260405190819003602001902080549115157fffffffffffffffffffffffffffffffffffffffffffffffffffffffffffffff009092169190911790556034546114fa906001906127c1565b600682015560005b85518110156115d85761152086828151811061082f5761082f61272b565b611586576040517f08c379a000000000000000000000000000000000000000000000000000000000815260206004820152601560248201527f5742423a20626f7373206e6f7420637265617465640000000000000000000000604482015260640161052d565b8160010186828151811061159c5761159c61272b565b602090810291909101810151825460018101845560009384529190922001906115c590826125c7565b50806115d081612789565b915050611502565b508173ffffffffffffffffffffffffffffffffffffffff167fbf930b6a4190ef0d2e18f5890bf0a9d9cadbdb0806e46cdf21ac172ca43f76a6878787876040516106f294939291906127da565b6039546040517f5026c82600000000000000000000000000000000000000000000000000000000815233600482015273ffffffffffffffffffffffffffffffffffffffff90911690635026c82690602401602060405180830381865afa158015611693573d6000803e3d6000fd5b505050506040513d601f19601f820116820180604052508101906116b791906124ec565b611743576040517f08c379a000000000000000000000000000000000000000000000000000000000815260206004820152602660248201527f5742423a20556e617574686f72697a656420746f2073657420626174746c652060448201527f7374617475730000000000000000000000000000000000000000000000000000606482015260840161052d565b61174c8261180a565b6117b2576040517f08c379a000000000000000000000000000000000000000000000000000000000815260206004820152601960248201527f5742423a20426174746c6520646f65736e277420657869737400000000000000604482015260640161052d565b60006033836040516117c49190612509565b90815260405190819003602001902060050180549215157fffffffffffffffffffffffffffffffffffffffffffffffffffffffffffffff00909316929092179091555050565b600060378260405161181c9190612509565b9081526040519081900360200190205460ff1692915050565b60606034805480602002602001604051908101604052809291908181526020016000905b82821015610c8d57838290600052602060002001805461187890612525565b80601f01602080910402602001604051908101604052809291908181526020018280546118a490612525565b80156118f15780601f106118c6576101008083540402835291602001916118f1565b820191906000526020600020905b8154815290600101906020018083116118d457829003601f168201915b505050505081526020019060010190611859565b60006033826040516119179190612509565b90815260200160405180910390206003015442119050919050565b6034805460609190611946906001906127c1565b815481106119565761195661272b565b90600052602060002001805461196b90612525565b80601f016020809104026020016040519081016040528092919081815260200182805461199790612525565b80156119e45780601f106119b9576101008083540402835291602001916119e4565b820191906000526020600020905b8154815290600101906020018083116119c757829003601f168201915b5050505050905090565b6039546040517f5026c82600000000000000000000000000000000000000000000000000000000815233600482018190529173ffffffffffffffffffffffffffffffffffffffff1690635026c82690602401602060405180830381865afa158015611a5d573d6000803e3d6000fd5b505050506040513d601f19601f82011682018060405250810190611a8191906124ec565b611b0d576040517f08c379a000000000000000000000000000000000000000000000000000000000815260206004820152602260248201527f5742423a20556e617574686f72697a656420746f20757064617465206261747460448201527f6c65000000000000000000000000000000000000000000000000000000000000606482015260840161052d565b611b168461180a565b611b7c576040517f08c379a000000000000000000000000000000000000000000000000000000000815260206004820152601a60248201527f5742423a20426174746c6520646f65736e277420657869737473000000000000604482015260640161052d565b603384604051611b8c9190612509565b9081526040519081900360200190206005015460ff1615611c09576040517f08c379a000000000000000000000000000000000000000000000000000000000815260206004820152601560248201527f5742423a20426174746c65206973206163746976650000000000000000000000604482015260640161052d565b828211611c72576040517f08c379a000000000000000000000000000000000000000000000000000000000815260206004820152601a60248201527f5742423a20696e76616c696420626174746c6520706572696f64000000000000604482015260640161052d565b6000603385604051611c849190612509565b9081526020016040518091039020905080600401544210611d01576040517f08c379a000000000000000000000000000000000000000000000000000000000815260206004820152601960248201527f5742423a20626174746c6520616c726561647920656e64656400000000000000604482015260640161052d565b600381018490556004810183905560405173ffffffffffffffffffffffffffffffffffffffff8316907f48af9efa0eb42768b8561a4d6eb892763a3701ff2fae21c37d480825f78f6cbc90611d5b90889088908890612813565b60405180910390a25050505050565b600054610100900460ff1615808015611d8a5750600054600160ff909116105b80611da45750303b158015611da4575060005460ff166001145b611e30576040517f08c379a000000000000000000000000000000000000000000000000000000000815260206004820152602e60248201527f496e697469616c697a61626c653a20636f6e747261637420697320616c72656160448201527f647920696e697469616c697a6564000000000000000000000000000000000000606482015260840161052d565b600080547fffffffffffffffffffffffffffffffffffffffffffffffffffffffffffffff001660011790558015611e8e57600080547fffffffffffffffffffffffffffffffffffffffffffffffffffffffffffff00ff166101001790555b603980547fffffffffffffffffffffffff00000000000000000000000000000000000000001673ffffffffffffffffffffffffffffffffffffffff841617905580156108b457600080547fffffffffffffffffffffffffffffffffffffffffffffffffffffffffffff00ff169055604051600181527f7f26b83ff96e1f2b6a682f133852f6798a09c465da95921460cefb38474024989060200160405180910390a15050565b600060388260405161181c9190612509565b7f4e487b7100000000000000000000000000000000000000000000000000000000600052604160045260246000fd5b604051601f82017fffffffffffffffffffffffffffffffffffffffffffffffffffffffffffffffe016810167ffffffffffffffff81118282101715611fbc57611fbc611f46565b604052919050565b600082601f830112611fd557600080fd5b813567ffffffffffffffff811115611fef57611fef611f46565b61202060207fffffffffffffffffffffffffffffffffffffffffffffffffffffffffffffffe0601f84011601611f75565b81815284602083860101111561203557600080fd5b816020850160208301376000918101602001919091529392505050565b6000806000806080858703121561206857600080fd5b843567ffffffffffffffff8082111561208057600080fd5b61208c88838901611fc4565b955060208701359150808211156120a257600080fd5b6120ae88838901611fc4565b94506040870135935060608701359150808211156120cb57600080fd5b506120d887828801611fc4565b91505092959194509250565b6000602082840312156120f657600080fd5b5035919050565b60005b83811015612118578181015183820152602001612100565b50506000910152565b600081518084526121398160208601602086016120fd565b601f017fffffffffffffffffffffffffffffffffffffffffffffffffffffffffffffffe0169290920160200192915050565b60208152600061217e6020830184612121565b9392505050565b60006020828403121561219757600080fd5b813567ffffffffffffffff8111156121ae57600080fd5b6121ba84828501611fc4565b949350505050565b600082601f8301126121d357600080fd5b8135602067ffffffffffffffff808311156121f0576121f0611f46565b8260051b6121ff838201611f75565b938452858101830193838101908886111561221957600080fd5b84880192505b85831015612255578235848111156122375760008081fd5b6122458a87838c0101611fc4565b835250918401919084019061221f565b98975050505050505050565b60006020828403121561227357600080fd5b813567ffffffffffffffff81111561228a57600080fd5b6121ba848285016121c2565b600081518084526020808501808196508360051b8101915082860160005b858110156122de5782840389526122cc848351612121565b988501989350908401906001016122b4565b5091979650505050505050565b60208152600061217e6020830184612296565b60c08152600061231160c0830189612121565b602083019790975250604081019490945260608401929092521515608083015260a090910152919050565b801515811461234a57600080fd5b50565b6000806040838503121561236057600080fd5b823567ffffffffffffffff81111561237757600080fd5b61238385828601611fc4565b92505060208301356123948161233c565b809150509250929050565b60c0815260006123b260c0830189612121565b82810360208401526123c48189612121565b905086604084015282810360608401526123de8187612121565b9415156080840152505060a00152949350505050565b6000806000806080858703121561240a57600080fd5b843567ffffffffffffffff8082111561242257600080fd5b61242e88838901611fc4565b9550602087013591508082111561244457600080fd5b50612451878288016121c2565b949794965050505060408301359260600135919050565b60008060006060848603121561247d57600080fd5b833567ffffffffffffffff81111561249457600080fd5b6124a086828701611fc4565b9660208601359650604090950135949350505050565b6000602082840312156124c857600080fd5b813573ffffffffffffffffffffffffffffffffffffffff8116811461217e57600080fd5b6000602082840312156124fe57600080fd5b815161217e8161233c565b6000825161251b8184602087016120fd565b9190910192915050565b600181811c9082168061253957607f821691505b602082108103612572577f4e487b7100000000000000000000000000000000000000000000000000000000600052602260045260246000fd5b50919050565b601f8211156125c257600081815260208120601f850160051c8101602086101561259f5750805b601f850160051c820191505b818110156125be578281556001016125ab565b5050505b505050565b815167ffffffffffffffff8111156125e1576125e1611f46565b6125f5816125ef8454612525565b84612578565b602080601f83116001811461264857600084156126125750858301515b7fffffffffffffffffffffffffffffffffffffffffffffffffffffffffffffffff600386901b1c1916600185901b1785556125be565b6000858152602081207fffffffffffffffffffffffffffffffffffffffffffffffffffffffffffffffe08616915b8281101561269557888601518255948401946001909101908401612676565b50858210156126d157878501517fffffffffffffffffffffffffffffffffffffffffffffffffffffffffffffffff600388901b60f8161c191681555b5050505050600190811b01905550565b6080815260006126f46080830187612121565b82810360208401526127068187612121565b905084604084015282810360608401526127208185612121565b979650505050505050565b7f4e487b7100000000000000000000000000000000000000000000000000000000600052603260045260246000fd5b7f4e487b7100000000000000000000000000000000000000000000000000000000600052601160045260246000fd5b60007fffffffffffffffffffffffffffffffffffffffffffffffffffffffffffffffff82036127ba576127ba61275a565b5060010190565b818103818111156127d4576127d461275a565b92915050565b6080815260006127ed6080830187612121565b82810360208401526127ff8187612296565b604084019590955250506060015292915050565b6060815260006128266060830186612121565b6020830194909452506040015291905056fea264697066735822122089766adfd6783c806f0dda87a8dcc8d1b990680b3f3c66c440d5af6731408f7d64736f6c63430008110033",
  "linkReferences": {},
  "deployedLinkReferences": {}
}