{
  "address": "0xB789711A8CF2A3938779d01866A4C376598B9Fe6",
  "abi": [
    {
      "inputs": [
        {
          "internalType": "address",
          "name": "_messageSigner",
          "type": "address"
        }
      ],
      "stateMutability": "nonpayable",
      "type": "constructor"
    },
    {
      "anonymous": false,
      "inputs": [
        {
          "indexed": true,
          "internalType": "address",
          "name": "contractAddress",
          "type": "address"
        },
        {
          "indexed": true,
          "internalType": "uint256",
          "name": "nftId",
          "type": "uint256"
        },
        {
          "indexed": true,
          "internalType": "uint256",
          "name": "eventId",
          "type": "uint256"
        },
        {
          "indexed": false,
          "internalType": "uint256",
          "name": "quantity",
          "type": "uint256"
        },
        {
          "indexed": false,
          "internalType": "address",
          "name": "redeemer",
          "type": "address"
        }
      ],
      "name": "NFTReedemed",
      "type": "event"
    },
    {
      "anonymous": false,
      "inputs": [
        {
          "indexed": true,
          "internalType": "address",
          "name": "previousOwner",
          "type": "address"
        },
        {
          "indexed": true,
          "internalType": "address",
          "name": "newOwner",
          "type": "address"
        }
      ],
      "name": "OwnershipTransferred",
      "type": "event"
    },
    {
      "anonymous": false,
      "inputs": [
        {
          "indexed": false,
          "internalType": "address",
          "name": "account",
          "type": "address"
        }
      ],
      "name": "Paused",
      "type": "event"
    },
    {
      "anonymous": false,
      "inputs": [
        {
          "indexed": true,
          "internalType": "address",
          "name": "contractAddress",
          "type": "address"
        },
        {
          "indexed": true,
          "internalType": "address",
          "name": "previousHolder",
          "type": "address"
        },
        {
          "indexed": true,
          "internalType": "address",
          "name": "newHolder",
          "type": "address"
        }
      ],
      "name": "SetNewHolderToNFT",
      "type": "event"
    },
    {
      "anonymous": false,
      "inputs": [
        {
          "indexed": true,
          "internalType": "address",
          "name": "previousSigner",
          "type": "address"
        },
        {
          "indexed": false,
          "internalType": "address",
          "name": "newSigner",
          "type": "address"
        }
      ],
      "name": "SetNewMessageSigner",
      "type": "event"
    },
    {
      "anonymous": false,
      "inputs": [
        {
          "indexed": false,
          "internalType": "address",
          "name": "account",
          "type": "address"
        }
      ],
      "name": "Unpaused",
      "type": "event"
    },
    {
      "inputs": [],
      "name": "messageSigner",
      "outputs": [
        {
          "internalType": "address",
          "name": "",
          "type": "address"
        }
      ],
      "stateMutability": "view",
      "type": "function"
    },
    {
      "inputs": [],
      "name": "owner",
      "outputs": [
        {
          "internalType": "address",
          "name": "",
          "type": "address"
        }
      ],
      "stateMutability": "view",
      "type": "function"
    },
    {
      "inputs": [],
      "name": "pause",
      "outputs": [],
      "stateMutability": "nonpayable",
      "type": "function"
    },
    {
      "inputs": [],
      "name": "paused",
      "outputs": [
        {
          "internalType": "bool",
          "name": "",
          "type": "bool"
        }
      ],
      "stateMutability": "view",
      "type": "function"
    },
    {
      "inputs": [
        {
          "internalType": "address",
          "name": "_contractAddress",
          "type": "address"
        },
        {
          "internalType": "uint256",
          "name": "_nftId",
          "type": "uint256"
        },
        {
          "internalType": "uint256",
          "name": "_eventId",
          "type": "uint256"
        },
        {
          "internalType": "uint256",
          "name": "_quantity",
          "type": "uint256"
        },
        {
          "internalType": "bytes",
          "name": "_signature",
          "type": "bytes"
        }
      ],
      "name": "redeemHeroPoints",
      "outputs": [],
      "stateMutability": "nonpayable",
      "type": "function"
    },
    {
      "inputs": [],
      "name": "renounceOwnership",
      "outputs": [],
      "stateMutability": "nonpayable",
      "type": "function"
    },
    {
      "inputs": [
        {
          "internalType": "address",
          "name": "",
          "type": "address"
        }
      ],
      "name": "seedNonce",
      "outputs": [
        {
          "internalType": "uint256",
          "name": "",
          "type": "uint256"
        }
      ],
      "stateMutability": "view",
      "type": "function"
    },
    {
      "inputs": [
        {
          "internalType": "address",
          "name": "_contractAddress",
          "type": "address"
        },
        {
          "internalType": "address",
          "name": "_holder",
          "type": "address"
        }
      ],
      "name": "setHolderToNFT",
      "outputs": [],
      "stateMutability": "nonpayable",
      "type": "function"
    },
    {
      "inputs": [
        {
          "internalType": "address",
          "name": "_newSigner",
          "type": "address"
        }
      ],
      "name": "setMessageSigner",
      "outputs": [],
      "stateMutability": "nonpayable",
      "type": "function"
    },
    {
      "inputs": [
        {
          "internalType": "address",
          "name": "",
          "type": "address"
        }
      ],
      "name": "tokenHolder",
      "outputs": [
        {
          "internalType": "address",
          "name": "",
          "type": "address"
        }
      ],
      "stateMutability": "view",
      "type": "function"
    },
    {
      "inputs": [
        {
          "internalType": "address",
          "name": "newOwner",
          "type": "address"
        }
      ],
      "name": "transferOwnership",
      "outputs": [],
      "stateMutability": "nonpayable",
      "type": "function"
    },
    {
      "inputs": [],
      "name": "unpause",
      "outputs": [],
      "stateMutability": "nonpayable",
      "type": "function"
    }
  ],
  "transactionHash": "0x7abb980eba127c91e59217d77feb732c06473fd811f423e1cf55684107e7ae99",
  "args": [
    "0xaa6120ceAc3a69839A8b252053A52eF51b647844"
  ],
  "numDeployments": 1,
  "solcInputHash": "7a0903febdc9dc618f8235a3cbf38930",
  "bytecode": "0x608060405234801561001057600080fd5b5060405161190138038061190183398101604081905261002f916100be565b6100383361006e565b6000805460ff60a01b1916905560018055600280546001600160a01b0319166001600160a01b03929092169190911790556100ee565b600080546001600160a01b038381166001600160a01b0319831681178455604051919092169283917f8be0079c531659141344cd1fd0a4f28419497f9722a3daafe3b4186f6b6457e09190a35050565b6000602082840312156100d057600080fd5b81516001600160a01b03811681146100e757600080fd5b9392505050565b611804806100fd6000396000f3fe608060405234801561001057600080fd5b50600436106100d45760003560e01c8063715018a6116100815780638da5cb5b1161005b5780638da5cb5b146101d2578063f2fde38b146101f0578063fc7ebc3a1461020357600080fd5b8063715018a614610194578063784923c51461019c5780638456cb59146101ca57600080fd5b80633f4ba83a116100b25780633f4ba83a1461014b5780634b36df53146101535780635c975abb1461016657600080fd5b8063080387b4146100d95780630a19d4b5146101235780631779799514610138575b600080fd5b6002546100f99073ffffffffffffffffffffffffffffffffffffffff1681565b60405173ffffffffffffffffffffffffffffffffffffffff90911681526020015b60405180910390f35b61013661013136600461158c565b610239565b005b61013661014636600461168b565b6108c5565b610136610abc565b6101366101613660046116c4565b610ace565b60005474010000000000000000000000000000000000000000900460ff16604051901515815260200161011a565b610136610c10565b6101bc6101aa3660046116c4565b60036020526000908152604090205481565b60405190815260200161011a565b610136610c22565b60005473ffffffffffffffffffffffffffffffffffffffff166100f9565b6101366101fe3660046116c4565b610c32565b6100f96102113660046116c4565b60046020526000908152604090205473ffffffffffffffffffffffffffffffffffffffff1681565b610241610ce9565b610249610d6e565b73ffffffffffffffffffffffffffffffffffffffff85166102f1576040517f08c379a000000000000000000000000000000000000000000000000000000000815260206004820152602e60248201527f4865726f506f696e7473526564656d7074696f6e3a20496e76616c696420636f60448201527f6e7472616374206164647265737300000000000000000000000000000000000060648201526084015b60405180910390fd5b6102fe8585858585610de1565b73ffffffffffffffffffffffffffffffffffffffff8581166000818152600460208190526040918290205491517f01ffc9a70000000000000000000000000000000000000000000000000000000081527f80ac58cd000000000000000000000000000000000000000000000000000000009181019190915233939190911691906301ffc9a790602401602060405180830381865afa1580156103a4573d6000803e3d6000fd5b505050506040513d601f19601f820116820180604052508101906103c891906116e8565b15610599576040517f6352211e0000000000000000000000000000000000000000000000000000000081526004810187905273ffffffffffffffffffffffffffffffffffffffff8083169190891690636352211e90602401602060405180830381865afa15801561043d573d6000803e3d6000fd5b505050506040513d601f19601f82011682018060405250810190610461919061170a565b73ffffffffffffffffffffffffffffffffffffffff1614610504576040517f08c379a000000000000000000000000000000000000000000000000000000000815260206004820152603360248201527f4865726f506f696e7473526564656d7074696f6e3a20686f6c646572206e6f7460448201527f20746865206f776e6572206f6620746f6b656e0000000000000000000000000060648201526084016102e8565b6040517f42842e0e00000000000000000000000000000000000000000000000000000000815273ffffffffffffffffffffffffffffffffffffffff82811660048301528381166024830152604482018890528816906342842e0e90606401600060405180830381600087803b15801561057c57600080fd5b505af1158015610590573d6000803e3d6000fd5b50505050610842565b6040517f01ffc9a70000000000000000000000000000000000000000000000000000000081527fd9b67a2600000000000000000000000000000000000000000000000000000000600482015273ffffffffffffffffffffffffffffffffffffffff8816906301ffc9a790602401602060405180830381865afa158015610623573d6000803e3d6000fd5b505050506040513d601f19601f8201168201806040525081019061064791906116e8565b15610842576040517efdd58e00000000000000000000000000000000000000000000000000000000815273ffffffffffffffffffffffffffffffffffffffff82811660048301526024820188905285919089169062fdd58e906044016020604051808303816000875af11580156106c2573d6000803e3d6000fd5b505050506040513d601f19601f820116820180604052508101906106e69190611727565b1015610774576040517f08c379a000000000000000000000000000000000000000000000000000000000815260206004820152603660248201527f4865726f506f696e7473526564656d7074696f6e3a20686f6c64657220646f6560448201527f736e2774206861766520656e6f75676820746f6b656e0000000000000000000060648201526084016102e8565b6040517ff242432a00000000000000000000000000000000000000000000000000000000815273ffffffffffffffffffffffffffffffffffffffff8281166004808401919091528482166024840152604483018990526064830187905260a0608484015260a48301527f307830300000000000000000000000000000000000000000000000000000000060c483015288169063f242432a9060e401600060405180830381600087803b15801561082957600080fd5b505af115801561083d573d6000803e3d6000fd5b505050505b84868873ffffffffffffffffffffffffffffffffffffffff167f0b723522cf91676ec5c957efab5cd7f7351e33140b8b65ba9ce2fc9ab395fd5087866040516108ab92919091825273ffffffffffffffffffffffffffffffffffffffff16602082015260400190565b60405180910390a450506108be60018055565b5050505050565b6108cd610f8a565b73ffffffffffffffffffffffffffffffffffffffff8216610970576040517f08c379a000000000000000000000000000000000000000000000000000000000815260206004820152602e60248201527f4865726f506f696e7473526564656d7074696f6e3a20496e76616c696420636f60448201527f6e7472616374206164647265737300000000000000000000000000000000000060648201526084016102e8565b73ffffffffffffffffffffffffffffffffffffffff8116610a12576040517f08c379a0000000000000000000000000000000000000000000000000000000008152602060048201526024808201527f4865726f506f696e7473526564656d7074696f6e3a20496e76616c696420686f60448201527f6c6465720000000000000000000000000000000000000000000000000000000060648201526084016102e8565b73ffffffffffffffffffffffffffffffffffffffff828116600081815260046020526040808220549051848616949190911692917f95c05b80cfa9a54ae4b88a91c2ef73da1ff001a8244f2d338a53e6c742e3552391a473ffffffffffffffffffffffffffffffffffffffff918216600090815260046020526040902080547fffffffffffffffffffffffff00000000000000000000000000000000000000001691909216179055565b610ac4610f8a565b610acc61100b565b565b610ad6610f8a565b73ffffffffffffffffffffffffffffffffffffffff8116610b78576040517f08c379a0000000000000000000000000000000000000000000000000000000008152602060048201526024808201527f4865726f506f696e7473526564656d7074696f6e3a20496e76616c696420736960448201527f676e65720000000000000000000000000000000000000000000000000000000060648201526084016102e8565b60025460405173ffffffffffffffffffffffffffffffffffffffff8381168252909116907f0abc776f57447758c13f85d29f9092f0bc092e1752ac64a996c99dec31d1954f9060200160405180910390a2600280547fffffffffffffffffffffffff00000000000000000000000000000000000000001673ffffffffffffffffffffffffffffffffffffffff92909216919091179055565b610c18610f8a565b610acc6000611088565b610c2a610f8a565b610acc6110fd565b610c3a610f8a565b73ffffffffffffffffffffffffffffffffffffffff8116610cdd576040517f08c379a000000000000000000000000000000000000000000000000000000000815260206004820152602660248201527f4f776e61626c653a206e6577206f776e657220697320746865207a65726f206160448201527f646472657373000000000000000000000000000000000000000000000000000060648201526084016102e8565b610ce681611088565b50565b60005474010000000000000000000000000000000000000000900460ff1615610acc576040517f08c379a000000000000000000000000000000000000000000000000000000000815260206004820152601060248201527f5061757361626c653a207061757365640000000000000000000000000000000060448201526064016102e8565b600260015403610dda576040517f08c379a000000000000000000000000000000000000000000000000000000000815260206004820152601f60248201527f5265656e7472616e637947756172643a207265656e7472616e742063616c6c0060448201526064016102e8565b6002600155565b336000818152600360209081526040918290205482517fffffffffffffffffffffffffffffffffffffffff000000000000000000000000606095861b811682850152948a901b909416603485015260488401889052606884018790526088840186905260a88085018290528351808603909101815260c8850184528051908301206002547f19457468657265756d205369676e6564204d6573736167653a0a33320000000060e88701526101048087018390528551808803909101815261012490960190945284519490920193909320909173ffffffffffffffffffffffffffffffffffffffff1690610ed4908561116c565b73ffffffffffffffffffffffffffffffffffffffff1614610f77576040517f08c379a000000000000000000000000000000000000000000000000000000000815260206004820152603360248201527f4865726f506f696e7473526564656d7074696f6e3a205369676e61747572652060448201527f766572696669636174696f6e206661696c65640000000000000000000000000060648201526084016102e8565b610f8033611190565b5050505050505050565b60005473ffffffffffffffffffffffffffffffffffffffff163314610acc576040517f08c379a000000000000000000000000000000000000000000000000000000000815260206004820181905260248201527f4f776e61626c653a2063616c6c6572206973206e6f7420746865206f776e657260448201526064016102e8565b6110136111d0565b600080547fffffffffffffffffffffff00ffffffffffffffffffffffffffffffffffffffff1690557f5db9ee0a495bf2e6ff9c91a7834c1ba4fdd244a5e8aa4e537bd38aeae4b073aa335b60405173ffffffffffffffffffffffffffffffffffffffff909116815260200160405180910390a1565b6000805473ffffffffffffffffffffffffffffffffffffffff8381167fffffffffffffffffffffffff0000000000000000000000000000000000000000831681178455604051919092169283917f8be0079c531659141344cd1fd0a4f28419497f9722a3daafe3b4186f6b6457e09190a35050565b611105610ce9565b600080547fffffffffffffffffffffff00ffffffffffffffffffffffffffffffffffffffff16740100000000000000000000000000000000000000001790557f62e78cea01bee320cd4e420270b5ea74000d11b0c9f74754ebdbfc544b05a25861105e3390565b600080600061117b8585611254565b9150915061118881611299565b509392505050565b73ffffffffffffffffffffffffffffffffffffffff811660009081526003602052604081208054908190836111c483611740565b90915550909392505050565b60005474010000000000000000000000000000000000000000900460ff16610acc576040517f08c379a000000000000000000000000000000000000000000000000000000000815260206004820152601460248201527f5061757361626c653a206e6f742070617573656400000000000000000000000060448201526064016102e8565b600080825160410361128a5760208301516040840151606085015160001a61127e8782858561144c565b94509450505050611292565b506000905060025b9250929050565b60008160048111156112ad576112ad61179f565b036112b55750565b60018160048111156112c9576112c961179f565b03611330576040517f08c379a000000000000000000000000000000000000000000000000000000000815260206004820152601860248201527f45434453413a20696e76616c6964207369676e6174757265000000000000000060448201526064016102e8565b60028160048111156113445761134461179f565b036113ab576040517f08c379a000000000000000000000000000000000000000000000000000000000815260206004820152601f60248201527f45434453413a20696e76616c6964207369676e6174757265206c656e6774680060448201526064016102e8565b60038160048111156113bf576113bf61179f565b03610ce6576040517f08c379a000000000000000000000000000000000000000000000000000000000815260206004820152602260248201527f45434453413a20696e76616c6964207369676e6174757265202773272076616c60448201527f756500000000000000000000000000000000000000000000000000000000000060648201526084016102e8565b6000807f7fffffffffffffffffffffffffffffff5d576e7357a4501ddfe92f46681b20a08311156114835750600090506003611532565b6040805160008082526020820180845289905260ff881692820192909252606081018690526080810185905260019060a0016020604051602081039080840390855afa1580156114d7573d6000803e3d6000fd5b50506040517fffffffffffffffffffffffffffffffffffffffffffffffffffffffffffffffe0015191505073ffffffffffffffffffffffffffffffffffffffff811661152b57600060019250925050611532565b9150600090505b94509492505050565b73ffffffffffffffffffffffffffffffffffffffff81168114610ce657600080fd5b7f4e487b7100000000000000000000000000000000000000000000000000000000600052604160045260246000fd5b600080600080600060a086880312156115a457600080fd5b85356115af8161153b565b9450602086013593506040860135925060608601359150608086013567ffffffffffffffff808211156115e157600080fd5b818801915088601f8301126115f557600080fd5b8135818111156116075761160761155d565b604051601f82017fffffffffffffffffffffffffffffffffffffffffffffffffffffffffffffffe0908116603f0116810190838211818310171561164d5761164d61155d565b816040528281528b602084870101111561166657600080fd5b8260208601602083013760006020848301015280955050505050509295509295909350565b6000806040838503121561169e57600080fd5b82356116a98161153b565b915060208301356116b98161153b565b809150509250929050565b6000602082840312156116d657600080fd5b81356116e18161153b565b9392505050565b6000602082840312156116fa57600080fd5b815180151581146116e157600080fd5b60006020828403121561171c57600080fd5b81516116e18161153b565b60006020828403121561173957600080fd5b5051919050565b60007fffffffffffffffffffffffffffffffffffffffffffffffffffffffffffffffff8203611798577f4e487b7100000000000000000000000000000000000000000000000000000000600052601160045260246000fd5b5060010190565b7f4e487b7100000000000000000000000000000000000000000000000000000000600052602160045260246000fdfea26469706673582212209b80a6012e8d09f447616c4cf08d3cd4370a0047368edf3d7146974edacbf8aa64736f6c63430008110033",
  "devdoc": {
    "events": {
      "NFTReedemed(address,uint256,uint256,uint256,address)": {
        "params": {
          "contractAddress": "Contract address to redeem NFT Token of",
          "eventId": "Event ID/Name of the running event",
          "nftId": "Token ID of contract address to redeem",
          "quantity": "Number of hero points to use",
          "redeemer": "Wallet address who redeems the token"
        }
      },
      "SetNewHolderToNFT(address,address,address)": {
        "params": {
          "contractAddress": "Contract address to token holder address",
          "newHolder": "New Address that holds the token of the contract",
          "previousHolder": "Previous Address that holds the token of the contract"
        }
      },
      "SetNewMessageSigner(address,address)": {
        "params": {
          "newSigner": "New Address that signs the message for valid signature",
          "previousSigner": "Previous Address that signs the message for valid signature"
        }
      }
    },
    "kind": "dev",
    "methods": {
      "constructor": {
        "details": "Sets the values for {messageSigner}.",
        "params": {
          "_messageSigner": "address that is used to sign message from backend"
        }
      },
      "owner()": {
        "details": "Returns the address of the current owner."
      },
      "pause()": {
        "details": "Pauses contract for actions. Requirements: - The caller of this function can only be owner. - The contract must not be paused"
      },
      "paused()": {
        "details": "Returns true if the contract is paused, and false otherwise."
      },
      "redeemHeroPoints(address,uint256,uint256,uint256,bytes)": {
        "details": "Function to redeem hero points.{NFTReedemed} event. Requirements: - `_contractAddress` cannot be the zero address.",
        "params": {
          "_contractAddress": "Contract address to redeem NFT Token of",
          "_eventId": "Event ID/Name of the running event",
          "_nftId": "Token ID of contract address to redeem",
          "_quantity": "Number of hero points to use",
          "_signature": "Server generated signature for redemption of NFT token"
        }
      },
      "renounceOwnership()": {
        "details": "Leaves the contract without owner. It will not be possible to call `onlyOwner` functions anymore. Can only be called by the current owner. NOTE: Renouncing ownership will leave the contract without an owner, thereby removing any functionality that is only available to the owner."
      },
      "setHolderToNFT(address,address)": {
        "details": "Sets `holder address` for  `nft address`.{SetNewHolderToNFT} event. Requirements: - `_contractAddress` cannot be the zero address. - `_holder` cannot be the zero address."
      },
      "setMessageSigner(address)": {
        "details": "Sets `signer` that will be used for signing message from backend .{SetNewMessageSigner} event. Requirements: - `_newSigner` cannot be the zero address."
      },
      "transferOwnership(address)": {
        "details": "Transfers ownership of the contract to a new account (`newOwner`). Can only be called by the current owner."
      },
      "unpause()": {
        "details": "Unpause the contract for normal activity. Requirements: - The caller of this function can only be owner. - The contract must be paused"
      }
    },
    "title": "@notice This contract is a smart contract that implements the functionalities for redeeming NFT tokens (ERC721 & ERC1155) using hero points. Imports - The contract imports IERC721.sol and IERC1155.sol interfaces which provide the standard functions for ERC721 and ERC1155 tokens. - Ownable.sol contract is used to implement access control functionalities. - Pausable.sol contract is used to implement pausability of contract operations. - ReentrancyGuard.sol contract is used to prevent reentrant calls. - ECDSA.sol contract is used to perform cryptographic operations.",
    "version": 1
  },
  "userdoc": {
    "events": {
      "NFTReedemed(address,uint256,uint256,uint256,address)": {
        "notice": "Emitted when NFT is redeemed from system"
      },
      "SetNewHolderToNFT(address,address,address)": {
        "notice": "Emitted when setting new holder of the contract address for redemption"
      },
      "SetNewMessageSigner(address,address)": {
        "notice": "Emitted when New Signer address is set for redemption"
      }
    },
    "kind": "user",
    "methods": {
      "constructor": {
        "notice": "The value is mutable: it can be set by the owner (deployer) of the contract"
      },
      "redeemHeroPoints(address,uint256,uint256,uint256,bytes)": {
        "notice": "This function will be executed if the signature is verified after the signature verification token will be  redeemed from tokenHolder address to redeemer address."
      },
      "setHolderToNFT(address,address)": {
        "notice": "This protected function which can only be called by the owner of the contract to set the holder address for the token (ERC1155/ERC721) address which can be redeemed"
      },
      "setMessageSigner(address)": {
        "notice": "This protected function which can only be called by the owner of the contract to set the new signer"
      }
    },
    "version": 1
  },
  "storageLayout": {
    "storage": [
      {
        "astId": 3689,
        "contract": "contracts/heropoints/NFTRedeemption/HeroPointsRedeem.sol:HeroPointsERC1155Redemption",
        "label": "_owner",
        "offset": 0,
        "slot": "0",
        "type": "t_address"
      },
      {
        "astId": 3812,
        "contract": "contracts/heropoints/NFTRedeemption/HeroPointsRedeem.sol:HeroPointsERC1155Redemption",
        "label": "_paused",
        "offset": 20,
        "slot": "0",
        "type": "t_bool"
      },
      {
        "astId": 3913,
        "contract": "contracts/heropoints/NFTRedeemption/HeroPointsRedeem.sol:HeroPointsERC1155Redemption",
        "label": "_status",
        "offset": 0,
        "slot": "1",
        "type": "t_uint256"
      },
      {
        "astId": 9468,
        "contract": "contracts/heropoints/NFTRedeemption/HeroPointsRedeem.sol:HeroPointsERC1155Redemption",
        "label": "messageSigner",
        "offset": 0,
        "slot": "2",
        "type": "t_address"
      },
      {
        "astId": 9472,
        "contract": "contracts/heropoints/NFTRedeemption/HeroPointsRedeem.sol:HeroPointsERC1155Redemption",
        "label": "seedNonce",
        "offset": 0,
        "slot": "3",
        "type": "t_mapping(t_address,t_uint256)"
      },
      {
        "astId": 9476,
        "contract": "contracts/heropoints/NFTRedeemption/HeroPointsRedeem.sol:HeroPointsERC1155Redemption",
        "label": "tokenHolder",
        "offset": 0,
        "slot": "4",
        "type": "t_mapping(t_address,t_address)"
      }
    ],
    "types": {
      "t_address": {
        "encoding": "inplace",
        "label": "address",
        "numberOfBytes": "20"
      },
      "t_bool": {
        "encoding": "inplace",
        "label": "bool",
        "numberOfBytes": "1"
      },
      "t_mapping(t_address,t_address)": {
        "encoding": "mapping",
        "key": "t_address",
        "label": "mapping(address => address)",
        "numberOfBytes": "32",
        "value": "t_address"
      },
      "t_mapping(t_address,t_uint256)": {
        "encoding": "mapping",
        "key": "t_address",
        "label": "mapping(address => uint256)",
        "numberOfBytes": "32",
        "value": "t_uint256"
      },
      "t_uint256": {
        "encoding": "inplace",
        "label": "uint256",
        "numberOfBytes": "32"
      }
    }
  }
}